:020000040800F2
:100000000000022035210008D91E0008E11E00086A
:10001000E91E0008F11E0008F91E0008000000009B
:10002000000000000000000000000000011F0008A8
:100030000F1F0008000000001D1F00082B1F0008F4
:1000400085210008852100088521000885210008F8
:1000500085210008852100088521000885210008E8
:1000600085210008852100088521000885210008D8
:1000700085210008852100088521000885210008C8
:1000800085210008852100088521000885210008B8
:1000900085210008852100088521000885210008A8
:1000A000852100088521000885210008391F0008E6
:1000B0004D1F0008852100088521000885210008C2
:1000C0008521000885210008852100088521000878
:1000D0008521000885210008852100088521000868
:1000E000611F00088521000885210008852100087E
:1000F0008521000885210008852100088521000848
:100100008521000885210008711F0008852100084D
:100110008521000885210008852100088521000827
:100120008521000885210008852100088521000817
:100130008521000885210008852100088521000807
:1001400085210008852100088521000885210008F7
:1001500085210008852100088521000885210008E7
:1001600085210008852100088521000885210008D7
:100170008521000885210008852100080000000075
:0801800085210008852100081B
:1001900010B5054C237833B9044B13B10448AFF3C1
:1001A00000800123237010BDF40100200000000036
:1001B00020F0000808B5034B1BB103490348AFF317
:1001C000008008BD00000000F801002020F00008B9
:1001D00001F0FF01102A2BDB10F0070F08D010F8F8
:1001E000013B013A8B422DD010F0070F42B3F6D1FC
:1001F000F0B441EA012141EA014122F007047FF015
:1002000000070023F0E80256083C85EA010586EA6B
:10021000010685FA47F5A3FA87F586FA47F6A5FAA7
:1002200087F68EB9EED1F0BC01F0FF0102F00702B3
:1002300032B110F8013B013A83EA010313B1F8D15E
:100240000020704701387047002D06BF354603383F
:10025000073815F0010F07D1013015F4807F02BF78
:10026000013015F4C03F0130F0BC0138704700BFC9
:10027000034613F8012B002AFBD1181A01387047E6
:1002800081F0004102E000BF83F0004330B54FEA47
:1002900041044FEA430594EA050F08BF90EA020FB4
:1002A0001FBF54EA000C55EA020C7FEA645C7FEA47
:1002B000655C00F0E2804FEA5454D4EB5555B8BF6A
:1002C0006D420CDD2C4480EA020281EA030382EADB
:1002D000000083EA010180EA020281EA0303362D6D
:1002E00088BF30BD11F0004F4FEA01314FF4801C40
:1002F0004CEA113102D0404261EB410113F0004F52
:100300004FEA03334CEA133302D0524263EB430308
:1003100094EA050F00F0A780A4F10104D5F1200EA6
:100320000DDB02FA0EFC22FA05F2801841F1000101
:1003300003FA0EF2801843FA05F359410EE0A5F1D5
:1003400020050EF1200E012A03FA0EFC28BF4CF006
:10035000020C43FA05F3C01851EBE37101F00045BC
:1003600007D54FF0000EDCF1000C7EEB00006EEBC9
:100370000101B1F5801F1BD3B1F5001F0CD3490853
:100380005FEA30004FEA3C0C04F101044FEA4452AA
:1003900012F5800F80F09A80BCF1004F08BF5FEA31
:1003A000500C50F1000041EB045141EA050130BD11
:1003B0005FEA4C0C404141EB0101013C28BFB1F523
:1003C000801FE9D291F0000F04BF01460020B1FA6E
:1003D00081F308BF2033A3F10B03B3F120020CDA41
:1003E0000C3208DD02F1140CC2F10C0201FA0CF01F
:1003F00021FA02F10CE002F11402D8BFC2F1200C84
:1004000001FA02F120FA0CFCDCBF41EA0C01904039
:10041000E41AA2BF01EB0451294330BD6FEA040482
:100420001F3C1CDA0C340EDC04F11404C4F120026D
:1004300020FA04F001FA02F340EA030021FA04F37F
:1004400045EA030130BDC4F10C04C4F1200220FAD6
:1004500002F001FA04F340EA0300294630BD21FA14
:1004600004F0294630BD94F0000F83F4801306BFDA
:1004700081F480110134013D4EE77FEA645C18BFCE
:100480007FEA655C29D094EA050F08BF90EA020F65
:1004900005D054EA000C04BF1946104630BD91EA5D
:1004A000030F1EBF0021002030BD5FEA545C05D160
:1004B0004000494128BF41F0004130BD14F580049F
:1004C0003CBF01F5801130BD01F0004545F0FE4113
:1004D00041F470014FF0000030BD7FEA645C1ABF48
:1004E000194610467FEA655C1CBF0B46024650EA7F
:1004F000013406BF52EA033591EA030F41F40021AB
:1005000030BD00BF90F0000F04BF0021704730B530
:100510004FF4806404F132044FF000054FF0000105
:1005200050E700BF90F0000F04BF0021704730B5C6
:100530004FF4806404F1320410F0004548BF40429B
:100540004FF000013EE700BF42004FEAE2014FEAF0
:1005500031014FEA02701FBF12F07F4393F07F4FCB
:1005600081F06051704732F07F4208BF704793F0CE
:100570007F4F04BF41F40021704730B54FF46074E1
:1005800001F0004521F000411CE700BF50EA0102E4
:1005900008BF704730B54FF000050AE050EA01028D
:1005A00008BF704730B511F0004502D5404261EBFD
:1005B00041014FF4806404F132045FEA915C3FF43E
:1005C000D8AE4FF003025FEADC0C18BF03325FEADB
:1005D000DC0C18BF033202EBDC02C2F1200300FA8C
:1005E00003FC20FA02F001FA03FE40EA0E0021FAB1
:1005F00002F11444BDE600BF70B54FF0FF0C4CF49F
:10060000E06C1CEA11541DBF1CEA135594EA0C0F50
:1006100095EA0C0F00F0DEF82C4481EA030621EA8B
:100620004C5123EA4C5350EA013518BF52EA0335C6
:1006300041F4801143F4801338D0A0FB02CE4FF078
:100640000005E1FB02E506F00042E0FB03E54FF0A8
:100650000006E1FB03569CF0000F18BF4EF0010EA0
:10066000A4F1FF04B6F5007F64F5407404D25FEA9C
:100670004E0E6D4146EB060642EAC62141EA55514F
:100680004FEAC52040EA5E504FEACE2EB4F1FD0C91
:1006900088BFBCF5E06F1ED8BEF1004F08BF5FEA0F
:1006A000500E50F1000041EB045170BD06F00046C1
:1006B00046EA010140EA020081EA0301B4EB5C046E
:1006C000C2BFD4EB0C0541EA045170BD41F4801166
:1006D0004FF0000E013C00F3AB8014F1360FDEBF8B
:1006E000002001F0004170BDC4F10004203C35DA67
:1006F0000C341BDC04F11404C4F1200500FA05F3EA
:1007000020FA04F001FA05F240EA020001F000428A
:1007100021F0004110EBD37021FA04F642EB060100
:100720005EEA430E08BF20EAD37070BDC4F10C042A
:10073000C4F1200500FA04F320FA05F001FA04F2EE
:1007400040EA020001F0004110EBD37041F10001DA
:100750005EEA430E08BF20EAD37070BDC4F12005E5
:1007600000FA05F24EEA020E20FA04F301FA05F24D
:1007700043EA020321FA04F001F0004121FA04F2F5
:1007800020EA020000EBD3705EEA430E08BF20EAC5
:10079000D37070BD94F0000F0FD101F000464000FF
:1007A00041EB010111F4801F08BF013CF7D041EA81
:1007B000060195F0000F18BF704703F00046520085
:1007C00043EB030313F4801F08BF013DF7D043EA56
:1007D0000603704794EA0C0F0CEA135518BF95EA0C
:1007E0000C0F0CD050EA410618BF52EA4306D1D193
:1007F00081EA030101F000414FF0000070BD50EAB2
:10080000410606BF1046194652EA430619D094EA3B
:100810000C0F02D150EA013613D195EA0C0F05D125
:1008200052EA03361CBF104619460AD181EA030179
:1008300001F0004141F0FE4141F470014FF0000031
:1008400070BD41F0FE4141F4780170BD70B54FF0CC
:10085000FF0C4CF4E06C1CEA11541DBF1CEA13554C
:1008600094EA0C0F95EA0C0F00F0A7F8A4EB05042E
:1008700081EA030E52EA03354FEA013100F0888025
:100880004FEA03334FF0805545EA131343EA1263EE
:100890004FEA022245EA111545EA10654FEA0026A3
:1008A0000EF000419D4208BF964244F1FD0404F55C
:1008B000407402D25B084FEA3202B61A65EB0305B8
:1008C0005B084FEA32024FF480104FF4002CB6EB75
:1008D000020E75EB030E22BFB61A754640EA0C00F5
:1008E0005B084FEA3202B6EB020E75EB030E22BF35
:1008F000B61A754640EA5C005B084FEA3202B6EB76
:10090000020E75EB030E22BFB61A754640EA9C0034
:100910005B084FEA3202B6EB020E75EB030E22BF04
:10092000B61A754640EADC0055EA060E18D04FEAC2
:10093000051545EA16754FEA06164FEAC30343EA62
:1009400052734FEAC2025FEA1C1CC0D111F4801F2F
:100950000BD141EA00014FF000004FF0004CB6E728
:1009600011F4801F04BF01430020B4F1FD0C88BFC7
:10097000BCF5E06F3FF6AFAEB5EB030C04BFB6EBD2
:10098000020C5FEA500C50F1000041EB045170BDC5
:100990000EF0004E4EEA113114EB5C04C2BFD4EBF2
:1009A0000C0541EA045170BD41F480114FF0000E76
:1009B000013C90E645EA060E8DE60CEA135594EAF2
:1009C0000C0F08BF95EA0C0F3FF43BAF94EA0C0FF5
:1009D0000AD150EA01347FF434AF95EA0C0F7FF46A
:1009E00025AF104619462CE795EA0C0F06D152EABE
:1009F00003353FF4FDAE1046194622E750EA4106A2
:100A000018BF52EA43067FF4C5AE50EA41047FF4B2
:100A10000DAF52EA43057FF4EBAE12E74FF0FF3C17
:100A200006E000BF4FF0010C02E000BF4FF0010CE8
:100A30004DF804CD4FEA410C7FEA6C5C4FEA430C61
:100A400018BF7FEA6C5C1BD001B050EA410C0CBFB0
:100A500052EA430C91EA030F02BF90EA020F002012
:100A6000704710F1000F91EA030F58BF994208BF79
:100A700090422CBFD8176FEAE37040F00100704736
:100A80004FEA410C7FEA6C5C02D150EA013C07D18D
:100A90004FEA430C7FEA6C5CD6D152EA033CD3D0D8
:100AA0005DF8040B704700BF8446104662468C46D2
:100AB0001946634600E000BF01B5FFF7B7FF002805
:100AC00048BF10F1000F01BD4DF808EDFFF7F4FF2E
:100AD0000CBF012000205DF808FB00BF4DF808EDB9
:100AE000FFF7EAFF34BF012000205DF808FB00BFDC
:100AF0004DF808EDFFF7E0FF94BF012000205DF8FE
:100B000008FB00BF4DF808EDFFF7CEFF94BF0120B2
:100B100000205DF808FB00BF4DF808EDFFF7C4FFAB
:100B200034BF012000205DF808FB00BF4FEA410CF4
:100B30007FEA6C5C02D150EA013C0AD14FEA430CD7
:100B40007FEA6C5C02D152EA033C02D14FF0000014
:100B500070474FF0010070474FEA410212F5001252
:100B600015D211D56FF47873B3EB625212D94FEAF4
:100B7000C12343F0004343EA505311F0004F23FADE
:100B800002F018BF404270474FF00000704750EA33
:100B9000013005D111F0004008BF6FF000407047F0
:100BA0004FF00000704700BF4A0011D212F500124A
:100BB00011D20DD56FF47873B3EB62520ED44FEAB5
:100BC000C12343F0004343EA505323FA02F0704735
:100BD0004FF00000704750EA013002D14FF0FF3073
:100BE00070474FF0000070474FEA4102B2F1E04316
:100BF00024BFB3F5001CDCF1FE5C0DD901F0004C04
:100C00004FEAC0024CEA5070B2F1004F40EB830053
:100C100008BF20F00100704711F0804F21D113F17F
:100C20003872BCBF01F00040704741F480114FEAB8
:100C30005252C2F11802C2F1200C10FA0CF320FA41
:100C400002F018BF40F001004FEAC1234FEAD3235E
:100C500003FA0CFC40EA0C0023FA02F34FEA4303C8
:100C6000CCE77FEA625307D150EA01331EBF4FF051
:100C7000FE4040F44000704701F0004040F0FE406C
:100C800040F40000704700BF53B94AB9002908BFBB
:100C900000281CBF4FF0FF314FF0FF3000F0BEB90D
:100CA000ADF1080C6DE904CE00F03CF8DDF804E08D
:100CB000DDE9022304B0704738B500220023044662
:100CC0000D46FFF70BFF28B920462946BDE83840FE
:100CD00000F00AB8204605F1004100F005F8404256
:100CE00061EB410138BD00BFD0B50C4B0022064678
:100CF0000F46FFF781FCFFF757FF0446FFF702FCA2
:100D0000074B0022FFF778FC02460B463046394677
:100D1000FFF7BAFAFFF748FF2146D0BD0000F03DCB
:100D20000000F0412DE9F047089D8E4604468846B4
:100D3000002B4AD18A42174662D9B2FA82F64EB1E6
:100D4000C6F1200301FA06F820FA03F3B74043EA9C
:100D50000808B4404FEA174E1FFA87FCB8FBFEF1B3
:100D6000230C0EFB118843EA084301FB0CF29A4264
:100D700009D9FB1801F1FF3080F0EA809A4240F275
:100D8000E78002393B449A1AA3B2B2FBFEF00EFB95
:100D9000102243EA024300FB0CFC9C4509D9FB18D6
:100DA00000F1FF3280F0D6809C4540F2D3803B4476
:100DB000023840EA0140A3EB0C0300211DB1F340CF
:100DC0000022C5E90032BDE8F0878B4205D90DB19C
:100DD000C5E9000100210846F5E7B3FA83F10029CF
:100DE00046D1734502D3824200F20581841A6EEB2C
:100DF000030201209046002DE5D0C5E90048E2E756
:100E0000002A00F09080B2FA82F6002E40F0A48012
:100E10008A1A030C4FEA174E80B2BCB20121B2FB12
:100E2000FEFC0EFB1C2243EA024304FB0CF29A4236
:100E300007D9FB180CF1FF3802D29A4200F2E08089
:100E4000C4469B1AB3FBFEF20EFB123340EA034387
:100E500002FB04F49C4207D9FB1802F1FF3002D2D6
:100E60009C4200F2CA8002461B1B42EA0C40A5E7E6
:100E7000C1F120068B4022FA06F71F430EFA01F457
:100E800020FA06F32EFA06FE4FEA1749234300FA2A
:100E900001F81FFA87FCBEFBF9F01C0C09FB10EEF1
:100EA00044EA0E4400FB0CFEA64502FA01F209D901
:100EB0003C1900F1FF3A80F09C80A64540F29980F1
:100EC00002383C44A4EB0E041FFA83FEB4FBF9F392
:100ED00009FB13444EEA044403FB0CFCA44508D967
:100EE0003C1903F1FF3E80F08280A4457FD9023B8C
:100EF0003C4443EA0040A4EB0C04A0FB02EC644534
:100F00007346E14662D35FD05DB1B8EB030264EB98
:100F1000090404FA06F622FA01F31E43CC40C5E99F
:100F2000006400214FE7B1FBF2FC010C41EA0E41E5
:100F300080B240EA01423B4638463C46B846BE468F
:100F40002026B1FBF7F1A2EB080241EA0C4166E76B
:100F5000014618E710462CE7C6F120022EFA02F3EC
:100F6000B740B14020FA02F24FEA174E0A43B3FBF2
:100F7000FEF8BCB20EFB1833110C41EA034108FB2A
:100F800004F9B04089454FEA104380B23ED9791840
:100F900008F1FF3C01D289451FD8A1EB0901B1FB43
:100FA000FEF909FB04F80EFB191192B242EA014264
:100FB000424529D2BA1809F1FF31C4D24245C2D202
:100FC000A9F102013A44BEE7F0459DD2BEEB02030F
:100FD0006CEB070C0138E14696E7A7EB0909494499
:100FE000A8F1020CB1FBFEF909FB04F8DBE773463C
:100FF0007FE7504666E70846FDE63B44023A33E7A2
:10100000ACF1020C3B441CE749469CE7A1EB09010B
:10101000C446B1FBFEF909FB04F8C4E7704700BF02
:1010200080B582B000AF01F0AFF800F067F800F0D3
:1010300007FC00F0D3FA00F069FB00F0F7F800F0CD
:10104000E7F900F0D3FB00F04DF900F0C1F800F033
:101050004FFA00F019F908F035FB1F4B93ED067AB3
:101060001E4BD3ED067A77EE277AB6EE007A67EE5E
:10107000877AC7ED017A1A4B1B78002B13D1194BD5
:10108000194A1A60D7ED017AB7EE007AF4EEC77A02
:10109000F1EE10FA1FDD9FED150A06F0F3FB104B81
:1010A00001221A70D9E70E4B1B78012BD5D1104BBA
:1010B00093F82C30002BD0D0074B4FF000029A61F0
:1010C000064B4FF000029A610A4B1B680A4A1360F4
:1010D000034B00221A70C0E7A4050020C4050020BD
:1010E000D8040020C00400209A99193E0000B442A0
:1010F0006C05002034140020D404002080B594B086
:1011000000AF07F1200330220021184609F031FE1C
:1011100007F10C0300221A605A609A60DA601A61C3
:101120000023BB60284B1B6C274A43F08053136499
:10113000254B1B6C03F08053BB60BB6800237B60B6
:10114000224B1B68214A43F4804313601F4B1B68EA
:1011500003F480437B607B6801233B624FF4803360
:101160007B620223BB634FF48003FB6304233B6475
:10117000A8237B640223BB640423FB6407F12003E0
:10118000184602F09BFB0346002B01D000F002FC46
:101190000F23FB6002233B6100237B614FF4A053CC
:1011A000BB614FF48053FB6107F10C030521184626
:1011B00002F0FCFD0346002B01D000F0EBFB00BF6A
:1011C0005037BD4680BD00BF00380240007000406F
:1011D00080B500AF124B134A1A60114B124A5A6085
:1011E0000F4B00229A600E4B0022DA600C4B4FF43A
:1011F00080421A610A4B00225A61094B00229A610F
:10120000074B0022DA61064B00221A62044801F003
:1012100031FB0346002B01D000F0BCFB00BF80BDBA
:101220001002002000540040A086010080B500AFED
:10123000124B134A1A60114B124A5A600F4B00228C
:101240009A600E4B0022DA600C4B4FF480421A6118
:101250000A4B00225A61094B00229A61074B002277
:10126000DA61064B00221A62044801F003FB0346D0
:10127000002B01D000F08EFB00BF80BD6402002077
:1012800000580040A086010080B500AF124B134A01
:101290001A60114B124A5A600F4B00229A600E4B93
:1012A0000022DA600C4B4FF480421A610A4B002294
:1012B0005A61094B00229A61074B0022DA61064B02
:1012C00000221A62044801F0D5FA0346002B01D02F
:1012D00000F060FB00BF80BDB8020020005C004051
:1012E000A086010080B58AB000AF07F11803002284
:1012F0001A605A609A60DA6007F1100300221A60DF
:101300005A603B4600221A605A609A60DA603E4B8F
:101310003E4A1A603C4BA7225A603B4B00229A601F
:10132000394B4FF6FF72DA60374B00221A61364BA9
:1013300000225A61344B00229A61334802F056FF72
:101340000346002B01D000F025FB4FF48053BB6116
:1013500007F1180319462C4803F0F2FC0346002B52
:1013600001D000F017FB284803F01AF90346002BC0
:1013700001D000F00FFB00233B6100237B6107F1EC
:1013800010031946204804F00BFA0346002B01D045
:1013900000F000FB00233B6001237B600023BB6067
:1013A0000023FB603B4600221946174803F06AFB06
:1013B0000346002B01D000F0EDFA0423FB603B460E
:1013C00004221946104803F05DFB0346002B01D0B0
:1013D00000F0E0FA3B46082219460B4803F052FBA6
:1013E0000346002B01D000F0D5FA3B460C221946EB
:1013F000054803F047FB0346002B01D000F0CAFA72
:1014000000BF2837BD4680BD0C030020000001400E
:1014100080B58AB000AF07F1180300221A605A6045
:101420009A60DA6007F1100300221A605A603B46A6
:1014300000221A605A609A60DA602C4B4FF08042AA
:101440001A602A4B53225A60284B00229A60274B7D
:101450004FF0FF32DA60254B00221A61234B002245
:101460009A61224802F0C2FE0346002B01D000F030
:1014700091FA4FF48053BB6107F1180319461B48DA
:1014800003F05EFC0346002B01D000F083FA1748FE
:1014900003F086F80346002B01D000F07BFA00230E
:1014A0003B6100237B6107F1100319460F4804F0EC
:1014B00077F90346002B01D000F06CFA00233B6063
:1014C00001237B600023BB600723FB603B460022B7
:1014D0001946064803F0D6FA0346002B01D000F067
:1014E00059FA00BF2837BD4680BD00BF5403002015
:1014F00080B58EB000AF07F1280300221A605A6051
:101500009A60DA6007F1200300221A605A603B1DDE
:1015100000221A605A609A60DA601A615A619A6110
:101520002C4B2D4A1A602B4B53225A60294B002218
:101530009A60284B44F61F62DA60264B00221A613B
:10154000244B00229A61234802F050FE0346002BF0
:1015500001D000F01FFA4FF48053BB6207F128035B
:1015600019461C4803F0ECFB0346002B01D000F0A9
:1015700011FA184802F0F2FE0346002B01D000F0E9
:1015800009FA00233B6200237B6207F1200319461E
:10159000104804F005F90346002B01D000F0FAF9D9
:1015A00060237B600023BB600023FB6000237B6122
:1015B0003B1D00221946074803F000FB0346002BA1
:1015C00001D000F0E7F9034800F0DCFB00BF38373A
:1015D000BD4680BD9C0300200004004080B58EB055
:1015E00000AF07F1280300221A605A609A60DA609F
:1015F00007F1200300221A605A603B1D00221A6086
:101600005A609A60DA601A615A619A613D4B3E4AAB
:101610001A603C4BA7225A603A4B00229A60394B21
:1016200040F2E732DA60374B00221A61354B002274
:101630009A61344802F0DAFD0346002B01D000F035
:10164000A9F94FF48053BB6207F1280319462D48CE
:1016500003F076FB0346002B01D000F09BF92948EC
:1016600002F07CFE0346002B01D000F093F900232A
:101670003B6200237B6207F120031946214804F0F6
:101680008FF80346002B01D000F084F960237B60C3
:101690000023BB600023FB6000237B613B1D002215
:1016A0001946184803F08AFA0346002B01D000F0CF
:1016B00071F93B1D04221946124803F07FFA0346D4
:1016C000002B01D000F066F93B1D082219460D4899
:1016D00003F074FA0346002B01D000F05BF93B1DC8
:1016E0000C221946074803F069FA0346002B01D083
:1016F00000F050F9034800F045FB00BF3837BD4605
:1017000080BD00BFE40300200008004080B58AB01F
:1017100000AF07F1180300221A605A609A60DA607D
:1017200007F1100300221A605A603B4600221A603B
:101730005A609A60DA602B4B2B4A1A60294B53226D
:101740005A60284B00229A60264B4FF0FF32DA6035
:10175000244B00221A61234B00229A61214802F097
:1017600045FD0346002B01D000F014F94FF48053DF
:10177000BB6107F1180319461A4803F0E1FA034662
:10178000002B01D000F006F9164802F009FF0346CD
:10179000002B01D000F0FEF800233B6100237B61A9
:1017A00007F1100319460F4803F0FAFF0346002B18
:1017B00001D000F0EFF800233B6001237B600023A1
:1017C000BB600723FB603B4604221946054803F033
:1017D00059F90346002B01D000F0DCF800BF283790
:1017E000BD4680BD2C040020000C004080B500AF39
:1017F000114B124A1A60104B4FF4E1325A600E4BF3
:1018000000229A600C4B0022DA600B4B00221A6116
:10181000094B0C225A61084B00229A61064B0022A8
:10182000DA61054804F04CF80346002B01D000F0C3
:10183000B1F800BF80BD00BF74040020001001405B
:1018400080B58CB000AF07F11C0300221A605A600B
:101850009A60DA601A610023BB614A4B1B6B494AEC
:1018600043F080031363474B1B6B03F08003BB61A2
:10187000BB6900237B61434B1B6B424A43F001036E
:101880001363404B1B6B03F001037B617B690023F7
:101890003B613C4B1B6B3B4A43F010031363394BDA
:1018A0001B6B03F010033B613B690023FB60354B6E
:1018B0001B6B344A43F002031363324B1B6B03F080
:1018C0000203FB60FB680023BB602E4B1B6B2D4AA1
:1018D00043F0080313632B4B1B6B03F00803BB603F
:1018E000BB6800237B60274B1B6B264A43F0040335
:1018F0001363244B1B6B03F004037B607B680022A3
:101900004021214800F084FF00224FF4A0511F48DD
:1019100000F07EFF4023FB6101233B6200237B62DA
:101920000023BB6207F11C031946174800F0D4FDE1
:101930004FF4A053FB6101233B6200237B62002331
:10194000BB6207F11C031946104800F0C5FD4FF4B7
:101950008053FB614FF488133B6200237B6207F1E5
:101960001C0319460A4800F0B7FD00220221282076
:1019700000F07BFD282000F094FD00BF3037BD460D
:1019800080BD00BF0038024000000240001002404D
:101990000004024080B400AF72B600BF00BFFDE794
:1019A00080B483B000AF00237B60104B5B6C0F4AA8
:1019B00043F4804353640D4B5B6C03F480437B60C2
:1019C0007B6800233B60094B1B6C084A43F0805343
:1019D0001364064B1B6C03F080533B603B6800BFF5
:1019E0000C37BD465DF8047B704700BF00380240ED
:1019F00080B58EB000AF786007F1240300221A6032
:101A00005A609A60DA601A617B681B685C4A93428C
:101A10002DD100233B625B4B1B6B5A4A43F0020300
:101A20001363584B1B6B03F002033B623B6A4FF49A
:101A300040737B621223BB620023FB6203233B6380
:101A400004237B6307F1240319464F4800F044FD4B
:101A50000023FB614B4B1B6C4A4A43F40013136495
:101A6000484B1B6C03F40013FB61FB6983E07B684C
:101A70001B68464A93422DD10023BB61414B1B6B2F
:101A8000404A43F0020313633E4B1B6B03F0020317
:101A9000BB61BB694FF440637B621223BB620023CE
:101AA000FB6203233B6304237B6307F12403194692
:101AB000354800F011FD00237B61324B1B6C314A2D
:101AC00043F4800313642F4B1B6C03F480037B618E
:101AD0007B6950E07B681B682D4A93424BD1002301
:101AE0003B61284B1B6B274A43F004031363254BD0
:101AF0001B6B03F004033B613B690023FB60214B3C
:101B00001B6B204A43F0010313631E4B1B6B03F056
:101B10000103FB60FB684FF400737B621223BB621E
:101B20000023FB6203233B6304237B6307F124034D
:101B30001946184800F0D0FC4FF480737B621223E2
:101B4000BB620023FB6203233B6304237B6307F137
:101B500024031946104800F0BFFC0023BB60094B6A
:101B60001B6C084A43F400031364064B1B6C03F41C
:101B70000003BB60BB6800BF3837BD4680BD00BFF7
:101B80000054004000380240000402400058004069
:101B9000005C0040000802400000024080B590B0A8
:101BA00000AF786007F12C0300221A605A609A6037
:101BB000DA601A617B681B686B4A934235D1002357
:101BC000BB626A4B5B6C694A43F001035364674B29
:101BD0005B6C03F00103BB62BB6A00237B62634B57
:101BE0001B6B624A43F010031363604B1B6B03F0E3
:101BF00010037B627B6A4FF4D443FB6202233B6396
:101C000000237B630023BB630123FB6307F12C03E9
:101C10001946574800F060FC002204211B2000F008
:101C200024FC1B2000F03DFC9AE07B681B68B3F1AC
:101C3000804F34D100233B624C4B1B6C4B4A43F02A
:101C400001031364494B1B6C03F001033B623B6AC5
:101C50000023FB61454B1B6B444A43F001031363B4
:101C6000424B1B6B03F00103FB61FB690123FB6229
:101C700002233B6300237B630023BB630123FB63DD
:101C800007F12C0319463B4800F026FC00220121F5
:101C90001C2000F0EAFB1C2000F003FC60E07B68E5
:101CA0001B68354A93420ED10023BB612F4B1B6C3E
:101CB0002E4A43F0020313642C4B1B6C03F0020307
:101CC000BB61BB694CE07B681B682C4A93420ED118
:101CD00000237B61254B1B6C244A43F004031364EF
:101CE000224B1B6C03F004037B617B6938E07B684B
:101CF0001B68234A934233D100233B611B4B1B6C6F
:101D00001A4A43F008031364184B1B6C03F00803D2
:101D10003B613B690023FB60144B1B6B134A43F090
:101D200001031363114B1B6B03F00103FB60FB68A2
:101D30000223FB6202233B6300237B630023BB631C
:101D40000223FB6307F12C0319460A4800F0C4FB89
:101D500000220121322000F088FB322000F0A1FB9C
:101D600000BF4037BD4680BD000001400038024042
:101D70000010024000000240000400400008004043
:101D8000000C004080B58AB000AF786007F1140302
:101D900000221A605A609A60DA601A617B681B68D8
:101DA000244A93421ED100233B61234B1B6B224AE2
:101DB00043F004031363204B1B6B03F004033B61EC
:101DC0003B6940237B610223BB610023FB6100234D
:101DD0003B6202237B6207F114031946174800F0A7
:101DE0007BFB23E07B681B68154A93421ED10023CE
:101DF000FB60114B1B6B104A43F0080313630E4B3F
:101E00001B6B03F00803FB60FB684FF470437B61BE
:101E10000223BB610023FB6100233B6202237B6240
:101E200007F114031946074800F056FB00BF283796
:101E3000BD4680BD0004004000380240000802405A
:101E400000080040000C024080B58AB000AF786006
:101E500007F1140300221A605A609A60DA601A616E
:101E60007B681B68194A93422BD100233B61184BB6
:101E70005B6C174A43F010035364154B5B6C03F023
:101E800010033B613B690023FB60114B1B6B104A45
:101E900043F0020313630E4B1B6B03F00203FB6062
:101EA000FB68C0237B610223BB610023FB6103232A
:101EB0003B6207237B6207F114031946054800F0D3
:101EC0000BFB00BF2837BD4680BD00BF001001409E
:101ED000003802400004024080B400AF00BFFDE7BC
:101EE00080B400AF00BFFDE780B400AF00BFFDE7E6
:101EF00080B400AF00BFFDE780B400AF00BFFDE7D6
:101F000080B400AF00BFBD465DF8047B704780B46D
:101F100000AF00BFBD465DF8047B704780B400AFE2
:101F200000BFBD465DF8047B704780B500AF00F090
:101F30007DF900BF80BD000080B500AF024802F00F
:101F4000B1FC00BF80BD00BF0C03002080B500AF16
:101F5000024802F0A7FC00BF80BD00BF5403002070
:101F600080B500AF4FF4805000F06CFC00BF80BD26
:101F700080B500AF024802F095FC00BF80BD00BFF5
:101F80002C04002080B400AF01231846BD465DF844
:101F9000047B704780B582B000AF7860396008F08C
:101FA0003BFF034616221A604FF0FF3318460837EE
:101FB000BD4680BD80B582B000AF78604FF0FF3184
:101FC0007868FFF7E7FF00BFFDE780B586B000AF98
:101FD000F860B9607A6000237B610AE0AFF30080AB
:101FE0000146BB685A1CBA60CAB21A707B690133D9
:101FF0007B617A697B689A42F0DB7B681846183708
:10200000BD4680BD80B586B000AFF860B9607A602B
:1020100000237B6109E0BB685A1CBA601B78184634
:10202000AFF300807B6901337B617A697B689A42F8
:10203000F1DB7B6818461837BD4680BD80B483B09D
:1020400000AF78604FF0FF3318460C37BD465DF89F
:10205000047B704780B483B000AF786039603B6820
:102060004FF400525A60002318460C37BD465DF805
:10207000047B704780B483B000AF786001231846BA
:102080000C37BD465DF8047B704780B485B000AF67
:10209000F860B9607A60002318461437BD465DF8D1
:1020A000047B704780B586B000AF7860144A154B4A
:1020B000D31A7B617B693B61134B1B68002B02D1F8
:1020C000114B124A1A60104B1A687B6813443A6924
:1020D0009A4207D208F0A0FE03460C221A604FF085
:1020E000FF3309E0084B1B68FB60074B1A687B68ED
:1020F0001344054A1360FB6818461837BD4680BD77
:102100000000022000040000DC040020181B002056
:1021100080B400AF064BD3F88830054A43F470030F
:10212000C2F8883000BFBD465DF8047B704700BF31
:1021300000ED00E0DFF834D0FFF7EAFF0C480D496E
:102140000D4A002302E0D458C4500433C4188C4212
:10215000F9D30A4A0A4C002301E013600432A24278
:10216000FBD308F05FFEFEF75BFF70470000022024
:1021700000000020F40100201C000108F4010020F0
:10218000181B0020FEE7000080B500AF0E4B1B6857
:102190000D4A43F4007313600B4B1B680A4A43F467
:1021A00080631360084B1B68074A43F48073136015
:1021B000032000F04FF90F2000F008F8FFF7F0FBC4
:1021C0000023184680BD00BF003C024080B582B0AD
:1021D00000AF7860124B1A68124B1B7819464FF407
:1021E0007A73B3FBF1F3B2FBF3F3184600F067F92F
:1021F0000346002B01D001230EE07B680F2B0AD889
:10220000002279684FF0FF3000F02FF9064A7B6812
:102210001360002300E0012318460837BD4680BD47
:1022200000000020080000200400002080B400AF5F
:10223000064B1B781A46064B1B681344044A13606E
:1022400000BFBD465DF8047B704700BF080000205A
:10225000E004002080B400AF034B1B681846BD4665
:102260005DF8047B704700BFE004002080B584B0B7
:1022700000AF7860FFF7EEFFB8607B68FB60FB683B
:10228000B3F1FF3F05D00A4B1B781A46FB68134495
:10229000FB6000BFFFF7DEFF0246BB68D31AFA6897
:1022A0009A42F7D800BF00BF1037BD4680BD00BFBF
:1022B0000800002080B485B000AF78607B6803F030
:1022C0000703FB600C4BDB68BB60BA684FF6FF038B
:1022D0001340BB60FB681A02BB68134343F0BF6343
:1022E00043F40033BB60044ABB68D36000BF1437BB
:1022F000BD465DF8047B704700ED00E080B400AFA0
:10230000044BDB681B0A03F007031846BD465DF863
:10231000047B704700ED00E080B483B000AF03465B
:10232000FB7197F90730002B0BDBFB7903F01F02E1
:10233000074997F907305B09012000FA02F241F8DA
:10234000232000BF0C37BD465DF8047B704700BFFB
:1023500000E100E080B483B000AF03463960FB7158
:1023600097F90730002B0ADB3B68DAB20C4997F982
:1023700007301201D2B20B4483F800230AE03B6815
:10238000DAB20849FB7903F00F03043B1201D2B221
:102390000B441A7600BF0C37BD465DF8047B7047CE
:1023A00000E100E000ED00E080B489B000AFF8602B
:1023B000B9607A60FB6803F00703FB61FB69C3F156
:1023C0000703042B28BF0423BB61FB690433062BDE
:1023D00002D9FB69033B00E000237B614FF0FF3231
:1023E000BB6902FA03F3DA43BB681A407B699A407F
:1023F0004FF0FF317B6901FA03F3D9437B680B404F
:10240000134318462437BD465DF8047B704700002F
:1024100080B582B000AF78607B68013BB3F1807F0C
:1024200001D301230FE00A4A7B68013B53600F216F
:102430004FF0FF30FFF78EFF054B00229A60044BF0
:1024400007221A60002318460837BD4680BD00BF2A
:1024500010E000E080B582B000AF78607868FFF7E8
:1024600029FF00BF0837BD4680BD80B586B000AFEC
:102470000346B9607A60FB7300237B61FFF73EFF80
:1024800078617A68B9687869FFF78EFF024697F934
:102490000F3011461846FFF75DFF00BF1837BD46E5
:1024A00080BD80B582B000AF0346FB7197F907305D
:1024B0001846FFF731FF00BF0837BD4680BD80B525
:1024C00082B000AF78607868FFF7A2FF0346184635
:1024D0000837BD4680BD000080B489B000AF786089
:1024E000396000237B6100233B610023BB61002333
:1024F000FB616BE10122FB6902FA03F37B613B683C
:102500001B687A6913403B613A697B699A4240F0E3
:102510005A813B685B6803F00303012B05D03B68DD
:102520005B6803F00303022B30D17B689B68BB61BF
:10253000FB695B00032202FA03F3DB43BA69134031
:10254000BB613B68DA68FB695B0002FA03F3BA69B6
:102550001343BB617B68BA699A607B685B68BB6147
:102560000122FB6902FA03F3DB43BA691340BB6142
:102570003B685B681B0903F00102FB6902FA03F385
:10258000BA691343BB617B68BA695A603B685B6890
:1025900003F00303032B17D07B68DB68BB61FB6987
:1025A0005B00032202FA03F3DB43BA691340BB6109
:1025B0003B689A68FB695B0002FA03F3BA6913434C
:1025C000BB617B68BA69DA603B685B6803F0030350
:1025D000022B23D1FB69DA087B68083253F82230DA
:1025E000BB61FB6903F007039B000F2202FA03F3B0
:1025F000DB43BA691340BB613B681A69FB6903F0AE
:1026000007039B0002FA03F3BA691343BB61FB693A
:10261000DA087B680832B96943F822107B681B68C6
:10262000BB61FB695B00032202FA03F3DB43BA6977
:102630001340BB613B685B6803F00302FB695B000E
:1026400002FA03F3BA691343BB617B68BA691A6083
:102650003B685B6803F44033002B00F0B480002338
:10266000FB60604B5B6C5F4A43F4804353645D4B9B
:102670005B6C03F48043FB60FB685B4AFB699B086F
:10268000023352F82330BB61FB6903F003039B0064
:102690000F2202FA03F3DB43BA691340BB617B6884
:1026A000524A93422BD07B68514A934225D07B6893
:1026B000504A93421FD07B684F4A934219D07B689F
:1026C0004E4A934213D07B684D4A93420DD07B68AB
:1026D0004C4A934207D07B684B4A934201D107236F
:1026E0000EE008230CE006230AE0052308E004239B
:1026F00006E0032304E0022302E0012300E00023BC
:10270000FA6902F0030292009340BA691343BB6175
:102710003549FB699B080233BA6941F823203B4BDA
:102720009B68BB613B69DB43BA691340BB613B6893
:102730005B6803F48013002B03D0BA693B69134331
:10274000BB61324ABB699360304BDB68BB613B695C
:10275000DB43BA691340BB613B685B6803F4001359
:10276000002B03D0BA693B691343BB61274ABB699D
:10277000D360264B5B68BB613B69DB43BA6913409E
:10278000BB613B685B6803F40033002B03D0BA697C
:102790003B691343BB611D4ABB6953601B4B1B68FC
:1027A000BB613B69DB43BA691340BB613B685B6853
:1027B00003F48033002B03D0BA693B691343BB6138
:1027C000124ABB691360FB690133FB61FB690F2B84
:1027D0007FF690AE00BF00BF2437BD465DF8047B96
:1027E000704700BF0038024000380140000002403E
:1027F0000004024000080240000C024000100240A9
:102800000014024000180240001C0240003C01403D
:1028100080B483B000AF78600B467B8013467B703A
:102820007B78002B03D07A887B689A6103E07B88F1
:102830001A047B689A6100BF0C37BD465DF8047BC3
:102840007047000080B582B000AF0346FB80084BA4
:102850005A69FB881340002B06D0054AFB88536158
:10286000FB88184606F058F800BF0837BD4680BD03
:10287000003C014080B584B000AF78607B68002BDD
:1028800001D101232BE17B6893F83D30DBB2002BB3
:1028900006D17B68002283F83C207868FFF7A8F80F
:1028A0007B68242283F83D207B681B681A687B685C
:1028B0001B6822F001021A607B681B681A687B683B
:1028C0001B6842F400421A607B681B681A687B68C8
:1028D0001B6822F400421A6001F060FCF8607B681B
:1028E0005B68814A934207D8FB68804A934294BF51
:1028F00001230023DBB206E0FB687D4A934294BFCC
:1029000001230023DBB2002B01D00123E7E0FB68A9
:10291000784AA2FB03239B0CBB607B681B685B6847
:1029200023F03F017B681B68BA680A435A607B68E2
:102930001B681B6A23F03F017B685B686A4A93420D
:1029400002D8BB68013309E0BB684FF4967202FB02
:1029500003F3694AA2FB03239B0901337A681268D7
:102960000B4313627B681B68DB6923F44F4222F040
:10297000FF027B685B685C498B4219D8FB68591E73
:102980007B685B685B00B1FBF3F3591C40F6FC739A
:102990000B40002B0AD0FB68591E7B685B685B000C
:1029A000B1FBF3F30133C3F30B0351E004234FE016
:1029B0007B689B68002B11D1FB68581E7B685968A7
:1029C0000B465B000B44B0FBF3F30133C3F30B0383
:1029D000002B0CBF01230023DBB212E0FB68581E62
:1029E0007B6859680B469B000B4499000B44B0FB75
:1029F000F3F30133C3F30B03002B0CBF01230023BC
:102A0000DBB2002B01D0012322E07B689B68002B06
:102A10000ED1FB68581E7B6859680B465B000B445F
:102A2000B0FBF3F30133C3F30B0343F400430FE0B4
:102A3000FB68581E7B6859680B469B000B44990045
:102A40000B44B0FBF3F30133C3F30B0343F44043F4
:102A5000796809681343CB617B681B681B6823F0A6
:102A6000C0017B68DA697B681B6A1A437B681B6854
:102A70000A431A607B681B689B6823F4034323F0B6
:102A8000FF037A6811697A68D26811437A6812681C
:102A90000B4393607B681B68DB6823F0FF017B6856
:102AA0005A697B689B691A437B681B680A43DA6032
:102AB0007B681B681A687B681B6842F001021A6019
:102AC0007B6800221A647B68202283F83D207B68A3
:102AD00000221A637B68002283F83E2000231846F8
:102AE0001037BD4680BD00BFA08601007F841E0058
:102AF000FF083D0083DE1B43D34D621080B588B0D4
:102B000002AFF860084611461A4603467B810B4621
:102B10003B811346FB80FFF79DFB7861FB6893F8D0
:102B20003D30DBB2202B40F0D9807B690093192324
:102B300001226D49F86800F08BFC0346002B01D0A0
:102B40000223CCE0FB6893F83C30012B01D1022337
:102B5000C5E0FB68012283F83C20FB681B681B680A
:102B600003F00103012B07D0FB681B681A68FB68A0
:102B70001B6842F001021A60FB681B681A68FB6858
:102B80001B6822F400621A60FB68212283F83D2052
:102B9000FB68402283F83E20FB6800221A64FB6831
:102BA0003A6A5A62FB68BA8C5A85FB685B8D9AB2A6
:102BB000FB681A85FB684D4ADA62F8883A89798998
:102BC0007B690193BB6A00930346F86800F0C2FA80
:102BD0000346002B52D0012381E07A69B96AF86874
:102BE00000F050FD0346002B0DD0FB681B6C042B3E
:102BF00007D1FB681B681A68FB681B6842F4007207
:102C00001A6001236BE0FB685B6A1A78FB681B683B
:102C10001A61FB685B6A5A1CFB685A62FB681B8D71
:102C2000013B9AB2FB681A85FB685B8D9BB2013B46
:102C30009AB2FB685A85FB681B685B6903F0040362
:102C4000042B1BD1FB681B8D002B17D0FB685B6A24
:102C50001A78FB681B681A61FB685B6A5A1CFB6880
:102C60005A62FB681B8D013B9AB2FB681A85FB68B0
:102C70005B8D9BB2013B9AB2FB685A85FB681B8D4A
:102C8000002BAAD17A69B96AF86800F043FD0346BF
:102C9000002B0DD0FB681B6C042B07D1FB681B6855
:102CA0001A68FB681B6842F400721A60012316E080
:102CB000FB681B681A68FB681B6842F400721A60A4
:102CC000FB68202283F83D20FB68002283F83E2029
:102CD000FB68002283F83C20002300E00223184612
:102CE0001837BD4680BD00BF020010000000FFFF86
:102CF00080B58CB002AFF860084611461A4603460C
:102D00007B810B463B811346FB80FFF7A3FA786279
:102D1000FB6893F83D30DBB2202B40F014827B6AD5
:102D20000093192301227B49F86800F091FB0346C8
:102D3000002B01D0022307E2FB6893F83C30012B03
:102D400001D1022300E2FB68012283F83C20FB68EA
:102D50001B681B6803F00103012B07D0FB681B688D
:102D60001A68FB681B6842F001021A60FB681B6866
:102D70001A68FB681B6822F400621A60FB68222252
:102D800083F83D20FB68402283F83E20FB68002248
:102D90001A64FB683A6B5A62FB68BA8E5A85FB6804
:102DA0005B8D9AB2FB681A85FB685B4ADA62F88829
:102DB0003A8979897B6A0193BB6B00930346F86873
:102DC00000F05EFA0346002B01D00123BCE1FB6852
:102DD0001B8D002B13D100233B62FB681B685B69D2
:102DE0003B62FB681B689B693B623B6AFB681B6834
:102DF0001A68FB681B6842F400721A6090E1FB6875
:102E00001B8D012B1BD1FB681B681A68FB681B68B4
:102E100022F480621A600023FB61FB681B685B6917
:102E2000FB61FB681B689B69FB61FB69FB681B68B6
:102E30001A68FB681B6842F400721A6070E1FB6854
:102E40001B8D022B1BD1FB681B681A68FB681B6873
:102E500022F480621A60FB681B681A68FB681B68B2
:102E600042F400621A600023BB61FB681B685B6967
:102E7000BB61FB681B689B69BB61BB6950E10023B8
:102E80007B61FB681B685B697B61FB681B689B69F6
:102E90007B617B6944E1FB681B8D032B00F2F180B1
:102EA000FB681B8D012B23D17A6AB96BF86800F09F
:102EB00079FC0346002B01D0012345E1FB681B6828
:102EC0001A69FB685B6AD2B21A70FB685B6A5A1CAB
:102ED000FB685A62FB681B8D013B9AB2FB681A853E
:102EE000FB685B8D9BB2013B9AB2FB685A8517E188
:102EF000FB681B8D022B4ED17B6A0093BB6B0022BB
:102F00000649F86800F0A4FA0346002B08D0012314
:102F10001AE100BF020010000000FFFF04000100E2
:102F2000FB681B681A68FB681B6842F400721A6031
:102F3000FB681B681A69FB685B6AD2B21A70FB688F
:102F40005B6A5A1CFB685A62FB681B8D013B9AB294
:102F5000FB681A85FB685B8D9BB2013B9AB2FB68EC
:102F60005A85FB681B681A69FB685B6AD2B21A70E3
:102F7000FB685B6A5A1CFB685A62FB681B8D013B4D
:102F80009AB2FB681A85FB685B8D9BB2013B9AB2D3
:102F9000FB685A85C4E07B6A0093BB6B00226C49D6
:102FA000F86800F055FA0346002B01D00123CBE06E
:102FB000FB681B681A68FB681B6822F480621A6051
:102FC000FB681B681A69FB685B6AD2B21A70FB68FF
:102FD0005B6A5A1CFB685A62FB681B8D013B9AB204
:102FE000FB681A85FB685B8D9BB2013B9AB2FB685C
:102FF0005A857B6A0093BB6B00225549F86800F044
:1030000027FA0346002B01D001239DE0FB681B68D3
:103010001A68FB681B6842F400721A60FB681B6840
:103020001A69FB685B6AD2B21A70FB685B6A5A1C49
:10303000FB685A62FB681B8D013B9AB2FB681A85DC
:10304000FB685B8D9BB2013B9AB2FB685A85FB68BB
:103050001B681A69FB685B6AD2B21A70FB685B6A0C
:103060005A1CFB685A62FB681B8D013B9AB2FB68D5
:103070001A85FB685B8D9BB2013B9AB2FB685A854F
:103080004EE07A6AB96BF86800F08CFB0346002BBF
:1030900001D0012358E0FB681B681A69FB685B6A72
:1030A000D2B21A70FB685B6A5A1CFB685A62FB68F2
:1030B0001B8D013B9AB2FB681A85FB685B8D9BB246
:1030C000013B9AB2FB685A85FB681B685B6903F099
:1030D0000403042B24D1FB681B8D032B07D1FB6851
:1030E0001B681A68FB681B6822F480621A60FB6820
:1030F0001B681A69FB685B6AD2B21A70FB685B6A6C
:103100005A1CFB685A62FB681B8D013B9AB2FB6834
:103110001A85FB685B8D9BB2013B9AB2FB685A85AE
:10312000FB681B8D002B7FF4B6AEFB68202283F872
:103130003D20FB68002283F83E20FB68002283F8D4
:103140003C20002300E0022318462837BD4680BDFE
:103150000400010080B588B002AFF860084611464F
:103160001A4603467B810B463B811346FB80FB6876
:103170001B681A68FB681B6842F480721A607B6ADD
:1031800000933B6A00224FF00111F86800F060F9EB
:103190000346002B0DD0FB681B681B6803F480738B
:1031A000B3F5807F03D1FB684FF400721A640323E8
:1031B0005FE07B89DBB21A46FB681B6802F0FE0207
:1031C0001A617B6A3A6A2D49F86800F0BBF9034638
:1031D000002B01D001234CE000237B61FB681B68BE
:1031E0005B697B61FB681B689B697B617B697A6AB1
:1031F000396AF86800F046FA0346002B0DD0FB68E8
:103200001B6C042B07D1FB681B681A68FB681B68E2
:1032100042F400721A6001232BE0FB88012B05D1D8
:103220003B89DAB2FB681B681A6121E03B891B0A03
:103230009BB2DAB2FB681B681A617A6A396AF8686D
:1032400000F020FA0346002B0DD0FB681B6C042B0A
:1032500007D1FB681B681A68FB681B6842F40072A0
:103260001A60012305E03B89DAB2FB681B681A612A
:10327000002318461837BD4680BD00BF020001007C
:1032800080B588B002AFF860084611461A4603467A
:103290007B810B463B811346FB80FB681B681A68E9
:1032A000FB681B6842F480621A60FB681B681A683E
:1032B000FB681B6842F480721A607B6A00933B6A69
:1032C00000224FF00111F86800F0C2F80346002B0D
:1032D0000DD0FB681B681B6803F48073B3F5807F17
:1032E00003D1FB684FF400721A640323AAE07B89C0
:1032F000DBB21A46FB681B6802F0FE021A617B6AA9
:103300003A6A5249F86800F01DF90346002B01D0D3
:10331000012397E000237B61FB681B685B697B618D
:10332000FB681B689B697B617B697A6A396AF8680C
:1033300000F0A8F90346002B0DD0FB681B6C042B92
:1033400007D1FB681B681A68FB681B6842F40072AF
:103350001A60012376E0FB88012B05D13B89DAB2A4
:10336000FB681B681A6121E03B891B0A9BB2DAB239
:10337000FB681B681A617A6A396AF86800F082F99A
:103380000346002B0DD0FB681B6C042B07D1FB6898
:103390001B681A68FB681B6842F400721A600123FC
:1033A00050E03B89DAB2FB681B681A617A6A396AB5
:1033B000F86800F067F90346002B0DD0FB681B6C22
:1033C000042B07D1FB681B681A68FB681B6842F472
:1033D00000721A60012335E0FB681B681A68FB68FD
:1033E0001B6842F480721A607B6A00933B6A002279
:1033F0004FF00111F86800F02BF80346002B0DD0B8
:10340000FB681B681B6803F48073B3F5807F03D1EE
:10341000FB684FF400721A64032313E07B89DBB26C
:1034200043F00103DAB2FB681B681A617B6A3A6AEF
:103430000649F86800F086F80346002B01D0012306
:1034400000E0002318461837BD4680BD0200010089
:1034500080B584B000AFF860B9603B601346FB7183
:1034600048E03B68B3F1FF3F44D0FEF7F3FE02466D
:10347000BB69D31A3A689A4202D33B68002B39D110
:10348000BB681B0CDBB2012B0DD1FB681B685B69B1
:10349000DA43BB6813409BB2002B0CBF012300230F
:1034A000DBB21A460CE0FB681B689B69DA43BB6819
:1034B00013409BB2002B0CBF01230023DBB21A4642
:1034C000FB799A4216D1FB6800221A63FB6820221E
:1034D00083F83D20FB68002283F83E20FB681B6CCC
:1034E00043F02002FB681A64FB68002283F83C204A
:1034F000012323E0BB681B0CDBB2012B0DD1FB6861
:103500001B685B69DA43BB6813409BB2002B0CBF9E
:1035100001230023DBB21A460CE0FB681B689B69A1
:10352000DA43BB6813409BB2002B0CBF012300237E
:10353000DBB21A46FB799A4293D000231846103723
:10354000BD4680BD80B584B000AFF860B9607A60D8
:103550003B6071E0FB681B685B6903F48063B3F553
:10356000806F23D1FB681B681A68FB681B6842F4F4
:1035700000721A60FB681B686FF480625A61FB6816
:1035800000221A63FB68202283F83D20FB6800229A
:1035900083F83E20FB681B6C43F00402FB681A644E
:1035A000FB68002283F83C20012367E07B68B3F1CD
:1035B000FF3F41D0FEF74EFE02463B68D31A7A68C1
:1035C0009A4202D37B68002B36D1BB681B0CDBB25E
:1035D000012B0CD1FB681B685B69DA43BB681340A5
:1035E0009BB2002B14BF01230023DBB20BE0FB686E
:1035F0001B689B69DA43BB6813409BB2002B14BF66
:1036000001230023DBB2002B16D0FB6800221A63D3
:10361000FB68202283F83D20FB68002283F83E20CF
:10362000FB681B6C43F02002FB681A64FB680022F5
:1036300083F83C20012321E0BB681B0CDBB2012B8B
:103640000CD1FB681B685B69DA43BB6813409BB213
:10365000002B14BF01230023DBB20BE0FB681B68C7
:103660009B69DA43BB6813409BB2002B14BF012354
:103670000023DBB2002B7FF46DAF00231846103718
:10368000BD4680BD80B584B000AFF860B9607A6097
:1036900034E0F86800F0E3F80346002B01D0012382
:1036A00034E0BB68B3F1FF3F28D0FEF7D3FD0246FC
:1036B0007B68D31ABA689A4202D3BB68002B1DD12B
:1036C000FB681B685B6903F08003802B16D0FB68E6
:1036D00000221A63FB68202283F83D20FB68002249
:1036E00083F83E20FB681B6C43F02002FB681A64E1
:1036F000FB68002283F83C20012307E0FB681B687D
:103700005B6903F08003802BC3D100231846103778
:10371000BD4680BD80B584B000AFF860B9607A6006
:1037200034E0F86800F09BF80346002B01D0012339
:1037300034E0BB68B3F1FF3F28D0FEF78BFD0246B3
:103740007B68D31ABA689A4202D3BB68002B1DD19A
:10375000FB681B685B6903F00403042B16D0FB684D
:1037600000221A63FB68202283F83D20FB680022B8
:1037700083F83E20FB681B6C43F02002FB681A6450
:10378000FB68002283F83C20012307E0FB681B68EC
:103790005B6903F00403042BC3D1002318461037E0
:1037A000BD4680BD80B584B000AFF860B9607A6076
:1037B00049E0FB681B685B6903F01003102B19D10B
:1037C000FB681B686FF010025A61FB6800221A63E5
:1037D000FB68202283F83D20FB68002283F83E200E
:1037E000FB681A6CFB681A64FB68002283F83C20B3
:1037F000012330E0FEF72EFD02467B68D31ABA683B
:103800009A4202D3BB68002B1DD1FB681B685B6921
:1038100003F04003402B16D0FB6800221A63FB68BC
:10382000202283F83D20FB68002283F83E20FB68BD
:103830001B6C43F02002FB681A64FB68002283F8CB
:103840003C20012307E0FB681B685B6903F0400331
:10385000402BAED1002318461037BD4680BD80B442
:1038600083B000AF78607B681B685B6903F480639A
:10387000B3F5806F1BD17B681B686FF480625A615F
:103880007B6800221A637B68202283F83D207B68D6
:10389000002283F83E207B681B6C43F004027B68A7
:1038A0001A647B68002283F83C20012300E0002397
:1038B00018460C37BD465DF8047B704780B586B06E
:1038C00000AF78607B68002B01D1012367E27B6841
:1038D0001B6803F00103002B75D0884B9B6803F035
:1038E0000C03042B0CD0854B9B6803F00C03082BB6
:1038F00012D1824B5B6803F48003B3F5800F0BD1C8
:103900007E4B1B6803F40033002B5BD07B685B6845
:10391000002B57D1012342E27B685B68B3F5803FFF
:1039200006D1764B1B68754A43F4803313601DE063
:103930007B685B68B3F5A02F0CD1704B1B686F4A96
:1039400043F4802313606D4B1B686C4A43F480334F
:1039500013600BE0694B1B68684A23F480331360E3
:10396000664B1B68654A23F4802313607B685B68A1
:10397000002B13D0FEF76EFC386108E0FEF76AFCFE
:1039800002463B69D31A642B01D9032307E25B4B40
:103990001B6803F40033002BF0D014E0FEF75AFC50
:1039A000386108E0FEF756FC02463B69D31A642BE7
:1039B00001D90323F3E1514B1B6803F40033002BBF
:1039C000F0D100E000BF7B681B6803F00203002B0E
:1039D00063D04A4B9B6803F00C03002B0BD0474B82
:1039E0009B6803F00C03082B1CD1444B5B6803F469
:1039F0008003002B16D1414B1B6803F00203002B00
:103A000005D07B68DB68012B01D00123C7E13B4B6C
:103A10001B6823F0F8027B681B69DB0037491343FE
:103A20000B603AE07B68DB68002B20D0344B01222E
:103A30001A60FEF70FFC386108E0FEF70BFC024647
:103A40003B69D31A022B01D90323A8E12B4B1B6836
:103A500003F00203002BF0D0284B1B6823F0F80280
:103A60007B681B69DB00254913430B6015E0244B81
:103A700000221A60FEF7EEFB386108E0FEF7EAFB71
:103A800002463B69D31A022B01D9032387E11B4B62
:103A90001B6803F00203002BF0D17B681B6803F066
:103AA0000803002B36D07B685B69002B16D0154BC2
:103AB00001221A60FEF7CEFB386108E0FEF7CAFB70
:103AC00002463B69D31A022B01D9032367E10B4B52
:103AD0005B6F03F00203002BF0D01BE0094B0022C8
:103AE0001A60FEF7B7FB38610EE0FEF7B3FB024643
:103AF0003B69D31A022B07D9032350E10038024057
:103B000000004742800E4742884B5B6F03F0020380
:103B1000002BEAD17B681B6803F00403002B00F044
:103B200097800023FB75814B1B6C03F08053002BA7
:103B30000FD10023BB607D4B1B6C7C4A43F080534C
:103B400013647A4B1B6C03F08053BB60BB6801238A
:103B5000FB75774B1B6803F48073002B18D1744BF3
:103B60001B68734A43F480731360FEF773FB38617C
:103B700008E0FEF76FFB02463B69D31A022B01D91E
:103B800003230CE16A4B1B6803F48073002BF0D015
:103B90007B689B68012B06D1644B1B6F634A43F023
:103BA000010313671CE07B689B68052B0CD15F4BFE
:103BB0001B6F5E4A43F0040313675C4B1B6F5B4A49
:103BC00043F0010313670BE0584B1B6F574A23F078
:103BD00001031367554B1B6F544A23F0040313670B
:103BE0007B689B68002B15D0FEF734FB38610AE038
:103BF000FEF730FB02463B69D31A41F2883293420A
:103C000001D90323CBE0494B1B6F03F00203002BC8
:103C1000EED014E0FEF71EFB38610AE0FEF71AFB57
:103C200002463B69D31A41F28832934201D90323F9
:103C3000B5E03E4B1B6F03F00203002BEED1FB7D82
:103C4000012B05D1394B1B6C384A23F08053136488
:103C50007B689B69002B00F0A180344B9B6803F0CC
:103C60000C03082B5CD07B689B69022B41D1314B44
:103C700000221A60FEF7EEFA386108E0FEF7EAFA71
:103C800002463B69D31A022B01D9032387E0274B55
:103C90001B6803F00073002BF0D17B68DA697B6846
:103CA0001B6A1A437B685B6A9B011A437B689B6AA9
:103CB0005B08013B1B041A437B68DB6A1B061B493C
:103CC00013434B601B4B01221A60FEF7C3FA3861A5
:103CD00008E0FEF7BFFA02463B69D31A022B01D96E
:103CE00003235CE0114B1B6803F00073002BF0D042
:103CF00054E0104B00221A60FEF7ACFA386108E07D
:103D0000FEF7A8FA02463B69D31A022B01D9032316
:103D100045E0064B1B6803F00073002BF0D13DE03B
:103D20007B689B69012B07D1012338E000380240F2
:103D300000700040600047421B4B5B68FB607B6883
:103D40009B69012B28D0FB6803F480027B68DB6948
:103D50009A4221D1FB6803F03F027B681B6A9A42BA
:103D60001AD1FA6847F6C07313407A68526A920112
:103D7000934211D1FB6803F440327B689B6A5B0875
:103D8000013B1B049A4207D1FB6803F070627B6819
:103D9000DB6A1B069A4201D0012300E0002318468B
:103DA0001837BD4680BD00BF0038024080B584B0E2
:103DB00000AF786039607B68002B01D10123CCE033
:103DC000684B1B6803F007033A689A420CD9654BAD
:103DD0003A68D2B21A70634B1B6803F007033A6863
:103DE0009A4201D00123B8E07B681B6803F002030C
:103DF000002B20D07B681B6803F00403002B05D048
:103E0000594B9B68584A43F4E05393607B681B68A6
:103E100003F00803002B05D0534B9B68524A43F430
:103E200060439360504B9B6823F0F0027B689B6873
:103E30004D4913438B607B681B6803F00103002B23
:103E400044D07B685B68012B07D1474B1B6803F4A8
:103E50000033002B19D101237FE07B685B68022BC4
:103E600003D07B685B68032B07D13F4B1B6803F0D3
:103E70000073002B09D101236FE03B4B1B6803F05B
:103E80000203002B01D1012367E0374B9B6823F02D
:103E900003027B685B68344913438B60FEF7DAF9F1
:103EA000F8600AE0FEF7D6F90246FB68D31A41F241
:103EB0008832934201D903234FE02B4B9B6803F0D8
:103EC0000C027B685B689B009A42EBD1254B1B6818
:103ED00003F007033A689A420CD2224B3A68D2B2F6
:103EE0001A70204B1B6803F007033A689A4201D00E
:103EF000012332E07B681B6803F00403002B08D029
:103F0000194B9B6823F4E0527B68DB681649134326
:103F10008B607B681B6803F00803002B09D0124BF1
:103F20009B6823F460427B681B69DB000E491343E6
:103F30008B6000F021F802460B4B9B681B0903F0D5
:103F40000F030A49CB5C22FA03F3094A1360094BB9
:103F50001B681846FEF73AF9002318461037BD468D
:103F600080BD00BF003C02400038024084F00008E1
:103F700000000020040000202DE9B04F94B000AFF5
:103F800000237B640023FB6400233B640023BB64A9
:103F9000794B9B6803F00C03082B0DD0082B00F223
:103FA000E180002B02D0042B03D0DBE0734BBB6419
:103FB000DBE0734BBB64D8E06F4B5B6803F03F03FF
:103FC0007B646D4B5B6803F48003002B63D06A4B0A
:103FD0005B689B090022BB63FA63BB6BC3F30803F6
:103FE0003B6300237B63D7E90C4522462B464FF009
:103FF00000004FF00001590141EAD2615001024630
:104000000B462146511A3961294663EB01037B6156
:104010004FF000024FF00003D7E904AB59468B0183
:10402000514643EA916351468A015146B2EB010879
:10403000594663EB01094FF000024FF000034FEACD
:10404000C90343EA58734FEAC8029046994623468B
:1040500018EB0303BB602B4649EB0303FB604FF0F7
:1040600000024FF00003D7E9024529464B022146E2
:1040700043EAD15321464A02104619467B6C00227E
:10408000BB62FA62D7E90A23FCF7FEFD02460B4643
:104090001346FB6458E0384B5B689B0900221846C6
:1040A0001146C0F308033B6200237B62D7E908890D
:1040B00042464B464FF000004FF00001590141EAE3
:1040C000D261500102460B464146B2EB010A494615
:1040D00063EB010B4FF000024FF000034FEA8B132C
:1040E00043EA9A634FEA8A12B2EB0A0463EB0B05C8
:1040F0004FF000024FF00003EB0043EA5473E2007C
:1041000014461D464346E3183B604B4645EB03030C
:104110007B604FF000024FF00003D7E900452946CD
:104120008B02214643EA915321468A0210461946E2
:104130007B6C0022BB61FA61D7E90623FCF7A4FD82
:1041400002460B461346FB640B4B5B681B0C03F0EB
:10415000030301335B003B64FA6C3B6CB2FBF3F38B
:10416000BB6402E0054BBB6400BFBB6C1846503714
:10417000BD46BDE8B08F00BF003802400024F40007
:1041800000127A0080B400AF034B1B681846BD468E
:104190005DF8047B704700BF0000002080B500AFD1
:1041A000FFF7F0FF0246054B9B689B0A03F00703ED
:1041B0000349CB5C22FA03F3184680BD0038024065
:1041C00094F0000880B500AFFFF7DCFF0246054B16
:1041D0009B685B0B03F007030349CB5C22FA03F3F4
:1041E000184680BD0038024094F0000880B582B0C7
:1041F00000AF78607B68002B01D1012341E07B6830
:1042000093F83D30DBB2002B06D17B68002283F8A7
:104210003C207868FDF7C2FC7B68022283F83D20D1
:104220007B681A687B6804331946104600F078FEF4
:104230007B68012283F846207B68012283F83E20B8
:104240007B68012283F83F207B68012283F84020AD
:104250007B68012283F841207B68012283F8422099
:104260007B68012283F843207B68012283F8442085
:104270007B68012283F845207B68012283F83D207A
:10428000002318460837BD4680BD000080B485B0C5
:1042900000AF78607B6893F83D30DBB2012B01D032
:1042A000012346E07B68022283F83D207B681B687F
:1042B000234A934222D07B681B68B3F1804F1DD004
:1042C0007B681B681F4A934218D07B681B681E4A94
:1042D000934213D07B681B681C4A93420ED07B68C4
:1042E0001B681B4A934209D07B681B68194A93429A
:1042F00004D07B681B68184A934211D17B681B6805
:104300009B6803F00703FB60FB68062B10D07B68FB
:104310001B681A687B681B6842F001021A6007E09C
:104320007B681B681A687B681B6842F001021A6090
:10433000002318461437BD465DF8047B704700BF64
:10434000000001400004004000080040000C004054
:1043500000040140004001400018004080B582B0D8
:1043600000AF78607B68002B01D1012341E07B68BE
:1043700093F83D30DBB2002B06D17B68002283F836
:104380003C20786800F039F87B68022283F83D20F1
:104390007B681A687B6804331946104600F0C0FD3C
:1043A0007B68012283F846207B68012283F83E2047
:1043B0007B68012283F83F207B68012283F840203C
:1043C0007B68012283F841207B68012283F8422028
:1043D0007B68012283F843207B68012283F8442014
:1043E0007B68012283F845207B68012283F83D2009
:1043F000002318460837BD4680BD80B483B000AFA7
:10440000786000BF0C37BD465DF8047B7047000044
:1044100080B584B000AF786039603B68002B09D16B
:104420007B6893F83E30DBB2012B14BF01230023DD
:10443000DBB222E03B68042B09D17B6893F83F3064
:10444000DBB2012B14BF01230023DBB215E03B6874
:10445000082B09D17B6893F84030DBB2012B14BFE5
:1044600001230023DBB208E07B6893F84130DBB224
:10447000012B14BF01230023DBB2002B01D0012349
:104480007CE03B68002B04D17B68022283F83E204D
:1044900013E03B68042B04D17B68022283F83F20A1
:1044A0000BE03B68082B04D17B68022283F8402094
:1044B00003E07B68022283F841207B681B680122AD
:1044C0003968184601F046F97B681B682D4A93420B
:1044D00004D07B681B682C4A934201D1012300E081
:1044E0000023002B07D07B681B685A6C7B681B6815
:1044F00042F400425A647B681B68224A934222D0ED
:104500007B681B68B3F1804F1DD07B681B681F4A16
:10451000934218D07B681B681D4A934213D07B6876
:104520001B681C4A93420ED07B681B68164A934254
:1045300009D07B681B68184A934204D07B681B68CB
:10454000164A934211D17B681B689B6803F00703EE
:10455000FB60FB68062B10D07B681B681A687B68C1
:104560001B6842F001021A6007E07B681B681A684A
:104570007B681B6842F001021A600023184610375E
:10458000BD4680BD00000140000401400004004021
:1045900000080040000C00400040014000180040AE
:1045A00080B582B000AF78607B68002B01D1012319
:1045B00041E07B6893F83D30DBB2002B06D17B688D
:1045C000002283F83C20786800F039F87B680222EA
:1045D00083F83D207B681A687B68043319461046CF
:1045E00000F09EFC7B68012283F846207B68012254
:1045F00083F83E207B68012283F83F207B680122FC
:1046000083F840207B68012283F841207B680122E7
:1046100083F842207B68012283F843207B680122D3
:1046200083F844207B68012283F845207B680122BF
:1046300083F83D20002318460837BD4680BD80B46E
:1046400083B000AF786000BF0C37BD465DF8047BD7
:104650007047000080B584B000AF786039600023F7
:10466000FB733B68002B04D17B6893F83E30DBB2D0
:1046700013E03B68042B04D17B6893F83F30DBB236
:104680000BE03B68082B04D17B6893F84030DBB229
:1046900003E07B6893F84130DBB2BB733B68002BCF
:1046A00004D17B6893F84230DBB213E03B68042B03
:1046B00004D17B6893F84330DBB20BE03B68082BF6
:1046C00004D17B6893F84430DBB203E07B6893F855
:1046D0004530DBB27B73BB7B012B02D17B7B012B93
:1046E00001D00123CCE03B68002B04D17B6802227F
:1046F00083F83E2013E03B68042B04D17B68022240
:1047000083F83F200BE03B68082B04D17B68022232
:1047100083F8402003E07B68022283F841203B6855
:10472000002B04D17B68022283F8422013E03B680F
:10473000042B04D17B68022283F843200BE03B6802
:10474000082B04D17B68022283F8442003E07B68B5
:10475000022283F845203B680C2B41D801A252F875
:1047600023F000BF99470008E1470008E14700082F
:10477000E1470008AB470008E1470008E1470008AF
:10478000E1470008BD470008E1470008E14700088D
:10479000E1470008CF4700087B681B68DA687B6840
:1047A0001B6842F00202DA601DE07B681B68DA6871
:1047B0007B681B6842F00402DA6014E07B681B68C7
:1047C000DA687B681B6842F00802DA600BE07B68FD
:1047D0001B68DA687B681B6842F01002DA6002E04E
:1047E0000123FB7300BFFB7B002B48D17B681B6858
:1047F00001223968184600F0ADFF7B681B68224A29
:10480000934222D07B681B68B3F1804F1DD07B6838
:104810001B681E4A934218D07B681B681C4A93424F
:1048200013D07B681B681B4A93420ED07B681B68C1
:10483000194A934209D07B681B68184A934204D0F6
:104840007B681B68164A934211D17B681B689B6882
:1048500003F00703BB60BB68062B10D07B681B68A6
:104860001A687B681B6842F001021A6007E07B68E7
:104870001B681A687B681B6842F001021A60FB7BA8
:1048800018461037BD4680BD0000014000040040BE
:1048900000080040000C00400004014000400140BE
:1048A0000018004080B584B000AF78607B681B685A
:1048B000DB68FB607B681B681B69BB60BB6803F03F
:1048C0000203002B20D0FB6803F00203002B1BD057
:1048D0007B681B686FF002021A617B6801221A77FD
:1048E0007B681B689B6903F00303002B03D0786887
:1048F00003F06EFB05E0786800F0F3FA786800F0EA
:10490000FAFA7B6800221A77BB6803F00403002BD5
:1049100020D0FB6803F00403002B1BD07B681B68CE
:104920006FF004021A617B6802221A777B681B68A9
:104930009B6903F44073002B03D0786803F048FBB5
:1049400005E0786800F0CDFA786800F0D4FA7B686A
:1049500000221A77BB6803F00803002B20D0FB6805
:1049600003F00803002B1BD07B681B686FF0080264
:104970001A617B6804221A777B681B68DB6903F085
:104980000303002B03D0786803F022FB05E078686E
:1049900000F0A7FA786800F0AEFA7B6800221A7778
:1049A000BB6803F01003002B20D0FB6803F010035A
:1049B000002B1BD07B681B686FF010021A617B68AC
:1049C00008221A777B681B68DB6903F44073002BAD
:1049D00003D0786803F0FCFA05E0786800F081FA0B
:1049E000786800F088FA7B6800221A77BB6803F0C9
:1049F0000103002B0CD0FB6803F00103002B07D050
:104A00007B681B686FF001021A61786800F05FFA3A
:104A1000BB6803F08003002B0CD0FB6803F080031D
:104A2000002B07D07B681B686FF080021A617868E2
:104A300000F03CFFBB6803F04003002B0CD0FB6888
:104A400003F04003002B07D07B681B686FF0400227
:104A50001A61786800F059FABB6803F02003002B54
:104A60000CD0FB6803F02003002B07D07B681B6889
:104A70006FF020021A61786800F00EFF00BF103757
:104A8000BD4680BD80B586B000AFF860B9607A6081
:104A90000023FB75FB6893F83C30012B01D1022306
:104AA00088E0FB68012283F83C207B68002B1BD147
:104AB000FB681868BB681968BB685A68BB68DB6824
:104AC00000F084FCFB681B689A69FB681B6822F095
:104AD0000C029A61FB681B689969BB689A68FB685D
:104AE0001B680A439A6160E07B68042B1CD1FB6859
:104AF0001868BB681968BB685A68BB68DB6800F057
:104B000008FDFB681B689A69FB681B6822F4406219
:104B10009A61FB681B689969BB689B681A02FB680D
:104B20001B680A439A6140E07B68082B1BD1FB6835
:104B30001868BB681968BB685A68BB68DB6800F016
:104B400055FDFB681B68DA69FB681B6822F00C02E4
:104B5000DA61FB681B68D969BB689A68FB681B68E7
:104B60000A43DA6121E07B680C2B1CD1FB681868D2
:104B7000BB681968BB685A68BB68DB6800F072FDE7
:104B8000FB681B68DA69FB681B6822F44062DA6123
:104B9000FB681B68D969BB689B681A02FB681B68C5
:104BA0000A43DA6101E00123FB75FB68002283F808
:104BB0003C20FB7D18461837BD4680BD80B586B0C9
:104BC00000AFF860B9607A600023FB75FB6893F86A
:104BD0003C30012B01D10223AEE0FB68012283F8B7
:104BE0003C207B680C2B00F29F8001A252F823F03E
:104BF000254C0008294D0008294D0008294D0008C2
:104C0000654C0008294D0008294D0008294D000871
:104C1000A74C0008294D0008294D0008294D00081F
:104C2000E74C0008FB681B68B968184600F01EFADC
:104C3000FB681B689A69FB681B6842F008029A616E
:104C4000FB681B689A69FB681B6822F004029A6182
:104C5000FB681B689969BB681A69FB681B680A4393
:104C60009A6164E0FB681B68B968184600F06EFA48
:104C7000FB681B689A69FB681B6842F400629A61D2
:104C8000FB681B689A69FB681B6822F480629A6162
:104C9000FB681B689969BB681B691A02FB681B6883
:104CA0000A439A6143E0FB681B68B968184600F044
:104CB000C3FAFB681B68DA69FB681B6842F00802EC
:104CC000DA61FB681B68DA69FB681B6822F0040282
:104CD000DA61FB681B68D969BB681A69FB681B68E5
:104CE0000A43DA6123E0FB681B68B968184600F0E4
:104CF00017FBFB681B68DA69FB681B6842F40062FB
:104D0000DA61FB681B68DA69FB681B6822F4806261
:104D1000DA61FB681B68D969BB681B691A02FB680A
:104D20001B680A43DA6102E00123FB7500BFFB68E0
:104D3000002283F83C20FB7D18461837BD4680BD15
:104D400080B584B000AF786039600023FB737B6866
:104D500093F83C30012B01D10223B4E07B6801229F
:104D600083F83C207B68022283F83D207B681B6827
:104D70009B68BB60BB6823F07703BB60BB6823F410
:104D80007F43BB607B681B68BA689A603B681B689E
:104D9000B3F5005F3ED0B3F5005F00F28780B3F556
:104DA000805F00F08680B3F5805F7FD8702B1AD0CB
:104DB000702B7BD8602B50D0602B77D8502B3CD0F9
:104DC000502B73D8402B58D0402B6FD8302B64D049
:104DD000302B6BD8202B60D0202B67D8002B5CD0D9
:104DE000102B5AD062E07B6818683B6899683B6872
:104DF0005A683B68DB6800F08DFC7B681B689B6829
:104E0000BB60BB6843F07703BB607B681B68BA6814
:104E10009A604FE07B6818683B6899683B685A68FD
:104E20003B68DB6800F076FC7B681B689A687B68EF
:104E30001B6842F480429A603CE07B6818683B68DB
:104E400059683B68DB681A4600F034FB7B681B68D6
:104E50005021184600F043FC2CE07B6818683B6842
:104E600059683B68DB681A4600F090FB7B681B685A
:104E70006021184600F033FC1CE07B6818683B6832
:104E800059683B68DB681A4600F014FB7B681B68B6
:104E90004021184600F023FC0CE07B681A683B6850
:104EA0001B681946104600F01AFC03E00123FB734F
:104EB00000E000BF7B68012283F83D207B68002270
:104EC00083F83C20FB7B18461037BD4680BD80B47C
:104ED00083B000AF786000BF0C37BD465DF8047B3F
:104EE000704780B483B000AF786000BF0C37BD4618
:104EF0005DF8047B704780B483B000AF786000BF7A
:104F00000C37BD465DF8047B704780B483B000AFBA
:104F1000786000BF0C37BD465DF8047B7047000029
:104F200080B485B000AF786039607B681B68FB6037
:104F30007B68434A934213D07B68B3F1804F0FD014
:104F40007B68404A93420BD07B683F4A934207D02C
:104F50007B683E4A934203D07B683D4A934208D126
:104F6000FB6823F07003FB603B685B68FA681343DF
:104F7000FB607B68324A93422BD07B68B3F1804F51
:104F800027D07B682F4A934223D07B682E4A9342D6
:104F90001FD07B682D4A93421BD07B682C4A9342DA
:104FA00017D07B682B4A934213D07B682A4A9342DE
:104FB0000FD07B68294A93420BD07B68284A9342E2
:104FC00007D07B68274A934203D07B68264A9342E6
:104FD00008D1FB6823F44073FB603B68DB68FA6828
:104FE0001343FB60FB6823F080023B685B6913435B
:104FF000FB603B689A687B68DA623B681A687B688A
:105000009A627B680E4A934203D07B68104A9342AF
:1050100003D13B681A697B681A637B681B6843F09D
:1050200004027B681A607B6801225A617B68FA6817
:105030001A6000BF1437BD465DF8047B704700BF9F
:10504000000001400004004000080040000C004047
:10505000000401400040014000440140004801407C
:1050600000180040001C00400020004080B487B0C1
:1050700000AF786039607B681B6A7B617B681B6A64
:1050800023F001027B681A627B685B683B617B6886
:105090009B69FB60FB6823F07003FB60FB6823F0F7
:1050A0000303FB603B681B68FA681343FB607B6982
:1050B00023F002037B613B689B687A6913437B6141
:1050C0007B68204A934203D07B681F4A93420CD1ED
:1050D0007B6923F008037B613B68DB687A691343D3
:1050E0007B617B6923F004037B617B68154A9342F3
:1050F00003D07B68144A934211D13B6923F4807337
:105100003B613B6923F400733B613B685B693A692F
:1051100013433B613B689B693A6913433B617B687E
:105120003A695A607B68FA689A613B685A687B689A
:105130005A637B687A691A6200BF1C37BD465DF806
:10514000047B7047000001400004014080B487B038
:1051500000AF786039607B681B6A7B617B681B6A83
:1051600023F010027B681A627B685B683B617B6896
:105170009B69FB60FB6823F4E043FB60FB6823F45E
:105180004073FB603B681B681B02FA681343FB60BB
:105190007B6923F020037B613B689B681B017A6974
:1051A00013437B617B68224A934203D07B68214A88
:1051B00093420DD17B6923F080037B613B68DB6800
:1051C0001B017A6913437B617B6923F040037B6198
:1051D0007B68174A934203D07B68164A934213D1E7
:1051E0003B6923F480633B613B6923F400633B61CB
:1051F0003B685B699B003A6913433B613B689B6971
:105200009B003A6913433B617B683A695A607B684B
:10521000FA689A613B685A687B689A637B687A6926
:105220001A6200BF1C37BD465DF8047B704700BFA3
:10523000000001400004014080B487B000AF7860F6
:1052400039607B681B6A7B617B681B6A23F4807210
:105250007B681A627B685B683B617B68DB69FB602B
:10526000FB6823F07003FB60FB6823F00303FB6023
:105270003B681B68FA681343FB607B6923F4007387
:105280007B613B689B681B027A6913437B617B6887
:10529000214A934203D07B68204A93420DD17B6917
:1052A00023F400637B613B68DB681B027A6913436C
:1052B0007B617B6923F480637B617B68164A934240
:1052C00003D07B68154A934213D13B6923F4805382
:1052D0003B613B6923F400533B613B685B691B0105
:1052E0003A6913433B613B689B691B013A6913436D
:1052F0003B617B683A695A607B68FA68DA613B68AF
:105300005A687B68DA637B687A691A6200BF1C3767
:10531000BD465DF8047B7047000001400004014079
:1053200080B487B000AF786039607B681B6A3B61EE
:105330007B681B6A23F480527B681A627B685B6817
:105340007B617B68DB69FB60FB6823F4E043FB6007
:10535000FB6823F44073FB603B681B681B02FA6820
:105360001343FB603B6923F400533B613B689B683C
:105370001B033A6913433B617B68124A934203D093
:105380007B68114A934209D17B6923F480437B6196
:105390003B685B699B017A6913437B617B687A692F
:1053A0005A607B68FA68DA613B685A687B681A64FD
:1053B0007B683A691A6200BF1C37BD465DF8047B02
:1053C000704700BF000001400004014080B487B076
:1053D00000AFF860B9607A603B60FB681B6A3B61B4
:1053E000FB681B6A23F00102FB681A62FB689B6979
:1053F0007B61FB68284A93421BD0FB68B3F1804F66
:1054000017D0FB68254A934213D0FB68244A934285
:105410000FD0FB68234A93420BD0FB68224A934289
:1054200007D0FB68214A934203D0FB68204A93428D
:1054300001D1012300E00023002B08D07B6923F079
:1054400003037B617A697B6813437B6103E07B69BB
:1054500043F001037B617B6923F0F0037B613B68D0
:105460001B01DBB27A6913437B613B6923F00A03BA
:105470003B61BB6803F00A033A6913433B61FB6875
:105480007A699A61FB683A691A6200BF1C37BD46A7
:105490005DF8047B704700BF00000140000400403D
:1054A00000080040000C00400004014000400140A2
:1054B0000018004080B487B000AFF860B9607A602F
:1054C000FB681B6A7B61FB681B6A23F00102FB68B7
:1054D0001A62FB689B693B613B6923F0F0033B6107
:1054E0007B681B013A6913433B617B6923F00A0324
:1054F0007B617A69BB6813437B61FB683A699A6197
:10550000FB687A691A6200BF1C37BD465DF8047BF0
:10551000704780B487B000AFF860B9607A603B60D4
:10552000FB681B6A7B61FB681B6A23F01002FB6847
:105530001A62FB689B693B613B6923F440733B61E2
:105540007B681B023A6913433B613B6923F4704358
:105550003B613B681B039BB23A6913433B617B6928
:1055600023F0A0037B61BB681B0103F0A0037A69F1
:1055700013437B61FB683A699A61FB687A691A6236
:1055800000BF1C37BD465DF8047B704780B487B010
:1055900000AFF860B9607A60FB681B6A7B61FB68EA
:1055A0001B6A23F01002FB681A62FB689B693B616F
:1055B0003B6923F470433B617B681B033A691343E7
:1055C0003B617B6923F0A0037B61BB681B017A69A7
:1055D00013437B61FB683A699A61FB687A691A62D6
:1055E00000BF1C37BD465DF8047B704780B487B0B0
:1055F00000AFF860B9607A603B60FB681B6A7B6152
:10560000FB681B6A23F48072FB681A62FB68DB6923
:105610003B613B6923F003033B613A697B681343B9
:105620003B613B6923F0F0033B613B681B01DBB24C
:105630003A6913433B617B6923F420637B61BB6858
:105640001B0203F420637A6913437B61FB683A69A8
:10565000DA61FB687A691A6200BF1C37BD465DF8E3
:10566000047B704780B487B000AFF860B9607A609F
:105670003B60FB681B6A7B61FB681B6A23F48052FA
:10568000FB681A62FB68DB693B613B6923F440738A
:105690003B617B681B023A6913433B613B6923F41E
:1056A00070433B613B681B039BB23A6913433B6108
:1056B0007B6923F420437B61BB681B0303F4204315
:1056C0007A6913437B61FB683A69DA61FB687A693E
:1056D0001A6200BF1C37BD465DF8047B704780B47A
:1056E00085B000AF786039607B689B68FB60FB68C1
:1056F00023F07003FB603A68FB68134343F0070331
:10570000FB607B68FA689A6000BF1437BD465DF89D
:10571000047B704780B487B000AFF860B9607A60EE
:105720003B60FB689B687B617B6923F47F437B6103
:105730003B681A027B681A43BB6813437A691343B8
:105740007B61FB687A699A6000BF1C37BD465DF8D3
:10575000047B704780B487B000AFF860B9607A60AE
:10576000BB6803F01F03012202FA03F37B61FB68AD
:105770001A6A7B69DB431A40FB681A62FB681A6A83
:10578000BB6803F01F03796801FA03F31A43FB684F
:105790001A6200BF1C37BD465DF8047B70470000ED
:1057A00080B485B000AF786039607B6893F83C3096
:1057B000012B01D102235AE07B68012283F83C20AF
:1057C0007B68022283F83D207B681B685B68FB6076
:1057D0007B681B689B68BB60FB6823F07003FB6001
:1057E0003B681B68FA681343FB607B681B68FA68B8
:1057F0005A607B681B68214A934222D07B681B68F1
:10580000B3F1804F1DD07B681B681D4A934218D0AE
:105810007B681B681B4A934213D07B681B681A4A3B
:1058200093420ED07B681B68184A934209D07B686C
:105830001B68174A934204D07B681B68154A934241
:105840000CD1BB6823F08003BB603B685B68BA681F
:105850001343BB607B681B68BA689A607B6801224F
:1058600083F83D207B68002283F83C200023184603
:105870001437BD465DF8047B704700BF000001404F
:105880000004004000080040000C004000040140FB
:10589000004001400018004080B483B000AF786041
:1058A00000BF0C37BD465DF8047B704780B483B001
:1058B00000AF786000BF0C37BD465DF8047B7047D1
:1058C00080B582B000AF78607B68002B01D10123E6
:1058D00042E07B6893F84130DBB2002B06D17B6855
:1058E000002283F840207868FCF7AEFA7B68242217
:1058F00083F841207B681B68DA687B681B6822F4A8
:105900000052DA60786800F073F97B681B681A69E6
:105910007B681B6822F490421A617B681B685A6995
:105920007B681B6822F02A025A617B681B68DA6870
:105930007B681B6842F40052DA607B6800225A647C
:105940007B68202283F841207B68202283F8422054
:105950007B6800225A63002318460837BD4680BD85
:1059600080B58AB002AFF860B9603B601346FB8037
:1059700000237B61FB6893F84130DBB2202B75D1AB
:10598000BB68002B02D0FB88002B01D101236EE005
:10599000FB6800225A64FB68212283F84120FCF74F
:1059A00059FC7861FB68FA889A84FB68FA88DA8483
:1059B000FB689B68B3F5805F08D1FB681B69002B0F
:1059C00004D10023FB61BB68BB6103E0BB68FB61E2
:1059D0000023BB612EE03B6800937B69002280219D
:1059E000F86800F048F80346002B05D0FB68202239
:1059F00083F8412003233AE0FB69002B0BD1BB69FC
:105A00001B881A46FB681B68C2F308025A60BB6910
:105A10000233BB6107E0FB691A78FB681B685A60B8
:105A2000FB690133FB61FB68DB8C9BB2013B9AB2E3
:105A3000FB68DA84FB68DB8C9BB2002BCBD13B6824
:105A400000937B6900224021F86800F014F80346B7
:105A5000002B05D0FB68202283F84120032306E0B9
:105A6000FB68202283F84120002300E0022318462F
:105A70002037BD4680BD80B586B000AFF860B96004
:105A80003B601346FB713BE03B6AB3F1FF3F37D00D
:105A9000FCF7E0FB02463B68D31A3A6A9A4202D30B
:105AA0003B6A002B01D103233AE0FB681B68DB68EB
:105AB00003F00403002B23D0BB68802B20D0BB68ED
:105AC000402B1DD0FB681B681B6803F00803082BE4
:105AD00016D100237B61FB681B681B687B61FB6838
