:020000040800F2
:10000000000002209D210008051F00080D1F0008A8
:10001000151F00081D1F0008251F00080000000014
:100020000000000000000000000000002D1F00087C
:100030003B1F000800000000491F0008571F000870
:10004000ED210008ED210008ED210008ED21000858
:10005000ED210008ED210008ED210008ED21000848
:10006000ED210008ED210008ED210008ED21000838
:10007000ED210008ED210008ED210008651F0008B2
:10008000ED210008ED210008ED210008ED21000818
:10009000ED210008ED210008ED210008ED21000808
:1000A000ED210008ED210008ED210008791F00086E
:1000B0008D1F0008ED210008ED210008ED2100084A
:1000C000ED210008ED210008ED210008ED210008D8
:1000D000ED210008ED210008ED210008ED210008C8
:1000E000A11F0008ED210008ED210008ED21000806
:1000F000ED210008ED210008ED210008ED210008A8
:10010000ED210008ED210008B11F0008ED210008D5
:10011000ED210008ED210008ED210008ED21000887
:10012000ED210008ED210008ED210008ED21000877
:10013000ED210008ED210008ED210008ED21000867
:10014000ED210008ED210008ED210008ED21000857
:10015000ED210008ED210008ED210008ED21000847
:10016000C51F0008D91F0008ED210008ED21000877
:10017000ED210008ED210008ED210008000000003D
:08018000ED210008ED2100084B
:1001900010B5054C237833B9044B13B10448AFF3C1
:1001A00000800123237010BD180200200000000011
:1001B000E046010808B5034B1BB103490348AFF300
:1001C000008008BD000000001C020020E04601087D
:1001D00001F0FF01102A2BDB10F0070F08D010F8F8
:1001E000013B013A8B422DD010F0070F42B3F6D1FC
:1001F000F0B441EA012141EA014122F007047FF015
:1002000000070023F0E80256083C85EA010586EA6B
:10021000010685FA47F5A3FA87F586FA47F6A5FAA7
:1002200087F68EB9EED1F0BC01F0FF0102F00702B3
:1002300032B110F8013B013A83EA010313B1F8D15E
:100240000020704701387047002D06BF354603383F
:10025000073815F0010F07D1013015F4807F02BF78
:10026000013015F4C03F0130F0BC0138704700BFC9
:10027000034613F8012B002AFBD1181A01387047E6
:1002800081F0004102E000BF83F0004330B54FEA47
:1002900041044FEA430594EA050F08BF90EA020FB4
:1002A0001FBF54EA000C55EA020C7FEA645C7FEA47
:1002B000655C00F0E2804FEA5454D4EB5555B8BF6A
:1002C0006D420CDD2C4480EA020281EA030382EADB
:1002D000000083EA010180EA020281EA0303362D6D
:1002E00088BF30BD11F0004F4FEA01314FF4801C40
:1002F0004CEA113102D0404261EB410113F0004F52
:100300004FEA03334CEA133302D0524263EB430308
:1003100094EA050F00F0A780A4F10104D5F1200EA6
:100320000DDB02FA0EFC22FA05F2801841F1000101
:1003300003FA0EF2801843FA05F359410EE0A5F1D5
:1003400020050EF1200E012A03FA0EFC28BF4CF006
:10035000020C43FA05F3C01851EBE37101F00045BC
:1003600007D54FF0000EDCF1000C7EEB00006EEBC9
:100370000101B1F5801F1BD3B1F5001F0CD3490853
:100380005FEA30004FEA3C0C04F101044FEA4452AA
:1003900012F5800F80F09A80BCF1004F08BF5FEA31
:1003A000500C50F1000041EB045141EA050130BD11
:1003B0005FEA4C0C404141EB0101013C28BFB1F523
:1003C000801FE9D291F0000F04BF01460020B1FA6E
:1003D00081F308BF2033A3F10B03B3F120020CDA41
:1003E0000C3208DD02F1140CC2F10C0201FA0CF01F
:1003F00021FA02F10CE002F11402D8BFC2F1200C84
:1004000001FA02F120FA0CFCDCBF41EA0C01904039
:10041000E41AA2BF01EB0451294330BD6FEA040482
:100420001F3C1CDA0C340EDC04F11404C4F120026D
:1004300020FA04F001FA02F340EA030021FA04F37F
:1004400045EA030130BDC4F10C04C4F1200220FAD6
:1004500002F001FA04F340EA0300294630BD21FA14
:1004600004F0294630BD94F0000F83F4801306BFDA
:1004700081F480110134013D4EE77FEA645C18BFCE
:100480007FEA655C29D094EA050F08BF90EA020F65
:1004900005D054EA000C04BF1946104630BD91EA5D
:1004A000030F1EBF0021002030BD5FEA545C05D160
:1004B0004000494128BF41F0004130BD14F580049F
:1004C0003CBF01F5801130BD01F0004545F0FE4113
:1004D00041F470014FF0000030BD7FEA645C1ABF48
:1004E000194610467FEA655C1CBF0B46024650EA7F
:1004F000013406BF52EA033591EA030F41F40021AB
:1005000030BD00BF90F0000F04BF0021704730B530
:100510004FF4806404F132044FF000054FF0000105
:1005200050E700BF90F0000F04BF0021704730B5C6
:100530004FF4806404F1320410F0004548BF40429B
:100540004FF000013EE700BF42004FEAE2014FEAF0
:1005500031014FEA02701FBF12F07F4393F07F4FCB
:1005600081F06051704732F07F4208BF704793F0CE
:100570007F4F04BF41F40021704730B54FF46074E1
:1005800001F0004521F000411CE700BF50EA0102E4
:1005900008BF704730B54FF000050AE050EA01028D
:1005A00008BF704730B511F0004502D5404261EBFD
:1005B00041014FF4806404F132045FEA915C3FF43E
:1005C000D8AE4FF003025FEADC0C18BF03325FEADB
:1005D000DC0C18BF033202EBDC02C2F1200300FA8C
:1005E00003FC20FA02F001FA03FE40EA0E0021FAB1
:1005F00002F11444BDE600BF70B54FF0FF0C4CF49F
:10060000E06C1CEA11541DBF1CEA135594EA0C0F50
:1006100095EA0C0F00F0DEF82C4481EA030621EA8B
:100620004C5123EA4C5350EA013518BF52EA0335C6
:1006300041F4801143F4801338D0A0FB02CE4FF078
:100640000005E1FB02E506F00042E0FB03E54FF0A8
:100650000006E1FB03569CF0000F18BF4EF0010EA0
:10066000A4F1FF04B6F5007F64F5407404D25FEA9C
:100670004E0E6D4146EB060642EAC62141EA55514F
:100680004FEAC52040EA5E504FEACE2EB4F1FD0C91
:1006900088BFBCF5E06F1ED8BEF1004F08BF5FEA0F
:1006A000500E50F1000041EB045170BD06F00046C1
:1006B00046EA010140EA020081EA0301B4EB5C046E
:1006C000C2BFD4EB0C0541EA045170BD41F4801166
:1006D0004FF0000E013C00F3AB8014F1360FDEBF8B
:1006E000002001F0004170BDC4F10004203C35DA67
:1006F0000C341BDC04F11404C4F1200500FA05F3EA
:1007000020FA04F001FA05F240EA020001F000428A
:1007100021F0004110EBD37021FA04F642EB060100
:100720005EEA430E08BF20EAD37070BDC4F10C042A
:10073000C4F1200500FA04F320FA05F001FA04F2EE
:1007400040EA020001F0004110EBD37041F10001DA
:100750005EEA430E08BF20EAD37070BDC4F12005E5
:1007600000FA05F24EEA020E20FA04F301FA05F24D
:1007700043EA020321FA04F001F0004121FA04F2F5
:1007800020EA020000EBD3705EEA430E08BF20EAC5
:10079000D37070BD94F0000F0FD101F000464000FF
:1007A00041EB010111F4801F08BF013CF7D041EA81
:1007B000060195F0000F18BF704703F00046520085
:1007C00043EB030313F4801F08BF013DF7D043EA56
:1007D0000603704794EA0C0F0CEA135518BF95EA0C
:1007E0000C0F0CD050EA410618BF52EA4306D1D193
:1007F00081EA030101F000414FF0000070BD50EAB2
:10080000410606BF1046194652EA430619D094EA3B
:100810000C0F02D150EA013613D195EA0C0F05D125
:1008200052EA03361CBF104619460AD181EA030179
:1008300001F0004141F0FE4141F470014FF0000031
:1008400070BD41F0FE4141F4780170BD70B54FF0CC
:10085000FF0C4CF4E06C1CEA11541DBF1CEA13554C
:1008600094EA0C0F95EA0C0F00F0A7F8A4EB05042E
:1008700081EA030E52EA03354FEA013100F0888025
:100880004FEA03334FF0805545EA131343EA1263EE
:100890004FEA022245EA111545EA10654FEA0026A3
:1008A0000EF000419D4208BF964244F1FD0404F55C
:1008B000407402D25B084FEA3202B61A65EB0305B8
:1008C0005B084FEA32024FF480104FF4002CB6EB75
:1008D000020E75EB030E22BFB61A754640EA0C00F5
:1008E0005B084FEA3202B6EB020E75EB030E22BF35
:1008F000B61A754640EA5C005B084FEA3202B6EB76
:10090000020E75EB030E22BFB61A754640EA9C0034
:100910005B084FEA3202B6EB020E75EB030E22BF04
:10092000B61A754640EADC0055EA060E18D04FEAC2
:10093000051545EA16754FEA06164FEAC30343EA62
:1009400052734FEAC2025FEA1C1CC0D111F4801F2F
:100950000BD141EA00014FF000004FF0004CB6E728
:1009600011F4801F04BF01430020B4F1FD0C88BFC7
:10097000BCF5E06F3FF6AFAEB5EB030C04BFB6EBD2
:10098000020C5FEA500C50F1000041EB045170BDC5
:100990000EF0004E4EEA113114EB5C04C2BFD4EBF2
:1009A0000C0541EA045170BD41F480114FF0000E76
:1009B000013C90E645EA060E8DE60CEA135594EAF2
:1009C0000C0F08BF95EA0C0F3FF43BAF94EA0C0FF5
:1009D0000AD150EA01347FF434AF95EA0C0F7FF46A
:1009E00025AF104619462CE795EA0C0F06D152EABE
:1009F00003353FF4FDAE1046194622E750EA4106A2
:100A000018BF52EA43067FF4C5AE50EA41047FF4B2
:100A10000DAF52EA43057FF4EBAE12E74FF0FF3C17
:100A200006E000BF4FF0010C02E000BF4FF0010CE8
:100A30004DF804CD4FEA410C7FEA6C5C4FEA430C61
:100A400018BF7FEA6C5C1BD001B050EA410C0CBFB0
:100A500052EA430C91EA030F02BF90EA020F002012
:100A6000704710F1000F91EA030F58BF994208BF79
:100A700090422CBFD8176FEAE37040F00100704736
:100A80004FEA410C7FEA6C5C02D150EA013C07D18D
:100A90004FEA430C7FEA6C5CD6D152EA033CD3D0D8
:100AA0005DF8040B704700BF8446104662468C46D2
:100AB0001946634600E000BF01B5FFF7B7FF002805
:100AC00048BF10F1000F01BD4DF808EDFFF7F4FF2E
:100AD0000CBF012000205DF808FB00BF4DF808EDB9
:100AE000FFF7EAFF34BF012000205DF808FB00BFDC
:100AF0004DF808EDFFF7E0FF94BF012000205DF8FE
:100B000008FB00BF4DF808EDFFF7CEFF94BF0120B2
:100B100000205DF808FB00BF4DF808EDFFF7C4FFAB
:100B200034BF012000205DF808FB00BF4FEA410CF4
:100B30007FEA6C5C02D150EA013C0AD14FEA430CD7
:100B40007FEA6C5C02D152EA033C02D14FF0000014
:100B500070474FF0010070474FEA410212F5001252
:100B600015D211D56FF47873B3EB625212D94FEAF4
:100B7000C12343F0004343EA505311F0004F23FADE
:100B800002F018BF404270474FF00000704750EA33
:100B9000013005D111F0004008BF6FF000407047F0
:100BA0004FF00000704700BF4A0011D212F500124A
:100BB00011D20DD56FF47873B3EB62520ED44FEAB5
:100BC000C12343F0004343EA505323FA02F0704735
:100BD0004FF00000704750EA013002D14FF0FF3073
:100BE00070474FF0000070474FEA4102B2F1E04316
:100BF00024BFB3F5001CDCF1FE5C0DD901F0004C04
:100C00004FEAC0024CEA5070B2F1004F40EB830053
:100C100008BF20F00100704711F0804F21D113F17F
:100C20003872BCBF01F00040704741F480114FEAB8
:100C30005252C2F11802C2F1200C10FA0CF320FA41
:100C400002F018BF40F001004FEAC1234FEAD3235E
:100C500003FA0CFC40EA0C0023FA02F34FEA4303C8
:100C6000CCE77FEA625307D150EA01331EBF4FF051
:100C7000FE4040F44000704701F0004040F0FE406C
:100C800040F40000704700BF53B94AB9002908BFBB
:100C900000281CBF4FF0FF314FF0FF3000F0BEB90D
:100CA000ADF1080C6DE904CE00F03CF8DDF804E08D
:100CB000DDE9022304B0704738B500220023044662
:100CC0000D46FFF70BFF28B920462946BDE83840FE
:100CD00000F00AB8204605F1004100F005F8404256
:100CE00061EB410138BD00BFD0B50C4B0022064678
:100CF0000F46FFF781FCFFF757FF0446FFF702FCA2
:100D0000074B0022FFF778FC02460B463046394677
:100D1000FFF7BAFAFFF748FF2146D0BD0000F03DCB
:100D20000000F0412DE9F047089D8E4604468846B4
:100D3000002B4AD18A42174662D9B2FA82F64EB1E6
:100D4000C6F1200301FA06F820FA03F3B74043EA9C
:100D50000808B4404FEA174E1FFA87FCB8FBFEF1B3
:100D6000230C0EFB118843EA084301FB0CF29A4264
:100D700009D9FB1801F1FF3080F0EA809A4240F275
:100D8000E78002393B449A1AA3B2B2FBFEF00EFB95
:100D9000102243EA024300FB0CFC9C4509D9FB18D6
:100DA00000F1FF3280F0D6809C4540F2D3803B4476
:100DB000023840EA0140A3EB0C0300211DB1F340CF
:100DC0000022C5E90032BDE8F0878B4205D90DB19C
:100DD000C5E9000100210846F5E7B3FA83F10029CF
:100DE00046D1734502D3824200F20581841A6EEB2C
:100DF000030201209046002DE5D0C5E90048E2E756
:100E0000002A00F09080B2FA82F6002E40F0A48012
:100E10008A1A030C4FEA174E80B2BCB20121B2FB12
:100E2000FEFC0EFB1C2243EA024304FB0CF29A4236
:100E300007D9FB180CF1FF3802D29A4200F2E08089
:100E4000C4469B1AB3FBFEF20EFB123340EA034387
:100E500002FB04F49C4207D9FB1802F1FF3002D2D6
:100E60009C4200F2CA8002461B1B42EA0C40A5E7E6
:100E7000C1F120068B4022FA06F71F430EFA01F457
:100E800020FA06F32EFA06FE4FEA1749234300FA2A
:100E900001F81FFA87FCBEFBF9F01C0C09FB10EEF1
:100EA00044EA0E4400FB0CFEA64502FA01F209D901
:100EB0003C1900F1FF3A80F09C80A64540F29980F1
:100EC00002383C44A4EB0E041FFA83FEB4FBF9F392
:100ED00009FB13444EEA044403FB0CFCA44508D967
:100EE0003C1903F1FF3E80F08280A4457FD9023B8C
:100EF0003C4443EA0040A4EB0C04A0FB02EC644534
:100F00007346E14662D35FD05DB1B8EB030264EB98
:100F1000090404FA06F622FA01F31E43CC40C5E99F
:100F2000006400214FE7B1FBF2FC010C41EA0E41E5
:100F300080B240EA01423B4638463C46B846BE468F
:100F40002026B1FBF7F1A2EB080241EA0C4166E76B
:100F5000014618E710462CE7C6F120022EFA02F3EC
:100F6000B740B14020FA02F24FEA174E0A43B3FBF2
:100F7000FEF8BCB20EFB1833110C41EA034108FB2A
:100F800004F9B04089454FEA104380B23ED9791840
:100F900008F1FF3C01D289451FD8A1EB0901B1FB43
:100FA000FEF909FB04F80EFB191192B242EA014264
:100FB000424529D2BA1809F1FF31C4D24245C2D202
:100FC000A9F102013A44BEE7F0459DD2BEEB02030F
:100FD0006CEB070C0138E14696E7A7EB0909494499
:100FE000A8F1020CB1FBFEF909FB04F8DBE773463C
:100FF0007FE7504666E70846FDE63B44023A33E7A2
:10100000ACF1020C3B441CE749469CE7A1EB09010B
:10101000C446B1FBFEF909FB04F8C4E7704700BF02
:1010200080B500AF01F0E4F800F01CF800F0DCFB44
:1010300000F0BAFB00F086FA00F01CFB00F0AAF802
:1010400000F09AF900F086FB00F000F900F074F867
:1010500000F002FA00F0CCF80DF072F80DF002F991
:10106000FCE7000080B594B000AF07F12003302208
:10107000002118460FF0DFF907F10C0300221A6077
:101080005A609A60DA601A610023BB60284B1B6CBF
:10109000274A43F080531364254B1B6C03F08053A5
:1010A000BB60BB6800237B60224B1B68214A43F472
:1010B000804313601F4B1B6803F480437B607B6895
:1010C00001233B624FF480337B620223BB634FF406
:1010D0008003FB6304233B64A8237B640223BB647B
:1010E0000423FB6407F12003184604F05DFF034668
:1010F000002B01D000F022FC0F23FB6002233B6198
:1011000000237B614FF4A053BB614FF48053FB611C
:1011100007F10C030521184605F0BEF90346002B24
:1011200001D000F00BFC00BF5037BD4680BD00BFB2
:10113000003802400070004080B500AF124B134AE7
:101140001A60114B124A5A600F4B00229A600E4BE4
:101150000022DA600C4B4FF480421A610A4B0022E5
:101160005A61094B00229A61074B0022DA61064B53
:1011700000221A62044801F05DFF0346002B01D0F3
:1011800000F0DCFB00BF80BD3402002000540040B2
:10119000A086010080B500AF124B134A1A60114BB4
:1011A000124A5A600F4B00229A600E4B0022DA60FE
:1011B0000C4B4FF480421A610A4B00225A61094BD2
:1011C00000229A61074B0022DA61064B00221A6264
:1011D000044801F02FFF0346002B01D000F0AEFBC6
:1011E00000BF80BD8802002000580040801A060021
:1011F00080B500AF124B134A1A60114B124A5A6065
:101200000F4B00229A600E4B0022DA600C4B4FF419
:1012100080421A610A4B00225A61094B00229A61EE
:10122000074B0022DA61064B00221A62044801F0E3
:1012300001FF0346002B01D000F080FB00BF80BD02
:10124000DC020020005C0040801A060080B58AB0F5
:1012500000AF07F1180300221A605A609A60DA6042
:1012600007F1100300221A605A603B4600221A6000
:101270005A609A60DA603E4B3E4A1A603C4BA722A5
:101280005A603B4B00229A60394B4FF6FF72DA608E
:10129000374B00221A61364B00225A61344B002230
:1012A0009A61334805F018FB0346002B01D000F08B
:1012B00045FB4FF48053BB6107F1180319462C48D6
:1012C00006F0B4F80346002B01D000F037FB2848A5
:1012D00005F0DCFC0346002B01D000F02FFB0023BF
:1012E0003B6100237B6107F110031946204806F09B
:1012F000CDFD0346002B01D000F020FB00233B6016
:1013000001237B600023BB600023FB603B4600227F
:101310001946174805F02CFF0346002B01D000F0BA
:101320000DFB0423FB603B4604221946104805F0E0
:101330001FFF0346002B01D000F000FB3B460822B4
:1013400019460B4805F014FF0346002B01D000F0AE
:10135000F5FA3B460C221946054805F009FF0346FD
:10136000002B01D000F0EAFA00BF2837BD4680BD4F
:10137000900300200000014080B58AB000AF07F163
:10138000180300221A605A609A60DA6007F11003AD
:1013900000221A605A603B4600221A605A609A6026
:1013A000DA602C4B4FF080421A602A4B53225A606D
:1013B000284B00229A60274B4FF0FF32DA60254B12
:1013C00000221A61234B00229A61224805F084FA18
:1013D0000346002B01D000F0B1FA4FF48053BB61FB
:1013E00007F1180319461B4806F020F80346002BA6
:1013F00001D000F0A3FA174805F048FC0346002B83
:1014000001D000F09BFA00233B6100237B6107F1D0
:10141000100319460F4806F039FD0346002B01D092
:1014200000F08CFA00233B6001237B600023BB604B
:101430000723FB603B4600221946064805F098FE4C
:101440000346002B01D000F079FA00BF2837BD46D3
:1014500080BD00BFD803002080B58EB000AF07F17B
:10146000280300221A605A609A60DA6007F12003AC
:1014700000221A605A603B1D00221A605A609A606E
:10148000DA601A615A619A612C4B2D4A1A602B4B13
:1014900053225A60294B00229A60284B44F61F625F
:1014A000DA60264B00221A61244B00229A612348FD
:1014B00005F012FA0346002B01D000F03FFA4FF47A
:1014C0008053BB6207F1280319461C4805F0AEFFA4
:1014D0000346002B01D000F031FA184805F0B4FAA9
:1014E0000346002B01D000F029FA00233B620023C1
:1014F0007B6207F120031946104806F0C7FC03463B
:10150000002B01D000F01AFA60237B600023BB603F
:101510000023FB6000237B613B1D00221946074826
:1015200005F0C2FE0346002B01D000F007FA034885
:1015300000F03EFC00BF3837BD4680BD20040020CF
:101540000004004080B58EB000AF07F128030022F0
:101550001A605A609A60DA6007F1200300221A606C
:101560005A603B1D00221A605A609A60DA601A6164
:101570005A619A613D4B3E4A1A603C4BA7225A6021
:101580003A4B00229A60394B40F2E732DA60374B2F
:1015900000221A61354B00229A61344805F09CF90B
:1015A0000346002B01D000F0C9F94FF48053BB6211
:1015B00007F1280319462D4805F038FF0346002B94
:1015C00001D000F0BBF9294805F03EFA0346002B94
:1015D00001D000F0B3F900233B6200237B6207F1E6
:1015E00020031946214806F051FC0346002B01D088
:1015F00000F0A4F960237B600023BB600023FB6044
:1016000000237B613B1D00221946184805F04CFE63
:101610000346002B01D000F091F93B1D042219462E
:10162000124805F041FE0346002B01D000F086F978
:101630003B1D082219460D4805F036FE0346002BD7
:1016400001D000F07BF93B1D0C221946074805F03C
:101650002BFE0346002B01D000F070F9034800F088
:10166000A7FB00BF3837BD4680BD00BF680400201F
:101670000008004080B58AB000AF07F118030022CF
:101680001A605A609A60DA6007F1100300221A604B
:101690005A603B4600221A605A609A60DA602B4B0F
:1016A0002B4A1A60294B53225A60284B00229A6019
:1016B000264B4FF0FF32DA60244B00221A61234B95
:1016C00000229A61214805F007F90346002B01D05A
:1016D00000F034F94FF48053BB6107F11803194649
:1016E0001A4805F0A3FE0346002B01D000F026F9AE
:1016F000164805F0CBFA0346002B01D000F01EF986
:1017000000233B6100237B6107F1100319460F485A
:1017100006F0BCFB0346002B01D000F00FF90023BC
:101720003B6001237B600023BB600723FB603B46DB
:1017300004221946054805F01BFD0346002B01D085
:1017400000F0FCF800BF2837BD4680BDB004002083
:10175000000C004080B500AF114B124A1A60104BCC
:101760004FF4E1325A600E4B00229A600C4B00227B
:10177000DA600B4B00221A61094B0C225A61084BAC
:1017800000229A61064B0022DA61054806F00EFC41
:101790000346002B01D000F0D1F800BF80BD00BF90
:1017A000F80400200010014080B582B000AF002393
:1017B0007B600C4B1B6B0B4A43F400131363094B08
:1017C0001B6B03F400137B607B68002200210F2059
:1017D00000F07FFE0F2000F098FE00BF0837BD46E6
:1017E00080BD00BF0038024080B58CB000AF07F16B
:1017F0001C0300221A605A609A60DA601A610023A2
:10180000BB614A4B1B6B494A43F080031363474B50
:101810001B6B03F08003BB61BB6900237B61434BFF
:101820001B6B424A43F001031363404B1B6B03F0F5
:1018300001037B617B6900233B613C4B1B6B3B4A93
:1018400043F010031363394B1B6B03F010033B6130
:101850003B690023FB60354B1B6B344A43F00203AA
:101860001363324B1B6B03F00203FB60FB68002326
:10187000BB602E4B1B6B2D4A43F0080313632B4BAD
:101880001B6B03F00803BB60BB6800237B60274B26
:101890001B6B264A43F004031363244B1B6B03F0BA
:1018A00004037B607B6800224021214801F090FB0B
:1018B00000224FF4A0511F4801F08AFB4023FB6136
:1018C00001233B6200237B620023BB6207F11C0300
:1018D0001946174801F0E0F94FF4A053FB610123CA
:1018E0003B6200237B620023BB6207F11C031946A5
:1018F000104801F0D1F94FF48053FB614FF4881385
:101900003B6200237B6207F11C0319460A4801F081
:10191000C3F900220221282000F0DBFD282000F07E
:10192000F4FD00BF3037BD4680BD00BF0038024027
:1019300000000240001002400004024080B400AFEA
:1019400072B600BF00BFFDE780B483B000AF0023D4
:101950007B60104B5B6C0F4A43F4804353640D4B28
:101960005B6C03F480437B607B6800233B60094B26
:101970001B6C084A43F080531364064B1B6C03F046
:1019800080533B603B6800BF0C37BD465DF8047B6D
:10199000704700BF0038024080B58EB000AF78605D
:1019A00007F1240300221A605A609A60DA601A6113
:1019B0007B681B687B4A93422DD100233B627A4BA4
:1019C0001B6B794A43F002031363774B1B6B03F0E5
:1019D00002033B623B6A4FF440737B621223BB629B
:1019E0000023FB6203233B6304237B6307F124038F
:1019F00019466E4801F050F90023FB616A4B1B6CDD
:101A0000694A43F400131364674B1B6C03F400131F
:101A1000FB61FB69C2E07B681B68654A93422DD17C
:101A20000023BB61604B1B6B5F4A43F002031363EF
:101A30005D4B1B6B03F00203BB61BB694FF440635A
:101A40007B621223BB620023FB6203233B630423FC
:101A50007B6307F124031946544801F01DF9002364
:101A60007B61514B1B6C504A43F4800313644E4B13
:101A70001B6C03F480037B617B698FE07B681B68D0
:101A80004C4A934240F08A8000233B61464B1B6BDB
:101A9000454A43F004031363434B1B6B03F00403F9
:101AA0003B613B690023FB603F4B1B6B3E4A43F0AD
:101AB000010313633C4B1B6B03F00103FB60FB68EA
:101AC0004FF400737B621223BB620023FB6203238B
:101AD0003B6304237B6307F124031946364801F076
:101AE000DBF84FF480737B621223BB620023FB623E
:101AF00003233B6304237B6307F1240319462F4828
:101B000001F0CAF80023BB60274B1B6C264A43F444
:101B100000031364244B1B6C03F40003BB60BB681D
:101B2000274B284A1A60264B4FF0C0625A60244B5C
:101B300040229A60224B0022DA60214B4FF48062EF
:101B40001A611F4B00225A611D4B00229A611C4BE7
:101B50000022DA611A4B00221A62194B00225A62E3
:101B6000174800F0EDFC0346002B01D0FFF7E6FE1E
:101B70007B68134A5A63124A7B68936300220021F0
:101B8000482000F0A6FC482000F0BFFC0022002105
:101B9000492000F09EFC492000F0B7FC00BF383718
:101BA000BD4680BD005400400038024000040240A1
:101BB00000580040005C0040000802400000024065
:101BC000300300207060024080B590B000AF7860B4
:101BD00007F12C0300221A605A609A60DA601A61D9
:101BE0007B681B686B4A934235D10023BB626A4B0A
:101BF0005B6C694A43F001035364674B5B6C03F011
:101C00000103BB62BB6A00237B62634B1B6B624AAE
:101C100043F010031363604B1B6B03F010037B62F4
:101C20007B6A4FF4D443FB6202233B6300237B6354
:101C30000023BB630123FB6307F12C0319465748BC
:101C400001F02AF8002204211B2000F042FC1B2096
:101C500000F05BFC9AE07B681B68B3F1804F34D1E5
:101C600000233B624C4B1B6C4B4A43F00103136453
:101C7000494B1B6C03F001033B623B6A0023FB6191
:101C8000454B1B6B444A43F001031363424B1B6BF0
:101C900003F00103FB61FB690123FB6202233B6349
:101CA00000237B630023BB630123FB6307F12C0349
:101CB00019463B4800F0F0FF002201211C2000F0F3
:101CC00008FC1C2000F021FC60E07B681B68354AA2
:101CD00093420ED10023BB612F4B1B6C2E4A43F065
:101CE000020313642C4B1B6C03F00203BB61BB6942
:101CF0004CE07B681B682C4A93420ED100237B6129
:101D0000254B1B6C244A43F004031364224B1B6CC9
:101D100003F004037B617B6938E07B681B68234A1E
:101D2000934233D100233B611B4B1B6C1A4A43F097
:101D300008031364184B1B6C03F008033B613B69F9
:101D40000023FB60144B1B6B134A43F00103136326
:101D5000114B1B6B03F00103FB60FB680223FB626A
:101D600002233B6300237B630023BB630223FB63EB
:101D700007F12C0319460A4800F08EFF00220121CA
:101D8000322000F0A6FB322000F0BFFB00BF40373E
:101D9000BD4680BD000001400038024000100240F6
:101DA000000002400004004000080040000C004019
:101DB00080B58AB000AF786007F1140300221A6082
:101DC0005A609A60DA601A617B681B68244A934201
:101DD0001ED100233B61234B1B6B224A43F00403BB
:101DE0001363204B1B6B03F004033B613B694023EF
:101DF0007B610223BB610023FB6100233B62022362
:101E00007B6207F114031946174800F045FF23E0F1
:101E10007B681B68154A93421ED10023FB60114B5F
:101E20001B6B104A43F0080313630E4B1B6B03F04C
:101E30000803FB60FB684FF470437B610223BB61C6
:101E40000023FB6100233B6202237B6207F1140342
:101E50001946074800F020FF00BF2837BD4680BD67
:101E60000004004000380240000802400008004022
:101E7000000C024080B58AB000AF786007F114030F
:101E800000221A605A609A60DA601A617B681B68E7
:101E9000194A93422BD100233B61184B5B6C174AC4
:101EA00043F010035364154B5B6C03F010033B616C
:101EB0003B690023FB60114B1B6B104A43F002038C
:101EC00013630E4B1B6B03F00203FB60FB68C02324
:101ED0007B610223BB610023FB6103233B62072379
:101EE0007B6207F114031946054800F0D5FE00BFD8
:101EF0002837BD4680BD00BF0010014000380240B9
:101F00000004024080B400AF00BFFDE780B400AF22
:101F100000BFFDE780B400AF00BFFDE780B400AFB5
:101F200000BFFDE780B400AF00BFFDE780B400AFA5
:101F300000BFBD465DF8047B704780B400AF00BFB2
:101F4000BD465DF8047B704780B400AF00BFBD465E
:101F50005DF8047B704780B500AF00F09BF900BFCF
:101F600080BD000080B500AF024800F011FC00BF4A
:101F700080BD00BF3003002080B500AF024805F0EF
:101F800007F800BF80BD00BF9003002080B500AF00
:101F9000024804F0FDFF00BF80BD00BFD803002051
:101FA00080B500AF4FF4805001F02CF800BF80BD29
:101FB00080B500AF024804F0EBFF00BF80BD00BF5A
:101FC000B004002080B500AF024801F017FE00BF4A
:101FD00080BD00BFDC02002080B500AF024801F0E8
:101FE0007EFF00BF80BD00BFDC02002080B400AFD8
:101FF00001231846BD465DF8047B704780B582B06A
:1020000000AF786039600EF069FA034616221A6054
:102010004FF0FF3318460837BD4680BD80B582B00B
:1020200000AF78604FF0FF317868FFF7E7FF00BF3F
:10203000FDE780B586B000AFF860B9607A60002334
:102040007B610AE0AFF300800146BB685A1CBA60AE
:10205000CAB21A707B6901337B617A697B689A42E4
:10206000F0DB7B6818461837BD4680BD80B586B06A
:1020700000AFF860B9607A6000237B6109E0BB685B
:102080005A1CBA601B781846AFF300807B69013395
:102090007B617A697B689A42F1DB7B681846183766
:1020A000BD4680BD80B483B000AF78604FF0FF3391
:1020B00018460C37BD465DF8047B704780B483B08A
:1020C00000AF786039603B684FF400525A600023DB
:1020D00018460C37BD465DF8047B704780B483B06A
:1020E00000AF7860012318460C37BD465DF8047BCD
:1020F000704780B485B000AFF860B9607A600023A3
:1021000018461437BD465DF8047B704780B586B02D
:1021100000AF7860144A154BD31A7B617B693B6131
:10212000134B1B68002B02D1114B124A1A60104B43
:102130001A687B6813443A699A4207D20EF0CEF9C6
:1021400003460C221A604FF0FF3309E0084B1B686E
:10215000FB60074B1A687B681344054A1360FB68F1
:1021600018461837BD4680BD00000220000400005C
:1021700060050020800F002080B400AF064BD3F82C
:102180008830054A43F47003C2F8883000BFBD466A
:102190005DF8047B704700BF00ED00E0DFF834D04D
:1021A000FFF7EAFF0C480D490D4A002302E0D4581E
:1021B000C4500433C4188C42F9D30A4A0A4C002391
:1021C00001E013600432A242FBD30EF08DF9FEF75A
:1021D00027FF7047000002200000002018020020A6
:1021E000FC560108180200207C0F0020FEE70000CA
:1021F00080B500AF0E4B1B680D4A43F400731360AB
:102200000B4B1B680A4A43F480631360084B1B683E
:10221000074A43F480731360032000F04FF90F2046
:1022200000F008F8FFF790FB0023184680BD00BFC0
:10223000003C024080B582B000AF7860124B1A6853
:10224000124B1B7819464FF47A73B3FBF1F3B2FBD0
:10225000F3F3184600F067F90346002B01D0012381
:102260000EE07B680F2B0AD8002279684FF0FF3010
:1022700000F02FF9064A7B681360002300E0012379
:1022800018460837BD4680BD000000200800002029
:102290000400002080B400AF064B1B781A46064BA2
:1022A0001B681344044A136000BFBD465DF8047BFD
:1022B000704700BF080000206405002080B400AF14
:1022C000034B1B681846BD465DF8047B704700BF92
:1022D0006405002080B584B000AF7860FFF7EEFFA2
:1022E000B8607B68FB60FB68B3F1FF3F05D00A4B29
:1022F0001B781A46FB681344FB6000BFFFF7DEFF44
:102300000246BB68D31AFA689A42F7D800BF00BFEA
:102310001037BD4680BD00BF0800002080B485B0E6
:1023200000AF78607B6803F00703FB600C4BDB6851
:10233000BB60BA684FF6FF031340BB60FB681A022C
:10234000BB68134343F0BF6343F40033BB60044AEC
:10235000BB68D36000BF1437BD465DF8047B70478F
:1023600000ED00E080B400AF044BDB681B0A03F013
:1023700007031846BD465DF8047B704700ED00E09A
:1023800080B483B000AF0346FB7197F90730002B90
:102390000BDBFB7903F01F02074997F907305B0954
:1023A000012000FA02F241F8232000BF0C37BD469D
:1023B0005DF8047B704700BF00E100E080B483B0AB
:1023C00000AF03463960FB7197F90730002B0ADB39
:1023D0003B68DAB20C4997F907301201D2B20B44CC
:1023E00083F800230AE03B68DAB20849FB7903F07E
:1023F0000F03043B1201D2B20B441A7600BF0C3714
:10240000BD465DF8047B704700E100E000ED00E0B0
:1024100080B489B000AFF860B9607A60FB6803F0FF
:102420000703FB61FB69C3F10703042B28BF0423E7
:10243000BB61FB690433062B02D9FB69033B00E057
:1024400000237B614FF0FF32BB6902FA03F3DA43EA
:10245000BB681A407B699A404FF0FF317B6901FAF3
:1024600003F3D9437B680B40134318462437BD461A
:102470005DF8047B7047000080B582B000AF7860E3
:102480007B68013BB3F1807F01D301230FE00A4A4F
:102490007B68013B53600F214FF0FF30FFF78EFF49
:1024A000054B00229A60044B07221A60002318464D
:1024B0000837BD4680BD00BF10E000E080B582B0A7
:1024C00000AF78607868FFF729FF00BF0837BD4686
:1024D00080BD80B586B000AF0346B9607A60FB73FB
:1024E00000237B61FFF73EFF78617A68B9687869FD
:1024F000FFF78EFF024697F90F3011461846FFF797
:102500005DFF00BF1837BD4680BD80B582B000AF0B
:102510000346FB7197F907301846FFF731FF00BFFC
:102520000837BD4680BD80B582B000AF786078685E
:10253000FFF7A2FF034618460837BD4680BD0000DE
:1025400080B586B000AF786000237B61FFF7B6FEF0
:1025500038617B68002B01D1012399E07B6802225E
:1025600083F835207B68002283F834207B681B6861
:102570001A687B681B6822F001021A600FE0FFF7FF
:102580009DFE02463B69D31A052B08D97B682022A1
:102590005A657B68032283F83520032378E07B6843
:1025A0001B681B6803F00103002BE8D17B681B68E4
:1025B0001B687B617A69384B13407B617B685A6882
:1025C0007B689B681A437B68DB681A437B681B69DE
:1025D0001A437B685B691A437B689B691A437B6873
:1025E000DB691A437B681B6A13437A6913437B6177
:1025F0007B685B6A042B07D17B68DA6A7B681B6B9C
:1026000013437A6913437B617B681B687A691A609C
:102610007B681B685B697B617B6923F007037B61D7
:102620007B685B6A7A6913437B617B685B6A042B16
:1026300017D17B689B6A7A6913437B617B68DB6A8D
:10264000002B0ED0786800F0ABFA0346002B08D0C0
:102650007B6840225A657B68012283F8352001237C
:1026600016E07B681B687A695A61786800F062FA44
:102670000346FB607B68DB6D3F229A40FB689A60F3
:102680007B6800225A657B68012283F8352000238D
:1026900018461837BD4680BD3F8010F080B586B023
:1026A00000AFF860B9607A603B600023FB75FB689F
:1026B0009B6D3B61FB6893F83430012B01D1022301
:1026C00040E0FB68012283F83420FB6893F8353042
:1026D000DBB2012B2FD1FB68022283F83520FB6887
:1026E00000225A653B687A68B968F86800F0F4F926
:1026F000FB68DB6D3F229A403B699A60FB681B6870
:102700001A68FB681B6842F016021A60FB681B6CB3
:10271000002B07D0FB681B681A68FB681B6842F037
:1027200008021A60FB681B681A68FB681B6842F0A5
:1027300001021A6005E0FB68002283F834200223BE
:10274000FB75FB7D18461837BD4680BD80B483B04D
:1027500000AF78607B6893F83530DBB2022B04D091
:102760007B6880225A6501230CE07B68052283F890
:1027700035207B681B681A687B681B6822F00102A1
:102780001A60002318460C37BD465DF8047B70477D
:1027900080B586B000AF78600023BB608E4B1B68AD
:1027A0008E4AA2FB03239B0A7B617B689B6D3B6186
:1027B0003B691B68FB607B68DB6D08229A40FB6805
:1027C0001340002B1AD07B681B681B6803F00403BE
:1027D000002B13D07B681B681A687B681B6822F08B
:1027E00004021A607B68DB6D08229A403B699A609C
:1027F0007B685B6D43F001027B685A657B68DB6D2B
:1028000001229A40FB681340002B12D07B681B68A2
:102810005B6903F08003002B0BD07B68DB6D01222A
:102820009A403B699A607B685B6D43F002027B686B
:102830005A657B68DB6D04229A40FB681340002BCD
:1028400012D07B681B681B6803F00203002B0BD0BF
:102850007B68DB6D04229A403B699A607B685B6D04
:1028600043F004027B685A657B68DB6D10229A4056
:10287000FB681340002B43D07B681B681B6803F088
:102880000803002B3CD07B68DB6D10229A403B692B
:102890009A607B681B681B6803F48023002B18D0A8
:1028A0007B681B681B6803F40023002B08D17B683E
:1028B0001B6C002B24D07B681B6C786898471FE04A
:1028C0007B689B6C002B1BD07B689B6C786898475F
:1028D00016E07B681B681B6803F48073002B07D12C
:1028E0007B681B681A687B681B6822F008021A6004
:1028F0007B681B6C002B03D07B681B6C7868984747
:102900007B68DB6D20229A40FB681340002B00F0AF
:102910008F807B681B681B6803F01003002B00F09E
:1029200087807B68DB6D20229A403B699A607B68D8
:1029300093F83530DBB2052B36D17B681B681A68FB
:102940007B681B6822F016021A607B681B685A6954
:102950007B681B6822F080025A617B681B6C002B2D
:1029600003D17B689B6C002B07D07B681B681A68BF
:102970007B681B6822F008021A607B68DB6D3F22CF
:102980009A403B699A607B68012283F835207B6816
:10299000002283F834207B681B6D002B7ED07B687F
:1029A0001B6D7868984779E07B681B681B6803F4A7
:1029B0008023002B1DD07B681B681B6803F4002359
:1029C000002B0DD17B685B6C002B31D07B685B6C7E
:1029D000786898472CE000BF00000020B5814E1BAE
:1029E0007B68DB6B002B23D07B68DB6B78689847B8
:1029F0001EE07B681B681B6803F48073002B0FD1FB
:102A00007B681B681A687B681B6822F010021A60DA
:102A10007B68012283F835207B68002283F834200C
:102A20007B68DB6B002B03D07B68DB6B7868984797
:102A30007B685B6D002B32D07B685B6D03F001031C
:102A4000002B22D07B68052283F835207B681B6829
:102A50001A687B681B6822F001021A60BB680133A8
:102A6000BB607A699A4207D37B681B681B6803F0D6
:102A70000103002BF2D100E000BF7B68012283F844
:102A800035207B68002283F834207B68DB6C002BC8
:102A900005D07B68DB6C7868984700E000BF18378A
:102AA000BD4680BD80B483B000AF78607B6893F88A
:102AB0003530DBB218460C37BD465DF8047B7047F5
:102AC00080B483B000AF78607B685B6D18460C37CC
:102AD000BD465DF8047B704780B485B000AFF860F8
:102AE000B9607A603B60FB681B681A68FB681B680A
:102AF00022F480221A60FB681B683A685A60FB68FF
:102B00009B68402B08D1FB681B687A689A60FB6859
:102B10001B68BA68DA6007E0FB681B68BA689A60ED
:102B2000FB681B687A68DA6000BF1437BD465DF841
:102B3000047B704780B485B000AF78607B681B6809
:102B4000DBB2103B144AA2FB03231B09FB60134AB0
:102B5000FB6813441B781A467B68DA65FB68032B15
:102B600009D97B681B6823F47F7323F003031A1DC4
:102B70007B689A6507E07B681B6823F47F7323F00A
:102B800003037A6893657B689B6D18461437BD46CE
:102B90005DF8047B704700BFABAAAAAA7047010882
:102BA00080B485B000AF78600023FB737B689B6ABC
:102BB000BB607B689B69002B1FD1BB68032B56D879
:102BC00001A252F823F000BFD92B0008EB2B00081C
:102BD000D92B00086F2C00087B68DB6A03F0807338
:102BE000002B46D00123FB7343E07B68DB6AB3F123
:102BF000C07F40D10123FB733DE07B689B69B3F547
:102C0000005F21D1BB68032B37D801A252F823F013
:102C1000212C0008272C0008212C0008392C000842
:102C20000123FB7330E07B68DB6A03F08073002BC9
:102C300025D00123FB7322E07B68DB6AB3F1C07F00
:102C40001FD10123FB731CE0BB68022B03D9BB68B7
:102C5000032B03D018E00123FB7315E07B68DB6ACC
:102C600003F08073002B0ED00123FB730BE000BF39
:102C70000AE000BF08E000BF06E000BF04E000BFBC
:102C800002E000BF00E000BFFB7B18461437BD46E2
:102C90005DF8047B704700BF80B489B000AF7860F6
:102CA000396000237B6100233B610023BB6100236B
:102CB000FB616BE10122FB6902FA03F37B613B6874
:102CC0001B687A6913403B613A697B699A4240F01C
:102CD0005A813B685B6803F00303012B05D03B6816
:102CE0005B6803F00303022B30D17B689B68BB61F8
:102CF000FB695B00032202FA03F3DB43BA6913406A
:102D0000BB613B68DA68FB695B0002FA03F3BA69EE
:102D10001343BB617B68BA699A607B685B68BB617F
:102D20000122FB6902FA03F3DB43BA691340BB617A
:102D30003B685B681B0903F00102FB6902FA03F3BD
:102D4000BA691343BB617B68BA695A603B685B68C8
:102D500003F00303032B17D07B68DB68BB61FB69BF
:102D60005B00032202FA03F3DB43BA691340BB6141
:102D70003B689A68FB695B0002FA03F3BA69134384
:102D8000BB617B68BA69DA603B685B6803F0030388
:102D9000022B23D1FB69DA087B68083253F8223012
:102DA000BB61FB6903F007039B000F2202FA03F3E8
:102DB000DB43BA691340BB613B681A69FB6903F0E6
:102DC00007039B0002FA03F3BA691343BB61FB6973
:102DD000DA087B680832B96943F822107B681B68FF
:102DE000BB61FB695B00032202FA03F3DB43BA69B0
:102DF0001340BB613B685B6803F00302FB695B0047
:102E000002FA03F3BA691343BB617B68BA691A60BB
:102E10003B685B6803F44033002B00F0B480002370
:102E2000FB60604B5B6C5F4A43F4804353645D4BD3
:102E30005B6C03F48043FB60FB685B4AFB699B08A7
:102E4000023352F82330BB61FB6903F003039B009C
:102E50000F2202FA03F3DB43BA691340BB617B68BC
:102E6000524A93422BD07B68514A934225D07B68CB
:102E7000504A93421FD07B684F4A934219D07B68D7
:102E80004E4A934213D07B684D4A93420DD07B68E3
:102E90004C4A934207D07B684B4A934201D10723A7
:102EA0000EE008230CE006230AE0052308E00423D3
:102EB00006E0032304E0022302E0012300E00023F4
:102EC000FA6902F0030292009340BA691343BB61AE
:102ED0003549FB699B080233BA6941F823203B4B13
:102EE0009B68BB613B69DB43BA691340BB613B68CC
:102EF0005B6803F48013002B03D0BA693B6913436A
:102F0000BB61324ABB699360304BDB68BB613B6994
:102F1000DB43BA691340BB613B685B6803F4001391
:102F2000002B03D0BA693B691343BB61274ABB69D5
:102F3000D360264B5B68BB613B69DB43BA691340D6
:102F4000BB613B685B6803F40033002B03D0BA69B4
:102F50003B691343BB611D4ABB6953601B4B1B6834
:102F6000BB613B69DB43BA691340BB613B685B688B
:102F700003F48033002B03D0BA693B691343BB6170
:102F8000124ABB691360FB690133FB61FB690F2BBC
:102F90007FF690AE00BF00BF2437BD465DF8047BCE
:102FA000704700BF00380240003801400000024076
:102FB0000004024000080240000C024000100240E1
:102FC0000014024000180240001C0240003C014076
:102FD00080B483B000AF78600B467B8013467B7073
:102FE0007B78002B03D07A887B689A6103E07B882A
:102FF0001A047B689A6100BF0C37BD465DF8047BFC
:103000007047000080B582B000AF0346FB80084BDC
:103010005A69FB881340002B06D0054AFB88536190
:10302000FB88184608F0B8F800BF0837BD4680BDD9
:10303000003C014080B584B000AF78607B68002B15
:1030400001D101232BE17B6893F83D30DBB2002BEB
:1030500006D17B68002283F83C207868FEF79CFC50
:103060007B68242283F83D207B681B681A687B6894
:103070001B6822F001021A607B681B681A687B6873
:103080001B6842F400421A607B681B681A687B6800
:103090001B6822F400421A6003F0F6FBF8607B68BC
:1030A0005B68814A934207D8FB68804A934294BF89
:1030B00001230023DBB206E0FB687D4A934294BF04
:1030C00001230023DBB2002B01D00123E7E0FB68E2
:1030D000784AA2FB03239B0CBB607B681B685B6880
:1030E00023F03F017B681B68BA680A435A607B681B
:1030F0001B681B6A23F03F017B685B686A4A934246
:1031000002D8BB68013309E0BB684FF4967202FB3A
:1031100003F3694AA2FB03239B0901337A6812680F
:103120000B4313627B681B68DB6923F44F4222F078
:10313000FF027B685B685C498B4219D8FB68591EAB
:103140007B685B685B00B1FBF3F3591C40F6FC73D2
:103150000B40002B0AD0FB68591E7B685B685B0044
:10316000B1FBF3F30133C3F30B0351E004234FE04E
:103170007B689B68002B11D1FB68581E7B685968DF
:103180000B465B000B44B0FBF3F30133C3F30B03BB
:10319000002B0CBF01230023DBB212E0FB68581E9A
:1031A0007B6859680B469B000B4499000B44B0FBAD
:1031B000F3F30133C3F30B03002B0CBF01230023F4
:1031C000DBB2002B01D0012322E07B689B68002B3F
:1031D0000ED1FB68581E7B6859680B465B000B4498
:1031E000B0FBF3F30133C3F30B0343F400430FE0ED
:1031F000FB68581E7B6859680B469B000B4499007E
:103200000B44B0FBF3F30133C3F30B0343F440432C
:10321000796809681343CB617B681B681B6823F0DE
:10322000C0017B68DA697B681B6A1A437B681B688C
:103230000A431A607B681B689B6823F4034323F0EE
:10324000FF037A6811697A68D26811437A68126854
:103250000B4393607B681B68DB6823F0FF017B688E
:103260005A697B689B691A437B681B680A43DA606A
:103270007B681B681A687B681B6842F001021A6051
:103280007B6800221A647B68202283F83D207B68DB
:1032900000221A637B68002283F83E200023184630
:1032A0001037BD4680BD00BFA08601007F841E0090
:1032B000FF083D0083DE1B43D34D621080B483B012
:1032C00000AF78607B681B685B6903F08003802B2C
:1032D00003D17B681B6800221A6100BF0C37BD4612
:1032E0005DF8047B7047000080B588B002AFF860DD
:1032F000084611461A4603467B810B463B8113461E
:10330000FB80FEF7DBFF7861FB6893F83D30DBB2B2
:10331000202B40F0D9807B690093192301226D494D
:10332000F86802F0BDFB0346002B01D00223CCE07D
:10333000FB6893F83C30012B01D10223C5E0FB6808
:10334000012283F83C20FB681B681B6803F0010323
:10335000012B07D0FB681B681A68FB681B6842F0EA
:1033600001021A60FB681B681A68FB681B6822F47C
:1033700000621A60FB68212283F83D20FB6840222E
:1033800083F83E20FB6800221A64FB683A6A5A629E
:10339000FB68BA8C5A85FB685B8D9AB2FB681A850C
:1033A000FB684D4ADA62F8883A8979897B6901932A
:1033B000BB6A00930346F86802F030F80346002B1E
:1033C00052D0012381E07A69B96AF86802F082FC80
:1033D0000346002B0DD0FB681B6C042B07D1FB6848
:1033E0001B681A68FB681B6842F400721A600123AC
:1033F0006BE0FB685B6A1A78FB681B681A61FB6804
:103400005B6A5A1CFB685A62FB681B8D013B9AB2CF
:10341000FB681A85FB685B8D9BB2013B9AB2FB6827
:103420005A85FB681B685B6903F00403042B1BD1FE
:10343000FB681B8D002B17D0FB685B6A1A78FB6852
:103440001B681A61FB685B6A5A1CFB685A62FB685E
:103450001B8D013B9AB2FB681A85FB685B8D9BB2A2
:10346000013B9AB2FB685A85FB681B8D002BAAD1E1
:103470007A69B96AF86802F075FC0346002B0DD032
:10348000FB681B6C042B07D1FB681B681A68FB6880
:103490001B6842F400721A60012316E0FB681B6887
:1034A0001A68FB681B6842F400721A60FB682022ED
:1034B00083F83D20FB68002283F83E20FB68002251
:1034C00083F83C20002300E0022318461837BD464D
:1034D00080BD00BF020010000000FFFF80B58CB06F
:1034E00002AFF860084611461A4603467B810B4638
:1034F0003B811346FB80FEF7E1FE7862FB6893F8A0
:103500003D30DBB2202B40F014827B6A00931923FC
:1035100001227B49F86802F0C3FA0346002B01D070
:10352000022307E2FB6893F83C30012B01D1022310
:1035300000E2FB68012283F83C20FB681B681B68E3
:1035400003F00103012B07D0FB681B681A68FB68B6
:103550001B6842F001021A60FB681B681A68FB686E
:103560001B6822F400621A60FB68222283F83D2067
:10357000FB68402283F83E20FB6800221A64FB6847
:103580003A6B5A62FB68BA8E5A85FB685B8D9AB2B9
:10359000FB681A85FB685B4ADA62F8883A897989A0
:1035A0007B6A0193BB6B00930346F86801F0CCFF84
:1035B0000346002B01D00123BCE1FB681B8D002BCF
:1035C00013D100233B62FB681B685B693B62FB68AD
:1035D0001B689B693B623B6AFB681B681A68FB6857
:1035E0001B6842F400721A6090E1FB681B8D012B8E
:1035F0001BD1FB681B681A68FB681B6822F4806299
:103600001A600023FB61FB681B685B69FB61FB6858
:103610001B689B69FB61FB69FB681B681A68FB6898
:103620001B6842F400721A6070E1FB681B8D022B6C
:103630001BD1FB681B681A68FB681B6822F4806258
:103640001A60FB681B681A68FB681B6842F400621A
:103650001A600023BB61FB681B685B69BB61FB6888
:103660001B689B69BB61BB6950E100237B61FB6800
:103670001B685B697B61FB681B689B697B617B697D
:1036800044E1FB681B8D032B00F2F180FB681B8D6E
:10369000012B23D17A6AB96BF86802F0DDFB03468F
:1036A000002B01D0012345E1FB681B681A69FB6808
:1036B0005B6AD2B21A70FB685B6A5A1CFB685A627A
:1036C000FB681B8D013B9AB2FB681A85FB685B8D1A
:1036D0009BB2013B9AB2FB685A8517E1FB681B8DD0
:1036E000022B4ED17B6A0093BB6B00220649F8681F
:1036F00002F0D6F90346002B08D001231AE100BFDF
:10370000020010000000FFFF04000100FB681B68BE
:103710001A68FB681B6842F400721A60FB681B6839
:103720001A69FB685B6AD2B21A70FB685B6A5A1C42
:10373000FB685A62FB681B8D013B9AB2FB681A85D5
:10374000FB685B8D9BB2013B9AB2FB685A85FB68B4
:103750001B681A69FB685B6AD2B21A70FB685B6A05
:103760005A1CFB685A62FB681B8D013B9AB2FB68CE
:103770001A85FB685B8D9BB2013B9AB2FB685A8548
:10378000C4E07B6A0093BB6B00226C49F86802F0CE
:1037900087F90346002B01D00123CBE0FB681B68AF
:1037A0001A68FB681B6822F480621A60FB681B6859
:1037B0001A69FB685B6AD2B21A70FB685B6A5A1CB2
:1037C000FB685A62FB681B8D013B9AB2FB681A8545
:1037D000FB685B8D9BB2013B9AB2FB685A857B6AA2
:1037E0000093BB6B00225549F86802F059F9034673
:1037F000002B01D001239DE0FB681B681A68FB6861
:103800001B6842F400721A60FB681B681A69FB6847
:103810005B6AD2B21A70FB685B6A5A1CFB685A6218
:10382000FB681B8D013B9AB2FB681A85FB685B8DB8
:103830009BB2013B9AB2FB685A85FB681B681A6908
:10384000FB685B6AD2B21A70FB685B6A5A1CFB6841
:103850005A62FB681B8D013B9AB2FB681A85FB68B4
:103860005B8D9BB2013B9AB2FB685A854EE07A6A47
:10387000B96BF86802F0F0FA0346002B01D001237F
:1038800058E0FB681B681A69FB685B6AD2B21A7061
:10389000FB685B6A5A1CFB685A62FB681B8D013B24
:1038A0009AB2FB681A85FB685B8D9BB2013B9AB2AA
:1038B000FB685A85FB681B685B6903F00403042BF3
:1038C00024D1FB681B8D032B07D1FB681B681A688A
:1038D000FB681B6822F480621A60FB681B681A6927
:1038E000FB685B6AD2B21A70FB685B6A5A1CFB68A1
:1038F0005A62FB681B8D013B9AB2FB681A85FB6814
:103900005B8D9BB2013B9AB2FB685A85FB681B8DAD
:10391000002B7FF4B6AEFB68202283F83D20FB68C5
:10392000002283F83E20FB68002283F83C2000231D
:1039300000E0022318462837BD4680BD0400010080
:1039400080B58AB002AFF860084611461A460346B1
:103950007B810B463B811346FB8000237B61FEF796
:10396000ADFCF861FB6893F83D30DBB2202B40F0F2
:1039700036819D4B1B68DB089C4AA2FB03231A0A75
:1039800013469B0013449A0013447B617B69013BFF
:103990007B617B69002B12D1FB6800221A63FB68F4
:1039A000202283F83D20FB68002283F83E20FB683C
:1039B0001B6C43F02002FB681A64022310E1FB68D1
:1039C0001B689B6903F00203022BDFD0FB6893F8AE
:1039D0003C30012B01D1022302E1FB68012283F874
:1039E0003C20FB681B681B6803F00103012B07D018
:1039F000FB681B681A68FB681B6842F001021A60CA
:103A0000FB681B681A68FB681B6822F400621A6076
:103A1000FB68212283F83D20FB68402283F83E208A
:103A2000FB6800221A64FB68BA6A5A62FB68BA8DA6
:103A30005A85FB685B8D9AB2FB681A85FB686C4AF5
:103A4000DA627A89FB685A643A89FB689A64FA8870
:103A5000FB68DA64FB6800221A65FB681B8D002B8B
:103A600000F0A980FB685B6B002B2AD0FB685B6BC6
:103A7000604ADA63FB685B6B5F4ADA64FB685B6B26
:103A800000221A64FB685B6B00225A64FB685B6B64
:103A900000229A64FB685B6B00221A65FB68586B16
:103AA000FB685B6A1946FB681B6810331A46FB68A3
:103AB0001B8DFEF7F3FD0346FB76FB7E002B66D1E4
:103AC00013E0FB68202283F83D20FB68002283F886
:103AD0003E20FB681B6C43F08002FB681A64FB68A5
:103AE000002283F83C2001237AE0F8883A8979891A
:103AF000FB690193232300930346F86801F08EFCD1
:103B00000346002B22D0FB685B6B1846FEF71EFEB7
:103B10000346FB76FB685B6B0022DA63FB681B687D
:103B20001A68FB681B6822F480621A60FB68002236
:103B30001A85FB6800225A85FB681B681A68FB68B7
:103B40001B6822F001021A60012349E000233B6157
:103B5000FB681B685B693B61FB681B689B693B6199
:103B60003B69FB68002283F83C20FB681B685A68AD
:103B7000FB681B6842F480725A60FB681B685A68D5
:103B8000FB681B6842F400625A60002328E0FB686F
:103B9000202283F83D20FB68002283F83E20FB684A
:103BA0001B6C43F01002FB681A64FB68002283F868
:103BB0003C20012314E0FB68202283F83D20FB68B1
:103BC000002283F83E20FB681B6C43F04002FB6838
:103BD0001A64FB68002283F83C20012300E00223E2
:103BE00018462037BD4680BD0000002089B5F81476
:103BF0000000FFFF19570008D758000880B588B0AB
:103C000000AF78600023BB617B681B685B687B61E9
:103C10007B68DB6A3B617B6893F83E30FB737B68B3
:103C200093F83D30BB73FB7B102B03D0FB7B402B09
:103C300040F0C1807B681B689B69BB617B681B6827
:103C40005B69FB61FB6903F00103002B0DD13B694C
:103C5000B3F52A0F03D03B69B3F12A4F01D10123F9
:103C600000E00023012B00F03281FB6903F0010327
:103C7000002B0CD07B695B0A03F00103002B06D0FC
:103C8000786802F075F9786800F0A9FD92E0FB69A8
:103C9000DB0803F00103002B09D07B695B0A03F00A
:103CA0000103002B03D0786800F01FFE82E0FB695F
:103CB0005B0803F00103002B09D07B695B0A03F06A
:103CC0000103002B03D0786800F039FE72E0BB6975
:103CD0009B0803F00103002B3BD07B681B685B68EB
:103CE00003F40063B3F5006F00F0F380FB69DB09B8
:103CF00003F00103002B0FD07B699B0A03F0010343
:103D0000002B09D0FB699B0803F00103002B03D1B2
:103D1000786800F001FA4DE0FB699B0803F00103AD
:103D2000002B00F0D6807B695B0A03F00103002BB7
:103D300000F0CF80BB7B212B03D1786800F088FA9C
:103D4000C7E0FB7B402B40F0C480786800F0F6FAB7
:103D5000BFE07B681B685B6803F40063B3F5006F2A
:103D600000F0B780FB699B0903F00103002B0FD023
:103D70007B699B0A03F00103002B09D0FB699B08B8
:103D800003F00103002B03D1786800F06FFB11E012
:103D9000FB699B0803F00103002B00F09A807B690C
:103DA0005B0A03F00103002B00F09380786800F0B9
:103DB00025FC8EE08DE07B681B6C002B04D07B68BB
:103DC0001B685B69FB6107E07B681B689B69BB61E3
:103DD0007B681B685B69FB61FB695B0803F001039F
:103DE000002B12D07B695B0A03F00103002B0CD07F
:103DF0007B681B6C002B03D07B681B689B69BB61D5
:103E0000B969786800F0EAFF66E0FB691B0903F016
:103E10000103002B09D07B695B0A03F00103002B2F
:103E200003D0786801F024F856E0BB7B212B02D048
:103E3000BB7B292B25D1FB69DB0903F00103002B98
:103E40000FD07B699B0A03F00103002B09D0FB69AB
:103E50009B0803F00103002B03D1786800F000FFFA
:103E600039E0FB699B0803F00103002B33D07B6929
:103E70005B0A03F00103002B2DD0786800F02DFFC2
:103E800029E0FB699B0903F00103002B0FD07B693C
:103E90009B0A03F00103002B09D0FB699B0803F088
:103EA0000103002B03D1786800F038FF14E0FB69B0
:103EB0009B0803F00103002B0ED07B695B0A03F023
:103EC0000103002B08D0786800F066FF04E000BF13
:103ED00002E000BF00E000BF2037BD4680BD80B5D6
:103EE0008AB000AF78607B681B685B693B627B6867
:103EF0001B685B68FB6100237B627B6893F83E3044
:103F0000FB763B6A1B0A03F00103002B0ED0FB6912
:103F10001B0A03F00103002B08D07B6A43F0010366
:103F20007B627B681B686FF480725A613B6A5B0A34
:103F300003F00103002B0ED0FB691B0A03F0010301
:103F4000002B08D07B6A43F002037B627B681B680E
:103F50006FF400725A613B6A9B0A03F00103002B65
:103F60003FD0FB691B0A03F00103002B39D0FB7E15
:103F7000BB767B685B8D9BB27B617B6893F83D3041
:103F8000FB747B681B6BFB60BB7E202B12D17B69B3
:103F9000002B0FD1FB7C212B08D0FB7C292B05D0DB
:103FA000FB7C282B06D1FB68212B03D1786801F01C
:103FB0008FF816E07B681B686FF480625A617B6A39
:103FC00043F004037B62FB7E102B02D0FB7E402B70
:103FD00007D17B681B681A687B681B6842F4007213
:103FE0001A603B6ADB0A03F00103002B0ED0FB6969
:103FF0001B0A03F00103002B08D07B6A43F008037F
:104000007B627B681B686FF400625A617B6A002BDD
:1040100008D07B681A6C7B6A1A437B681A647868DC
:1040200001F0CAF800BF2837BD4680BD80B483B018
:1040300000AF786000BF0C37BD465DF8047B704769
:1040400080B483B000AF786000BF0C37BD465DF828
:10405000047B704780B483B000AF786000BF0C373A
:10406000BD465DF8047B704780B483B000AF7860D4
:1040700000BF0C37BD465DF8047B704780B483B049
:1040800000AF78600B46FB7013463B8000BF0C37D7
:10409000BD465DF8047B704780B483B000AF7860A4
:1040A00000BF0C37BD465DF8047B704780B483B019
:1040B00000AF786000BF0C37BD465DF8047B7047E9
:1040C00080B483B000AF786000BF0C37BD465DF8A8
:1040D000047B704780B483B000AF786000BF0C37BA
:1040E000BD465DF8047B704780B483B000AF786054
:1040F00000BF0C37BD465DF8047B704780B483B0C9
:1041000000AF78607B6893F83D30DBB218460C371F
:10411000BD465DF8047B704780B584B000AF786021
:104120007B6893F83D30FB737B6893F83E30BB733C
:104130007B68DB6ABB607B681B8D002B50D1FB7BEF
:10414000212B4DD1BB68082B1DD0BB68202B1AD06A
:10415000BB6813F5803F16D07B681B685A687B6884
:104160001B6822F4E0625A607B6811221A637B6844
:10417000002283F83E207B68202283F83D20786867
:10418000FFF754FF60E07B681B685A687B681B6818
:1041900022F4E0625A607B681B681A687B681B68BF
:1041A00042F400721A607B6800221A637B68202246
:1041B00083F83D207B6893F83E30DBB2402B07D17B
:1041C0007B68002283F83E207868FFF76FFF3BE0B2
:1041D0007B68002283F83E207868FFF727FF33E0F2
:1041E000FB7B212B05D0BB7B402B2DD1FB7B222BD6
:1041F0002AD17B685B8D9BB2002B08D17B681B6842
:104200005A687B681B6822F480625A601CE07B68F5
:1042100093F83E30DBB2402B03D1786800F08EF883
:1042200012E07B685B6A1A787B681B681A617B689E
:104230005B6A5A1C7B685A627B685B8D9BB2013B50
:104240009AB27B685A85FFE700BF1037BD4680BD34
:1042500080B584B000AF78607B68DB6AFB607B6808
:1042600093F83D30DBB2212B64D17B685B8D9BB230
:10427000002B12D07B685B6A1A787B681B681A6116
:104280007B685B6A5A1C7B685A627B685B8D9BB259
:10429000013B9AB27B685A854CE0FB68082B1DD025
:1042A000FB68202B1AD0FB6813F5803F16D07B6883
:1042B0001B685A687B681B6822F4E0625A607B685E
:1042C00011221A637B68002283F83E207B6820223B
:1042D00083F83D207868FFF7A9FE2BE07B681B6818
:1042E0005A687B681B6822F4E0625A607B681B682E
:1042F0001A687B681B6842F400721A607B680022AF
:104300001A637B68202283F83D207B6893F83E3057
:10431000DBB2402B07D17B68002283F83E2078680F
:10432000FFF7C4FE06E07B68002283F83E20786831
:10433000FFF77CFE00BF1037BD4680BD80B584B05E
:1043400000AF78607B6893F83D30FB737B681B6D32
:10435000002B1DD17B68DB6C012B0BD17B689B6C28
:10436000DAB27B681B681A617B681B6D9A1C7B68DC
:104370001A6577E07B689B6C9BB21B12DAB27B6894
:104380001B681A617B681B6D5A1C7B681A6569E0A3
:104390007B681B6D012B0BD17B689B6CDAB27B6851
:1043A0001B681A617B681B6D5A1C7B681A6559E093
:1043B0007B681B6D022B52D1FB7B222B0DD17B68BE
:1043C0001B681A687B681B6842F480721A607B68FD
:1043D0001B6D5A1C7B681A6544E07B685B8D9BB241
:1043E000002B15D0FB7B212B12D17B685B6A1A78DE
:1043F0007B681B681A617B685B6A5A1C7B685A621F
:104400007B685B8D9BB2013B9AB27B685A8529E041
:104410007B685B8D9BB2002B24D1FB7B212B21D1B0
:104420007B681B685A687B681B6822F4E0625A60EC
:104430007B681B681A687B681B6842F400721A600C
:104440007B6800221A637B68202283F83D207B680A
:10445000002283F83E207868FFF728FE02E07868A3
:10446000FEF72CFF00BF1037BD4680BD80B584B07D
:1044700000AF78607B6893F83D30DBB2222B40F0D0
:10448000B9807B68DB6AFB607B685B8D9BB2BB603D
:10449000BB68032B21D97B681B681A697B685B6A40
:1044A000D2B21A707B685B6A5A1C7B685A627B685E
:1044B0005B8D9BB2013B9AB27B685A857B685B8DB2
:1044C0009BB2032B40F096807B681B685A687B6820
:1044D0001B6822F480625A608CE07B68DB6A022BE6
:1044E0007FD0BB68012B02D0BB68002B79D17868E4
:1044F00001F080FC0346002B4CD17B681B681A68D6
:104500007B681B6822F480621A607B681B685A68AB
:104510007B681B6822F4E0625A607B681B681A693A
:104520007B685B6AD2B21A707B685B6A5A1C7B68D4
:104530005A627B685B8D9BB2013B9AB27B685A855D
:104540007B68202283F83D207B6893F83E30DBB205
:10455000402B0AD17B68002283F83E207B68002232
:104560001A637868FFF7ACFD44E07B68002283F8AB
:104570003E20FB68082B02D0FB68202B03D17B6810
:1045800000221A6302E07B6812221A637868FFF740
:1045900057FD2FE07B681B685A687B681B6822F414
:1045A000E0625A607B681B681A697B685B6AD2B2FA
:1045B0001A707B685B6A5A1C7B685A627B685B8DE9
:1045C0009BB2013B9AB27B685A857B68202283F8B4
:1045D0003D207B68002283F83E207868FFF77AFD53
:1045E00008E07B681B685A687B681B6822F480625D
:1045F0005A60FFE700BF1037BD4680BD80B584B06C
:1046000000AF78607B68DB6AFB607B685B8D9BB288
:10461000042B1BD17B681B685A687B681B6822F4DB
:1046200080625A607B681B681A697B685B6AD2B2D9
:104630001A707B685B6A5A1C7B685A627B685B8D68
:104640009BB2013B9AB27B685A85C4E07B685B8D64
:104650009BB2032B29D17B681B685A687B681B6857
:1046600022F480625A60FB68042B0AD0FB68022B9C
:1046700007D07B681B681A687B681B6822F480621D
:104680001A607B681B681A697B685B6AD2B21A7011
:104690007B685B6A5A1C7B685A627B685B8D9BB245
:1046A000013B9AB27B685A8595E07B685B8D9BB233
:1046B000022B7DD1FB68012B02D0FB68102B08D1A7
:1046C0007B681B681A687B681B6822F480621A602A
:1046D00016E0FB68042B02D0FB68022B08D17B6834
:1046E0001B681A687B681B6842F480621A6007E0E6
:1046F0007B681B681A687B681B6842F400721A604A
:104700007B681B681A697B685B6AD2B21A707B6827
:104710005B6A5A1C7B685A627B685B8D9BB2013B6B
:104720009AB27B685A857B681B681A697B685B6AEA
:10473000D2B21A707B685B6A5A1C7B685A627B68CB
:104740005B8D9BB2013B9AB27B685A857B681B6884
:104750005A687B681B6822F440725A607B6820228A
:1047600083F83D207B6893F83E30DBB2402B0AD1C2
:104770007B68002283F83E207B6800221A637868F9
:10478000FFF79EFC27E07B68002283F83E20FB6851
:10479000082B02D0FB68202B03D17B6800221A6310
:1047A00002E07B6812221A637868FFF749FC12E086
:1047B0007B681B681A697B685B6AD2B21A707B6877
:1047C0005B6A5A1C7B685A627B685B8D9BB2013BBB
:1047D0009AB27B685A8500BF1037BD4680BD80B451
:1047E00083B000AF78607B6893F83E30DBB2402B3B
:1047F00017D17B681B6D002B09D17B685B6CDBB22A
:104800001A467B681B6802F0FE021A6167E07B684B
:104810005B6CDBB243F00103DAB27B681B681A61A0
:104820005DE07B681B69B3F5804F33D17B6893F8FB
:104830003D30DBB2212B09D17B685B6CDBB21A46C1
:104840007B681B6802F0FE021A6108E07B685B6C03
:10485000DBB243F00103DAB27B681B681A617B6844
:104860005B6B002B04D07B685B6BDB6B002B08D190
:104870007B689B6B002B32D07B689B6BDB6B002BC8
:104880002DD07B681B685A687B681B6842F4006205
:104890005A6024E07B681B6D002B0ED17B685B6C3B
:1048A0009BB2DB11DBB203F00603DBB263F00F0354
:1048B000DAB27B681B681A6111E07B681B6D012B03
:1048C0000DD17B685B6C9BB2DB11DBB203F006039E
:1048D000DBB263F00E03DAB27B681B681A6100BFBB
:1048E0000C37BD465DF8047B704780B483B000AFE1
:1048F00078607B685B6CDAB27B681B681A617B68E6
:104900005B6B002B04D07B685B6BDB6B002B08D1EF
:104910007B689B6B002B0CD07B689B6BDB6B002B4D
:1049200007D07B681B685A687B681B6842F400628A
:104930005A6000BF0C37BD465DF8047B704780B4F9
:1049400091B000AF78607B6893F83E3087F83F30D5
:104950007B68DB6ABB637B681B6B7B637B6893F85C
:104960003D30DBB2222B40F069817B681B6D002B50
:104970000FD197F83F30402B0BD100233B637B686E
:104980001B685B693B637B681B689B693B633B6B94
:1049900060E17B681B6D002B1DD17B681B69B3F543
:1049A000404F18D10023FB627B681B685B69FB6288
:1049B0007B681B689B69FB62FB6A7B681B681A68E3
:1049C0007B681B6842F480721A607B681B6D5A1CFE
:1049D0007B681A653EE17B685B8D9BB2002B13D12F
:1049E0000023BB627B681B685B69BB627B681B68DA
:1049F0009B69BB62BB6A7B681B681A687B681B6823
:104A000042F400721A6015E17B685B8D9BB2012B4A
:104A100040F08A80BB6B13F5803F37D17B681B6801
:104A20001A687B681B6822F480621A607B681B68C6
:104A30005B6803F40063B3F5006F13D17B681B68F8
:104A40001A687B681B6822F480621A6000237B620C
:104A50007B681B685B697B627B681B689B697B6208
:104A60007B6AE7E000233B627B681B685B693B6213
:104A70007B681B689B693B623B6A7B681B681A68A2
:104A80007B681B6842F400721A60D3E0BB6B082B92
:104A90002ED0BB6B202B2BD07B6B122B02D1BB6B90
:104AA000012B25D1BB6B042B0ED0BB6B022B0BD083
:104AB000BB6B102B08D07B681B681A687B681B686F
:104AC00022F480621A6007E07B681B681A687B68C2
:104AD0001B6842F480621A600023FB617B681B68DC
:104AE0005B69FB617B681B689B69FB61FB69A1E0FB
:104AF0007B681B681A687B681B6822F480621A60F6
:104B00000023BB617B681B685B69BB617B681B68BA
:104B10009B69BB61BB697B681B681A687B681B6803
:104B200042F400721A6085E07B685B8D9BB2022BB9
:104B30004DD1BB6B042B16D0BB6B022B13D0BB6BC0
:104B4000102B10D07B681B681A687B681B6822F4E6
:104B500080621A607B681B681A687B681B6842F475
:104B600000621A6007E07B681B681A687B681B6834
:104B700042F480621A607B681B685B6803F4006320
:104B8000B3F5006F17D1BB6B13F5803F0BD0BB6B38
:104B9000012B08D0BB6B082B05D0BB6B102B02D0B0
:104BA000BB6B202B07D17B681B685A687B681B682E
:104BB00042F480525A6000237B617B681B685B690A
:104BC0007B617B681B689B697B617B6932E07B68EA
:104BD0001B681A687B681B6842F480621A607B68F5
:104BE0001B685B6803F40063B3F5006F17D1BB6B00
:104BF00013F5803F0BD0BB6B012B08D0BB6B082B90
:104C000005D0BB6B102B02D0BB6B202B07D17B6870
:104C10001B685A687B681B6842F480525A60002304
:104C20003B617B681B685B693B617B681B689B69B8
:104C30003B613B697B6800221A650BE00023FB6047
:104C40007B681B685B69FB607B681B689B69FB601A
:104C5000FB68FFE700BF4437BD465DF8047B704743
:104C600080B584B000AF78607B6893F83D30FB730B
:104C70007B685B8D9BB2002B2BD07B685B6A1A78BC
:104C80007B681B681A617B685B6A5A1C7B685A6286
:104C90007B685B8D9BB2013B9AB27B685A857B68CF
:104CA0005B8D9BB2002B14D1FB7B292B11D17B6830
:104CB0001B685A687B681B6822F480625A607B68B4
:104CC00021221A637B68282283F83D207868FFF749
:104CD000C1F900BF1037BD4680BD80B483B000AFBE
:104CE00078607B685B8D9BB2002B11D07B685B6A20
:104CF0001A787B681B681A617B685B6A5A1C7B6840
:104D00005A627B685B8D9BB2013B9AB27B685A8585
:104D100000BF0C37BD465DF8047B704780B584B09A
:104D200000AF78607B6893F83D30FB737B685B8DE8
:104D30009BB2002B2CD07B681B681A697B685B6A6E
:104D4000D2B21A707B685B6A5A1C7B685A627B68B5
:104D50005B8D9BB2013B9AB27B685A857B685B8D09
:104D60009BB2002B14D1FB7B2A2B11D17B681B68D3
:104D70005A687B681B6822F480625A607B68222232
:104D80001A637B68282283F83D207868FFF76CF966
:104D900000BF1037BD4680BD80B483B000AF7860DF
:104DA0007B685B8D9BB2002B12D07B681B681A69F5
:104DB0007B685B6AD2B21A707B685B6A5A1C7B683C
:104DC0005A627B685B8D9BB2013B9AB27B685A85C5
:104DD00000BF0C37BD465DF8047B704780B584B0DA
:104DE00000AF786039600023FB737B6893F83D3037
:104DF000DBB203F02803282B27D17B681B685A6895
:104E00007B681B6822F480625A603B689B0803F051
:104E10000103002B01D10123FB733B68DB0903F085
:104E20000103002B03D17B68DB68BB8102E07B6858
:104E30009B69BB817B68002283F83C20BA89FB7B9D
:104E400019467868FFF71AF90EE00023BB607B680B
:104E50001B685B69BB607B681B689B69BB60BB6848
:104E60007B68002283F83C2000BF1037BD4680BD20
:104E700080B584B000AF78607B6893F83D30FB73F9
:104E80007B681B685A687B681B6822F4E0625A6082
:104E90000023BB607B681B685B69BB607B681B6829
:104EA0001A687B681B6842F001021A60BB687B6865
:104EB0001B681A687B681B6822F480621A607B6832
:104EC0001B685B6803F40063B3F5006F72D1FB7B72
:104ED000222B02D0FB7B2A2B35D17B689B6B1B6876
:104EE0005B689AB27B685A857B685B8D9BB2002BAE
:104EF00005D07B681B6C43F004027B681A647B68F6
:104F00001B685A687B681B6822F400625A607B68E1
:104F10009B6B1846FDF7C6FD0346012B49D07B6805
:104F20009B6B694A1A657B689B6B1846FDF70EFC04
:104F30000346002B3DD07B689B6B1B6D7A68926BA0
:104F40001046984735E07B685B6B1B685B689AB2DC
:104F50007B685A857B685B8D9BB2002B05D07B6894
:104F60001B6C43F004027B681A647B681B685A68F8
:104F70007B681B6822F400625A607B685B6B184692
:104F8000FDF790FD0346012B14D07B685B6B4E4A06
:104F90001A657B685B6B1846FDF7D8FB0346002B50
:104FA00008D07B685B6B1B6D7A68526B1046984724
:104FB00000E000BF7B685B8D9BB2002B3ED07B681E
:104FC0001B685B6903F00403042B12D17B681B6828
:104FD0001A697B685B6AD2B21A707B685B6A5A1C7A
:104FE0007B685A627B685B8D9BB2013B9AB27B689F
:104FF0005A857B681B685B6903F04003402B12D124
:105000007B681B681A697B685B6AD2B21A707B681E
:105010005B6A5A1C7B685A627B685B8D9BB2013B62
:105020009AB27B685A857B685B8D9BB2002B05D05A
:105030007B681B6C43F004027B681A647B681B6C02
:10504000002B03D0786800F0B7F839E0FB7B2A2BFF
:1050500009D17B6800221A637B68282283F83D20EF
:105060007868FFF701F87B6893F83D30DBB2282BB6
:1050700011D17B68154ADA627B6800221A637B686B
:10508000202283F83D207B68002283F83E20786848
:10509000FFF702F814E07B681B6B222B02D0FB7B2E
:1050A000222B0DD17B6800221A637B68202283F8B3
:1050B0003D207B68002283F83E207868FEF7D4FF0D
:1050C00000BF1037BD4680BD515900080000FFFFEA
:1050D00080B584B000AF78607B6893F83D30FB7397
:1050E0007B68DB6ABB60BB68082B02D0BB68202BE7
:1050F00029D1FB7B282B26D17B682E4ADA627B687C
:105100001B685A687B681B6822F4E0625A607B68FF
:105110001B686FF480625A617B681B681A687B6841
:105120001B6822F480621A607B6800221A637B6825
:10513000202283F83D207B68002283F83E20786897
:10514000FEF7AAFF31E0FB7B212B29D17B68194AAE
:10515000DA627B6821221A637B68202283F83D2073
:105160007B68002283F83E207B681B685A687B6856
:105170001B6822F4E0625A607B681B686FF48062EF
:105180005A617B681B681A687B681B6822F480621E
:105190001A607868FEF792F87868FEF75BFF04E023
:1051A0007B681B686FF480625A6100BF1037BD4690
:1051B00080BD00BF0000FFFF80B584B000AF786005
:1051C0007B6893F83D30FB737B6893F83E30BB738C
:1051D000BB7B102B02D0BB7B402B0AD1FB7B222B4D
:1051E00007D17B681B681A687B681B6822F4006221
:1051F0001A60FB7B03F02803282B07D17B68002271
:105200001A637B68282283F83D2015E07B681B68C1
:105210005B6803F40063B3F5006F0AD0FB7B602B7F
:1052200007D07B68202283F83D207B68002283F82A
:105230003E207B6800221A637B681B685B6803F46E
:105240000063B3F5006F62D17B681B685A687B68A6
:105250001B6822F400625A607B685B6B93F8353000
:10526000DBB2012B20D07B685B6B6A4A1A657B68D6
:105270005B6B1846FDF76AFA0346002B00F0898045
:105280007B681B681A687B681B6822F001021A6041
:105290007B68202283F83D207B685B6B1B6D7A68FE
:1052A000526B1046984774E07B689B6B594A1A65AD
:1052B0007B689B6B1846FDF749FA0346002B68D0C4
:1052C0007B681B685B6903F04003402B0BD17B6854
:1052D0001B681A697B685B6AD2B21A707B685B6A6A
:1052E0005A1C7B685A627B681B681A687B681B685B
:1052F00022F001021A607B68202283F83D207B683F
:105300009B6B1B6D7A68926B1046984741E07B68F7
:1053100093F83D30DBB2602B25D17B68202283F8E7
:105320003D207B6800221A647B681B685B6903F080
:105330004003402B0BD17B681B681A697B685B6A52
:10534000D2B21A707B685B6A5A1C7B685A627B68AF
:105350001B681A687B681B6822F001021A60786873
:10536000FEF7C2FE15E07B681B685B6903F0400333
:10537000402B0BD17B681B681A697B685B6AD2B2D1
:105380001A707B685B6A5A1C7B685A627868FEF701
:10539000A1FE7B681B6CBB60BB6803F00103002BA4
:1053A0000ED1BB6803F00203002B09D1BB6803F0E8
:1053B0000403002B04D1BB6803F00803002B07D0C3
:1053C0007B681B685A687B681B6822F4E0625A603D
:1053D0007B6893F83D30FB737B681B6C03F0040320
:1053E000042B13D1FB7B282B10D17B680A4ADA628D
:1053F0007B6800221A637B68202283F83D207B684B
:10540000002283F83E207868FEF746FE00BF103782
:10541000BD4680BD515900080000FFFF80B588B02F
:1054200002AFF860084611461A4603467B810B46D8
:105430003B811346FB80FB681B681A68FB681B688E
:1054400042F480721A607B6A00933B6A00224FF03C
:105450000111F86800F024FB0346002B0DD0FB6817
:105460001B681B6803F48073B3F5807F03D1FB686E
:105470004FF400721A6403235FE07B89DBB21A46A3
:10548000FB681B6802F0FE021A617B6A3A6A2D49CA
:10549000F86800F07FFB0346002B01D001234CE0AD
:1054A00000237B61FB681B685B697B61FB681B6891
:1054B0009B697B617B697A6A396AF86800F00AFC4B
:1054C0000346002B0DD0FB681B6C042B07D1FB6837
:1054D0001B681A68FB681B6842F400721A6001239B
:1054E0002BE0FB88012B05D13B89DAB2FB681B68F6
:1054F0001A6121E03B891B0A9BB2DAB2FB681B6888
:105500001A617A6A396AF86800F0E4FB0346002BF6
:105510000DD0FB681B6C042B07D1FB681B681A6855
:10552000FB681B6842F400721A60012305E03B89A6
:10553000DAB2FB681B681A61002318461837BD46AB
:1055400080BD00BF0200010080B588B002AFF860E6
:10555000084611461A4603467B810B463B8113469B
:10556000FB80FB681B681A68FB681B6842F480625A
:105570001A60FB681B681A68FB681B6842F480723B
:105580001A607B6A00933B6A00224FF00111F868B1
:1055900000F086FA0346002B0DD0FB681B681B68E1
:1055A00003F48073B3F5807F03D1FB684FF400727E
:1055B0001A640323AAE07B89DBB21A46FB681B68E6
:1055C00002F0FE021A617B6A3A6A5249F86800F0FA
:1055D000E1FA0346002B01D0012397E000237B6111
:1055E000FB681B685B697B61FB681B689B697B616F
:1055F0007B697A6A396AF86800F06CFB0346002B15
:105600000DD0FB681B6C042B07D1FB681B681A6864
:10561000FB681B6842F400721A60012376E0FB8885
:10562000012B05D13B89DAB2FB681B681A6121E0C6
:105630003B891B0A9BB2DAB2FB681B681A617A6A63
:10564000396AF86800F046FB0346002B0DD0FB6872
:105650001B6C042B07D1FB681B681A68FB681B686E
:1056600042F400721A60012350E03B89DAB2FB6811
:105670001B681A617A6A396AF86800F02BFB0346E6
:10568000002B0DD0FB681B6C042B07D1FB681B683B
:105690001A68FB681B6842F400721A60012335E047
:1056A000FB681B681A68FB681B6842F480721A600A
:1056B0007B6A00933B6A00224FF00111F86800F00A
:1056C000EFF90346002B0DD0FB681B681B6803F441
:1056D0008073B3F5807F03D1FB684FF400721A64C6
:1056E000032313E07B89DBB243F00103DAB2FB68EA
:1056F0001B681A617B6A3A6A0649F86800F04AFA40
:105700000346002B01D0012300E000231846183780
:10571000BD4680BD0200010080B586B000AF786054
:105720007B689B6B7B617B6993F83D30FB747B6985
:1057300093F83E30BB747B69DB6AFB607B691B6856
:105740005A687B691B6822F440725A607B695B6B04
:10575000002B03D07B695B6B0022DA637B699B6B58
:10576000002B03D07B699B6B0022DA63FB7C03F088
:105770002103212B07D0FB7C03F02203222B31D104
:10578000BB7C202B2ED17B691B685A687B691B6808
:1057900022F400625A607B6900225A85FB7C292B27
:1057A0000AD17B6921221A637B69282283F83D2074
:1057B0007869FEF74FFC0CE0FB7C2A2B09D17B6952
:1057C00022221A637B69282283F83D207869FEF73C
:1057D0004BFC7B691B685A687B691B6842F440720A
:1057E0005A6074E07B6993F83E30DBB2002B6ED0D8
:1057F0007B695B8D9BB2012B07D17B691B681A68A3
:105800007B691B6822F480621A607B691B685A6896
:105810007B691B6822F440725A60FB6813F5803F75
:1058200009D0FB68082B06D0FB68B3F12A4F02D0E1
:10583000FB68202B07D17B691B681A687B691B6892
:1058400042F400721A607B691B685A687B691B68A6
:1058500022F480525A607B691B685A687B691B6816
:1058600022F400625A607B6900225A857B691B6CB6
:10587000002B03D07869FEF72DFC28E07B692022FD
:1058800083F83D207B6993F83E30DBB2402B0AD190
:105890007B69002283F83E207B6900221A637869C5
:1058A000FEF70EFC13E07B69002283F83E20FB68C4
:1058B000082B02D0FB68202B03D17B6900221A63DE
:1058C00002E07B6912221A637869FEF7B9FB00BF18
:1058D0001837BD4680BD80B584B000AF78607B6866
:1058E0009B6BFB60FB685B6B002B03D0FB685B6B07
:1058F0000022DA63FB689B6B002B03D0FB689B6B79
:105900000022DA637868FDF7DBF80346022B1BD030
:10591000FB681B681A68FB681B6822F480621A60C7
:10592000FB6800225A85FB68202283F83D20FB6833
:10593000002283F83E20FB681B6C43F01002FB68DA
:105940001A64F868FEF7C6FB00BF1037BD4680BD7D
:1059500080B586B000AF78600023FB607B689B6BEE
:105960007B617B6993F83D30FB744B4B1B68DB0814
:105970004A4AA2FB03231A0A13469B001344DA0087
:10598000D31AFB60FB68002B06D17B691B6C43F0CC
:1059900020027B691A640AE0FB68013BFB607B69BB
:1059A0001B681B6803F40073B3F5007FEAD07B69C2
:1059B0005B6B002B03D07B695B6B0022DA637B6936
:1059C0009B6B002B03D07B699B6B0022DA637B69A6
:1059D0001B681A687B691B6822F480621A607B6905
:1059E00000225A857B695B6B002B03D07B695B6B64
:1059F00000221A657B699B6B002B03D07B699B6B34
:105A000000221A657B691B681A687B691B6822F093
:105A100001021A607B6993F83D30DBB2602B0ED136
:105A20007B69202283F83D207B69002283F83E2099
:105A30007B6900221A647869FEF756FB27E0FB7C3D
:105A400003F02803282B17D17B691B681A687B6930
:105A50001B6842F001021A607B691B681A687B6947
:105A60001B6842F480621A607B6900221A637B69BA
:105A7000282283F83D2007E07B69202283F83D201F
:105A80007B69002283F83E207869FEF723FB00BF84
:105A90001837BD4680BD00BF0000002089B5F8144E
:105AA00080B584B000AFF860B9603B601346FB710D
:105AB00048E03B68B3F1FF3F44D0FCF7FFFB0246F0
:105AC000BB69D31A3A689A4202D33B68002B39D19A
:105AD000BB681B0CDBB2012B0DD1FB681B685B693B
