:020000040800F2
:10000000980B0020B501000879200008E9190008C4
:1000100075200008210300088D2000080000000062
:100020000000000000000000000000008120000827
:1000300025030008000000007D200008852000083E
:10004000CF010008CF010008CF010008CF01000850
:10005000CF010008CF010008CF010008CF01000840
:10006000CF010008CF010008CF010008CF01000830
:10007000CF010008CF010008CF010008CF01000820
:10008000CF010008CF010008CF010008CF01000810
:10009000CF010008CF010008CF010008CF01000800
:1000A000CF010008CF010008CF010008CF010008F0
:1000B000CF010008CF010008CF010008CF010008E0
:1000C000CF010008CF010008CF010008CF010008D0
:1000D000CF010008CF010008CF010008CF010008C0
:1000E000CF010008CF010008CF01000800F002F89E
:1000F00000F050F814A696E8000CB244B344DA4578
:1001000001D100F047F8BAE80F000FA696E83000DA
:10011000A5EB040504EB0607AAEB0704A7F101070A
:100120004FEA15154FEA3414A4F10104AC4201D38F
:1001300000F030F813F0010F18BFFB1A43F0010371
:1001400000F001F8DBE7184790490000B0490000D3
:10015000103A24BF78C878C1FAD8520724BF30C8F3
:1001600030C144BF04680C60704700007047000055
:100170000023002400250026103A28BF78C1FBD8B0
:10018000520728BF30C148BF0B6070471FB51FBD65
:1001900010B510BD00F08EF81146FFF7F7FF03F021
:1001A00083F900F0ACF803B4FFF7F2FF03BC00F0F2
:1001B000AFF800000948804709480047FEE7FEE71E
:1001C000FEE7FEE7FEE7FEE7FEE7FEE7FEE7FEE707
:1001D00004480549054A064B70470000892000087D
:1001E000ED00000898050020980B002098070020DB
:1001F0009807002010B5203AC0F00B80B1E81850E5
:10020000A0E81850B1E81850A0E81850203ABFF400
:10021000F5AF5FEA027C24BFB1E81850A0E818509F
:1002200044BF18C918C0BDE810405FEA827C24BFF3
:1002300051F8043B40F8043B08BF7047D20728BF81
:1002400031F8023B48BF11F8012B28BF20F8023BD0
:1002500048BF00F8012B70474FF0000200B513466D
:1002600094469646203922BFA0E80C50A0E80C50D6
:10027000B1F12001BFF4F7AF090728BFA0E80C5087
:1002800048BF0CC05DF804EB890028BF40F8042B80
:1002900008BF704748BF20F8022B11F0804F18BFED
:1002A00000F8012B7047704770477047004870474F
:1002B000100000207546FFF7F9FFAE4605006946BD
:1002C000534620F00700854618B020B5FFF780FFA1
:1002D000BDE820404FF000064FF000074FF0000847
:1002E0004FF0000BAC46ACE8C009ACE8C009ACE884
:1002F000C009ACE8C00921F007018D46704710B570
:100300000446AFF300802046BDE81040FFF74BBF26
:1003100001491820ABBEFEE726000200704700002E
:10032000FEE7000070470000B0B5044600F01EF97B
:10033000054640F20000C2F200000078611C18BFC0
:10034000044400BF00F012F9401BA042FAD3B0BD34
:100350002DE9F04F82B00E68002E00F0FD8041F2D2
:100360000042C4F20102042340F2004E904208BF52
:1003700003234FF6FF7CC4F2010E009300240123F7
:10038000C1F2100C4FF0000A4FF000094BE000BF23
:1003900041F20002C4F20102009F904208BF02270E
:1003A00004F00C030F229A402BEA020207FA03F32F
:1003B0004FEA9A051A4346F825204E6840F20C454C
:1003C000F202DEF8082054BF22EA080242EA0802DC
:1003D000C4F20105CEF808202A68B30254BF22EA0D
:1003E000080242EA08022A60B303DEF8042054BF80
:1003F00022EA080242EA0802F303CEF80420DEF8FB
:1004000000204FF0010354BF22EA080242EA08022A
:10041000CEF800200E680AF1010A36FA0AF204F159
:10042000040400F0998003FA0AFB16EA0B08F1D0E5
:100430004E68664512DC122E56D8DFE806F0350B02
:100440004D49555555555555555555555555554580
:10045000510000BFD1F80C9046E000BF4FF6FF728C
:10046000C1F2210296420FDC0022C1F21102964233
:100470001AD00022C1F21202964215D00022C1F217
:100480002102964210D02FE00022C1F222029642B1
:100490000AD00022C1F23102964205D00022C1F2F8
:1004A0003202964220D100BF8A684AB1012A14BFA5
:1004B000C0F814B0C0F810B04FF0080914E000BF45
:1004C0004FF0040910E000BFCA6802F104090BE014
:1004D0004FF0000908E000BFCA6802F1080903E014
:1004E000CA6802F10C0900BF02462646B8F5807FB3
:1004F00024BF0432203E17680F25B54027EA0505C2
:1005000009FA06F635431560CA79D2067FF582AF3F
:1005100041F21803C4F202031A68AEF57E7642F087
:1005200001021A601A6802F001020192019A2AF08F
:10053000030256F802B040F60002C4F201029042F3
:1005400008D040F60042C4F2010290427FF420AF8E
:10055000012725E7002723E702B0BDE8F08F000060
:10056000002A08BF090401617047000040F294505E
:10057000C2F2000000687047002804BF01207047E5
:10058000F0B581B0044690F83D0028B9002084F809
:100590003C00204600F0F6FA242084F83D00206854
:1005A000016821F001010160016841F4004101602E
:1005B000016821F40041016000F09CFC636848F28E
:1005C000A16CC0F2010C40F60011C0F23D01634580
:1005D0003CBF48F28041C0F21E01884202D2012095
:1005E00001B0F0BD4DF68361C4F21B31A0FB0112D6
:1005F0002168970CD1F804E04FF496762EF03F0571
:1006000045EA92454D60774348F638160D6AC0F2C8
:100610004106A7FB067625F03F07634538BF960CD9
:10062000721C3A430A62CA6948F2A0664CF6FF7728
:10063000C0F20106B34222EA07020BD801385B0080
:10064000B0FBF3F001306FF31F30042898BF042093
:100650001BE000BFA768013857B119277B43B0FBE7
:10066000F3F001306FF31F3070B100F5804007E008
:1006700003EB4303B0FBF3F001306FF31F3018B10D
:1006800000F5004001E000BF01201043C861086888
:10069000D4E9072320F0C00010431843086088689D
:1006A00048F2FF3204F10C0790438CCF18431043FB
:1006B000A6698860C86820F0FF0038433043C860EE
:1006C000086840F00100086000202021206484F8C0
:1006D0003D10206384F83E0001B0F0BD2DE9F04FDD
:1006E00085B004460020994616460F460490FFF751
:1006F0003DFF94F83D10202927D10546206800BF12
:10070000816989071CD5FFF731FF411B20681A2931
:10071000F6D381698907F3D500202021206384F86E
:100720003D1084F83E00206C04F13C0A40F02000AB
:100730002064022000218AF8001005B0BDE8F08F87
:10074000A2461AF83C1F012904D1022005B0BDE8D9
:10075000F08F00BF01228AF800200368DDE90F183E
:100760000E9ADB0703D1036843F0010303600368BB
:1007700023F400630360222084F83D00402084F8C5
:100780003E000020206462626185608D39462085CC
:100790000020CFF6FF70E062204632464B46CDE99E
:1007A000008501F023F918B1012005B0BDE8F08FF4
:1007B000208D022826D001280ED0002838D1002014
:1007C000039020684169039181690391039901684D
:1007D00041F40071016037E02068016821F4806114
:1007E0000160EFF3108072B6002003902068416929
:1007F0000391816903910399016841F400710160DB
:1008000062B621E02068016841F400610160EFF305
:10081000108072B6002003902068416903918169BD
:1008200003910399016821F48061016062B60BE0D5
:100830002068016841F480610160002103914169F1
:100840000391806903900398208D002800F0CC80EC
:10085000042740F208094BF2895BC0F20107C2F29B
:100860000009C1F2F84B23260EE000BF10690870A2
:10087000606A218D01306062481E2085618D0139DA
:100880006185010400F0B08080B203280CD80228F2
:100890002CD001284AD1204641462A4601F044FB8B
:1008A000002800F09C807FE7204641462A4601F060
:1008B0003BFB00287FF478AF2068616A006908700C
:1008C000606A2268411C208D616201382085638D39
:1008D000013B638553695B07D3D580B20328C5D13B
:1008E000106820F480601060C0E700BF20463946E1
:1008F00000224346009501F0C5F900287FF454AF6B
:10090000EFF3108072B62068616A026842F40072E8
:10091000026000690870606A218D01306062481EC3
:100920002085608D0138608562B658E020463946E2
:1009300000224346009501F0A5F900287FF434AF6A
:100940002068016821F480610160EFF3108072B6C5
:100950002068616A00690870606A218D0130013980
:1009600060622185618D01396185D9F80010C9085F
:10097000A1FB0B12110A71430491049901390491EE
:10098000049900293CD021684A69520717D4049A77
:10099000013A0492049A9AB34A6952070FD4049A0E
:1009A000013A0492049A5AB34A69520707D4049A46
:1009B000013A0492049A1AB34A695207DDD50A68CB
:1009C00042F400720A6009690170606A218D013089
:1009D0006062481E2085608D0138608562B620689F
:1009E000616A006943E700BF202084F83D000020D1
:1009F00084F83E0000218AF8001005B0BDE8F08FB1
:100A000000202021206384F83D1084F83E00206CF3
:100A100040F02000206462B6012000218AF8001016
:100A200005B0BDE8F08F00002DE9F04383B0994692
:100A300016460F460446FFF799FD94F83D1020290D
:100A400024D10546206800BF816989071AD5FFF7C0
:100A50008DFD411B20681A29F6D381698907F3D5DA
:100A600000202021206384F83D1084F83E00216C92
:100A700041F02001216484F83C00022003B0BDE86D
:100A8000F08300BF94F83C10012903D1022003B089
:100A9000BDE8F083012284F83C200368DDE90B18EF
:100AA0000A9ADB0703D1036843F00103036003687C
:100AB00023F400630360212084F83D00402084F883
:100AC0003E000020206462626185608D3946208589
:100AD0000020CFF6FF70E062204632464B46CDE95B
:100AE000008501F00DF818B1012003B0BDE8F083D6
:100AF000208D98B9204641462A4601F065F888B312
:100B0000206C0428F0D12068016841F40071016074
:100B1000012003B0BDE8F0830004EBD0204641463D
:100B20002A4601F049FA0028EAD1616A226808469B
:100B300010F8013B1361238D6062581E2085678D7C
:100B4000013F678557697F07E6D50704E4D04878F9
:100B50001061881C6062981E2085618D0139618555
:100B6000DAE700BF2068016841F4007101602020CD
:100B700084F83D00002084F83E0084F83C0003B077
:100B8000BDE8F08310B586B0016845F20040C4F2BC
:100B9000000081424FF00001CDE90411CDE90211BE
:100BA00002D006B010BD00BF41F21804C4F2020426
:100BB000216800F5384041F008012160216801F00A
:100BC000080101910199C021029112210391032191
:100BD000059102A9FFF7BCFB606840F4001060605B
:100BE000606800F400100190019806B010BD00008C
:100BF00040F2000040F29451C2F20000C2F2000143
:100C000000780A68104408607047000080B542F21E
:100C10000000C4F20200016841F0100101600320ED
:100C200000F07AF80F2000F005F800F027F8002017
:100C300080BD000070B540F20006C2F2000640F22E
:100C400008013278C2F200014FF47A730968B3FBED
:100C5000F2F20446B1FBF2F1084600F05FFB0F2C04
:100C60004FF0010508D838B94FF0FF302146002277
:100C7000002500F025F87460284670BD82B041F26E
:100C80001800C4F202000168022241F00101016073
:100C9000016801F0010101910199416841F0805121
:100CA0004160406800F08050009000980420C4F239
:100CB0000100016862F31A61016002B07047000030
:100CC00010B54EF60C5CCEF2000CDCF80030C3F32D
:100CD000022E8EF00704042C28BF0424BEF1030367
:100CE0004FF0FF3E0EFA04F438BF0023A1439940B1
:100CF0000EFA03F39A43114300F00F0200F1604330
:100D00000901043A03F564436244002848BF02F134
:100D10000C03197010BD00004EF60C51CEF200010C
:100D20000A684FF6FF031A4060F30A2242F080601F
:100D300040F0FD7008607047002804BF0120704734
:100D40002DE9F04381B042F20008C4F202080446E3
:100D5000D8F800000D4600F0070081420CD9D8F801
:100D6000000020F007002843C8F80000D8F8000071
:100D700000F00700A8426CD1206841F20409810705
:100D8000C4F2020917D5410705D5D9F8001041F47E
:100D9000E061C9F80010010705D5D9F8001041F449
:100DA0006051C9F80010D9F80010A26821F0F001D4
:100DB0001143C9F80010C00742D1D8F8000000F074
:100DC000070085420CD2D8F8000020F00700284325
:100DD000C8F80000D8F8000000F00700A84238D199
:100DE0002068410707D5D9F80010E26821F4E061D6
:100DF0001143C9F80010000708D5D9F8000021698F
:100E000020F4605040EAC100C9F80000D9F8002081
:100E100002F00C00082841F20020C0F27A004DD107
:100E200044F6C623C2F38341C0F60003595CD203E3
:100E300038D440F60010C0F23D0048433EE000BF09
:100E4000606859F8041C022808D0012826D18903BB
:100E500006D4012001B0BDE8F08300BF8901F8D5B8
:100E6000D9F8001021F003010843C9F80000FFF78A
:100E70007DFB064641F28837D9F80000616800F032
:100E80000C00B0EB810F98D0FFF770FB801BB842CD
:100E9000F2D9032001B0BDE8F08300BF8907D8D59F
:100EA000DEE700BFD9F8002044F6C423C2F3404275
:100EB000C0F600039A5C4843B0FBF2F0D9F800108A
:100EC00044F23232C1F30311C0F60002515C40F229
:100ED000080220FA01F140F20400C2F200000068AA
:100EE000C2F200021160FFF7A5FE002001B0BDE8CC
:100EF000F083000040F2080041F20401C2F2000059
:100F0000C4F202010068096844F24232C1F30221CE
:100F1000C0F60002515CC84070470000002804BFC2
:100F2000012070472DE9F04182B00446007841F27B
:100F30000006C007C4F202060CD0706800F00C0076
:100F4000042840F081803068800303D56068002861
:100F500000F04681207880071BD5706810F00C0FD8
:100F600009D0706800F00C00082840F08780706895
:100F7000C00300F183803068800703D52069012811
:100F800040F02E813068616920F0F80040EAC1002D
:100F900030602078000713D4207840072CD4E5690E
:100FA000002D00F01881706800F00C00082840F057
:100FB000A780012D40F00481012002B0BDE8F0813E
:100FC000A069002800F084800020C4F242200121A2
:100FD000C0F88014FFF7CAFA054600BF706A8007A0
:100FE00000F1B280FFF7C2FA401B0228F6D90320B5
:100FF00002B0BDE8F08100BFF0695FEAC00808D424
:10100000F06940F08050F061F06900F0805000908D
:10101000009847F20007C4F200073868C00549D4B9
:10102000386840F480703860FFF7A0FA054600BFCA
:101030003868C0053ED4FFF799FA401B6428F7D9F9
:10104000032002B0BDE8F081706800F00C000828B1
:1010500003D17068C0033FF576AF6168306800293E
:1010600000F00C81B1F5A02F00F00081B1F5803FB8
:1010700040F01A8140F480301CE100BF2069002854
:1010800040F20000C4F2422000F08880012101609B
:10109000FFF76CFA054600BF306880073FF572AF76
:1010A000FFF764FA401B0228F6D9032002B0BDE81E
:1010B000F08100BFE168306A002900F09D800529B9
:1010C00000F09280012940F0AF8040F00100B1E0D3
:1010D0000020C4F242200021C0F88014FFF746FA35
:1010E000054600BF706A80077FF556AFFFF73EFAEE
:1010F000401B0228F6D9032002B0BDE8F08100BFF2
:101100000027C4F2422700203866FFF72FFA022D8D
:1011100005460DD13068800140F1DE80FFF726FAE8
:10112000401B02284FF00300F4D902B0BDE8F08163
:10113000306880014FD5FFF719FA401B02284FF0A5
:101140000300F5D9F1E700BF40F20800C2F2000049
:10115000006844F6D351C1F26201A0FB0101480AC4
:10116000019000BF00BF0198411E002801913FF48B
:1011700013AF00BF0198411E002801913FF40CAF4E
:1011800000BF0198411E002801913FF405AF00BF48
:101190000198411E00280191E4D1FDE60021016083
:1011A000FFF7E4F9054600BF306880077FF5F1AE30
:1011B000FFF7DCF9401B02284FF00300F4D9B4E735
:1011C0007068216A00F480328A4209D1616A00F4B1
:1011D0007010884204D1002002B0BDE8F08100BF49
:1011E000012002B0BDE8F08140F004003062306AB6
:1011F00040F001001EE000BF20F001003062306AC4
:1012000020F004003062FFF7B1F9054641F288375B
:10121000306A800720D5FFF7A9F9401BB8424FF08C
:101220000300F5D981E700BF20F001003062306A89
:1012300020F004003062FFF799F9054641F2883743
:10124000306A800708D4FFF791F9401BB842F7D9FC
:10125000032002B0BDE8F081B8F1000F3FF59FAE6A
:10126000F06920F08050F06199E600BF40F48020E2
:101270003060306840F480301CE000BF20F48030E3
:101280003060306820F480203060FFF76FF9054649
:10129000306880037FF55EAEFFF768F9401B642875
:1012A0004FF00300F4D940E720F48030306030681C
:1012B00020F480203060FFF759F90546306880033C
:1012C0003FF548AEFFF752F9401B6428F6D90320DA
:1012D00002B0BDE8F08100BF206AB0F5803F05D1C3
:1012E0007168A26821F40031114371607168626A0B
:1012F00021F4741111430843706001203866FFF730
:1013000035F90446306880013FF565AFFFF72EF9E7
:10131000001B02284FF00300F4D906E7411E00200D
:10132000B0EB116F1CBF012070474EF21002CEF2DD
:10133000000251604EF62351CEF20001F0230B70F3
:10134000072190601160704790F83C20012A4FF00F
:10135000020236D010B580F83D200268D2F804E0D1
:10136000D2F808C00C682EF07003234340F2FF74DB
:10137000C4F20004A24253600ADCB2F1804F13D0E1
:1013800040F20043C4F200039A420DD011E000BFC6
:1013900042F60043C4F201039A4205D040F600032E
:1013A000C4F200039A4204D149682CF08003194327
:1013B00091600121002280F83D1080F83C20BDE8BA
:1013C0001040104670470000002804BF01207047FD
:1013D00010B590F83D1031B9002180F83C1004465A
:1013E00000F070F82046022180F83D10016840F2BC
:1013F000FF740B68C4F2000442F6004CA142C4F230
:10140000010C15DCB1F1804F1AD040F20042C4F259
:101410000002914214D0A14218DCB1F1804F1DD0DE
:1014200040F20042C4F20002914217D01AE000BF1D
:10143000614505D040F60002C4F200029142EAD1B3
:10144000826823F070031343A142E6DD614505D0B5
:1014500040F60002C4F20002914203D1026923F473
:1014600040731343846923F08002D0F804E0C3681A
:10147000224361450A60CB62C1F828E002D142698B
:10148000CCF8302001224A610B69DB0703D00B69DD
:1014900023F001030B6180F8462080F83E2080F89D
:1014A0003F2080F8402080F8412080F8422080F8DA
:1014B000432080F8442080F8452080F83D2000201B
:1014C00010BD00000068B0F1804F18BF704781B0B8
:1014D00041F21C00C4F20200016841F00101016008
:1014E000006800F001000090009801B07047000013
:1014F00090F83C20012A4FF002026CD080B580F8B1
:101500003D20D0F800C04FF67772DCF8083023EAAF
:101510000202CCF808200B684F2B29DC1F2B45DD7D
:10152000202B46D0302B44D0402B40F0AF80D1F858
:1015300004E0C968DCF82030DCF8202022F0010249
:10154000CCF82020DCF8182022F0F00242EA011149
:1015500023F00A0242EA0E02CCF81810CCF8202040
:10156000DCF8081041F0470121F0300128E000BF0D
:101570006F2B33DDB3F5005F74D0B3F5805F21D0FE
:10158000702B40F08380D1E901E3C968DCF80820C2
:1015900043EA0E0322F47F4243EA01211143CCF8CF
:1015A0000810DCF8081041F0770109E00BB1102BAE
:1015B0006CD1DCF8081021F07001194341F00701EB
:1015C000CCF808100022012180F83D10002180F89D
:1015D0003C10BDE880401046704700BF502B21D022
:1015E000602B53D1D1F804E0C968DCF82030DCF876
:1015F000202022F01002CCF82020DCF8182022F461
:10160000704242EA013123F0A00242EA0E12CCF805
:101610001810CCF82020DCF8081041F0670121F008
:101620001001CDE7D1F804E0C968DCF82030DCF81F
:10163000202022F00102CCF82020DCF8182022F033
:10164000F00242EA011123F00A0242EA0E02CCF84B
:101650001810CCF82020DCF8081041F0570121F0D8
:101660002001ADE7D1E901E3C968DCF8082043EACD
:101670000E0322F47F4243EA01211143CCF8081003
:10168000DCF8081041F480419AE700BF01229AE794
:1016900080B586B00068B0F1804F4FF00000CDE912
:1016A0000400CDE9020001D006B080BD41F218006F
:1016B000C4F20200016841F004010160006802A95F
:1016C00000F0040001900198012002900220039094
:1016D000059040F60000C4F20100FEF739FE06B0A6
:1016E00080BD000090F83C30012B04BF0220704701
:1016F0004FEAB202032A00F2F1802DE9F043DFE85D
:1017000002F003A53B7500BF036842F600461D6A60
:101710001A6AC4F2010622F001021A621A465C68D3
:1017200052F818CFB3428E68D1F800E025F00205D8
:1017300045EA06050CD1CE68D1E9057824F4407459
:1017400025F00C0526F004063C43354344EA080422
:101750002CF0730747EA0E075C609F614F680969C8
:101760005F631D629F6947F008079F619F6927F0CB
:1017700004079F61A6E000BF036842F600461D6AA9
:101780001A6AC4F2010622F480721A621A46D3F869
:1017900004C052F81CEFB3428E680C6825F4007543
:1017A00045EA06250FD1CE68D1E90598360240F208
:1017B000FF4725F44065BE4335432CF4405748EAC3
:1017C000090647EA061C2EF073072743C3F804C036
:1017D000DF614F680969DF631D62DF6947F0080751
:1017E000DF61DF6927F00407DF616BE0036842F621
:1017F0000047D3F820C01A6AC4F2010722F48052CD
:101800001A621A465C6852F81C5FD1F800E08E68D4
:10181000BB4204D14F6924F4804444EA87142CF479
:10182000005747EA063725F4E64646EA0E265C608E
:10183000DE614E6809691E641F62DF6947F4006754
:10184000DF61DF6927F48067DF613AE0036842F611
:1018500000461D6A1A6AC4F2010622F010021A62DA
:101860001A46D3F804C052F8184FB3428E68D1F824
:1018700000E025F0200545EA06150FD1CE68D1E934
:1018800005986FF0400725F0C00507EA06163543B6
:101890002CF4406748EA090647EA860C24F4E6443B
:1018A00044EA0E27C3F804C09F614F6809699F632B
:1018B0001D629F6947F400679F619F6927F48067F5
:1018C0009F6109021368194311600021BDE8F043CC
:1018D000002280F83C200846704700BF012100220A
:1018E00080F83C2008467047002804BF012070475C
:1018F00010B590F83D1031B9002180F83C10044635
:1019000000F070F82046022180F83D10016840F296
:10191000FF740B68C4F2000442F6004CA142C4F20A
:10192000010C15DCB1F1804F1AD040F20042C4F234
:101930000002914214D0A14218DCB1F1804F1DD0B9
:1019400040F20042C4F20002914217D01AE000BFF8
:10195000614505D040F60002C4F200029142EAD18E
:10196000826823F070031343A142E6DD614505D090
:1019700040F60002C4F20002914203D1026923F44E
:1019800040731343846923F08002D0F804E0C368F5
:10199000224361450A60CB62C1F828E002D1426966
:1019A000CCF8302001224A610B69DB0703D00B69B8
:1019B00023F001030B6180F8462080F83E2080F878
:1019C0003F2080F8402080F8412080F8422080F8B5
:1019D000432080F8442080F8452080F83D200020F6
:1019E00010BD000070470000FEE700002DE9F04741
:1019F00082B0044600689A460B9D0A9E0368914691
:101A000043F48062026002680F4642F48071016014
:101A100020464FF0011100223346009500F032F9C4
:101A200050B120680068C00544BF4FF400702064C6
:101A3000032002B0BDE8F08740F202082068C0F23F
:101A4000010807F0FE0707612046414632462B4653
:101A500000F0FEF920B1012002B0BDE8F08700BF20
:101A60000020019020682A46416901918069314631
:101A700001900198204600F09FFAB0B92068BAF1B1
:101A8000010F09D04FEA19210161204631462A464B
:101A900000F092FA48B920685FFA89F101612046A6
:101AA00031462A4600F088FA60B1206C0428D2D171
:101AB0002068016841F400710160012002B0BDE8B6
:101AC000F08700BF206800220168334641F480712E
:101AD000016020464FF00111009500F0D3F8002876
:101AE0009FD147F0010C27682046414632462B46DD
:101AF000C7F810C002B0BDE8F04700F0A9B9000077
:101B00002DE9F04383B0044600680F4601680A9D42
:101B10000B9E41F4807199469046016020464FF03B
:101B2000011100222B46009600F0ACF850B120685D
:101B30000068C00544BF4FF400702064032003B068
:101B4000BDE8F083206807F0FE0101610221C0F2C8
:101B5000010120462A46334600F07AF920B10120DF
:101B600003B0BDE8F08300BF002002902068324639
:101B7000416902918069294602900298204600F04E
:101B80001BFA58B1206C0428E9D12068016841F49F
:101B900000710160012003B0BDE8F0832068B9F155
:101BA000010F0AD04FEA182101612046294632462A
:101BB00000F002FA0028E5D120685FFA88F101619F
:101BC000002003B0BDE8F08370B50368044653F805
:101BD000140F400711D40E46481C29D086BB00BF05
:101BE0001868400527D4FEF7C1FC236853F8140F8A
:101BF000400737D518684007F2D5002070BD00BFF8
:101C000018684007F9D41868400514D418684007CC
:101C1000F3D4186840050ED418684007EDD418684E
:101C2000400508D4186840074FF0000048BF70BD59
:101C300018684005E4D56FF480601860042012E055
:101C4000154603E053F8140F4007D6D41868400532
:101C5000F1D4FEF78BFC401B2368B042F2D95869DF
:101C60004007EFD4202000212022216384F83D206A
:101C700084F83E10226C10432064012084F83C104C
:101C800070BD00002DE9F041054600681E4614466F
:101C900001F47F0201338FB242D0DDF81880B2F533
:101CA000803F40F0878040693840C01BB0FA80F028
:101CB0004009844240F0C8804EB924E04069384071
:101CC000C01BB0FA80F04009844240F0BD80FEF7AE
:101CD0004DFCA0EB08012868B142EFD941693940B9
:101CE000C91BB1FA81F149098C42E7D19BE000BFE1
:101CF00040693840C01BB0FA80F0400984424FF080
:101D0000000040F0A280FEF731FC286841693940AC
:101D1000C91BB1FA81F149098C42E9D183E000BFC6
:101D2000B2F5803F24D100BF41693940C91BB1FAE7
:101D300081F149098C4240F0878041693940C91BD3
:101D4000B1FA81F149098C4240F07E804169394005
:101D5000C91BB1FA81F149098C4275D141693940F9
:101D6000C91BB1FA81F149098C42DDD06CE000BF9A
:101D700081693940C91BB1FA81F149098C4263D1AB
:101D800081693940C91BB1FA81F149098C425BD1A3
:101D900081693940C91BB1FA81F149098C4253D19B
:101DA00081693940C91BB1FA81F149098C42DFD000
:101DB0004AE000BF80693840C01BB0FA80F040099B
:101DC000844241D146B923E080693840C01BB0FA53
:101DD00080F04009844237D1FEF7C8FBA0EB080130
:101DE0002868B142F0D981693940C91BB1FA81F143
:101DF00049098C42E8D116E080693840C01BB0FA2E
:101E000080F0400984424FF0000018BFBDE8F08127
:101E1000FEF7ACFB286881693940C91BB1FA81F132
:101E200049098C42E8D100202021286385F83D1023
:101E300085F83E00296C41F02001296485F83C00BA
:101E40000120BDE8F08100BF0020BDE8F081000066
:101E5000F0B581B0044600681D4643698FB203EABD
:101E60000701B94202D1002001B0F0BD4169164618
:101E700001323CD0490512D47EB300BFFEF776FB99
:101E8000411B2068B14203D941693940B9422BD185
:101E900041693940B942E6D041694905EED501684A
:101EA00041F4007101606FF4806141610420002100
:101EB0002022216384F83D2084F83E10226C1043D8
:101EC000206484F83C10012001B0F0BD4169394024
:101ED000B942C8D041694905E1D4FEF747FB206803
:101EE00041693940B942F1D02020E0E74169490514
:101EF000D5D441693940B942B5D041694905CED4FC
:101F000041693940B942AED041694905C7D44169F8
:101F10003940B942A7D041694905C0D44169394027
:101F2000B942E3D19FE7000070B50446006815464A
:101F300050F8143F5A063DD40E4629B926E000BF9A
:101F400050F8141F490635D40168C90621D4FEF79C
:101F50000DFB411B2068B142F2D941694906EFD41B
:101F600000202021206384F83D1084F83E00206C7E
:101F700040F0200018E000BFFEF7F8FA206850F8A3
:101F8000141F4906ECD50168490613D40168C90637
:101F9000F2D56FF01001016000202021206384F849
:101FA0003D1084F83E00206C2064002084F83C0042
:101FB000012070BD002070BD70B50368044653F861
:101FC000140F000611D40E46481C29D086BB00BF52
:101FD0001868400527D4FEF7C9FA236853F8140F90
:101FE000000637D518680006F2D5002070BD00BF86
:101FF00018680006F9D41868400514D4186800065B
:10200000F3D4186840050ED418680006EDD418689B
:10201000400508D4186800064FF0000048BF70BDA6
:1020200018684005E4D56FF480601860042012E061
:10203000154603E053F8140F0006D6D4186840057F
:10204000F1D4FEF793FA401B2368B042F2D95869E5
:102050000006EFD4202000212022216384F83D20B7
:1020600084F83E10226C10432064012084F83C1058
:1020700070BD0000FEE70000FEE7000070470000B2
:1020800070470000FEF7B4BD70470000FEE7000097
:102090002DE9F0438BB040F20C00C2F2000040F298
:1020A000C8080178C2F20008012008F10C02642778
:1020B000CDE9002008F11C0041F0010101220123BB
:1020C0000297FEF70BFB98F80C5088F80100E8091E
:1020D000C5F30014C5F3C006C5F38007C5F3801926
:1020E0008DF82B000DF1270003A98DF827408DF8FE
:1020F00029608DF828708DF82A9000F027F806994D
:10210000002C01F6845008BF40F6363036B9002F57
:102110001CBF084400F5257004E000BF00EB41003F
:1021200000F26450DDE90712B9F1000F014418BF55
:1021300001F5257011186AB2002A48BF01F2262065
:10214000C8F808000BB0BDE8F08300002DE9F04F9F
:1021500085B040F20C0BC2F2000B40F2C8070490AD
:102160009BF80000C2F200070C46012107F10C05A4
:1021700007F11C0642F6007A4FF0640CCDE90051DD
:1021800040F00101304650220123C0F23A0A4FF0DC
:102190000108CDF808C04FF06409FEF79FFA787087
:1021A000387B022101EB40009BF80010C0B2208078
:1021B00041F00101304646220123CDE90058CDF817
:1021C00008904FF06409FEF789FA7870207844F699
:1021D000D35800FB0AF0397B00F5FA70C1F26208AF
:1021E000A0FB0802481C9109414301EBD211A1FB5D
:1021F0000812A08090099BF80010E0600220019076
:1022000041F001013046512201230095CDF808909C
:10221000FEF764FA78702178387B7A7B01FB0AF14B
:1022200001F5FA7102FA00F0A1FB081301309909D7
:1022300082B2514301EBD311A1FB0812E080900957
:102240009BF8001020610120019041F0010130460F
:10225000702201230095CDF80890FEF73FFA397BF4
:102260000222787002EB41009BF80010C0B260803F
:10227000CDE9005241F00101304671220123CDF831
:102280000890FEF72BFA397B7A7B787002FA01F01E
:1022900004990130C978208111B1E188401A208168
:1022A000A17842F60072C0F23A02514301F5FA7188
:1022B000A1FB0812910980B2484300EBD210A0FBA9
:1022C00008018809606105B0BDE8F08F2DE9F04F85
:1022D00085B040F2C808C2F200080124454640F229
:1022E0000C06C2F2000605F80C4F0491317805F196
:1022F000100781464FF0640A384680220123CDE959
:102300000054CDF808A0FEF78FFB317805F80B0CD0
:102310003846FF2201232C70CDE90054CDF808A0E7
:10232000FEF782FB317805F80B0C4FF0000B3846B6
:102330000022012385F800B0CDE90054CDF808A0B3
:10234000FEF772FB05F80B0C062031782870384632
:10235000FF220123CDE90054CDF808A0FEF764FB6D
:10236000317805F80B0C41F0010138468322012336
:10237000CDE90054CDF808A0FEF7B0F9297805F8AA
:102380000B0C41F004003178287038468322012379
:10239000CDE90054CDF808A0FEF746FB05F80B0C7C
:1023A0000720317828703846FF220123CDE90054F8
:1023B000CDF808A0FEF738FB317805F80B0C38464D
:1023C000812201232C70CDE90054CDF808A0FEF73E
:1023D0002BFB317805F80B0C3846802201232C703A
:1023E000CDE90054CDF808A0FEF71EFB05F80B0C54
:1023F0006B2031782870384694220123CDE90054AF
:10240000CDF808A0FEF710FB317805F80B0C384624
:102410008322012385F800B0CDE90054CDF808A04F
:10242000FEF702FB05F80B0CFEF7A0F8317825F853
:10243000060C41F00101384683220123CDE9005406
:10244000CDF808A0FEF74AF9297805F80B0C002909
:1024500000F0B68008F80C4F317808F110073846C4
:1024600083220123CDE90084CDF808A0FEF7DCFA31
:10247000317808F80B0C41F0010138469222012313
:10248000CDE90084CDF808A0FEF728F998F80010EF
:1024900008F80B0C01F07F0089F80000C8090499C6
:1024A0008122087031783846012388F800B0CDE9E0
:1024B0000084CDF808A0FEF7B7FA08F80B0C3178C5
:1024C000062088F800003846FF220123CDE9008469
:1024D000CDF808A0FEF7A8FA317808F80B0C41F007
:1024E0000101384683220123CDE90084CDF808A0FC
:1024F000FEF7F4F898F8001008F80B0C01F0FB0058
:10250000317888F80000384683220123CDE9008421
:10251000CDF808A0FEF788FA317808F80B0C384699
:10252000FF22012388F80040CDE90084CDF808A0FF
:10253000FEF77AFA317808F80B0C384600220123AE
:1025400088F80040CDE90084CDF808A0FEF76CFAC9
:10255000317808F80B0C3846FF22012388F800B0C8
:10256000CDE90084CDF808A0FEF75EFA317808F8CE
:102570000B0C38468022012388F800B0CDE9008496
:10258000CDF808A0FEF750FA08F80B0C204605B06D
:10259000BDE8F08F317808F10C00CDE9000408F1B6
:1025A0001C0041F0010183220123CDF808A0FEF7B1
:1025B00095F898F80C1088F8010000297FF44AAFCC
:1025C000B8F804000028E5D0FDF7D0FFB8F80610F1
:1025D00080B2B8F80420401A9042DBDD0024204687
:1025E00005B0BDE8F08F00002DE9F04F85B040F256
:1025F000C807C2F2000707F11C0B064658465422D2
:10260000FDF7F8FD40F20C0A0024C2F2000AFC605B
:1026100016B39AF800004FF06408012507F10C0684
:1026200040F00101584689220123CDE90065CDF82B
:102630000880FEF753F8397B787041F001009AF872
:1026400000103873584689220123CDE90065CDF882
:102650000880FEF7E9F978703D4605F80C4F9AF8C6
:10266000001005F110064FF064084FF001093046E4
:10267000882201230024CDE90059CDF80880FEF717
:10268000D3F99AF8001005F80B0C3046802201238C
:1026900085F80090CDE90059CDF80880FEF7C4F91F
:1026A0009AF8001005F80B0C3046FF22012385F83C
:1026B0000090CDE90059CDF80880FF27FEF7B4F966
:1026C0009AF8001005F80B0C3046002201232C70FC
:1026D000CDE90059CDF80880FEF7A6F99AF8001068
:1026E00005F80B0C41F00101304691220123CDE9A0
:1026F0000059CDF80880FDF7F1FF297805F80B0C9B
:1027000005F80A1C9AF8001030460022012385F8CB
:102710000090CDE90059CDF80880FEF785F99AF8C8
:10272000001005F80B0C3046FF2201232C70CDE978
:102730000059CDF80880FEF777F99AF8001005F8EF
:102740000B0C3046802201232C70CDE90059CDF8C6
:102750000880FEF769F99AF8001005F80B0C41F0B3
:102760000101304660220123CDE90059CDF80880EF
:10277000FDF7B4FF297805F80B0C41F012009AF828
:1027800000102870304660220123CDE90059CDF8B1
:102790000880FEF749F905F80B0C4FF400509AF841
:1027A000001028800220CDE9005030464422012349
:1027B000CDF80880FEF738F99AF8001005F80B0CF0
:1027C0003046012201232F70CDE90059CDF8088051
:1027D000FEF72AF905F80B0C0DF113000DF11201AB
:1027E000FFF774FD002800F059869AF800000621D2
:1027F00003AECDE9006140F001015846B02201234B
:10280000CDF80880FDF76AFF40F2C807C2F2000762
:1028100007F80C9F9AF8001007F80B0C5846FF2297
:102820000123CDE90079CDF80880FEF7FDF89AF88C
:10283000001007F80B0C002558464F2201233D706D
:10284000CDE90079CDF80880FEF7EEF807F80B0C1B
:102850002C209AF80010387058464E220123CDE9FA
:102860000079CDF80880FEF7DFF89AF8001007F835
:102870000B0C5846FF2201233D70CDE90079CDF8BD
:102880000880FEF7D1F807F80B0CB4209AF8001076
:1028900038705846B6220123CDE90079CDF808807A
:1028A000FEF7C2F807F80B0C9DF812009DF8131004
:1028B00000220CE003F00707DB08F45C09FA07F7D5
:1028C00024EA0707F7540635302D00F0CF800028A2
:1028D000034618BF01230C2D4FF0000738BF012716
:1028E0003B420BD1D3B28B4208D0EB08F35C05F02E
:1028F0000607FB4003F001031A4408E0EF0805F067
:102900000603F45D09FA03F324EA0303F3550028F0
:10291000034618BF01230C2D4FF0000738BF0127D5
:102920003B4205F101030DD1D7B28F420AD0EF0827
:10293000F75D03F0070327FA03F303F001031A44DA
:1029400009E000BFEF0803F00703F45D09FA03F3A1
:1029500024EA0303F3550028034618BF01230A2D78
:102960004FF0000738BF01273B4205F102030DD1AC
:10297000D7B28F420AD0DF08F75D03F0060327FACB
:1029800003F303F001031A4409E000BF03F0060754
:10299000DB08F45C09FA07F724EA0707F754002874
:1029A000034618BF0123092D4FF0000738BF012748
:1029B0003B4205F103030DD1D7B28F420AD0DF08A5
:1029C000F75D03F0070327FA03F303F001031A444A
:1029D00009E000BF03F00707DB08F45C09FA07F71A
:1029E00024EA0707F7540028034618BF0123082DDF
:1029F0004FF0000738BF01273B4205F104030DD11A
:102A0000D7B28F420AD0DF08F75D03F0060327FA3A
:102A100003F303F001031A4409E000BF03F00607C3
:102A2000DB08F45C09FA07F724EA0707F7540028E3
:102A3000034618BF0123072D4FF0000738BF0127B9
:102A40003B4205F105037FF435AFD7B28F423FF427
:102A500031AFDF08F75D03F0070327FA03F303F054
:102A600001031A440635302D7FF431AF039840F24C
:102A7000C804C2F2000444F80C0FBDF810009AF824
:102A80000010A080062004F110056426CDE9004066
:102A90002846B022012302960127FDF7C5FF9AF8C8
:102AA000001004F80B0C2846FF2201232770CDE903
:102AB000004702964FF0FF0BFDF7B6FF9AF80010A3
:102AC00004F80B0C4FF0000928460022012384F87B
:102AD0000090CDE900470296FDF7A6FF9AF8001096
:102AE00004F80B0C2846FF22012384F80090CDE95E
:102AF00000470296FDF798FF9AF8001004F80B0CB7
:102B000028460922012384F80090CDE90047029667
:102B10004FF00908FDF788FF9AF8001004F80B0C35
:102B200028461022012384F80090CDE90047029640
:102B3000FDF77AFF9AF8001004F80B0C28461122D2
:102B4000012384F80090CDE900470296FDF76CFF61
:102B50009AF8001004F80B0C284624220123277051
:102B6000CDE900470296FDF75FFF9AF8001004F8E0
:102B70000B0C28462522012384F800B0CDE900473C
:102B800002964FF0250BFDF74FFF9AF8001004F85E
:102B90000B0C28467522012384F80090CDE90047EC
:102BA0000296FDF741FF9AF8001004F80B0C284636
:102BB000FF2201232770CDE900470296FDF734FF7D
:102BC00004F80B0C2C209AF80010207028464E2296
:102BD0000123CDE900470296FDF726FF9AF8001081
:102BE00004F80B0C28464822012384F80090CDE914
:102BF00000470296FDF718FF04F80B0C20209AF806
:102C000000102070284630220123CDE900470296AB
:102C1000FDF70AFF9AF8001004F80B0C2846FF2273
:102C2000012384F80090CDE900470296FDF7FCFEF1
:102C30009AF8001004F80B0C28463022012384F87F
:102C40000080CDE900470296FDF7EEFE9AF80010ED
:102C500004F80B0C28465422012384F80090CDE997
:102C600000470296FDF7E0FE04F80B0C04209AF8EA
:102C700000102070284631220123CDE9004702963A
:102C8000FDF7D2FE04F80B0C03209AF80010207018
:102C9000284632220123CDE9004702964FF0320840
:102CA000FDF7C2FE04F80B0C83209AF80010207088
:102CB000284640220123CDE900470296FDF7B4FEE5
:102CC0009AF8001004F80B0C28464622012384F8D9
:102CD00000B0CDE900470296FDF7A6FE9AF8001075
:102CE00004F80B0C28466022012384F80090CDE9FB
:102CF00000470296FDF798FE9AF8001004F80B0CB6
:102D000028462722012384F80090CDE90047029647
:102D1000FDF78AFE04F80B0C9AF8001006202070CC
:102D2000284650220123CDE900470296FDF77CFE9C
:102D30009AF8001004F80B0C28465122012384F85D
:102D40000090CDE900470296FDF76EFE04F80B0CEB
:102D500096209AF800102070284652220123CDE9CF
:102D600000470296FDF760FE04F80B0C08209AF865
:102D700000102070284656220123CDE90047029614
:102D8000FDF752FE04F80B0C9AF80010302020706A
:102D9000284657220123CDE900470296FDF744FE5D
:102DA0009AF8001004F80B0C28466122012384F8DD
:102DB0000090CDE900470296FDF736FE9AF8001024
:102DC00004F80B0C28466222012384F80090CDE918
:102DD00000470296FDF728FE9AF8001004F80B0C45
:102DE00028466422012384F80090CDE9004702962A
:102DF000FDF71AFE9AF8001004F80B0C284665221D
:102E0000012384F80090CDE900470296FDF70CFEFF
:102E100004F80B0CA0209AF80010207028466622B7
:102E20000123CDE900470296FDF7FEFD9AF8001058
:102E300004F80B0C2846FF2201232770CDE9004738
:102E40000296FDF7F1FD9AF8001004F80B0C2846E5
:102E50002222012384F80080CDE900470296FDF785
:102E6000E3FD04F80B0C14209AF80010207028469B
:102E700047220123CDE900470296FDF7D5FD9AF8D8
:102E8000001004F80B0C4FF0FF08284649220123DC
:102E900084F80080CDE900470296FDF7C5FD9AF859
:102EA000001004F80B0C28464A22012384F80090F5
:102EB000CDE900470296FDF7B7FD9AF8001004F837
:102EC0000B0C2846FF22012384F80090CDE900472F
:102ED0000296FDF7A9FD04F80B0C0A209AF80010E1
:102EE000207028467A220123CDE900470296FDF79B
:102EF0009BFD9AF8001004F80B0C28467B22012356
:102F000084F80090CDE900470296FDF78DFD04F8A6
:102F10000B0C21209AF800102070284678220123FB
:102F2000CDE900470296FDF77FFD9AF8001004F8FE
:102F30000B0C2846FF2201232770CDE9004702969B
:102F4000FDF772FD04F80B0C34209AF80010207085
:102F5000284623220123CDE900470296FDF764FDB0
:102F60009AF8001004F80B0C28464222012384F83A
:102F70000090CDE900470296FDF756FD9AF8001043
:102F800004F80B0C28464422012384F80080CDE984
:102F900000470296FDF748FD04F80B0C26209AF82E
:102FA00000102070284645220123CDE900470296F3
:102FB000FDF73AFD9AF8001004F80B0C4FF0050BE2
:102FC00028464622012384F800B0CDE90047029646
:102FD000FDF72AFD9AF8001004F80B0C4FF040089A
:102FE00028464022012384F80080CDE9004702965C
:102FF000FDF71AFD04F80B0C9AF80010062020705B
:1030000028460E220123CDE900470296FDF70CFD6C
:1030100004F80B0C1A209AF8001020702846202281
:103020000123CDE900470296FDF7FEFC9AF8001057
:1030300004F80B0C28464322012384F80080CDE9D4
:1030400000470296FDF7F0FC9AF8001004F80B0C0C
:103050002846FF22012384F80090CDE9004702961C
:10306000FDF7E2FC04F80B0C9AF800100320207026
:10307000284634220123CDE900470296FDF7D4FC0F
:1030800004F80B0C9AF800104420207028463522D2
:1030900001234FF00008CDE900470296FDF7C4FC7C
:1030A0009AF8001004F80B0C2846FF220123277021
:1030B000CDE900470296FDF7B7FC9AF8001004F836
:1030C0000B0C4FF0040928463122012384F80090AC
:1030D000CDE900470296FDF7A7FC04F80B0C9AF81F
:1030E00000100920207028464B220123CDE900471B
:1030F0000296FDF799FC9AF8001004F80B0C28468C
:103100004C22012384F800B0CDE900470296FDF778
:103110008BFC9AF8001004F80B0C28464D22012372
:1031200084F800904FF00409CDE900470296FDF7BE
:103130007BFC9AF8001004F80B0C2846FF220123B0
:1031400084F80080CDE900470296FDF76DFC9AF8FF
:10315000001004F80B0C28464422012384F8008058
:10316000CDE900470296FDF75FFC04F80B0C9AF8D6
:10317000001020202070284645220123CDE9004779
:103180000296FDF751FC04F80B0C9AF80010082089
:103190002070284647220123CDE900470296FDF71B
:1031A00043FC04F80B0C28209AF8001020702846E5
:1031B00048220123CDE900470296FDF735FC9AF835
:1031C000001004F80B0C28466722012384F80080C5
:1031D000CDE900470296FDF727FC9AF8001004F8A5
:1031E0000B0C28467022012384F80090CDE900479B
:1031F0000296FDF719FC9AF8001004F80B0C28460B
:10320000712201232770CDE900470296FDF70CFCDF
:1032100004F80B0CFE209AF8001020702846722249
:103220000123CDE900470296FDF7FEFB9AF8001056
:1032300004F80B0C28467622012384F80080CDE99F
:1032400000470296FDF7F0FB9AF8001004F80B0C0B
:1032500028467722012384F80080CDE900470296B2
:10326000FDF7E2FB9AF8001004F80B0C2846FF2249
:1032700001232770CDE900470296FDF7D5FB9AF8A8
:10328000001004F80B0C28460D2201232770CDE90D
:1032900000470296FDF7C8FB9AF8001004F80B0CE3
:1032A0002846FF22012384F80080CDE900470296DA
:1032B000FDF7BAFB9AF8001004F80B0C28468022A0
:1032C00001232770CDE900470296FDF7ADFB04F816
:1032D0000B0CF8209AF800102070284601220123D8
:1032E000CDE900470296FDF79FFB9AF8001004F81D
:1032F0000B0C2846FF2201232770CDE900470296D8
:10330000FDF792FB9AF8001004F80B0C28468E2269
:1033100001232770CDE900470296FDF785FB9AF857
:10332000001004F80B0C2846002201232770CDE979
:1033300000470296FDF778FB9AF8001004F80B0C92
:103340002846FF22012384F80080CDE90047029639
:10335000FDF76AFB9AF8001004F80B0C284680224F
:10336000012384F80080CDE900470296FDF75CFB5D
:103370009AF8001004F80B0C28460A22012384F85E
:103380000090CDE900470296FDF74EFB9AF8001039
:1033900004F80B0C41F00101284684220123CDE9F9
:1033A00000470296FDF79AF9217804F80B0C01F01A
:1033B000EF009AF800102070284684220123CDE9FE
:1033C00000470296FDF730FB9AF8001004F80B0C4A
:1033D00028460B2201232770CDE900470296FDF70E
:1033E00023FB04F80B0CFEF753FE44F8040CE82012
:1033F0009AF800102070284601220123CDE90047E9
:103400000296FDF711FB54F8041C04F80B0C084657
:1034100000F058FB9AF8001028460122012327707B
:10342000CDE900470296FDF7FFFA04F80B0C4020A7
:1034300000F05EF970B340F2C805C2F20005022048
:103440002C469AF8001004F80C0F04F11000012229
:103450000123CDE901760094FDF7E6FA04F80B0CA0
:1034600000204FF0000800F043F998B1E8209AF8E6
:10347000001005F80C0F64204FF00108029005F1D0
:103480001000012201230095CDF80480FDF7CCFA4D
:1034900005F80B0C404605B0BDE8F08F4FF0000872
:1034A000404605B0BDE8F08F96B045F64110049057
:1034B00044F24D50C4F62050039044F64370C2F2DB
:1034C0004E00029044F64410C2F254000190FDF701
:1034D0009DFB00240120CDE90F44CDE90D440A9065
:1034E0000E904FF4E0104FF48031022513900AA89B
:1034F000CDE90B14CDE91151FDF710FD20B1EFF32B
:10350000108072B6FEE700BF0F20CDE905054FF42D
:103510008060CDE9080405A802210794FDF70CFCA2
:1035200020B1EFF3108072B6FEE700BF002641F233
:103530001800CDE90C66CDE90A66C4F20200016804
:1035400041F2000441F0100101600168C4F201047D
:1035500001F01001059105990168002241F0200158
:10356000016001684FF4005501F0200105910599B3
:10357000016841F004010160016801F00401059156
:103580000599016841F00801016000684FF400519D
:1035900000F00800059005982046FCF7E1FF0120A7
:1035A000CDE90B0602200D900AA920460A95FCF7EA
:1035B000CFFE40F24050A4F53C41C2F2000041F67B
:1035C00080224FF48043C0F2060280E84600C0E942
:1035D0000363C0E90566C0E90766FCF7CDFF28B1C3
:1035E000EFF3108072B600BFFEE700BF40F2700537
:1035F000C2F200054FF08041284640F8101F4721D5
:1036000044F61F620896CDE90666CDE91466CDE959
:103610000F66CDE90D66C0E90116C0E90326866193
:10362000FDF7D2FE20B1EFF3108072B6FEE700BFC7
:103630004FF4805005F11004059005A92046FDF7D0
:1036400057FF28B1EFF3108072B600BFFEE700BF4E
:103650002046FEF749F928B1EFF3108072B600BF9B
:10366000FEE700BF14A92046FDF76EFE20B1EFF380
:10367000108072B6FEE700BF60200A900020CDE9FE
:103680000B000E900AA920460022FEF72BF828B165
:10369000EFF3108072B600BFFEE700BF2046FDF7D3
:1036A000F7FF00F0E1FA0520052100F053FC44F695
:1036B000B820C0F6000090E80E00012601A8009690
:1036C00000F010FE00F04EFC40F24051C2F200014A
:1036D0000120FEF789FF2C1D204600F027F92880E5
:1036E000002000F023F968803220FCF71DFEF3E78C
:1036F0002DE9F04784B040F2C806C2F2000640F05F
:103700000100374640F20C0AC2F2000A07F80C0F1B
:103710009AF8001007F110054FF0640801242846BC
:1037200000220123CDE90074CDF808804FF0000994
:10373000FDF77AF907F80B0CFCF718FF9AF8001060
:1037400027F8060C41F00101284613220123CDE998
:103750000074CDF80880FCF7C1FF397807F80B0C2E
:10376000490723D006F80C4F9AF8001006F110050F
:1037700028460B220123CDE90064CDF80880FDF72F
:1037800053F99AF8001006F80B0C28460022012382
:1037900086F80090CDE90064CDF80880FDF744F983
:1037A00006F80B0C204604B0BDE8F08706F10C07C4
:1037B00006F11C0511E000BF9AF80000132240F04A
:1037C000010128460123CDE90074CDF80880FCF7FB
:1037D00085FF317B70704907C4D1B0880028EBD0D9
:1037E000FCF7C4FEF18880B2B288401A9042E3DD53
:1037F0000024204604B0BDE8F08700002DE9F04722
:1038000086B08046FCF7B2FE40F20C09C2F2000915
:1038100040F2C80699F80010C2F200064FF0640AA0
:10382000012706F10C0406F11C0541F00101F080AE
:10383000CDE9004706E000BF99F80000CDE9004758
:1038400040F00101284613220123CDF808A0FCF71F
:1038500045FF317B7070490712D1B0880028EBD04A
:10386000FCF784FEF18880B2B288401A9042E3DD12
:10387000012030704FF6FF75284606B0BDE8F0878E
:1038800099F80000B8F1000F40F001014FF0640713
:1038900028D00C2003AACDE90020284614220123B9
:1038A0000297FCF71BFF9DF80C10BDF80E20C9080D
:1038B00088F8081011BABDF81220090CA8F80610F3
:1038C00011BABDF81420090CA8F8021011BABDF8FD
:1038D0001620090CA8F8041011BA0D0CA8F8005015
:1038E0000CE000BF0220CDE9004028461E22012343
:1038F0000297FCF7F3FEB18909BA0D0C012206F814
:103900000C2F99F8001006F80B0C6420CDE901206B
:1039100006F110000B2201230096FDF785F806F84A
:103920000B0C284606B0BDE8F08700002DE9F04FEB
:1039300083B040F2C804C2F200040127264640F2D8
:103940000C09C2F2000906F80C7F99F8001006F184
:10395000100580464FF0640A284680220123CDE9F5
:103960000067CDF808A0FDF75FF899F8001006F899
:103970000B0C2846FF2201233770CDE90067CDF8F4
:1039800008A0FDF751F899F8001006F80B0C4FF05D
:10399000000B28460022012386F800B0CDE900671D
:1039A000CDF808A0FDF740F806F80B0C16F80A0C45
:1039B00099F800103070284691220123CDE9006764
:1039C000CDF808A0FDF730F899F8001006F80B0CB8
:1039D0002846002201233770CDE90067CDF808A002
:1039E000FDF722F899F8001006F80B0C2846FF2284
:1039F000012386F800B0CDE90067CDF808A0FDF7F7
:103A000013F899F8001006F80B0C284680220123C1
:103A100086F800B0CDE90067CDF808A0FDF704F8FE
:103A200099F8001006F80B0C284600220123377085
:103A3000CDE90067CDF808A0FCF7F6FF06F80B0CFF
:103A4000FCF794FD99F8001026F8060C41F00101EE
:103A5000284600220123CDE90067CDF808A0FCF735
:103A60003DFE317806F80B0CC90719D1404603B06A
:103A7000BDE8F04FFFF7C2BE99F8001004F10C004A
:103A8000CDE9000704F11C0041F0010100220123EF
:103A9000CDF808A0FCF722FE217B6070C907E5D0B5
:103AA000A0880028E8D0FCF761FDE18880B2A288F8
:103AB000401A9042E0DD01214FF6FF70217003B003
:103AC000BDE8F08F2DE9F04F8BB0814644F62060C1
:103AD000814503D200200BB0BDE8F08F40F20C0806
:103AE000C2F2000840F2C80A98F80010C2F2000AB8
:103AF00001200AF10C026427CDE900200AF11C0024
:103B000041F00101012201230297FCF7E7FD9AF839
:103B10000C608AF80100F009C6F30015C6F3C0076F
:103B2000C6F38004C6F3801B8DF82B000DF127002F
:103B300003A98DF827508DF829708DF828408DF84D
:103B40002AB0FEF703FB0699002D01F6363008BFB8
:103B500040F6E800002F4DD1002C1CBF084400F5B2
:103B6000257071B2B1F1FF3F4CDC0799BBF1000F3A
:103B7000014418BF01F5257000F226208145A9D324
:103B80009DF80E1043F62F2251434FF4FA7202EBC8
:103B9000012144F6D352C1F26202A9EB00004FF4B6
:103BA0007A73A1FB02125843910900EBD210B0FBCB
:103BB000F1F0BDF81210BBF1000F18BF084401046A
:103BC00024D080B2B0F5807FA0F101004FF0000159
:103BD0002ED900BFB0F5007F1CD3B0F5806F1DD388
:103BE000B0F5006F1ED302090431B0F5805F1046B6
:103BF000F0D21AE000EB410000F2645071B2B1F172
:103C0000FF3FB2DD01200BB0BDE8F08F00200021A6
:103C100010E000BF420841F0010106E0820841F0D7
:103C2000020102E0C20841F0030188B2010210461D
:103C30000144090A0AF80C1F98F800108AF80100DC
:103C400064200222CDE900A202900AF11000712244
:103C50000123FCF7E9FE014601200AF80B1C4AF893
:103C6000049C0BB0BDE8F08F2DE9F04784B06420D0
:103C7000FCF75AFB40F2405440F23818AE20C2F232
:103C80000004C2F200084FF000098DF80F004FF059
:103C9000FF3701250DF10F06204678210022012370
:103CA00088F80090CDE900650297FCF7BDFE4FF063
:103CB000200A20467821002201238DF80FA0CDE9AB
:103CC00000650297FCF7B0FE204678210022012310
:103CD0008DF80F90CDE900650297FCF7A5FEB020A6
:103CE0008DF80F002046782100220123CDE90065E0
:103CF0000297FCF799FEC8208DF80F002046782126
:103D000000220123CDE900650297FCF78DFE2046D5
:103D10007821002201238DF80F90CDE900650297EC
:103D2000FCF782FE10208DF80F002046782100223B
:103D30000123CDE900650297FCF776FE40208DF85F
:103D40000F002046782100220123CDE9006502976B
:103D5000FCF76AFE81208DF80F00204678210022B2
:103D60000123CDE900650297FCF75EFEFF208DF888
:103D70000F002046782100220123CDE9006502973B
:103D8000FCF752FEA1208DF80F002046782100227A
:103D90000123CDE900650297FCF746FEA6208DF8C9
:103DA0000F002046782100220123CDE9006502970B
:103DB000FCF73AFEA8208DF80F002046782100225B
:103DC0000123CDE900650297FCF72EFE3F208DF818
:103DD0000F002046782100220123CDE900650297DB
:103DE000FCF722FEA4208DF80F0020467821002247
:103DF0000123CDE900650297FCF716FED3208DF86C
:103E00000F002046782100220123CDE900650297AA
:103E1000FCF70AFE20467821002201238DF80F903E
:103E2000CDE900650297FCF7FFFDD5208DF80F0066
:103E30002046782100220123CDE900650297FCF796
:103E4000F3FDF0208DF80F00204678210022012399
:103E5000CDE900650297FCF7E7FDD9208DF80F004A
:103E60002046782100220123CDE900650297FCF766
:103E7000DBFD22208DF80F0020467821002201234F
:103E8000CDE900650297FCF7CFFDDA208DF80F0031
:103E90002046782100220123CDE900650297FCF736
:103EA000C3FD12208DF80F00204678210022012347
:103EB000CDE900650297FCF7B7FDDB208DF80F0018
:103EC0002046782100220123CDE900650297FCF706
:103ED000ABFD20467821002201238DF80FA0CDE90B
:103EE00000650297FCF7A0FD8D208DF80F0020469D
:103EF000782100220123CDE900650297FCF794FDAB
:103F000014208DF80F002046782100220123CDE9EE
:103F100000650297FCF788FDAF208DF80F00204662
:103F200078210022012388F80050CDE9006502972E
:103F3000FCF77AFD40F24010C2F200004FF48061BD
:103F4000FCF78AF900F00EF8C8F8029004B0BDE85A
:103F5000F087000040F23812C2F2000250809180D7
:103F6000704700002DE9F04F85B040F2401640F256
:103F70004054C2F200064FF0FF370125C2F20004A0
:103F80004FF0100B0DF113084FF080094FF0000AAD
:103F90004AF0B0008DF811000DF11100CDE90005D7
:103FA00020467821002201230297FCF73DFD0020E6
:103FB0008DF812000DF11200CDE9000520467821A0
:103FC000002201230297FCF72FFD204678210022D2
:103FD00001238DF813B0CDE900850297FCF724FD8D
:103FE0002046782140220123CDE900690297FCF7A1
:103FF0001BFD0AF1010ABAF1080F06F18006C7D1CC
:1040000005B0BDE8F08F00002DE9F04F89B0A0F1B8
:104010007F0717F15F0F14D340F23817C2F2000781
:10402000002B0EBFCBB2034413F8203C7C88E6186B
:10403000802E06D8090ABF88CDB2E9194029089711
:1040400004D9002009B0BDE8F08F00BF002D019613
:104050000593039000F03C810598002800F038811A
:10406000039840F2401AA0F12001694302EB41009D
:1040700004900598002700F0030100F0FC02601C8A
:104080000290A01CC2F2000A06910090079508E079
:1040900003EA0C000AF80100079D0137AF4200F067
:1040A000178108983918CBB23F2BF5D8049801F046
:1040B000070330F817B0012000FA03F9059889F0DA
:1040C000FF0C04284FF4607000EA01184FF0000E56
:1040D00022D206980028DFD00BFA0EF10EEB040076
:1040E0000D04C3B24FEA006540F19A80002D00F143
:1040F000A58043EA080312981AF80350012840F0FB
:10410000998045EA090097E003EA0C000AF80100EB
:104110000EF1040E7245DCD00BFA0EF104EB0E0327
:104120000E04DDB24FEA03660CD5002E17D445EA23
:10413000080512981AF8056001280CD146EA09060C
:104140000BE000BF002E0AD445EA080512981AF8C1
:1041500005600028F2D006EA0C060AF805605E1C2D
:10416000F5B248044FEA06660CD5002E17D445EA8E
:10417000080512981AF8056001280CD146EA0900D2
:104180000BE000BF002E0AD445EA080512981AF881
:1041900005600028F2D006EA0C000AF80500981C19
:1041A0008E04C5B24FEA00660CD5002E17D445EA3E
:1041B000080512981AF8056001280CD146EA090092
:1041C0000BE000BF002E0AD445EA080512981AF841
:1041D00005600028F2D006EA0C000AF80500D81C99
:1041E000C904C3B24FEA00610CD500293FF590AF76
:1041F00043EA080112981AF8013001287FF484AFCD
:104200000BE000BF00293FF583AF43EA0801129895
:104210001AF8013000287FF477AF43EA090075E708
:10422000002D0BD443EA080312981AF80350002813
:104230003FF467AF05EA0C000AF80300069801286E
:104240003FF42AAF02984D047044C3B24FEA0065B0
:104250000CD5002D17D443EA080312981AF803501E
:1042600001280CD145EA09000BE000BF002D0AD45B
:1042700043EA080312981AF803500028F2D005EA1E
:104280000C000AF80300069802283FF405AF0098D6
:1042900089047044C3B24FEA00610BD500293FF591
:1042A000FBAE43EA080112981AF8013001287FF4A6
:1042B000EFAE0AE000293FF5EFAE43EA080112989D
:1042C0001AF8013000287FF4E3AE43EA0900E1E682
:1042D00040F238100199C2F200004180039809B001
:1042E000BDE8F08F2DE9F04182B01C460378DBB1C8
:1042F000DDF8208015460E46471C00BFD8B2314677
:104300002A462346CDF80080FFF77EFE17F8011CF1
:10431000884204D117F8013B002BEFD10021084659
:1043200002B0BDE8F08100BF0021084602B0BDE840
:10433000F0810000000000000000010203040607F5
:104340000809000000000102030400000000000052
:10435000000000000000000000000000000000104D
:1043600000100010001000100010000000100000ED
:1043700000000028002800280000000000000000C5
:1043800000000000000000240024007C00240048FD
:10439000007C004800480000000000380054005035
:1043A00000380014005400540038001000000020B1
:1043B0000054005800300028005400140008000089
:1043C00000000010002800280010003400480048B9
:1043D0000034000000000010001000100000000079
:1043E0000000000000000000000000080010002095
:1043F00000200020002000200020001000080020E5
:10440000001000080008000800080008000800105C
:1044100000200010003800100028000000000000FC
:104420000000000000000000000000100010007CF0
:10443000001000100000000000000000000000005C
:10444000000000000000000000100010001000003C
:104450000000000000000000003800000000000024
:10446000000000000000000000000000000000004C
:1044700000100000000000080008001000100010EC
:10448000001000200020000000000038004400441C
:1044900000540044004400440038000000000010B4
:1044A000003000500010001000100010001000003C
:1044B0000000003800440044000400080010002000
:1044C000007C0000000000380044000400180004D4
:1044D0000004004400380000000000080018002814
:1044E00000280048007C0008000800000000007C54
:1044F0000040004000780004000400440038000040
:1045000000000038004400400078004400440044AB
:10451000003800000000007C0004000800100010BB
:10452000002000200020000000000038004400446B
:104530000038004400440044003800000000003807
:10454000004400440044003C0004004400380000E3
:10455000000000000000001000000000000000004B
:10456000001000000000000000000000001000002B
:104570000000000000100010001000000000000CFF
:10458000003000400030000C00000000000000007F
:1045900000000000007C0000007C00000000000023
:1045A0000000000000000060001800040018006017
:1045B0000000000000000038004400040008001063
:1045C0000010000000100000000000380044004C03
:1045D0000054005C00400040003800000000001063
:1045E0000028002800280028007C00440044000027
:1045F0000000007800440044007800440044004477
:1046000000780000000000380044004000400040F6
:1046100000400044003800000000007000480044E2
:104620000044004400440048007000000000007C8A
:1046300000400040007C004000400040007C000042
:104640000000007C00400040007800400040004036
:104650000040000000000038004400400040005CC2
:1046600000440044003800000000004400440044BE
:10467000007C004400440044004400000000003876
:104680000010001000100010001000100038000092
:1046900000000004000400040004000400040044BE
:1046A0000038000000000044004800500060005046
:1046B0000048004800440000000000400040004066
:1046C0000040004000400040007C0000000000442A
:1046D000006C006C0054004400440044004400009E
:1046E000000000440064006400540054004C004C7E
:1046F000004400000000003800440044004400442E
:1047000000440044003800000000007800440044E9
:1047100000440078004000400040000000000038E5
:1047200000440044004400440044005400380004A5
:10473000000000780044004400440078004800482D
:104740000044000000000038004400400030000831
:1047500000040044003800000000007C001000103D
:1047600000100010001000100010000000000044B5
:104770000044004400440044004400440038000069
:1047800000000044004400440028002800280010D5
:104790000010000000000044004400540054005485
:1047A000006C0028002800000000004400280028B9
:1047B0000010001000280028004400000000004401
:1047C0000044002800280010001000100010000015
:1047D0000000007C000400080010001000200040D1
:1047E000007C0000000000180010001000100010F5
:1047F0000010001000100010001800200020001011
:104800000010001000100008000800000000003038
:104810000010001000100010001000100010001018
:1048200000300010002800280044000000000000B4
:104830000000000000000000000000000000000078
:10484000000000000000000000FE0020001000003A
:104850000000000000000000000000000000000058
:10486000000000380044003C0044004C00340000CC
:104870000000004000400058006400440044006410
:104880000058000000000000000000380044004014
:104890000040004400380000000000040004003420
:1048A000004C00440044004C0034000000000000B4
:1048B000000000380044007C004000440038000044
:1048C0000000000C0010007C001000100010001010
:1048D000001000000000000000000034004C004404
:1048E0000044004C003400040078004000400058B0
:1048F0000064004400440044004400000000001034
:1049000000000070001000100010001000100000E7
:1049100000000010000000700010001000100010D7
:104920000010001000E0004000400048005000600F
:10493000005000480044000000000070001000100B
:104940000010001000100010001000000000000017
:10495000000000780054005400540054005400003B
:1049600000000000000000580064004400440044BF
:104970000044000000000000000000380044004433
:10498000004400440038000000000000000000580F
:1049900000640044004400640058004000400000EF
:1049A00000000034004C00440044004C003400047B
:1049B0000004000000000058006400400040004077
:1049C00000400000000000000000003800440030FB
:1049D000000800440038000000000020002000789B
:1049E000002000200020002000180000000000002F
:1049F00000000044004400440044004C0034000027
:104A000000000000000000440044002800280028A6
:104A1000001000000000000000000054005400548A
:104A2000006C002800280000000000000000004486
:104A300000280010001000280044000000000000C2
:104A4000000000440044002800280010001000105E
:104A5000006000000000007C000800100020004002
:104A6000007C000000000018001000100010002062
:104A7000002000100010001000180010001000109E
:104A80000010001000100010001000100010003086
:104A900000100010001000080008001000100010A6
:104AA00000300000000000000074004C0000000016
:104AB0000000000000000000070A00004A43000850
:104AC00000000000010202030405060708090A0BA2
:104AD0000C0D0E0F10100000F84A00080000002016
:104AE0001000000050010008084B000810000020D2
:104AF000880B000070010008010000001000000099
:084B000000127A0052000000CF
:04000005080000ED02
:00000001FF
