:020000040800F2
:10000000D8070020BD010008492E0008B9270008C4
:10001000452E000811050008C92F00080000000047
:10002000000000000000000000000000512E000849
:1000300015050008000000004D2E0008A92E00083C
:10004000D7010008D7010008D7010008D701000830
:10005000D7010008D7010008D7010008D701000820
:10006000D7010008D7010008D7010008D701000810
:10007000D7010008D7010008D7010008D701000800
:10008000D7010008D7010008D7010008D7010008F0
:10009000D7010008D7010008D7010008D7010008E0
:1000A000D7010008D7010008D7010008D7010008D0
:1000B000D7010008D7010008D7010008D7010008C0
:1000C000D7010008D7010008D7010008D7010008B0
:1000D000D7010008BD2F0008D7010008D70100088C
:1000E000D7010008D7010008D701000800F002F886
:1000F00000F055F814A696E8000CB244B344DA4573
:1001000001D100F04CF8BAE80F000FA696E83000D5
:10011000A5EB040504EB0607AAEB0704A7F101070A
:100120004FEA15154FEA3414A4F10104AC4201D38F
:1001300000F035F813F0010F18BFFB1A43F001036C
:1001400000F001F8DBE71847AC4C0000CC4C000095
:10015000103A24BF78C878C1FAD8520724BF30C8F3
:1001600030C144BF04680C60704700007047000055
:100170000023002400250026103A28BF78C1FBD8B0
:10018000520728BF30C148BF0B607047642900F098
:100190007D80002070471FB51FBD10B510BD00F059
:1001A00081F91146FFF7F7FF04F01CF900F09FF901
:1001B00003B4FFF7F2FF03BC00F0A2F9094880473F
:1001C00009480047FEE7FEE7FEE7FEE7FEE7FEE739
:1001D000FEE7FEE7FEE7FEE704480549054A064B51
:1001E00070470000AD2E0008ED000008D801002087
:1001F000D8070020D8030020D80300200FB41CB576
:10020000074B06AA7B4469460090059800F02DF93B
:100210000020694600F03CF91CBC5DF814FB0000AE
:10022000890200002DE9F0410E46044600202062BC
:100230002046E168884730B3252805D0D4E901215C
:100240009047206A401CF2E7E16820460027884773
:10025000050018D0A5F14100192802D820354FF427
:1002600000673246294620462760FFF78FFF40B1DE
:10027000012804D0F61D26F007060836D8E7361DFB
:10028000D6E72846DAE7206ABDE8F0812DE9F0419B
:100290000646002410687529314616A510D0AFF324
:1002A0000080002802DA404213A507E031688A077F
:1002B00001D512A502E0490704D511A5012401E0EA
:1002C000AFF3008000210A2206F1240709E0B0FB09
:1002D000F2FCB0FBF2F302FB1C00303078541846FD
:1002E000491C0028F3D123462A463046BDE8F04198
:1002F00000F05CB8000000002D0000002B000000A2
:100300002000000010B5431C02E010F8011B71B181
:100310008107FAD14FF0013202C88C1A8C4314EADB
:10032000C211F9D0C01A0A0603D0C01E10BDC01AEF
:1003300010BD0A0401D0801E10BD0902FCD0401E71
:1003400010BD10B5203AC0F00B80B1E81850A0E8FD
:100350001850B1E81850A0E81850203ABFF4F5AF93
:100360005FEA027C24BFB1E81850A0E8185044BFEF
:1003700018C918C0BDE810405FEA827C24BF51F85C
:10038000043B40F8043B08BF7047D20728BF31F850
:10039000023B48BF11F8012B28BF20F8023B48BFA1
:1003A00000F8012B70477047704770472DE9F04700
:1003B0000D4699469246044600F1240801688806D5
:1003C00004D5E06921F01001216000E00120A8427D
:1003D00001DD471B00E00027A1697A1902EB090043
:1003E000081AA0612078C00602D42046AFF300802E
:1003F000002608E0D4E901211AF806009047206A97
:10040000401C761C20624E45F4DB2078C0060AD5DD
:100410002046AFF3008006E0D4E901213020904768
:10042000206A401C2062381EA7F10107F4DC07E0B7
:10043000D4E9012118F805009047206A401C206289
:10044000281EA5F10105F3DC2046AFF300802078DB
:10045000000602D50220BDE8F0870120FBE700007E
:1004600001694A1C02610878704700B58FB0CDE978
:1004700001310021059105497944CDE90310114668
:100480006846FFF7CFFE0FB000BD0000E5FFFFFF9D
:100490000A6802F8010B0A607047000000487047C4
:1004A000100000207546FFF7F9FFAE4605006946CB
:1004B000534620F00700854618B020B5FFF78CFEA4
:1004C000BDE820404FF000064FF000074FF0000855
:1004D0004FF0000BAC46ACE8C009ACE8C009ACE892
:1004E000C009ACE8C00921F007018D46704710B57E
:1004F0000446AFF300802046BDE81040FFF758BE29
:1005000001491820ABBEFEE726000200704700003C
:10051000FEE7000070470000014690F82100022825
:1005200016D10868D1E90FC3026822F00E020260FA
:10053000026822F001020260012000FA03F2CCF806
:10054000042081F821000020002281F8202070473B
:10055000042088630120002281F8202070470000D9
:1005600090F82110022923D1026840F2040C11688E
:10057000C4F2020C21F00E01116013682F21C4F2A5
:1005800002018A4223F00103136015DD3023C4F217
:1005900002039A421CD04423C4F202039A421BD0A5
:1005A0005823C4F202039A421CD14FF4803321E055
:1005B00004218163012070470823C4F202039A4298
:1005C0000ED01C23C4F202039A420BD1102311E077
:1005D0004FF480730EE000BF4FF480530AE000BF79
:1005E000012307E00CF168014FF080738A4208BFD5
:1005F0004FF480130121CCF8003080F82110416BBA
:100600000022002980F8202004BF0020704780B518
:100610008847002080BD0000B0B5044600F01EF9F8
:10062000054640F20000C2F200000078611C18BFCD
:10063000044400BF00F012F9401BA042FAD3B0BD41
:100640002DE9F04F82B00E68002E00F0FD8041F2DF
:100650000042C4F20102042340F2004E904208BF5F
:1006600003234FF6FF7CC4F2010E00930024012304
:10067000C1F2100C4FF0000A4FF000094BE000BF30
:1006800041F20002C4F20102009F904208BF02271B
:1006900004F00C030F229A402BEA020207FA03F33C
:1006A0004FEA9A051A4346F825204E6840F20C4559
:1006B000F202DEF8082054BF22EA080242EA0802E9
:1006C000C4F20105CEF808202A68B30254BF22EA1A
:1006D000080242EA08022A60B303DEF8042054BF8D
:1006E00022EA080242EA0802F303CEF80420DEF808
:1006F00000204FF0010354BF22EA080242EA080238
:10070000CEF800200E680AF1010A36FA0AF204F166
:10071000040400F0998003FA0AFB16EA0B08F1D0F2
:100720004E68664512DC122E56D8DFE806F0350B0F
:100730004D4955555555555555555555555555458D
:10074000510000BFD1F80C9046E000BF4FF6FF7299
:10075000C1F2210296420FDC0022C1F21102964240
:100760001AD00022C1F21202964215D00022C1F224
:100770002102964210D02FE00022C1F222029642BE
:100780000AD00022C1F23102964205D00022C1F205
:100790003202964220D100BF8A684AB1012A14BFB2
:1007A000C0F814B0C0F810B04FF0080914E000BF52
:1007B0004FF0040910E000BFCA6802F104090BE021
:1007C0004FF0000908E000BFCA6802F1080903E021
:1007D000CA6802F10C0900BF02462646B8F5807FC0
:1007E00024BF0432203E17680F25B54027EA0505CF
:1007F00009FA06F635431560CA79D2067FF582AF4D
:1008000041F21803C4F202031A68AEF57E7642F094
:1008100001021A601A6802F001020192019A2AF09C
:10082000030256F802B040F60002C4F20102904200
:1008300008D040F60042C4F2010290427FF420AF9B
:10084000012725E7002723E702B0BDE8F08F00006D
:10085000002A08BF090401617047000040F2D4106B
:10086000C2F2000000687047002804BF01207047F2
:10087000F0B581B0044690F83D0028B9002084F816
:100880003C00204600F0F6FA242084F83D00206861
:10089000016821F001010160016841F4004101603B
:1008A000016821F40041016000F0AEFC636848F289
:1008B000A16CC0F2010C40F60011C0F23D0163458D
:1008C0003CBF48F28041C0F21E01884202D20120A2
:1008D00001B0F0BD4DF68361C4F21B31A0FB0112E3
:1008E0002168970CD1F804E04FF496762EF03F057E
:1008F00045EA92454D60774348F638160D6AC0F2D6
:100900004106A7FB067625F03F07634538BF960CE6
:10091000721C3A430A62CA6948F2A0664CF6FF7735
:10092000C0F20106B34222EA07020BD801385B008D
:10093000B0FBF3F001306FF31F30042898BF0420A0
:100940001BE000BFA768013857B119277B43B0FBF4
:10095000F3F001306FF31F3070B100F5804007E015
:1009600003EB4303B0FBF3F001306FF31F3018B11A
:1009700000F5004001E000BF01201043C861086895
:10098000D4E9072320F0C0001043184308608868AA
:1009900048F2FF3204F10C0790438CCF1843104308
:1009A000A6698860C86820F0FF0038433043C860FB
:1009B000086840F00100086000202021206484F8CD
:1009C0003D10206384F83E0001B0F0BD2DE9F04FEA
:1009D00085B004460020994616460F460490FFF75E
:1009E0003DFF94F83D10202927D10546206800BF1F
:1009F000816989071CD5FFF731FF411B20681A293F
:100A0000F6D381698907F3D500202021206384F87B
:100A10003D1084F83E00206C04F13C0A40F02000B8
:100A20002064022000218AF8001005B0BDE8F08F94
:100A3000A2461AF83C1F012904D1022005B0BDE8E6
:100A4000F08F00BF01228AF800200368DDE90F184B
:100A50000E9ADB0703D1036843F0010303600368C8
:100A600023F400630360222084F83D00402084F8D2
:100A70003E000020206462626185608D39462085D9
:100A80000020CFF6FF70E062204632464B46CDE9AB
:100A9000008501F093FE18B1012005B0BDE8F08F8C
:100AA000208D022826D001280ED0002838D1002021
:100AB000039020684169039181690391039901685A
:100AC00041F40071016037E02068016821F4806121
:100AD0000160EFF3108072B6002003902068416936
:100AE0000391816903910399016841F400710160E8
:100AF00062B621E02068016841F400610160EFF313
:100B0000108072B6002003902068416903918169CA
:100B100003910399016821F48061016062B60BE0E2
:100B20002068016841F480610160002103914169FE
:100B30000391806903900398208D002800F0CC80F9
:100B4000042740F208094BF2895BC0F20107C2F2A8
:100B50000009C1F2F84B23260EE000BF10690870AF
:100B6000606A218D01306062481E2085618D0139E7
:100B70006185010400F0B08080B203280CD80228FF
:100B80002CD001284AD1204641462A4602F0B4F82A
:100B9000002800F09C807FE7204641462A4602F06C
:100BA000ABF800287FF478AF2068616A00690870AC
:100BB000606A2268411C208D616201382085638D46
:100BC000013B638553695B07D3D580B20328C5D148
:100BD000106820F480601060C0E700BF20463946EE
:100BE00000224346009501F035FF00287FF454AF02
:100BF000EFF3108072B62068616A026842F40072F6
:100C0000026000690870606A218D01306062481ED0
:100C10002085608D0138608562B658E020463946EF
:100C200000224346009501F015FF00287FF434AF01
:100C30002068016821F480610160EFF3108072B6D2
:100C40002068616A00690870606A218D013001398D
:100C500060622185618D01396185D9F80010C9086C
:100C6000A1FB0B12110A71430491049901390491FB
:100C7000049900293CD021684A69520717D4049A84
:100C8000013A0492049A9AB34A6952070FD4049A1B
:100C9000013A0492049A5AB34A69520707D4049A53
:100CA000013A0492049A1AB34A695207DDD50A68D8
:100CB00042F400720A6009690170606A218D013096
:100CC0006062481E2085608D0138608562B62068AC
:100CD000616A006943E700BF202084F83D000020DE
:100CE00084F83E0000218AF8001005B0BDE8F08FBE
:100CF00000202021206384F83D1084F83E00206C01
:100D000040F02000206462B6012000218AF8001023
:100D100005B0BDE8F08F00002DE9F04383B099469F
:100D200016460F460446FFF799FD94F83D1020291A
:100D300024D10546206800BF816989071AD5FFF7CD
:100D40008DFD411B20681A29F6D381698907F3D5E7
:100D500000202021206384F83D1084F83E00216C9F
:100D600041F02001216484F83C00022003B0BDE87A
:100D7000F08300BF94F83C10012903D1022003B096
:100D8000BDE8F083012284F83C200368DDE90B18FC
:100D90000A9ADB0703D1036843F001030360036889
:100DA00023F400630360212084F83D00402084F890
:100DB0003E000020206462626185608D3946208596
:100DC0000020CFF6FF70E062204632464B46CDE968
:100DD000008501F07DFD18B1012003B0BDE8F0836E
:100DE000208D98B9204641462A4601F0D5FD88B3AA
:100DF000206C0428F0D12068016841F40071016082
:100E0000012003B0BDE8F0830004EBD0204641464A
:100E10002A4601F0B9FF0028EAD1616A2268084633
:100E200010F8013B1361238D6062581E2085678D89
:100E3000013F678557697F07E6D50704E4D0487806
:100E40001061881C6062981E2085618D0139618562
:100E5000DAE700BF2068016841F4007101602020DA
:100E600084F83D00002084F83E0084F83C0003B084
:100E7000BDE8F08310B586B0016845F20040C4F2C9
:100E8000000081424FF00001CDE90411CDE90211CB
:100E900002D006B010BD00BF41F21804C4F2020433
:100EA000216800F5384041F008012160216801F017
:100EB000080101910199C02102911221039103219E
:100EC000059102A9FFF7BCFB606840F40010606068
:100ED000606800F400100190019806B010BD000099
:100EE00040F2000040F2D411C2F20000C2F2000150
:100EF00000780A68104408607047000080B542F22C
:100F00000000C4F20200016841F0100101600320FA
:100F100000F08CF80F2000F005F800F027F8002012
:100F200080BD000070B540F20006C2F2000640F23B
:100F300008013278C2F200014FF47A730968B3FBFA
:100F4000F2F20446B1FBF2F1084600F085FB0F2CEB
:100F50004FF0010508D838B94FF0FF302146002284
:100F6000002500F037F87460284670BD82B041F269
:100F70001800C4F202000168022241F00101016080
:100F8000016801F0010101910199416841F080512E
:100F90004160406800F08050009000980420C4F246
:100FA0000100016862F31A61016002B0704700003D
:100FB000002848BF704700F01F01012202FA01F12A
:100FC0001C2202EAD0004EF20012CEF20002815042
:100FD0007047000010B54EF60C5CCEF2000CDCF849
:100FE0000030C3F3022E8EF00704042C28BF042423
:100FF000BEF103034FF0FF3E0EFA04F438BF0023A6
:10100000A14399400EFA03F39A43114300F00F02F3
:1010100000F160430901043A03F564436244002887
:1010200048BF02F10C03197010BD00004EF60C51C0
:10103000CEF200010A684FF6FF031A4060F30A225D
:1010400042F0806040F0FD7008607047002804BFE7
:10105000012070472DE9F04381B042F20008C4F24C
:1010600002080446D8F800000D4600F0070081424F
:101070000CD9D8F8000020F007002843C8F8000079
:10108000D8F8000000F00700A8426CD1206841F2B7
:1010900004098107C4F2020917D5410705D5D9F81B
:1010A000001041F4E061C9F80010010705D5D9F836
:1010B000001041F46051C9F80010D9F80010A2687E
:1010C00021F0F0011143C9F80010C00742D1D8F84F
:1010D000000000F0070085420CD2D8F8000020F094
:1010E00007002843C8F80000D8F8000000F0070007
:1010F000A84238D12068410707D5D9F80010E26826
:1011000021F4E0611143C9F80010000708D5D9F8AF
:101110000000216920F4605040EAC100C9F80000D5
:10112000D9F8002002F00C00082841F20020C0F29B
:101130007A004DD144F6E453C2F38341C0F6000374
:10114000595CD20338D440F60010C0F23D00484349
:101150003EE000BF606859F8041C022808D001284E
:1011600026D1890306D4012001B0BDE8F08300BF79
:101170008901F8D5D9F8001021F003010843C9F816
:101180000000FFF76BFB064641F28837D9F80000F4
:10119000616800F00C00B0EB810F98D0FFF75EFBA8
:1011A000801BB842F2D9032001B0BDE8F08300BF34
:1011B0008907D8D5DEE700BFD9F8002044F6E2530E
:1011C000C2F34042C0F600039A5C4843B0FBF2F021
:1011D000D9F8001044F6CA52C1F30311C0F6000258
:1011E000515C40F2080220FA01F140F20400C2F220
:1011F00000000068C2F200021160FFF793FE0020B9
:1012000001B0BDE8F083000040F2080041F20401A3
:10121000C2F20000C4F202010068096844F6DA5222
:10122000C1F30221C0F60002515CC84070470000C3
:1012300040F2080041F20401C2F20000C4F20201CF
:101240000068096844F6DA52C1F3C221C0F6000210
:10125000515CC84070470000002804BF012070475F
:101260002DE9F04182B00446007841F20006C00743
:10127000C4F202060CD0706800F00C00042840F0A4
:1012800081803068800303D56068002800F04681C3
:10129000207880071BD5706810F00C0F09D070689B
:1012A00000F00C00082840F087807068C00300F14F
:1012B00083803068800703D52069012840F02E81A3
:1012C0003068616920F0F80040EAC10030602078A1
:1012D000000713D4207840072CD4E569002D00F0D6
:1012E0001881706800F00C00082840F0A780012DDC
:1012F00040F00481012002B0BDE8F081A06900281F
:1013000000F084800020C4F242200121C0F8801443
:10131000FFF7A4FA054600BF706A800700F1B280AB
:10132000FFF79CFA401B0228F6D9032002B0BDE863
:10133000F08100BFF0695FEAC00808D4F06940F0AE
:101340008050F061F06900F080500090009847F202
:101350000007C4F200073868C00549D4386840F473
:1013600080703860FFF77AFA054600BF3868C0051C
:101370003ED4FFF773FA401B6428F7D9032002B06C
:10138000BDE8F081706800F00C00082803D1706897
:10139000C0033FF576AF61683068002900F00C812A
:1013A000B1F5A02F00F00081B1F5803F40F01A8127
:1013B00040F480301CE100BF2069002840F20000AA
:1013C000C4F2422000F0888001210160FFF746FA54
:1013D000054600BF306880073FF572AFFFF73EFA61
:1013E000401B0228F6D9032002B0BDE8F08100BFFF
:1013F000E168306A002900F09D80052900F09280A4
:10140000012940F0AF8040F00100B1E00020C4F2BB
:1014100042200021C0F88014FFF720FA054600BFE3
:10142000706A80077FF556AFFFF718FA401B022855
:10143000F6D9032002B0BDE8F08100BF0027C4F256
:10144000422700203866FFF709FA022D05460DD124
:101450003068800140F1DE80FFF700FA401B02286F
:101460004FF00300F4D902B0BDE8F081306880018C
:101470004FD5FFF7F3F9401B02284FF00300F5D9D1
:10148000F1E700BF40F20800C2F20000006844F635
:10149000D351C1F26201A0FB0101480A019000BFD3
:1014A00000BF0198411E002801913FF413AF00BF17
:1014B0000198411E002801913FF40CAF00BF019834
:1014C000411E002801913FF405AF00BF0198411E65
:1014D00000280191E4D1FDE600210160FFF7BEF98B
:1014E000054600BF306880077FF5F1AEFFF7B6F91B
:1014F000401B02284FF00300F4D9B4E77068216A5A
:1015000000F480328A4209D1616A00F47010884286
:1015100004D1002002B0BDE8F08100BF012002B07C
:10152000BDE8F08140F004003062306A40F0010014
:101530001EE000BF20F001003062306A20F004009D
:101540003062FFF78BF9054641F28837306A800731
:1015500020D5FFF783F9401BB8424FF00300F5D9BF
:1015600081E700BF20F001003062306A20F0040003
:101570003062FFF773F9054641F28837306A800719
:1015800008D4FFF76BF9401BB842F7D9032002B02B
:10159000BDE8F081B8F1000F3FF59FAEF06920F093
:1015A0008050F06199E600BF40F4802030603068E0
:1015B00040F480301CE000BF20F4803030603068A0
:1015C00020F480203060FFF749F905463068800339
:1015D0007FF55EAEFFF742F9401B64284FF0030031
:1015E000F4D940E720F480303060306820F4802067
:1015F0003060FFF733F90546306880033FF548AEA9
:10160000FFF72CF9401B6428F6D9032002B0BDE88F
:10161000F08100BF206AB0F5803F05D17168A268F3
:1016200021F40031114371607168626A21F4741110
:1016300011430843706001203866FFF70FF9044634
:10164000306880013FF565AFFFF708F9001B0228FD
:101650004FF00300F4D906E7411E0020B0EB116FF4
:101660001CBF012070474EF21002CEF20002516002
:101670004EF62351CEF20001F0230B70072190604B
:101680001160704790F83C20012A4FF0020236D0DA
:1016900010B580F83D200268D2F804E0D2F808C006
:1016A0000C682EF07003234340F2FF74C4F2000470
:1016B000A24253600ADCB2F1804F13D040F20043E3
:1016C000C4F200039A420DD011E000BF42F600437D
:1016D000C4F201039A4205D040F60003C4F20003AD
:1016E0009A4204D149682CF080031943916001218A
:1016F000002280F83D1080F83C20BDE810401046E4
:1017000070470000002804BF0120704710B590F812
:101710003D1031B9002180F83C10044600F070F80B
:101720002046022180F83D10016840F2FF740B68EA
:10173000C4F2000442F6004CA142C4F2010C15DCD4
:10174000B1F1804F1AD040F20042C4F2000291423F
:1017500014D0A14218DCB1F1804F1DD040F20042FC
:10176000C4F20002914217D01AE000BF614505D0D3
:1017700040F60002C4F200029142EAD1826823F0EE
:1017800070031343A142E6DD614505D040F6000237
:10179000C4F20002914203D1026923F4407313435F
:1017A000846923F08002D0F804E0C36822436145D5
:1017B0000A60CB62C1F828E002D14269CCF830203F
:1017C00001224A610B69DB0703D00B6923F0010397
:1017D0000B6180F8462080F83E2080F83F2080F89A
:1017E000402080F8412080F8422080F8432080F893
:1017F000442080F8452080F83D20002010BD0000E6
:101800000068B0F1804F18BF704781B041F21C00F2
:10181000C4F20200016841F001010160006800F0BB
:1018200001000090009801B07047000090F83C2043
:10183000012A4FF002026CD080B580F83D20D0F82C
:1018400000C04FF67772DCF8083023EA0202CCF8C9
:1018500008200B684F2B29DC1F2B45DD202B46D0A1
:10186000302B44D0402B40F0AF80D1F804E0C96861
:10187000DCF82030DCF8202022F00102CCF8202017
:10188000DCF8182022F0F00242EA011123F00A02EB
:1018900042EA0E02CCF81810CCF82020DCF8081030
:1018A00041F0470121F0300128E000BF6F2B33DD0C
:1018B000B3F5005F74D0B3F5805F21D0702B40F09A
:1018C0008380D1E901E3C968DCF8082043EA0E030C
:1018D00022F47F4243EA01211143CCF80810DCF8DE
:1018E000081041F0770109E00BB1102B6CD1DCF846
:1018F000081021F07001194341F00701CCF80810DD
:101900000022012180F83D10002180F83C10BDE844
:1019100080401046704700BF502B21D0602B53D120
:10192000D1F804E0C968DCF82030DCF8202022F08F
:101930001002CCF82020DCF8182022F4704242EA91
:10194000013123F0A00242EA0E12CCF81810CCF8B4
:101950002020DCF8081041F0670121F01001CDE7EC
:10196000D1F804E0C968DCF82030DCF8202022F04F
:101970000102CCF82020DCF8182022F0F00242EA24
:10198000011123F00A0242EA0E02CCF81810CCF83A
:101990002020DCF8081041F0570121F02001ADE7CC
:1019A000D1E901E3C968DCF8082043EA0E0322F418
:1019B0007F4243EA01211143CCF80810DCF80810FB
:1019C00041F480419AE700BF01229AE780B586B0D2
:1019D0000068B0F1804F4FF00000CDE90400CDE980
:1019E000020001D006B080BD41F21800C4F202002E
:1019F000016841F004010160006802A900F00400E0
:101A0000019001980120029002200390059040F679
:101A10000000C4F20100FEF713FE06B080BD000016
:101A200090F83C30012B04BF022070474FEAB2020D
:101A3000032A00F2F1802DE9F043DFE802F003A56C
:101A40003B7500BF036842F600461D6A1A6AC4F27D
:101A5000010622F001021A621A465C6852F818CF99
:101A6000B3428E68D1F800E025F0020545EA06058C
:101A70000CD1CE68D1E9057824F4407425F00C052A
:101A800026F004063C43354344EA08042CF073076F
:101A900047EA0E075C609F614F6809695F631D62DA
:101AA0009F6947F008079F619F6927F004079F61BE
:101AB000A6E000BF036842F600461D6A1A6AC4F237
:101AC000010622F480721A621A46D3F804C052F852
:101AD0001CEFB3428E680C6825F4007545EA0625B4
:101AE0000FD1CE68D1E90598360240F2FF4725F4C0
:101AF0004065BE4335432CF4405748EA090647EA9F
:101B0000061C2EF073072743C3F804C0DF614F683B
:101B10000969DF631D62DF6947F00807DF61DF697C
:101B200027F00407DF616BE0036842F60047D3F853
:101B300020C01A6AC4F2010722F480521A621A46BF
:101B40005C6852F81C5FD1F800E08E68BB4204D19B
:101B50004F6924F4804444EA87142CF4005747EA80
:101B6000063725F4E64646EA0E265C60DE614E68DE
:101B700009691E641F62DF6947F40067DF61DF697E
:101B800027F48067DF613AE0036842F600461D6A89
:101B90001A6AC4F2010622F010021A621A46D3F839
:101BA00004C052F8184FB3428E68D1F800E025F017
:101BB000200545EA06150FD1CE68D1E905986FF0EA
:101BC000400725F0C00507EA061635432CF44067A8
:101BD00048EA090647EA860C24F4E64444EA0E275C
:101BE000C3F804C09F614F6809699F631D629F69C4
:101BF00047F400679F619F6927F480679F6109022E
:101C00001368194311600021BDE8F043002280F8F9
:101C10003C200846704700BF0121002280F83C208C
:101C200008467047002804BF0120704710B590F89F
:101C30003D1031B9002180F83C10044600F070F8E6
:101C40002046022180F83D10016840F2FF740B68C5
:101C5000C4F2000442F6004CA142C4F2010C15DCAF
:101C6000B1F1804F1AD040F20042C4F2000291421A
:101C700014D0A14218DCB1F1804F1DD040F20042D7
:101C8000C4F20002914217D01AE000BF614505D0AE
:101C900040F60002C4F200029142EAD1826823F0C9
:101CA00070031343A142E6DD614505D040F6000212
:101CB000C4F20002914203D1026923F4407313433A
:101CC000846923F08002D0F804E0C36822436145B0
:101CD0000A60CB62C1F828E002D14269CCF830201A
:101CE00001224A610B69DB0703D00B6923F0010372
:101CF0000B6180F8462080F83E2080F83F2080F875
:101D0000402080F8412080F8422080F8432080F86D
:101D1000442080F8452080F83D20002010BD0000C0
:101D200070470000C1B1042908D0082914BF41221E
:101D30004022825C012A05D016E000BF3F22825C6F
:101D4000012A11D10222082910D0042914BF80F8D9
:101D5000412080F83F200BE090F83E20012A03D17B
:101D6000022280F83E2003E00120704780F84020E6
:101D7000006801F01F010122036A8A4023EA020180
:101D80000162036A42F64441C4F201011A43A1F11F
:101D90004403984202620FD040F2FF71C4F2000186
:101DA000884213DCB0F1804F1CD040F20041C4F2F5
:101DB0000001884216D01CE00A6842F400420A6022
:101DC00040F2FF71C4F200018842EBDD42F60041AF
:101DD000C4F20101884205D040F60001C4F20001BE
:101DE000884206D1816801F00701062904BF00205E
:101DF0007047016841F00101016000207047000058
:101E00007047000070470000B0B582B001680A68F2
:101E1000CC684B6902F02F05202D04F0200505D178
:101E200025B102B0BDE8B04001F048B85FEA027CDD
:101E30001EBF03F0010E04F4907313EB0E0341D1A7
:101E4000036BD50618D5012B16D114F0100313D04F
:101E5000002201920A6801924A680192019A496936
:101E600049064BD4818DC28DC38D002B18BF914282
:101E700040F0F48102B0B0BD13062DD514F08003FC
:101E80002AD090F84120212AF4D18268B2F5805FEF
:101E900003D10269002A00F06782026A531C0362C0
:101EA00012784A60C28C013A1304C284E2D1C86835
:101EB00020F08000C860C86840F04000C86002B0F0
:101EC000B0BD00BFD30718BF14F4807340F0D080BA
:101ED000530700F1D380D8E05206CBD514F040026E
:101EE000C8D0CA6822F04002CA60202180F84110A0
:101EF00002B0BDE8B04000F05DBC00BFC16B0A6835
:101F0000526893B2002BB5D0858DAB42B2D2C28558
:101F10008969202900F0A180016851E8031F026847
:101F200021F4807142E80313DBB1016851E8031F1B
:101F3000026821F4807142E8031393B1016851E80B
:101F4000031F026821F4807142E803134BB101685A
:101F500051E8031F026821F4807142E80313002B4B
:101F6000DAD1016851E8051F026821F0010142E859
:101F70000513C3B3016851E8051F026821F0010190
:101F800042E805137BB3016851E8051F026821F0A0
:101F9000010142E8051333B3016851E8051F0268E7
:101FA00021F0010142E80513002BDAD11BE000BF4C
:101FB000016851E8051F026821F0400142E805135D
:101FC000DBB1016851E8051F026821F0400142E8D9
:101FD000051393B1016851E8051F026821F0400123
:101FE00042E805134BB1016851E8051F026821F072
:101FF000400142E80513002BDAD1202180F842107D
:1020000000210163016851E8031F026821F01001FB
:1020100042E80313DBB1016851E8031F026821F0B5
:10202000100142E8031393B1016851E8031F0268ED
:1020300021F0100142E803134BB1016851E8031F7E
:10204000026821F0100142E80313002BDAD1C16BC2
:1020500004460846FEF760FA204602214163818D5E
:10206000C28D891A89B202B0BDE8B040FFF7C8BE80
:10207000436C43F001034364530706D5BEF1000FE0
:1020800003D0436C43F002034364930706D5BEF1CB
:10209000000F03D0436C43F004034364BCF1000F12
:1020A00006D55EEA050303D0436C43F0080343649E
:1020B000436C002B3FF4DEAE920605D525B10446F5
:1020C00000F0FCFE216820464969426C01F04001A5
:1020D00002F00802891800F0B98000BF016851E8D9
:1020E000031F026821F4907142E80313BBB3016837
:1020F00051E8031F026821F4907142E8031373B39F
:10210000016851E8031F026821F4907142E803134B
:102110002BB3016851E8031F026821F4907142E873
:102120000313002BDAD11AE0016851E8051F026899
:1021300021F0010142E80513DBB1016851E8051FF8
:10214000026821F0010142E8051393B1016851E8EA
:10215000051F026821F0010142E805134BB1016837
:1021600051E8051F026821F0010142E80513002B28
:10217000DAD1016B012924D1016851E8031F0268FB
:1021800021F0100142E80313DBB1016851E8031F9D
:10219000026821F0100142E8031393B1016851E88D
:1021A000031F026821F0100142E803134BB10168DC
:1021B00051E8031F026821F0100142E80313002BCD
:1021C000DAD1202180F842100021016301684969B9
:1021D000490640F1C380016851E8051F026821F0FB
:1021E000400142E80513DBB1016851E8051F0268B0
:1021F00021F0400142E8051393B1016851E8051F41
:10220000026821F0400142E805134BB1016851E832
:10221000051F026821F0400142E80513002BDAD1C6
:10222000C16B002900F09A8042F6B162C0F600024C
:10223000044608464A63FEF793F900283FF41AAEB5
:10224000E06B416B02B0BDE8B04008470446FFF7C1
:10225000D9FD0020606402B0B0BD00BF891A00BF84
:10226000026852E8032F036822F4907243E80325C2
:10227000BDB3026852E8032F036822F4907243E86A
:10228000032575B3026852E8032F036822F49072A5
:1022900043E803252DB3026852E8032F036822F4B4
:1022A000907243E80325002DDAD11AE0026852E863
:1022B000052F036822F0010243E80525DDB102681D
:1022C00052E8052F036822F0010243E8052595B185
:1022D000026852E8052F036822F0010243E8052551
:1022E0004DB1026852E8052F036822F0010243E86D
:1022F0000525002DDAD1202280F842200022026339
:10230000026852E8032F036822F0100243E8032515
:10231000DDB1026852E8032F036822F0100243E89F
:10232000032595B1026852E8032F036822F01002DA
:1023300043E803254DB1026852E8032F036822F0F9
:10234000100243E80325002DDAD1022289B242634C
:1023500002B0BDE8B040FFF753BD00BF02B0BDE81A
:10236000B040FFF74FBD00BF026A32F8023B6FF387
:102370005F234B60026295E5002804BF012070478F
:1023800010B5044690F8410028B9002084F84000B8
:10239000204600F063F8242084F841002068D4E946
:1023A0000212C36823F40053C360036923F440534B
:1023B0001A430261D4E904231143C268194341F26C
:1023C0000C639A431143C1604169A26921F44071D1
:1023D000114343F60002C4F201029042416103D06E
:1023E000FEF712FF02E000BFFEF722FFD4E9002350
:1023F000192148439900B0FBF1F048F21F5CC5F287
:10240000EB1CA0FB0C314FF69C734909C0F6FF731F
:1024100001FB0300322303EB0010A0FB0C03F020B0
:1024200000EA531000EB0110C3F34311084490601D
:102430001069202120F490401061506920F02A009A
:102440005061D06840F40050D0600020606484F88F
:10245000411084F84210606310BD000070B586B072
:1024600040F60004C4F20104006804F5405100265F
:1024700088420596CDE90366029601D006B070BD8C
:1024800041F21800C4F20200016802AD41F480413B
:102490000160016801F4804101910199016841F0F6
:1024A000040101600068294600F0040001900198D1
:1024B0004FF4007002900220039003200590204604
:1024C000FEF7BEF84FF48060CDE9020620462946AB
:1024D0000496FEF7B5F8252000210022FEF77AFDCC
:1024E0002520FEF765FD06B070BD000090F8423073
:1024F000202B07D100294FF0010318BF002A05D176
:102500001846704702231846704700BF0023036334
:10251000816222218285C285436480F8421001696C
:10252000006819B1C16841F48071C160416941F02E
:1025300001014161C16841F02001C1601846704746
:10254000006843F60001C4F20101884218BF7047D9
:1025500010B540F27004C2F20004A07831380328AC
:1025600029D8DFE800F0031F0B1500BF012120462A
:1025700000F8081B25A113221AE000BF012060709B
:10258000002002F0FDFA04F1080015A115220FE069
:102590000020607002F0B4FB04F108000AA11422CC
:1025A00006E000BF0021204600F8081B12A11222FD
:1025B0000A2300F035F804F10800A11C0122BDE84F
:1025C0001040FFF793BF00BF0D0A2D3E20564C353B
:1025D000334C30583A2053544F500D0A000000003D
:1025E0000D0A2D3E20564C35334C30583A2053546A
:1025F0004152540D0A0000000D0A2D3E2053455251
:10260000564F3A2053544F500D0A00000D0A2D3EEC
:1026100020534552564F3A2053544152540D0A000C
:102620002DE9F04381B0044690F84100202809D1FB
:1026300000294FF0010018BF002A07D101B0BDE802
:10264000F08300BF022001B0BDE8F0830020606489
:1026500021201D460E4684F841001746FEF7FEF87D
:10266000A784E784A1688146B1F5805F02D1206923
:1026700000285DD037460020E28C2168002A5DD01A
:102680006A1C24D0002D4AD0804600BF086800068E
:1026900008D4FEF7E3F8A0EB0900A8427AD8216835
:1026A000C868F3E717B117F8010B04E038F8020B1C
:1026B00000276FF35F204860E08C0138E084E08CF5
:1026C0000028E3D13AE000BF0A68120609D40A687C
:1026D000120606D40A6812065CBF0A685FEA026244
:1026E000F2D51FB117F8012B05E000BF30F8022B1F
:1026F00000276FF35F224A60E28C013AE284E28CA9
:10270000002AE4D11AE000BF30F8022B00276FF353
:102710005F224A60E28C013AE284E28C72B10A687C
:10272000120635D5002FEFD017F8012BF1E700BFC7
:1027300000273046E28C2168002AA1D108684006B3
:102740001ED42DB3681C14D1086840062AD408682A
:10275000400627D40868400624D4086840064FF095
:102760000000F1D50DE000BF2068C1680068400698
:1027700018D4FEF773F8A0EB0900A842F4D909E0D9
:102780000020202184F8411001B0BDE8F08300BF93
:10279000FEF764F80320202184F8411001B0BDE861
:1027A000F08300BF0020202184F8411001B0BDE873
:1027B000F083000070470000FEE700002DE9F047BD
:1027C00082B0044600689A460B9D0A9E03689146B3
:1027D00043F48062026002680F4642F48071016037
:1027E00020464FF0011100223346009500F032F9E7
:1027F00050B120680068C00544BF4FF400702064E9
:10280000032002B0BDE8F08740F202082068C0F261
:10281000010807F0FE0707612046414632462B4675
:1028200000F0FEF920B1012002B0BDE8F08700BF42
:102830000020019020682A46416901918069314653
:1028400001900198204600F09FFAB0B92068BAF1D3
:10285000010F09D04FEA19210161204631462A466D
:1028600000F092FA48B920685FFA89F101612046C8
:1028700031462A4600F088FA60B1206C0428D2D193
:102880002068016841F400710160012002B0BDE8D8
:10289000F08700BF206800220168334641F4807150
:1028A000016020464FF00111009500F0D3F8002898
:1028B0009FD147F0010C27682046414632462B46FF
:1028C000C7F810C002B0BDE8F04700F0A9B9000099
:1028D0002DE9F04383B0044600680F4601680A9D65
:1028E0000B9E41F4807199469046016020464FF05E
:1028F000011100222B46009600F0ACF850B1206880
:102900000068C00544BF4FF400702064032003B08A
:10291000BDE8F083206807F0FE0101610221C0F2EA
:10292000010120462A46334600F07AF920B1012001
:1029300003B0BDE8F08300BF00200290206832465B
:10294000416902918069294602900298204600F070
:102950001BFA58B1206C0428E9D12068016841F4C1
:1029600000710160012003B0BDE8F0832068B9F177
:10297000010F0AD04FEA182101612046294632464C
:1029800000F002FA0028E5D120685FFA88F10161C1
:10299000002003B0BDE8F08370B50368044653F827
:1029A000140F400711D40E46481C29D086BB00BF27
:1029B0001868400527D4FDF751FF236853F8140F1A
:1029C000400737D518684007F2D5002070BD00BF1A
:1029D00018684007F9D41868400514D418684007EF
:1029E000F3D4186840050ED418684007EDD4186871
:1029F000400508D4186840074FF0000048BF70BD7C
:102A000018684005E4D56FF480601860042012E077
:102A1000154603E053F8140F4007D6D41868400554
:102A2000F1D4FDF71BFF401B2368B042F2D958696F
:102A30004007EFD4202000212022216384F83D208C
:102A400084F83E10226C10432064012084F83C106E
:102A500070BD00002DE9F041054600681E46144691
:102A600001F47F0201338FB242D0DDF81880B2F555
:102A7000803F40F0878040693840C01BB0FA80F04A
:102A80004009844240F0C8804EB924E04069384093
:102A9000C01BB0FA80F04009844240F0BD80FDF7D1
:102AA000DDFEA0EB08012868B142EFD94169394049
:102AB000C91BB1FA81F149098C42E7D19BE000BF03
:102AC00040693840C01BB0FA80F0400984424FF0A2
:102AD000000040F0A280FDF7C1FE2868416939403E
:102AE000C91BB1FA81F149098C42E9D183E000BFE9
:102AF000B2F5803F24D100BF41693940C91BB1FA0A
:102B000081F149098C4240F0878041693940C91BF5
:102B1000B1FA81F149098C4240F07E804169394027
:102B2000C91BB1FA81F149098C4275D1416939401B
:102B3000C91BB1FA81F149098C42DDD06CE000BFBC
:102B400081693940C91BB1FA81F149098C4263D1CD
:102B500081693940C91BB1FA81F149098C425BD1C5
:102B600081693940C91BB1FA81F149098C4253D1BD
:102B700081693940C91BB1FA81F149098C42DFD022
:102B80004AE000BF80693840C01BB0FA80F04009BD
:102B9000844241D146B923E080693840C01BB0FA75
:102BA00080F04009844237D1FDF758FEA0EB0801C0
:102BB0002868B142F0D981693940C91BB1FA81F165
:102BC00049098C42E8D116E080693840C01BB0FA50
:102BD00080F0400984424FF0000018BFBDE8F0814A
:102BE000FDF73CFE286881693940C91BB1FA81F1C3
:102BF00049098C42E8D100202021286385F83D1046
:102C000085F83E00296C41F02001296485F83C00DC
:102C10000120BDE8F08100BF0020BDE8F081000088
:102C2000F0B581B0044600681D4643698FB203EADF
:102C30000701B94202D1002001B0F0BD416916463A
:102C400001323CD0490512D47EB300BFFDF706FE29
:102C5000411B2068B14203D941693940B9422BD1A7
:102C600041693940B942E6D041694905EED501686C
:102C700041F4007101606FF4806141610420002122
:102C80002022216384F83D2084F83E10226C1043FA
:102C9000206484F83C10012001B0F0BD4169394046
:102CA000B942C8D041694905E1D4FDF7D7FD206894
:102CB00041693940B942F1D02020E0E74169490536
:102CC000D5D441693940B942B5D041694905CED41E
:102CD00041693940B942AED041694905C7D441691B
:102CE0003940B942A7D041694905C0D4416939404A
:102CF000B942E3D19FE7000070B50446006815466D
:102D000050F8143F5A063DD40E4629B926E000BFBC
:102D100050F8141F490635D40168C90621D4FDF7BF
:102D20009DFD411B2068B142F2D941694906EFD4AB
:102D300000202021206384F83D1084F83E00206CA0
:102D400040F0200018E000BFFDF788FD206850F833
:102D5000141F4906ECD50168490613D40168C90659
:102D6000F2D56FF01001016000202021206384F86B
:102D70003D1084F83E00206C2064002084F83C0064
:102D8000012070BD002070BD70B50368044653F883
:102D9000140F000611D40E46481C29D086BB00BF74
:102DA0001868400527D4FDF759FD236853F8140F20
:102DB000000637D518680006F2D5002070BD00BFA8
:102DC00018680006F9D41868400514D4186800067D
:102DD000F3D4186840050ED418680006EDD41868BE
:102DE000400508D4186800064FF0000048BF70BDC9
:102DF00018684005E4D56FF480601860042012E084
:102E0000154603E053F8140F0006D6D418684005A1
:102E1000F1D4FDF723FD401B2368B042F2D9586975
:102E20000006EFD4202000212022216384F83D20D9
:102E300084F83E10226C10432064012084F83C107A
:102E400070BD0000FEE70000FEE7000070470000D4
:102E50007047000040F23012C2F20002C2E90001E5
:102E6000FEF760BF40F23011C2F2000106C90968E6
:102E700042B1082A04D0042A14BF4022382202E0BA
:102E80003C2200E03422B42828BFB4204FF4FA6377
:102E9000584341F2C263C0F26C13A0FB030303F575
:102EA000FA70885070470000FEF71AB870470000AB
:102EB000406A0021C185C184FEF7A4BF81B090F8AB
:102EC0004210222921D183680246B3F5805F09D1DF
:102ED00052F8281F52F8183C002B63D003685B6837
:102EE0000AE000BF52F8281F13B90369002BF5D080
:102EF00003685B6803F07F030B7011680131116098
:102F0000C18D01390A04C18502D001B0704700BFEC
:102F10000168CA6822F02002CA60CA6822F480727E
:102F2000CA604A6922F001024A61202180F84210F9
:102F300000214163026B012A3CD10163016851E821
:102F4000031F026821F0100142E80313DBB101689E
:102F500051E8031F026821F0100142E8031393B106
:102F6000016851E8031F026821F0100142E80313D1
:102F70004BB1016851E8031F026821F0100142E8DB
:102F80000313002BDAD101680A68D20606D50022A5
:102F900000920A680092496800910099818D01B001
:102FA000FEF72EBF026852686FF35F2221F8022BF2
:102FB0008162A5E701B0FFF7C3BA000040F27800D4
:102FC000C2F20000FEF720BFFEE700002DE9F0434B
:102FD0008BB040F20E00C2F2000040F2C00801784F
:102FE000C2F20008012008F10C026427CDE900209C
:102FF00008F11C0041F00101012201230297FDF7B5
:10300000E5FC98F80C5088F80100E809C5F30014B5
:10301000C5F3C006C5F38007C5F380198DF82B00F2
:103020000DF1270003A98DF827408DF829608DF850
:1030300028708DF82A9000F027F80699002C01F6E8
:10304000845008BF40F6363036B9002F1CBF084404
:1030500000F5257004E000BF00EB410000F2645071
:10306000DDE90712B9F1000F014418BF01F5257021
:1030700011186AB2002A48BF01F22620C8F80800D9
:103080000BB0BDE8F08300002DE9F04F85B040F2B1
:103090000E0BC2F2000B40F2C00704909BF8000038
:1030A000C2F200070C46012107F10C0507F11C06CE
:1030B00042F6007A4FF0640CCDE9005140F0010176
:1030C000304650220123C0F23A0A4FF00108CDF8F1
:1030D00008C04FF06409FDF779FC7870387B022155
:1030E00001EB40009BF80010C0B2208041F00101CC
:1030F000304646220123CDE90058CDF808904FF024
:103100006409FDF763FC7870207844F6D35800FB1F
:103110000AF0397B00F5FA70C1F26208A0FB0802E0
:10312000481C9109414301EBD211A1FB0812A08078
:1031300090099BF80010E0600220019041F001012D
:103140003046512201230095CDF80890FDF73EFC52
:1031500078702178387B7A7B01FB0AF101F5FA71EE
:1031600002FA00F0A1FB08130130990982B2514321
:1031700001EBD311A1FB0812E08090099BF800102D
:1031800020610120019041F00101304670220123AD
:103190000095CDF80890FDF719FC397B0222787074
:1031A00002EB41009BF80010C0B26080CDE90052F4
:1031B00041F00101304671220123CDF80890FDF75E
:1031C00005FC397B7A7B787002FA01F004990130B2
:1031D000C978208111B1E188401A2081A17842F696
:1031E0000072C0F23A02514301F5FA71A1FB0812D4
:1031F000910980B2484300EBD210A0FB0801880976
:10320000606105B0BDE8F08F2DE9F04F85B040F268
:10321000C008C2F200080124454640F20E06C2F280
:10322000000605F80C4F0491317805F1100781462E
:103230004FF0640A384680220123CDE90054CDF8CE
:1032400008A0FDF769FD317805F80B0C3846FF2220
:1032500001232C70CDE90054CDF808A0FDF75CFDEA
:10326000317805F80B0C4FF0000B38460022012393
:1032700085F800B0CDE90054CDF808A0FDF74CFD6D
:1032800005F80B0C0620317828703846FF22012300
:10329000CDE90054CDF808A0FDF73EFD317805F8E2
:1032A0000B0C41F00101384683220123CDE9005483
:1032B000CDF808A0FDF78AFB297805F80B0C41F042
:1032C000040031782870384683220123CDE9005468
:1032D000CDF808A0FDF720FD05F80B0C072031788C
:1032E00028703846FF220123CDE90054CDF808A00C
:1032F000FDF712FD317805F80B0C384681220123C9
:103300002C70CDE90054CDF808A0FDF705FD31780B
:1033100005F80B0C3846802201232C70CDE90054AF
:10332000CDF808A0FDF7F8FC05F80B0C6B20317800
:103330002870384694220123CDE90054CDF808A026
:10334000FDF7EAFC317805F80B0C3846832201239F
:1033500085F800B0CDE90054CDF808A0FDF7DCFCFD
:1033600005F80B0CFDF77AFA317825F8060C41F0D8
:103370000101384683220123CDE90054CDF808A08D
:10338000FDF724FB297805F80B0C002900F0B68026
:1033900008F80C4F317808F11007384683220123D2
:1033A000CDE90084CDF808A0FDF7B6FC317808F827
:1033B0000B0C41F00101384692220123CDE9008433
:1033C000CDF808A0FDF702FB98F8001008F80B0CE8
:1033D00001F07F0089F80000C80904998122087073
:1033E00031783846012388F800B0CDE90084CDF863
:1033F00008A0FDF791FC08F80B0C3178062088F83E
:1034000000003846FF220123CDE90084CDF808A052
:10341000FDF782FC317808F80B0C41F001013846C9
:1034200083220123CDE90084CDF808A0FDF7CEFA70
:1034300098F8001008F80B0C01F0FB00317888F8C0
:103440000000384683220123CDE90084CDF808A08E
:10345000FDF762FC317808F80B0C3846FF22012397
:1034600088F80040CDE90084CDF808A0FDF754FCB1
:10347000317808F80B0C38460022012388F8004008
:10348000CDE90084CDF808A0FDF746FC317808F8B6
:103490000B0C3846FF22012388F800B0CDE90084E8
:1034A000CDF808A0FDF738FC317808F80B0C384649
:1034B0008022012388F800B0CDE90084CDF808A06F
:1034C000FDF72AFC08F80B0C204605B0BDE8F08F8C
:1034D000317808F10C00CDE9000408F11C0041F03E
:1034E000010183220123CDF808A0FDF76FFA98F8B7
:1034F0000C1088F8010000297FF44AAFB8F80400E6
:103500000028E5D0FDF7AAF9B8F8061080B2B8F89F
:103510000420401A9042DBDD0024204605B0BDE8BF
:10352000F08F00002DE9F04F85B040F2C007C2F2E5
:10353000000707F11C0B064658465422FCF701FF12
:1035400040F20E0A0024C2F2000AFC6016B39AF898
:1035500000004FF06408012507F10C0640F001015E
:10356000584689220123CDE90065CDF80880FDF792
:103570002DFA397B787041F001009AF80010387309
:10358000584689220123CDE90065CDF80880FDF772
:10359000C3FB78703D4605F80C4F9AF8001005F112
:1035A00010064FF064084FF00109304688220123CD
:1035B0000024CDE90059CDF80880FDF7ADFB9AF85D
:1035C000001005F80B0C30468022012385F800908E
:1035D000CDE90059CDF80880FDF79EFB9AF8001060
:1035E00005F80B0C3046FF22012385F80090CDE949
:1035F0000059CDF80880FF27FDF78EFB9AF80010E0
:1036000005F80B0C3046002201232C70CDE900593F
:10361000CDF80880FDF780FB9AF8001005F80B0C38
:1036200041F00101304691220123CDE90059CDF846
:103630000880FDF7CBF9297805F80B0C05F80A1C72
:103640009AF8001030460022012385F80090CDE959
:103650000059CDF80880FDF75FFB9AF8001005F8D7
:103660000B0C3046FF2201232C70CDE90059CDF818
:103670000880FDF751FB9AF8001005F80B0C304656
:10368000802201232C70CDE90059CDF80880FDF788
:1036900043FB9AF8001005F80B0C41F0010130468D
:1036A00060220123CDE90059CDF80880FDF78EF99D
:1036B000297805F80B0C41F012009AF800102870D8
:1036C000304660220123CDE90059CDF80880FDF78E
:1036D00023FB05F80B0C4FF400509AF800102880DB
:1036E0000220CDE90050304644220123CDF8088065
:1036F000FDF712FB9AF8001005F80B0C304601227A
:1037000001232F70CDE90059CDF80880FDF704FBA7
:1037100005F80B0C0DF113000DF11201FFF774FD0C
:10372000002800F059869AF80000062103AECDE982
:10373000006140F001015846B0220123CDF8088015
:10374000FDF744F940F2C007C2F2000707F80C9FEA
:103750009AF8001007F80B0C5846FF220123CDE918
:103760000079CDF80880FDF7D7FA9AF8001007F82D
:103770000B0C002558464F2201233D70CDE90079FE
:10378000CDF80880FDF7C8FA07F80B0C2C209AF842
:103790000010387058464E220123CDE90079CDF84B
:1037A0000880FDF7B9FA9AF8001007F80B0C584694
:1037B000FF2201233D70CDE90079CDF80880FDF7A7
:1037C000ABFA07F80B0CB4209AF800103870584682
:1037D000B6220123CDE90079CDF80880FDF79CFAE7
:1037E00007F80B0C9DF812009DF8131000220CE056
:1037F00003F00707DB08F45C09FA07F724EA070778
:10380000F7540635302D00F0CF800028034618BF4E
:1038100001230C2D4FF0000738BF01273B420BD18D
:10382000D3B28B4208D0EB08F35C05F00607FB40EF
:1038300003F001031A4408E0EF0805F00603F45D05
:1038400009FA03F324EA0303F3550028034618BFDB
:1038500001230C2D4FF0000738BF01273B4205F133
:1038600001030DD1D7B28F420AD0EF08F75D03F004
:10387000070327FA03F303F001031A4409E000BF2A
:10388000EF0803F00703F45D09FA03F324EA0303E6
:10389000F3550028034618BF01230A2D4FF00007F7
:1038A00038BF01273B4205F102030DD1D7B28F4249
:1038B0000AD0DF08F75D03F0060327FA03F303F0ED
:1038C00001031A4409E000BF03F00607DB08F45CBB
:1038D00009FA07F724EA0707F7540028034618BF38
:1038E0000123092D4FF0000738BF01273B4205F1A6
:1038F00003030DD1D7B28F420AD0DF08F75D03F082
:10390000070327FA03F303F001031A4409E000BF99
:1039100003F00707DB08F45C09FA07F724EA070756
:10392000F7540028034618BF0123082D4FF0000765
:1039300038BF01273B4205F104030DD1D7B28F42B6
:103940000AD0DF08F75D03F0060327FA03F303F05C
:1039500001031A4409E000BF03F00607DB08F45C2A
:1039600009FA07F724EA0707F7540028034618BFA7
:103970000123072D4FF0000738BF01273B4205F117
:1039800005037FF435AFD7B28F423FF431AFDF0884
:10399000F75D03F0070327FA03F303F001031A446A
:1039A0000635302D7FF431AF039840F2C004C2F2E7
:1039B000000444F80C0FBDF810009AF80010A08025
:1039C000062004F110056426CDE900402846B02207
:1039D000012302960127FDF79FF99AF8001004F8D9
:1039E0000B0C2846FF2201232770CDE900470296E1
:1039F0004FF0FF0BFDF790F99AF8001004F80B0C4C
:103A00004FF0000928460022012384F80090CDE9F8
:103A100000470296FDF780F99AF8001004F80B0CA5
:103A20002846FF22012384F80090CDE90047029642
:103A3000FDF772F99AF8001004F80B0C28460922D9
:103A4000012384F80090CDE9004702964FF0090861
:103A5000FDF762F99AF8001004F80B0C28461022C2
:103A6000012384F80090CDE900470296FDF754F950
:103A70009AF8001004F80B0C28461122012384F850
:103A80000090CDE900470296FDF746F99AF800103C
:103A900004F80B0C2846242201232770CDE90047A7
:103AA0000296FDF739F99AF8001004F80B0C284635
:103AB0002522012384F800B0CDE9004702964FF09B
:103AC000250BFDF729F99AF8001004F80B0C28468D
:103AD0007522012384F80090CDE900470296FDF796
:103AE0001BF99AF8001004F80B0C2846FF2201235A
:103AF0002770CDE900470296FDF70EF904F80B0C8C
:103B00002C209AF80010207028464E220123CDE97F
:103B100000470296FDF700F99AF8001004F80B0C24
:103B200028464822012384F80090CDE900470296F8
:103B3000FDF7F2F804F80B0C20209AF80010207022
:103B4000284630220123CDE900470296FDF7E4F82C
:103B50009AF8001004F80B0C2846FF22012384F881
:103B60000090CDE900470296FDF7D6F89AF80010CC
:103B700004F80B0C28463022012384F80080CDE99C
:103B800000470296FDF7C8F89AF8001004F80B0CED
:103B900028465422012384F80090CDE9004702967C
:103BA000FDF7BAF804F80B0C04209AF80010207006
:103BB000284631220123CDE900470296FDF7ACF8F3
:103BC00004F80B0C03209AF80010207028463222CB
:103BD0000123CDE9004702964FF03208FDF79CF82B
:103BE00004F80B0C83209AF800102070284640221D
:103BF0000123CDE900470296FDF78EF89AF80010F0
:103C000004F80B0C28464622012384F800B0CDE9C5
:103C100000470296FDF780F89AF8001004F80B0CA4
:103C200028466022012384F80090CDE900470296DF
:103C3000FDF772F89AF8001004F80B0C28462722BA
:103C4000012384F80090CDE900470296FDF764F85F
:103C500004F80B0C9AF80010062020702846502219
:103C60000123CDE900470296FDF756F89AF80010B7
:103C700004F80B0C28465122012384F80090CDE96A
:103C800000470296FDF748F804F80B0C96209AF8C6
:103C900000102070284652220123CDE900470296E9
:103CA000FDF73AF804F80B0C08209AF80010207081
:103CB000284656220123CDE900470296FDF72CF84D
:103CC00004F80B0C9AF80010302020702846572278
:103CD0000123CDE900470296FDF71EF89AF800107F
:103CE00004F80B0C28466122012384F80090CDE9EA
:103CF00000470296FDF710F89AF8001004F80B0C34
:103D000028466222012384F80090CDE900470296FC
:103D1000FDF702F89AF8001004F80B0C284664220C
:103D2000012384F80090CDE900470296FCF7F4FFE8
:103D30009AF8001004F80B0C28466522012384F839
:103D40000090CDE900470296FCF7E6FF04F80B0C63
:103D5000A0209AF800102070284666220123CDE9A1
:103D600000470296FCF7D8FF9AF8001004F80B0CF5
:103D70002846FF2201232770CDE900470296FCF771
:103D8000CBFF9AF8001004F80B0C284622220123DE
:103D900084F80080CDE900470296FCF7BDFF04F8E7
:103DA0000B0C14209AF8001020702846472201239B
:103DB000CDE900470296FCF7AFFF9AF8001004F82F
:103DC0000B0C4FF0FF0828464922012384F800809D
:103DD000CDE900470296FCF79FFF9AF8001004F81F
:103DE0000B0C28464A22012384F80090CDE90047B5
:103DF0000296FCF791FF9AF8001004F80B0C284685
:103E0000FF22012384F80090CDE900470296FCF7D9
:103E100083FF04F80B0C0A209AF800102070284643
:103E20007A220123CDE900470296FCF775FF9AF844
:103E3000001004F80B0C28467B22012384F8009024
:103E4000CDE900470296FCF767FF04F80B0C212030
:103E50009AF800102070284678220123CDE9004707
:103E60000296FCF759FF9AF8001004F80B0C28464C
:103E7000FF2201232770CDE900470296FCF74CFF93
:103E800004F80B0C34209AF80010207028462322E6
:103E90000123CDE900470296FCF73EFF9AF8001097
:103EA00004F80B0C28464222012384F80090CDE947
:103EB00000470296FCF730FF9AF8001004F80B0C4C
:103EC00028464422012384F80080CDE90047029669
:103ED000FCF722FF04F80B0C26209AF80010207043
:103EE000284645220123CDE900470296FCF714FF3E
:103EF0009AF8001004F80B0C4FF0050B28464622E8
:103F0000012384F800B0CDE900470296FCF704FFD6
:103F10009AF8001004F80B0C4FF040082846402295
:103F2000012384F80080CDE900470296FCF7F4FEF7
:103F300004F80B0C9AF800100620207028460E2278
:103F40000123CDE900470296FCF7E6FE04F80B0CCE
:103F50001A209AF800102070284620220123CDE96B
:103F600000470296FCF7D8FE9AF8001004F80B0CF4
:103F700028464322012384F80080CDE900470296B9
:103F8000FCF7CAFE9AF8001004F80B0C2846FF2232
:103F9000012384F80090CDE900470296FCF7BCFEAF
:103FA00004F80B0C9AF800100320207028463422E5
:103FB0000123CDE900470296FCF7AEFE04F80B0C96
:103FC0009AF80010442020702846352201234FF033
:103FD0000008CDE900470296FCF79EFE9AF8001013
:103FE00004F80B0C2846FF2201232770CDE9004777
:103FF0000296FCF791FE9AF8001004F80B0C4FF0B3
:10400000040928463122012384F80090CDE90047B5
:104010000296FCF781FE04F80B0C9AF800100920B8
:10402000207028464B220123CDE900470296FCF779
:1040300073FE9AF8001004F80B0C28464C2201235A
:1040400084F800B0CDE900470296FCF765FE9AF8C7
:10405000001004F80B0C28464D22012384F8009030
:104060004FF00409CDE900470296FCF755FE9AF897
:10407000001004F80B0C2846FF22012384F800806E
:10408000CDE900470296FCF747FE9AF8001004F8C5
:104090000B0C28464422012384F80080CDE9004718
:1040A0000296FCF739FE04F80B0C9AF80010202059
:1040B0002070284645220123CDE900470296FCF7EF
:1040C0002BFE04F80B0C9AF80010082020702846EC
:1040D00047220123CDE900470296FCF71DFE04F8B4
:1040E0000B0C28209AF80010207028464822012343
:1040F000CDE900470296FCF70FFE9AF8001004F88D
:104100000B0C28466722012384F80080CDE9004784
:104110000296FCF701FE9AF8001004F80B0C2846F2
:104120007022012384F80090CDE900470296FCF745
:10413000F3FD9AF8001004F80B0C284671220123B5
:104140002770CDE900470296FCF7E6FD04F80B0C5A
:10415000FE209AF800102070284672220123CDE933
:1041600000470296FCF7D8FD9AF8001004F80B0CF3
:1041700028467622012384F80080CDE90047029684
:10418000FCF7CAFD9AF8001004F80B0C28467722B9
:10419000012384F80080CDE900470296FCF7BCFDBE
:1041A0009AF8001004F80B0C2846FF220123277010
:1041B000CDE900470296FCF7AFFD9AF8001004F82D
:1041C0000B0C28460D2201232770CDE900470296EB
:1041D000FCF7A2FD9AF8001004F80B0C2846FF2209
:1041E000012384F80080CDE900470296FCF794FD96
:1041F0009AF8001004F80B0C28468022012327703F
:10420000CDE900470296FCF787FD04F80B0CF82077
:104210009AF800102070284601220123CDE90047BA
:104220000296FCF779FD9AF8001004F80B0C28466A
:10423000FF2201232770CDE900470296FCF76CFDB1
:104240009AF8001004F80B0C28468E2201232770E0
:10425000CDE900470296FCF75FFD9AF8001004F8DC
:104260000B0C2846002201232770CDE90047029657
:10427000FCF752FD9AF8001004F80B0C2846FF22B8
:10428000012384F80080CDE900470296FCF744FD45
:104290009AF8001004F80B0C28468022012384F8B9
:1042A0000080CDE900470296FCF736FD9AF8001031
:1042B00004F80B0C28460A22012384F80090CDE96B
:1042C00000470296FCF728FD9AF8001004F80B0C42
:1042D00041F00101284684220123CDE900470296DE
:1042E000FCF774FB217804F80B0C01F0EF009AF84E
:1042F00000102070284684220123CDE90047029651
:10430000FCF70AFD9AF8001004F80B0C28460B2263
:1043100001232770CDE900470296FCF7FDFC04F865
:104320000B0CFEF753FE44F8040CE8209AF800103A
:104330002070284601220123CDE900470296FCF7B0
:10434000EBFC54F8041C04F80B0C084600F046FB88
:104350009AF800102846012201232770CDE9004772
:104360000296FCF7D9FC04F80B0C402000F018FA78
:1043700070B340F2C005C2F2000502202C469AF844
:10438000001004F80C0F04F1100001220123CDE904
:1043900001760094FCF7C0FC04F80B0C00204FF0F1
:1043A000000800F0FDF998B1E8209AF8001005F82F
:1043B0000C0F64204FF00108029005F1100001225B
:1043C00001230095CDF80480FCF7A6FC05F80B0C42
:1043D000404605B0BDE8F08F4FF00008404605B0FC
:1043E000BDE8F08F94B0FCF789FD00240120CDE9F1
:1043F0000544CDE90344009004904FF4E0104FF4DD
:104400008031022509906846CDE90114CDE90751B4
:10441000FCF722FF20B1EFF3108072B6FEE700BF79
:104420000F20CDE90D054FF48060CDE910040DA8F3
:1044300002210F94FCF70AFE20B1EFF3108072B650
:10444000FEE700BF002541F21800CDE90255CDE995
:104450000055C4F20200016841F2000441F010016D
:1044600001600168C4F2010401F010010D910D9981
:104470000168002241F02001016001684FF40056FC
:1044800001F020010D910D99016841F004010160D6
:10449000016801F004010D910D99016841F00801D6
:1044A000016000684FF4005100F008000D900D9875
:1044B0002046FCF7CDF90120CDE90105022003904B
:1044C000694620460096FCF7BBF840F23810A4F588
:1044D0003C41C2F2000041F680224FF48043C0F21A
:1044E000060280E82600C0E90353C0E90555C0E98B
:1044F0000755FCF7B9F928B1EFF3108072B600BF89
:10450000FEE700BF40F28C10C2F200004FF0804185
:1045100044F61F631095CDE90E55CDE91255CDE94E
:104520000555CDE90355472280E82600C0E903354B
:104530008561FDF7E7F828B1EFF3108072B600BF90
:10454000FEE700BF4FF480500D9040F28C10C2F295
:1045500000000DA9FDF76AF920B1EFF3108072B6E3
:10456000FEE700BF40F28C10C2F20000FDF75AFBDC
:1045700020B1EFF3108072B6FEE700BF40F28C105E
:10458000C2F2000012A9FDF77DF828B1EFF3108008
:1045900072B600BFFEE700BF6020009040F28C10B2
:1045A0000025C2F2000069460022CDE901550495BC
:1045B000FDF736FA20B1EFF3108072B6FEE700BFC8
:1045C00040F28C10C2F20000FDF700FA40F27007D2
:1045D000C2F2000704F52051384640F8081F4FF496
:1045E000E1310C22C0E90115C0E90355C0E90525F8
:1045F000C561FDF7C1FE28B1EFF3108072B600BFB0
:10460000FEE700BF40F23811C2F200010120FEF7C0
:1046100089FF012862D146480DF1040C009044A0A6
:10462000D0E90554061DC0694ECECDE905546C464F
:10463000079020468CE84E00FBF764FE07F1080562
:1046400082B2284621466423FDF7EAFF40F28C102F
:10465000C2F200000021FEF7FDFB0020FEF702FC85
:10466000B91C28460122FDF741FF39A128462F2217
:104670000A23FDF7D5FF40F20C06C2F200064FF602
:104680004C790FF2FC0802E03220FBF7C5FF787886
:1046900090B1002000F00AF9BA880346F88020465D
:1046A0004146FBF7ABFD2046FBF72CFE82B22846C5
:1046B00021460A23FDF7B4FF38780028E4D031887A
:1046C000B8880844A0F1B40292B2B88080B24A45DA
:1046D0009CBF49423180FEF7C5FBD5E70D486C46CB
:1046E00000900CA0061DD0E905504ECE0DF1040C33
:1046F000CDE9055020468CE84E00FBF703FE07F19C
:10470000080182B2084621466423FDF789FF00BFF5
:10471000FEE700BF4B686F692074616F20564C350F
:10472000334C30582074686174206261690D0A004E
:104730004B686F692074616F20564C35334C30588C
:10474000207468616E6820636F6E670D0A00000058
:1047500048652074686F6E672073616E2073616EA8
:1047600067212042616D20312C322C332C3420649F
:10477000652064696575206B6869656E2E0D0A0099
:10478000476F633A202564207C204B686F616E6719
:1047900020636163683A202564206D6D0D0A000076
:1047A0002DE9F04784B040F2C006C2F2000640F0A6
:1047B0000100374640F20E0AC2F2000A07F80C0F59
:1047C0009AF8001007F110054FF0640801242846FC
:1047D00000220123CDE90074CDF808804FF00009D4
:1047E000FCF79AFA07F80B0CFCF738F89AF8001067
:1047F00027F8060C41F00101284613220123CDE9D8
:104800000074CDF80880FCF7E1F8397807F80B0C54
:10481000490723D006F80C4F9AF8001006F110054E
:1048200028460B220123CDE90064CDF80880FCF76F
:1048300073FA9AF8001006F80B0C284600220123A0
:1048400086F80090CDE90064CDF80880FCF764FAA2
:1048500006F80B0C204604B0BDE8F08706F10C0703
:1048600006F11C0511E000BF9AF80000132240F089
:10487000010128460123CDE90074CDF80880FCF73A
:10488000A5F8317B70704907C4D1B0880028EBD0FF
:10489000FBF7E4FFF18880B2B288401A9042E3DD72
:1048A0000024204604B0BDE8F08700002DE9F04761
:1048B00086B08046FBF7D2FF40F20E09C2F2000933
:1048C00040F2C00699F80010C2F200064FF0640AE8
:1048D000012706F10C0406F11C0541F00101F080EE
:1048E000CDE9004706E000BF99F80000CDE9004798
:1048F00040F00101284613220123CDF808A0FCF75F
:1049000065F8317B7070490712D1B0880028EBD070
:10491000FBF7A4FFF18880B2B288401A9042E3DD31
:10492000012030704FF6FF75284606B0BDE8F087CD
:1049300099F80000B8F1000F40F001014FF0640752
:1049400028D00C2003AACDE90020284614220123F8
:104950000297FCF73BF89DF80C10BDF80E20C90833
:1049600088F8081011BABDF81220090CA8F8061032
:1049700011BABDF81420090CA8F8021011BABDF83C
:104980001620090CA8F8041011BA0D0CA8F8005054
:104990000CE000BF0220CDE9004028461E22012382
:1049A0000297FCF713F8B18909BA0D0C012206F839
:1049B0000C2F99F8001006F80B0C6420CDE90120AB
:1049C00006F110000B2201230096FCF7A5F906F86A
:1049D0000B0C284606B0BDE8F08700002DE9F04F2B
:1049E0008BB0814644F62060814503D200200BB095
:1049F000BDE8F08F40F20E08C2F2000840F2C00A93
:104A000098F80010C2F2000A01200AF10C02642793
:104A1000CDE900200AF11C0041F00101012201232F
:104A20000297FBF7D3FF9AF80C608AF80100F009AF
:104A3000C6F30015C6F3C007C6F38004C6F3801B97
:104A40008DF82B000DF1270003A98DF827508DF864
:104A500029708DF828408DF82AB0FEF715FB0699CD
:104A6000002D01F6363008BF40F6E800002F4DD18A
:104A7000002C1CBF084400F5257071B2B1F1FF3F56
:104A80004CDC0799BBF1000F014418BF01F52570FC
:104A900000F226208145A9D39DF80E1043F62F225F
:104AA00051434FF4FA7202EB012144F6D352C1F2A2
:104AB0006202A9EB00004FF47A73A1FB0212584383
:104AC000910900EBD210B0FBF1F0BDF81210BBF170
:104AD000000F18BF0844010424D080B2B0F5807FD5
:104AE000A0F101004FF000012ED900BFB0F5007F0A
:104AF0001CD3B0F5806F1DD3B0F5006F1ED3020933
:104B00000431B0F5805F1046F0D21AE000EB4100AE
:104B100000F2645071B2B1F1FF3FB2DD01200BB081
:104B2000BDE8F08F0020002110E000BF420841F0F6
:104B3000010106E0820841F0020102E0C20841F0F2
:104B4000030188B2010210460144090A0AF80C1F49
:104B500098F800108AF8010064200222CDE900A232
:104B600002900AF1100071220123FCF7D5F80146EA
:104B700001200AF80B1C4AF8049C0BB0BDE8F08F2A
:104B80002DE9F04F83B040F2C004C2F200044FF0B0
:104B90000108264640F20E0AC2F2000A06F80C8FFF
:104BA0009AF8001006F1100507464FF064092846F0
:104BB00080220123CDE90068CDF80890FCF7ACF81D
:104BC0009AF8001006F80B0C2846FF22012386F8FD
:104BD0000080CDE90068CDF80890FCF79DF89AF8C0
:104BE000001006F80B0C4FF0000B284600220123A2
:104BF00086F800B0CDE90068CDF80890FCF78CF895
:104C000006F80B0C16F80A0C9AF8001030702846BB
:104C100091220123CDE90068CDF80890FCF77CF8DB
:104C20009AF8001006F80B0C28460022012386F89B
:104C30000080CDE90068CDF80890FCF76DF89AF88F
:104C4000001006F80B0C2846FF22012386F800B05E
:104C5000CDE90068CDF80890FCF75EF89AF80010EE
:104C600006F80B0C28468022012386F800B0CDE917
:104C70000068CDF80890FCF74FF806F80B0C4FF0E1
:104C8000020657B39AF8000004F11C0504F10C0B5E
:104C900040F001012846F8220123CDE900B6CDF805
:104CA0000890FBF793FEA189607008BA010C0129F6
:104CB0004FF0010188BF010C07FB01F000BA9AF820
:104CC0000010E0600426284604220123CDE900B646
:104CD000CDF80890FCF720F860709AF8001004F8FE
:104CE0000C6F04F1100000220123CDE9018900942A
:104CF000FCF712F804F80B0C03B0BDE8F08F0000CD
:104D00002DE9F04383B040F2C005C2F20005012650
:104D100040F20E07C2F2000705F80C6F397805F172
:104D200010042046002201234FF064088DE8600142
:104D30004FF00009FBF7F0FF397805F80B0C20461F
:104D4000FF2201232E70CDE90056CDF80880FBF735
:104D5000E3FF397805F80B0C20460022012385F883
:104D60000090CDE90056CDF80880FBF7D5FF3978E3
:104D700005F80B0C20469122012385F80090CDE91F
:104D80000056CDF80880FBF7C7FF397805F80B0C03
:104D90002046002201232E70CDE90056CDF8088070
:104DA000FBF7BAFF397805F80B0C2046FF220123E8
:104DB00085F80090CDE90056CDF80880FBF7ACFFF0
:104DC00005F80B0C03B0BDE8F08300000000000004
:104DD00000000102030406070809000000000102A8
:104DE0000304010202030405060708090A0B0C0D5F
:104DF0000E0F1010184E00080000002010000000D8
:104E000050010008284E000810000020C8070000CC
:104E10007001000800000000010000001000000008
:084E200000127A000A005200A2
:04000005080000ED02
:00000001FF
