:020000040800F2
:1000000000000220650F00084D0E0008550E000884
:100010005D0E0008650E00086D0E0008000000006F
:10002000000000000000000000000000750E000845
:10003000830E000800000000910E00089F0E0008CB
:10004000B50F0008B50F0008B50F0008B50F000880
:10005000B50F0008B50F0008B50F0008B50F000870
:10006000B50F0008B50F0008B50F0008B50F000860
:10007000B50F0008B50F0008B50F0008B50F000850
:10008000B50F0008B50F0008B50F0008B50F000840
:10009000B50F0008B50F0008B50F0008B50F000830
:1000A000B50F0008B50F0008B50F0008AD0E000829
:1000B000B50F0008B50F0008B50F0008B50F000810
:1000C000B50F0008B50F0008B50F0008B50F000800
:1000D000B50F0008B50F0008B50F0008B50F0008F0
:1000E000B50F0008B50F0008B50F0008B50F0008E0
:1000F000B50F0008B50F0008C10E0008B50F0008C5
:10010000B50F0008B50F0008B50F0008B50F0008BF
:10011000B50F0008B50F0008B50F0008B50F0008AF
:10012000B50F0008B50F0008B50F0008B50F00089F
:10013000B50F0008B50F0008B50F0008B50F00088F
:10014000B50F0008B50F0008B50F0008B50F00087F
:10015000B50F0008B50F0008B50F0008B50F00086F
:10016000B50F0008B50F0008B50F0008B50F00085F
:10017000B50F0008B50F0008B50F0008000000001B
:08018000B50F0008B50F0008DF
:1001900010B5054C237833B9044B13B10448AFF3C1
:1001A00000800123237010BD6000002000000000CB
:1001B0000C45000808B5034B1BB103490348AFF3D6
:1001C000008008BD00000000640000200C4500080D
:1001D000034613F8012B002AFBD1181A0138704787
:1001E00001F0FF01102A2BDB10F0070F08D010F8E8
:1001F000013B013A8B422DD010F0070F42B3F6D1EC
:10020000F0B441EA012141EA014122F007047FF004
:1002100000070023F0E80256083C85EA010586EA5B
:10022000010685FA47F5A3FA87F586FA47F6A5FA97
:1002300087F68EB9EED1F0BC01F0FF0102F00702A3
:1002400032B110F8013B013A83EA010313B1F8D14E
:100250000020704701387047002D06BF354603382F
:10026000073815F0010F07D1013015F4807F02BF68
:10027000013015F4C03F0130F0BC0138704700BFB9
:1002800053B94AB9002908BF00281CBF4FF0FF31FD
:100290004FF0FF3000F06AB9ADF1080C6DE904CE03
:1002A00000F006F8DDF804E0DDE9022304B0704751
:1002B0002DE9F047089D0C46002B4ED194468C4505
:1002C0008646B2FA82F262D94AB1C2F12003914065
:1002D00020FA03F30CFA02FC194300FA02FE4FEA7B
:1002E0001C471FFA8CF6B1FBF7F44FEA1E4307FBDD
:1002F000141143EA014304FB06F199420AD91CEBAD
:10030000030304F1FF3080F01281994240F20F8123
:10031000023C6344591A1FFA8EF3B1FBF7F007FB56
:10032000101143EA014300FB06F69E420AD91CEB7A
:10033000030300F1FF3180F0FC809E4240F2F9801F
:10034000634402389B1B40EA044000211DB1D340A6
:100350000022C5E90032BDE8F0878B4205D90DB116
:10036000C5E9000100210846F5E7B3FA83F1002949
:1003700046D1A34202D39042C0F0F080861A64EBCB
:1003800003030120002DE6D0C5E90063E3E7002A5E
:1003900040F09080A1EB0C044FEA1C481FFA8CF748
:1003A0000121B4FBF8F64FEA1E4308FB164443EA6A
:1003B000044307FB06F0984208D91CEB030306F13F
:1003C000FF3402D2984200F2CD8026461C1A1FFA52
:1003D0008EF3B4FBF8F008FB104443EA044300FB3F
:1003E00007F79F4208D91CEB030300F1FF3402D248
:1003F0009F4200F2B0802046DB1B40EA0640A5E7A2
:10040000C1F120068B4022FA06F71F4320FA06FCB2
:1004100004FA01F343EA0C03F44000FA01F8380C43
:100420004FEA1349B4FBF0FE1FFA87FC00FB1E44A1
:1004300049EA04440EFB0CF9A14502FA01F20AD97B
:100440003C190EF1FF3A80F08480A14540F2818092
:10045000AEF1020E3C44A4EB09041FFA83F9B4FB8D
:10046000F0F300FB134449EA044403FB0CFCA445ED
:1004700007D93C1903F1FF3067D2A44565D9023B87
:100480003C4443EA0E40A0FB0293A4EB0C049C42C4
:10049000CE469C4651D34ED055B1B8EB0E0364EB1B
:1004A0000C0404FA06F6CB401E43CC40C5E90064B8
:1004B000002150E7C2F1200320FA03F10CFA02FCFC
:1004C00024FA03F394400C434FEA1C4800FA02FE5E
:1004D0001FFA8CF7B3FBF8F008FB1031230C43EA4A
:1004E000014300FB07F1994208D91CEB030300F11B
:1004F000FF362CD299422AD9023863445B1AA4B23F
:10050000B3FBF8F108FB113344EA034401FB07F3A2
:10051000A34208D91CEB040401F1FF3613D2A34215
:1005200011D902396444E41A41EA004139E704462A
:10053000F0E6084606E7C845AED2B9EB020E63EB1B
:10054000070C0138A8E73146EDE7034699E7304646
:10055000D4E7D6467FE7634402384DE70646234694
:1005600008460FE7023E634430E700BF704700BF14
:1005700080B483B000AF7860044B01221A7000BFD2
:100580000C37BD465DF8047B704700BFBE010020FC
:1005900080B483B000AF7860044B01221A7000BFB2
:1005A0000C37BD465DF8047B704700BFBF010020DB
:1005B00080B582B000AF78607968054803F070F9C3
:1005C0007968044803F06CF900BF0837BD4680BD68
:1005D000540100208401002080B58AB004AF00F0EF
:1005E000EBFC00F029F900F0A3FA00F08FF900F01D
:1005F00001FA00F073FA7D4B3B603B461846FFF76B
:10060000E7FD03469AB239460A23794802F0A6FC70
:10061000784B019300230093B2EE040A764B4FF41B
:1006200080627649764803F055F8764B01930023B3
:100630000093B2EE040A744B80227449744803F0AC
:1006400049F83B461846FFF7C3FD03469AB23946C0
:100650000A23674802F082FC00237B6100F012FD50
:1006600002466C4B1B68D31A322B28D96A4B1B7875
:10067000012B10D1624B1B7EDBB2002B0BD16048EB
:1006800003F05EF8644B02221A7000F0FBFC034694
:10069000604A136013E0604B1B78022B0FD15C4B58
:1006A0001B7EDBB2002B0AD1594803F049F85A4BA4
:1006B00001221A7000F0E6FC0346564A13605048C7
:1006C00003F00CFA524803F009FA4D4B1B6A534AE7
:1006D00013604F4B1B6A524A1360494B93F8282012
:1006E000504B1A704A4B93F828204F4B1A70444BCA
:1006F00093F82830012B05D9012240214B4800F006
:100700007BFF04E000224021484800F075FF404B89
:1007100093F82830012B05D901228021434800F0AD
:100720006BFF04E000228021404800F065FF00F0EC
:10073000A9FC02467B69D31AC82B8FD9374BD3ED5E
:10074000007AFDEEE77A17EE903A3B61334B93ED7A
:10075000007A3B6907EE903AF8EEE77A77EE677A2F
:10076000B2EE047A67EE877AFDEEE77A17EE903AFA
:10077000FB602B4BD3ED007AFDEEE77A17EE903A53
:10078000BB60274B93ED007ABB6807EE903AF8EE1A
:10079000E77A77EE677AB2EE047A67EE877AFDEE53
:1007A000E77A17EE903A7B601E4B1B78DBB21A4655
:1007B0001D4B1B78DBB203937B680293BB680193EC
:1007C0000092FB683A691A491A4803F0FFF9194880
:1007D000FFF7FEFC03469AB20A231649044802F0CA
:1007E000BDFB00F04FFC786138E700BF6F6B0A007B
:1007F0000C010020710500087C0000200010024060
:100800005401002091050008C400002000080240A7
:1008100084010020C001002000000020B40100205D
:10082000B8010020BC010020BD01002000000240F2
:1008300024450008C401002080B594B000AF07F142
:10084000200330220021184603F0E0F907F10C03E1
:1008500000221A605A609A60DA601A610023BB6055
:10086000284B1B6C274A43F080531364254B1B6CA9
:1008700003F08053BB60BB6800237B60224B1B6886
:10088000214A43F4804313601F4B1B6803F48043E9
:100890007B607B6801233B624FF480337B620223E1
:1008A000BB634FF48003FB6304233B64A8237B6496
:1008B0000223BB640423FB6407F12003184600F005
:1008C000B5FE0346002B01D000F0BCF90F23FB60FE
:1008D00002233B6100237B614FF4A053BB614FF4C3
:1008E0008053FB6107F10C030521184601F016F94E
:1008F0000346002B01D000F0A5F900BF5037BD46DC
:1009000080BD00BF003802400070004080B58AB052
:1009100000AF07F1180300221A605A609A60DA608B
:1009200007F1100300221A605A603B4600221A6049
:100930005A609A60DA602D4B2D4A1A602B4BA72221
:100940005A602A4B00229A60284B4FF6FF72DA60F9
:10095000264B00221A61254B00225A61234B0022AC
:100960009A61224801F0FAFA0346002B01D000F008
:1009700069F94FF48053BB6107F1180319461B480E
:1009800001F048FE0346002B01D000F05BF9174848
:1009900001F033FB0346002B01D000F053F9002394
:1009A0003B6100237B6107F1100319460F4802F0F9
:1009B000F5F90346002B01D000F044F900233B6019
:1009C00001237B600023BB600023FB603B460022C9
:1009D0001946064801F082FD0346002B01D000F0C5
:1009E00031F900BF2837BD4680BD00BF7C00002024
:1009F0000000014080B58AB000AF07F11803002263
:100A00001A605A609A60DA6007F1100300221A60D7
:100A10005A603B4600221A605A609A60DA602D4B99
:100A20002D4A1A602B4BA7225A602A4B00229A604B
:100A3000284B4FF6FF72DA60264B00221A61254BD5
:100A400000225A61234B00229A61224801F086FA63
:100A50000346002B01D000F0F5F84FF48053BB6142
:100A600007F1180319461B4801F0D4FD0346002B7B
:100A700001D000F0E7F8174801F0BFFA0346002B59
:100A800001D000F0DFF800233B6100237B6107F118
:100A9000100319460F4802F081F90346002B01D0DC
:100AA00000F0D0F800233B6001237B600023BB6093
:100AB0000023FB603B4600221946064801F00EFD6C
:100AC0000346002B01D000F0BDF800BF2837BD461B
:100AD00080BD00BFC40000200004014080B500AF0D
:100AE000114B124A1A60104B4FF4E1325A600E4B10
:100AF00000229A600C4B0022DA600B4B00221A6134
:100B0000094B0C225A61084B00229A61064B0022C5
:100B1000DA61054802F0D2F90346002B01D000F05B
:100B200091F800BF80BD00BF0C0100200010014003
:100B300080B58AB000AF07F1140300221A605A6032
:100B40009A60DA601A6100233B613A4B1B6B394AA9
:100B500043F080031363374B1B6B03F080033B614F
:100B60003B690023FB60334B1B6B324A43F00103AC
:100B70001363304B1B6B03F00103FB60FB68002326
:100B8000BB602C4B1B6B2B4A43F010031363294BA8
:100B90001B6B03F01003BB60BB6800237B60254B1D
:100BA0001B6B244A43F004031363224B1B6B03F0BB
:100BB00004037B607B680022C0211F4800F01CFDFD
:100BC00000224FF480611D4800F016FD00228021B4
:100BD0001B4800F011FDC0237B610123BB61002392
:100BE000FB6100233B6207F114031946124800F031
:100BF00067FB4FF480637B610123BB610023FB61D2
:100C000000233B6207F1140319460C4800F058FB1F
:100C100080237B610123BB610023FB6100233B62D6
:100C200007F114031946064800F04AFB00BF2837B5
:100C3000BD4680BD00380240000002400010024066
:100C40000008024080B400AF72B600BF00BFFDE7ED
:100C500080B483B000AF00237B60104B5B6C0F4A05
:100C600043F4804353640D4B5B6C03F480437B601F
:100C70007B6800233B60094B1B6C084A43F08053A0
:100C80001364064B1B6C03F080533B603B6800BF52
:100C90000C37BD465DF8047B704700BF003802404A
:100CA00080B58CB000AF786007F11C0300221A6099
:100CB0005A609A60DA601A617B681B683A4A93420C
:100CC00035D10023BB61394B5B6C384A43F00103DB
:100CD0005364364B5B6C03F00103BB61BB690023BB
:100CE0007B61324B1B6B314A43F0100313632F4B74
:100CF0001B6B03F010037B617B694FF40073FB6196
:100D000002233B6200237B620023BB620123FB6260
:100D100007F11C031946264800F0D2FA00220221EE
:100D20001B2000F096FA1B2000F0AFFA38E07B6839
:100D30001B68204A934233D100233B611B4B5B6C01
:100D40001A4A43F002035364184B5B6C03F002032E
:100D50003B613B690023FB60144B1B6B134A43F060
:100D600004031363114B1B6B03F00403FB60FB686C
:100D70004023FB6102233B6200237B620023BB62B2
:100D80000323FB6207F11C0319460B4800F098FA95
:100D9000002202212E2000F05CFA2E2000F075FACD
:100DA00000BF3037BD4680BD000001400038024022
:100DB00000100240000401400008024080B58AB0E3
:100DC00000AF786007F1140300221A605A609A603D
:100DD000DA601A617B681B68194A93422CD10023A0
:100DE0003B61184B5B6C174A43F010035364154B7F
:100DF0005B6C03F010033B613B690023FB60114B0C
:100E00001B6B104A43F0010313630E4B1B6B03F083
:100E10000103FB60FB684FF4C0637B610223BB618D
:100E20000023FB6103233B6207237B6207F114036A
:100E30001946054800F044FA00BF2837BD4680BD7A
:100E400000100140003802400000024080B400AFB2
:100E500000BFFDE780B400AF00BFFDE780B400AF86
:100E600000BFFDE780B400AF00BFFDE780B400AF76
:100E700000BFFDE780B400AF00BFBD465DF8047B56
:100E8000704780B400AF00BFBD465DF8047B70477B
:100E900080B400AF00BFBD465DF8047B704780B5ED
:100EA00000AF00F0DBF800BF80BD000080B500AFF0
:100EB000024801F023FA00BF80BD00BF7C00002083
:100EC00080B500AF024801F019FA00BF80BD00BF35
:100ED000C400002080B586B000AF7860144A154B7E
:100EE000D31A7B617B693B61134B1B68002B02D1DA
:100EF000114B124A1A60104B1A687B6813443A6906
:100F00009A4207D202F08AFE03460C221A604FF082
:100F1000FF3309E0084B1B68FB60074B1A687B68CE
:100F20001344054A1360FB6818461837BD4680BD58
:100F300000000220000400008C020020E0030020DA
:100F400080B400AF064BD3F88830054A43F47003F1
:100F5000C2F8883000BFBD465DF8047B704700BF13
:100F600000ED00E0DFF834D0FFF7EAFF0C480D4950
:100F70000D4A002302E0D458C4500433C4188C42F4
:100F8000F9D30A4A0A4C002301E013600432A2425A
:100F9000FBD302F049FEFFF71FFB70470000022061
:100FA0000000002060000020AC4500086000002028
:100FB000DC030020FEE7000080B500AF0E4B1B688D
:100FC0000D4A43F4007313600B4B1B680A4A43F449
:100FD00080631360084B1B68074A43F480731360F7
:100FE000032000F02BF90F2000F008F8FFF730FE87
:100FF0000023184680BD00BF003C024080B582B08F
:1010000000AF7860124B1A68124B1B7819464FF4E8
:101010007A73B3FBF1F3B2FBF3F3184600F043F934
:101020000346002B01D001230EE07B680F2B0AD86A
:10103000002279684FF0FF3000F00BF9064A7B6818
:101040001360002300E0012318460837BD4680BD29
:10105000040000200C0000200800002080B400AF35
:10106000064B1B781A46064B1B681344044A136050
:1010700000BFBD465DF8047B704700BF0C00002038
:101080009002002080B400AF034B1B681846BD4699
:101090005DF8047B704700BF9002002080B485B0EB
:1010A00000AF78607B6803F00703FB600C4BDB68E4
:1010B000BB60BA684FF6FF031340BB60FB681A02BF
:1010C000BB68134343F0BF6343F40033BB60044A7F
:1010D000BB68D36000BF1437BD465DF8047B704722
:1010E00000ED00E080B400AF044BDB681B0A03F0A6
:1010F00007031846BD465DF8047B704700ED00E02D
:1011000080B483B000AF0346FB7197F90730002B22
:101110000BDBFB7903F01F02074997F907305B09E6
:10112000012000FA02F241F8232000BF0C37BD462F
:101130005DF8047B704700BF00E100E080B483B03D
:1011400000AF03463960FB7197F90730002B0ADBCB
:101150003B68DAB20C4997F907301201D2B20B445E
:1011600083F800230AE03B68DAB20849FB7903F010
:101170000F03043B1201D2B20B441A7600BF0C37A6
:10118000BD465DF8047B704700E100E000ED00E043
:1011900080B489B000AFF860B9607A60FB6803F092
:1011A0000703FB61FB69C3F10703042B28BF04237A
:1011B000BB61FB690433062B02D9FB69033B00E0EA
:1011C00000237B614FF0FF32BB6902FA03F3DA437D
:1011D000BB681A407B699A404FF0FF317B6901FA86
:1011E00003F3D9437B680B40134318462437BD46AD
:1011F0005DF8047B7047000080B582B000AF786076
:101200007B68013BB3F1807F01D301230FE00A4AE1
:101210007B68013B53600F214FF0FF30FFF78EFFDB
:10122000054B00229A60044B07221A6000231846DF
:101230000837BD4680BD00BF10E000E080B582B039
:1012400000AF78607868FFF729FF00BF0837BD4618
:1012500080BD80B586B000AF0346B9607A60FB738D
:1012600000237B61FFF73EFF78617A68B96878698F
:10127000FFF78EFF024697F90F3011461846FFF729
:101280005DFF00BF1837BD4680BD80B582B000AF9E
:101290000346FB7197F907301846FFF731FF00BF8F
:1012A0000837BD4680BD80B582B000AF78607868F1
:1012B000FFF7A2FF034618460837BD4680BD000071
:1012C00080B489B000AF7860396000237B6100236F
:1012D0003B610023BB610023FB616BE10122FB69E1
:1012E00002FA03F37B613B681B687A6913403B6138
:1012F0003A697B699A4240F05A813B685B6803F027
:101300000303012B05D03B685B6803F00303022B4A
:1013100030D17B689B68BB61FB695B00032202FAEA
:1013200003F3DB43BA691340BB613B68DA68FB69CE
:101330005B0002FA03F3BA691343BB617B68BA69C5
:101340009A607B685B68BB610122FB6902FA03F368
:10135000DB43BA691340BB613B685B681B0903F060
:101360000102FB6902FA03F3BA691343BB617B68AC
:10137000BA695A603B685B6803F00303032B17D01C
:101380007B68DB68BB61FB695B00032202FA03F345
:10139000DB43BA691340BB613B689A68FB695B0039
:1013A00002FA03F3BA691343BB617B68BA69DA6076
:1013B0003B685B6803F00303022B23D1FB69DA0867
:1013C0007B68083253F82230BB61FB6903F00703E6
:1013D0009B000F2202FA03F3DB43BA691340BB619F
:1013E0003B681A69FB6903F007039B0002FA03F3E9
:1013F000BA691343BB61FB69DA087B680832B969D3
:1014000043F822107B681B68BB61FB695B00032209
:1014100002FA03F3DB43BA691340BB613B685B68C4
:1014200003F00302FB695B0002FA03F3BA6913439A
:10143000BB617B68BA691A603B685B6803F4403340
:10144000002B00F0B4800023FB60604B5B6C5F4AB4
:1014500043F4804353645D4B5B6C03F48043FB6057
:10146000FB685B4AFB699B08023352F82330BB617F
:10147000FB6903F003039B000F2202FA03F3DB4333
:10148000BA691340BB617B68524A93422BD07B6898
:10149000514A934225D07B68504A93421FD07B68C3
:1014A0004F4A934219D07B684E4A934213D07B68CF
:1014B0004D4A93420DD07B684C4A934207D07B68DB
:1014C0004B4A934201D107230EE008230CE0062388
:1014D0000AE0052308E0042306E0032304E00223D6
:1014E00002E0012300E00023FA6902F00302920007
:1014F0009340BA691343BB613549FB699B080233CA
:10150000BA6941F823203B4B9B68BB613B69DB43D5
:10151000BA691340BB613B685B6803F48013002B1E
:1015200003D0BA693B691343BB61324ABB6993601C
:10153000304BDB68BB613B69DB43BA691340BB617D
:101540003B685B6803F40013002B03D0BA693B6966
:101550001343BB61274ABB69D360264B5B68BB6101
:101560003B69DB43BA691340BB613B685B6803F4CA
:101570000033002B03D0BA693B691343BB611D4A9A
:10158000BB6953601B4B1B68BB613B69DB43BA699A
:101590001340BB613B685B6803F48033002B03D0CE
:1015A000BA693B691343BB61124ABB691360FB69AB
:1015B0000133FB61FB690F2B7FF690AE00BF00BFCC
:1015C0002437BD465DF8047B704700BF00380240F9
:1015D00000380140000002400004024000080240C0
:1015E000000C0240001002400014024000180240AB
:1015F000001C0240003C014080B483B000AF786022
:101600000B467B8013467B707B78002B03D07A8857
:101610007B689A6103E07B881A047B689A6100BF4B
:101620000C37BD465DF8047B7047000080B586B07E
:1016300000AF78607B68002B01D1012367E27B68F3
:101640001B6803F00103002B75D0884B9B6803F0E7
:101650000C03042B0CD0854B9B6803F00C03082B68
:1016600012D1824B5B6803F48003B3F5800F0BD17A
:101670007E4B1B6803F40033002B5BD07B685B68F8
:10168000002B57D1012342E27B685B68B3F5803FB2
:1016900006D1764B1B68754A43F4803313601DE016
:1016A0007B685B68B3F5A02F0CD1704B1B686F4A49
:1016B00043F4802313606D4B1B686C4A43F4803302
:1016C00013600BE0694B1B68684A23F48033136096
:1016D000664B1B68654A23F4802313607B685B6854
:1016E000002B13D0FFF7CEFC386108E0FFF7CAFCEF
:1016F00002463B69D31A642B01D9032307E25B4BF3
:101700001B6803F40033002BF0D014E0FFF7BAFCA1
:10171000386108E0FFF7B6FC02463B69D31A642B38
:1017200001D90323F3E1514B1B6803F40033002B71
:10173000F0D100E000BF7B681B6803F00203002BC0
:1017400063D04A4B9B6803F00C03002B0BD0474B34
:101750009B6803F00C03082B1CD1444B5B6803F41B
:101760008003002B16D1414B1B6803F00203002BB2
:1017700005D07B68DB68012B01D00123C7E13B4B1F
:101780001B6823F0F8027B681B69DB0037491343B1
:101790000B603AE07B68DB68002B20D0344B0122E1
:1017A0001A60FFF76FFC386108E0FFF76BFC024638
:1017B0003B69D31A022B01D90323A8E12B4B1B68E9
:1017C00003F00203002BF0D0284B1B6823F0F80233
:1017D0007B681B69DB00254913430B6015E0244B34
:1017E00000221A60FFF74EFC386108E0FFF74AFC60
:1017F00002463B69D31A022B01D9032387E11B4B15
:101800001B6803F00203002BF0D17B681B6803F018
:101810000803002B36D07B685B69002B16D0154B74
:1018200001221A60FFF72EFC386108E0FFF72AFC5E
:1018300002463B69D31A022B01D9032367E10B4B04
:101840005B6F03F00203002BF0D01BE0094B00227A
:101850001A60FFF717FC38610EE0FFF713FC024631
:101860003B69D31A022B07D9032350E10038024009
:1018700000004742800E4742884B5B6F03F0020333
:10188000002BEAD17B681B6803F00403002B00F0F7
:1018900097800023FB75814B1B6C03F08053002B5A
:1018A0000FD10023BB607D4B1B6C7C4A43F08053FF
:1018B00013647A4B1B6C03F08053BB60BB6801233D
:1018C000FB75774B1B6803F48073002B18D1744BA6
:1018D0001B68734A43F480731360FFF7D3FB3861CE
:1018E00008E0FFF7CFFB02463B69D31A022B01D970
:1018F00003230CE16A4B1B6803F48073002BF0D0C8
:101900007B689B68012B06D1644B1B6F634A43F0D5
:10191000010313671CE07B689B68052B0CD15F4BB0
:101920001B6F5E4A43F0040313675C4B1B6F5B4AFB
:1019300043F0010313670BE0584B1B6F574A23F02A
:1019400001031367554B1B6F544A23F004031367BD
:101950007B689B68002B15D0FFF794FB38610AE089
:10196000FFF790FB02463B69D31A41F2883293425B
:1019700001D90323CBE0494B1B6F03F00203002B7B
:10198000EED014E0FFF77EFB38610AE0FFF77AFB48
:1019900002463B69D31A41F28832934201D90323AC
:1019A000B5E03E4B1B6F03F00203002BEED1FB7D35
:1019B000012B05D1394B1B6C384A23F0805313643B
:1019C0007B689B69002B00F0A180344B9B6803F07F
:1019D0000C03082B5CD07B689B69022B41D1314BF7
:1019E00000221A60FFF74EFB386108E0FFF74AFB60
:1019F00002463B69D31A022B01D9032387E0274B08
:101A00001B6803F00073002BF0D17B68DA697B68F8
:101A10001B6A1A437B685B6A9B011A437B689B6A5B
:101A20005B08013B1B041A437B68DB6A1B061B49EE
:101A300013434B601B4B01221A60FFF723FB3861F5
:101A400008E0FFF71FFB02463B69D31A022B01D9BE
:101A500003235CE0114B1B6803F00073002BF0D0F4
:101A600054E0104B00221A60FFF70CFB386108E0CD
:101A7000FFF708FB02463B69D31A022B01D9032367
:101A800045E0064B1B6803F00073002BF0D13DE0EE
:101A90007B689B69012B07D1012338E000380240A5
:101AA00000700040600047421B4B5B68FB607B6836
:101AB0009B69012B28D0FB6803F480027B68DB69FB
:101AC0009A4221D1FB6803F03F027B681B6A9A426D
:101AD0001AD1FA6847F6C07313407A68526A9201C5
:101AE000934211D1FB6803F440327B689B6A5B0828
:101AF000013B1B049A4207D1FB6803F070627B68CC
:101B0000DB6A1B069A4201D0012300E0002318463D
:101B10001837BD4680BD00BF0038024080B584B094
:101B200000AF786039607B68002B01D10123CCE0E5
:101B3000684B1B6803F007033A689A420CD9654B5F
:101B40003A68D2B21A70634B1B6803F007033A6815
:101B50009A4201D00123B8E07B681B6803F00203BE
:101B6000002B20D07B681B6803F00403002B05D0FA
:101B7000594B9B68584A43F4E05393607B681B6859
:101B800003F00803002B05D0534B9B68524A43F4E3
:101B900060439360504B9B6823F0F0027B689B6826
:101BA0004D4913438B607B681B6803F00103002BD6
:101BB00044D07B685B68012B07D1474B1B6803F45B
:101BC0000033002B19D101237FE07B685B68022B77
:101BD00003D07B685B68032B07D13F4B1B6803F086
:101BE0000073002B09D101236FE03B4B1B6803F00E
:101BF0000203002B01D1012367E0374B9B6823F0E0
:101C000003027B685B68344913438B60FFF73AFA41
:101C1000F8600AE0FFF736FA0246FB68D31A41F291
:101C20008832934201D903234FE02B4B9B6803F08A
:101C30000C027B685B689B009A42EBD1254B1B68CA
:101C400003F007033A689A420CD2224B3A68D2B2A8
:101C50001A70204B1B6803F007033A689A4201D0C0
:101C6000012332E07B681B6803F00403002B08D0DB
:101C7000194B9B6823F4E0527B68DB6816491343D9
:101C80008B607B681B6803F00803002B09D0124BA4
:101C90009B6823F460427B681B69DB000E49134399
:101CA0008B6000F021F802460B4B9B681B0903F088
:101CB0000F030A49CB5C22FA03F3094A1360094B6C
:101CC0001B681846FFF79AF9002318461037BD46DF
:101CD00080BD00BF003C0240003802405045000873
:101CE00004000020080000202DE9B04F94B000AFA0
:101CF00000237B640023FB6400233B640023BB645C
:101D0000794B9B6803F00C03082B0DD0082B00F2D5
:101D1000E180002B02D0042B03D0DBE0734BBB64CB
:101D2000DBE0734BBB64D8E06F4B5B6803F03F03B1
:101D30007B646D4B5B6803F48003002B63D06A4BBC
:101D40005B689B090022BB63FA63BB6BC3F30803A8
:101D50003B6300237B63D7E90C4522462B464FF0BB
:101D600000004FF00001590141EAD26150010246E2
:101D70000B462146511A3961294663EB01037B6109
:101D80004FF000024FF00003D7E904AB59468B0136
:101D9000514643EA916351468A015146B2EB01082C
:101DA000594663EB01094FF000024FF000034FEA80
:101DB000C90343EA58734FEAC8029046994623463E
:101DC00018EB0303BB602B4649EB0303FB604FF0AA
:101DD00000024FF00003D7E9024529464B02214695
:101DE00043EAD15321464A02104619467B6C002231
:101DF000BB62FA62D7E90A23FEF742FA02460B46B3
:101E00001346FB6458E0384B5B689B090022184678
:101E10001146C0F308033B6200237B62D7E90889BF
:101E200042464B464FF000004FF00001590141EA95
:101E3000D261500102460B464146B2EB010A4946C7
:101E400063EB010B4FF000024FF000034FEA8B13DE
:101E500043EA9A634FEA8A12B2EB0A0463EB0B057A
:101E60004FF000024FF00003EB0043EA5473E2002E
:101E700014461D464346E3183B604B4645EB0303BF
:101E80007B604FF000024FF00003D7E90045294680
:101E90008B02214643EA915321468A021046194695
:101EA0007B6C0022BB61FA61D7E90623FEF7E8F9F3
:101EB00002460B461346FB640B4B5B681B0C03F09E
:101EC000030301335B003B64FA6C3B6CB2FBF3F33E
:101ED000BB6402E0054BBB6400BFBB6C18465037C7
:101EE000BD46BDE8B08F00BF003802400024F400BA
:101EF00000127A0080B400AF034B1B681846BD4641
:101F00005DF8047B704700BF0400002080B500AF7F
:101F1000FFF7F0FF0246054B9B689B0A03F007039F
:101F20000349CB5C22FA03F3184680BD0038024017
:101F30006045000880B500AFFFF7DCFF0246054BA7
:101F40009B685B0B03F007030349CB5C22FA03F3A6
:101F5000184680BD003802406045000880B582B058
:101F600000AF78607B68002B01D1012341E07B68E2
:101F700093F83D30DBB2002B06D17B68002283F85A
:101F80003C207868FEF78CFE7B68022283F83D20B7
:101F90007B681A687B6804331946104600F06EFCB3
:101FA0007B68012283F846207B68012283F83E206B
:101FB0007B68012283F83F207B68012283F8402060
:101FC0007B68012283F841207B68012283F842204C
:101FD0007B68012283F843207B68012283F8442038
:101FE0007B68012283F845207B68012283F83D202D
:101FF000002318460837BD4680BD80B582B000AFCB
:1020000078607B68002B01D1012341E07B6893F865
:102010003D30DBB2002B06D17B68002283F83C20E8
:10202000786800F039F87B68022283F83D207B68ED
:102030001A687B6804331946104600F01FFC7B6861
:10204000012283F846207B68012283F83E207B68CA
:10205000012283F83F207B68012283F840207B68BF
:10206000012283F841207B68012283F842207B68AB
:10207000012283F843207B68012283F844207B6897
:10208000012283F845207B68012283F83D2000234C
:1020900018460837BD4680BD80B483B000AF786075
:1020A00000BF0C37BD465DF8047B704780B584B037
:1020B00000AF786039600023FB733B68002B04D1CC
:1020C0007B6893F83E30DBB213E03B68042B04D10D
:1020D0007B6893F83F30DBB20BE03B68082B04D100
:1020E0007B6893F84030DBB203E07B6893F84130C3
:1020F000DBB2BB733B68002B04D17B6893F84230A2
:10210000DBB213E03B68042B04D17B6893F84330C7
:10211000DBB20BE03B68082B04D17B6893F84430BA
:10212000DBB203E07B6893F84530DBB27B73BB7BAB
:10213000012B02D17B7B012B01D00123CCE03B683A
:10214000002B04D17B68022283F83E2013E03B6819
:10215000042B04D17B68022283F83F200BE03B680C
:10216000082B04D17B68022283F8402003E07B68BF
:10217000022283F841203B68002B04D17B680222B5
:1021800083F8422013E03B68042B04D17B680222D1
:1021900083F843200BE03B68082B04D17B680222C4
:1021A00083F8442003E07B68022283F845203B68E3
:1021B0000C2B41D801A252F823F000BFF1210008F6
:1021C00039220008392200083922000803220008B9
:1021D0003922000839220008392200081522000897
:1021E0003922000839220008392200082722000875
:1021F0007B681B68DA687B681B6842F00202DA6061
:102200001DE07B681B68DA687B681B6842F004028B
:10221000DA6014E07B681B68DA687B681B6842F050
:102220000802DA600BE07B681B68DA687B681B6871
:1022300042F01002DA6002E00123FB7300BFFB7B77
:10224000002B48D17B681B6801223968184600F0D2
:102250007FFD7B681B68224A934222D07B681B6803
:10226000B3F1804F1DD07B681B681E4A934218D083
:102270007B681B681C4A934213D07B681B681B4A0F
:1022800093420ED07B681B68194A934209D07B6841
:102290001B68184A934204D07B681B68164A934215
:1022A00011D17B681B689B6803F00703BB60BB68A8
:1022B000062B10D07B681B681A687B681B6842F08D
:1022C00001021A6007E07B681B681A687B681B685C
:1022D00042F001021A60FB7B18461037BD4680BDF4
:1022E000000001400004004000080040000C0040D5
:1022F00000040140004001400018004080B584B057
:1023000000AF78607B681B68DB68FB607B681B68DC
:102310001B69BB60BB6803F00203002B20D0FB6885
:1023200003F00203002B1BD07B681B686FF00202D6
:102330001A617B6801221A777B681B689B6903F02E
:102340000303002B03D07868FEF732F905E07868C4
:1023500000F076FA786800F07DFA7B6800221A7740
:10236000BB6803F00403002B20D0FB6803F00403D8
:10237000002B1BD07B681B686FF004021A617B681E
:1023800002221A777B681B689B6903F44073002B59
:1023900003D07868FEF70CF905E0786800F050FA91
:1023A000786800F057FA7B6800221A77BB6803F060
:1023B0000803002B20D0FB6803F00803002B1BD080
:1023C0007B681B686FF008021A617B6804221A7729
:1023D0007B681B68DB6903F00303002B03D078687C
:1023E000FEF7E6F805E0786800F02AFA786800F071
:1023F00031FA7B6800221A77BB6803F01003002BC8
:1024000020D0FB6803F01003002B1BD07B681B68F7
:102410006FF010021A617B6808221A777B681B68CC
:10242000DB6903F44073002B03D07868FEF7C0F833
:1024300005E0786800F004FA786800F00BFA7B6831
:1024400000221A77BB6803F00103002B0CD0FB6855
:1024500003F00103002B07D07B681B686FF00102BB
:102460001A61786800F0E2F9BB6803F08003002B82
:102470000CD0FB6803F08003002B07D07B681B683F
:102480006FF080021A61786800F00EFDBB6803F0FF
:102490004003002B0CD0FB6803F04003002B07D057
:1024A0007B681B686FF040021A61786800F0DCF905
:1024B000BB6803F02003002B0CD0FB6803F0200363
:1024C000002B07D07B681B686FF020021A617868C8
:1024D00000F0E0FC00BF1037BD4680BD80B586B07F
:1024E00000AFF860B9607A600023FB75FB6893F871
:1024F0003C30012B01D1022388E0FB68012283F8E4
:102500003C207B68002B1BD1FB681868BB681968EE
:10251000BB685A68BB68DB6800F056FAFB681B684A
:102520009A69FB681B6822F00C029A61FB681B68C1
:102530009969BB689A68FB681B680A439A6160E006
:102540007B68042B1CD1FB681868BB681968BB68E2
:102550005A68BB68DB6800F0DAFAFB681B689A69A6
:10256000FB681B6822F440629A61FB681B689969EA
:10257000BB689B681A02FB681B680A439A6140E0CB
:102580007B68082B1BD1FB681868BB681968BB689F
:102590005A68BB68DB6800F027FBFB681B68DA69D8
:1025A000FB681B6822F00C02DA61FB681B68D969C2
:1025B000BB689A68FB681B680A43DA6121E07B68A4
:1025C0000C2B1CD1FB681868BB681968BB685A687B
:1025D000BB68DB6800F044FBFB681B68DA69FB68DA
:1025E0001B6822F44062DA61FB681B68D969BB682A
:1025F0009B681A02FB681B680A43DA6101E0012349
:10260000FB75FB68002283F83C20FB7D18461837D9
:10261000BD4680BD80B584B000AF786039600023CE
:10262000FB737B6893F83C30012B01D10223B4E0AB
:102630007B68012283F83C207B68022283F83D20DE
:102640007B681B689B68BB60BB6823F07703BB603B
:10265000BB6823F47F43BB607B681B68BA689A60E1
:102660003B681B68B3F5005F3ED0B3F5005F00F236
:102670008780B3F5805F00F08680B3F5805F7FD8F8
:10268000702B1AD0702B7BD8602B50D0602B77D852
:10269000502B3CD0502B73D8402B58D0402B6FD8A8
:1026A000302B64D0302B6BD8202B60D0202B67D8F8
:1026B000002B5CD0102B5AD062E07B6818683B6816
:1026C00099683B685A683B68DB6800F021FB7B68CF
:1026D0001B689B68BB60BB6843F07703BB607B688B
:1026E0001B68BA689A604FE07B6818683B68996815
:1026F0003B685A683B68DB6800F00AFB7B681B6834
:102700009A687B681B6842F480429A603CE07B6870
:1027100018683B6859683B68DB681A4600F0C8F9DE
:102720007B681B685021184600F0D7FA2CE07B68C4
:1027300018683B6859683B68DB681A4600F024FA61
:102740007B681B686021184600F0C7FA1CE07B68B4
:1027500018683B6859683B68DB681A4600F0A8F9BE
:102760007B681B684021184600F0B7FA0CE07B68D4
:102770001A683B681B681946104600F0AEFA03E081
:102780000123FB7300E000BF7B68012283F83D203A
:102790007B68002283F83C20FB7B18461037BD463F
:1027A00080BD000080B485B000AF78603960002340
:1027B000FB603B680C2B31D801A252F823F000BF1C
:1027C000F52700081D2800081D2800081D280008FE
:1027D000FF2700081D2800081D2800081D280008E4
:1027E000092800081D2800081D2800081D280008C9
:1027F000132800087B681B685B6BFB600FE07B683D
:102800001B689B6BFB600AE07B681B68DB6BFB60F3
:1028100005E07B681B681B6CFB6000E000BFFB6889
:1028200018461437BD465DF8047B704780B483B00A
:1028300000AF786000BF0C37BD465DF8047B704781
:1028400080B483B000AF786000BF0C37BD465DF840
:10285000047B704780B483B000AF786000BF0C3752
:10286000BD465DF8047B704780B483B000AF7860EC
:1028700000BF0C37BD465DF8047B704780B485B05F
:1028800000AF786039607B681B68FB607B68434AF7
:10289000934213D07B68B3F1804F0FD07B68404ADE
:1028A00093420BD07B683F4A934207D07B683E4AF5
:1028B000934203D07B683D4A934208D1FB6823F0E2
:1028C0007003FB603B685B68FA681343FB607B68DE
:1028D000324A93422BD07B68B3F1804F27D07B687C
:1028E0002F4A934223D07B682E4A93421FD07B68A5
:1028F0002D4A93421BD07B682C4A934217D07B68A9
:102900002B4A934213D07B682A4A93420FD07B68AC
:10291000294A93420BD07B68284A934207D07B68B0
:10292000274A934203D07B68264A934208D1FB682A
:1029300023F44073FB603B68DB68FA681343FB6079
:10294000FB6823F080023B685B691343FB603B68D4
:102950009A687B68DA623B681A687B689A627B686F
:102960000E4A934203D07B68104A934203D13B68DE
:102970001A697B681A637B681B6843F004027B68F2
:102980001A607B6801225A617B68FA681A6000BF8E
:102990001437BD465DF8047B704700BF000001405E
:1029A0000004004000080040000C0040000401400A
:1029B0000040014000440140004801400018004030
:1029C000001C00400020004080B487B000AFF860D9
:1029D000B9607A603B60FB681B6A3B61FB681B6AFD
:1029E00023F00102FB681A62FB689B697B61FB684C
:1029F000284A93421BD0FB68B3F1804F17D0FB6885
:102A0000254A934213D0FB68244A93420FD0FB68B7
:102A1000234A93420BD0FB68224A934207D0FB68BB
:102A2000214A934203D0FB68204A934201D10123FB
:102A300000E00023002B08D07B6923F003037B61B7
:102A40007A697B6813437B6103E07B6943F0010390
:102A50007B617B6923F0F0037B613B681B01DBB288
:102A60007A6913437B613B6923F00A033B61BB68CE
:102A700003F00A033A6913433B61FB687A699A6180
:102A8000FB683A691A6200BF1C37BD465DF8047BDB
:102A9000704700BF000001400004004000080040F3
:102AA000000C0040000401400040014000180040BC
:102AB00080B487B000AFF860B9607A60FB681B6AC9
:102AC0007B61FB681B6A23F00102FB681A62FB68EA
:102AD0009B693B613B6923F0F0033B617B681B0111
:102AE0003A6913433B617B6923F00A037B617A698E
:102AF000BB6813437B61FB683A699A61FB687A693A
:102B00001A6200BF1C37BD465DF8047B704780B475
:102B100087B000AFF860B9607A603B60FB681B6A01
:102B20007B61FB681B6A23F01002FB681A62FB687A
:102B30009B693B613B6923F440733B617B681B02EB
:102B40003A6913433B613B6923F470433B613B6843
:102B50001B039BB23A6913433B617B6923F0A003DB
:102B60007B61BB681B0103F0A0037A6913437B619F
:102B7000FB683A699A61FB687A691A6200BF1C3780
:102B8000BD465DF8047B704780B487B000AFF86045
:102B9000B9607A60FB681B6A7B61FB681B6A23F083
:102BA0001002FB681A62FB689B693B613B6923F476
:102BB00070433B617B681B033A6913433B617B694C
:102BC00023F0A0037B61BB681B017A6913437B611F
:102BD000FB683A699A61FB687A691A6200BF1C3720
:102BE000BD465DF8047B704780B487B000AFF860E5
:102BF000B9607A603B60FB681B6A7B61FB681B6A9B
:102C000023F48072FB681A62FB68DB693B613B69F5
:102C100023F003033B613A697B6813433B613B69E3
:102C200023F0F0033B613B681B01DBB23A691343BD
:102C30003B617B6923F420637B61BB681B0203F467
:102C400020637A6913437B61FB683A69DA61FB6848
:102C50007A691A6200BF1C37BD465DF8047B704775
:102C600080B487B000AFF860B9607A603B60FB6801
:102C70001B6A7B61FB681B6A23F48052FB681A6243
:102C8000FB68DB693B613B6923F440733B617B6814
:102C90001B023A6913433B613B6923F470433B6178
:102CA0003B681B039BB23A6913433B617B6923F486
:102CB00020437B61BB681B0303F420437A69134301
:102CC0007B61FB683A69DA61FB687A691A6200BF66
:102CD0001C37BD465DF8047B704780B485B000AFFB
:102CE000786039607B689B68FB60FB6823F0700349
:102CF000FB603A68FB68134343F00703FB607B68A3
:102D0000FA689A6000BF1437BD465DF8047B7047CF
:102D100080B487B000AFF860B9607A603B60FB6850
:102D20009B687B617B6923F47F437B613B681A026C
:102D30007B681A43BB6813437A6913437B61FB6862
:102D40007A699A6000BF1C37BD465DF8047B704706
:102D500080B487B000AFF860B9607A60BB6803F0F8
:102D60001F03012202FA03F37B61FB681A6A7B6985
:102D7000DB431A40FB681A62FB681A6ABB6803F0FF
:102D80001F03796801FA03F31A43FB681A6200BF54
:102D90001C37BD465DF8047B7047000080B485B0E9
:102DA00000AF786039607B6893F83C30012B01D12B
:102DB00002235AE07B68012283F83C207B680222D0
:102DC00083F83D207B681B685B68FB607B681B6841
:102DD0009B68BB60FB6823F07003FB603B681B686B
:102DE000FA681343FB607B681B68FA685A607B686B
:102DF0001B68214A934222D07B681B68B3F1804F45
:102E00001DD07B681B681D4A934218D07B681B68E5
:102E10001B4A934213D07B681B681A4A93420ED018
:102E20007B681B68184A934209D07B681B68174A65
:102E3000934204D07B681B68154A93420CD1BB684F
:102E400023F08003BB603B685B68BA681343BB60D8
:102E50007B681B68BA689A607B68012283F83D2012
:102E60007B68002283F83C20002318461437BD46B7
:102E70005DF8047B704700BF000001400004004083
:102E800000080040000C00400004014000400140E8
:102E90000018004080B483B000AF786000BF0C37EA
:102EA000BD465DF8047B704780B483B000AF7860A6
:102EB00000BF0C37BD465DF8047B704780B582B01B
:102EC00000AF78607B68002B01D1012342E07B6872
:102ED00093F84130DBB2002B06D17B68002283F8E7
:102EE00040207868FDF76AFF7B68242283F8412040
:102EF0007B681B68DA687B681B6822F40052DA6022
:102F0000786800F073F97B681B681A697B681B6836
:102F100022F490421A617B681B685A697B681B68BF
:102F200022F02A025A617B681B68DA687B681B689A
:102F300042F40052DA607B6800225A647B682022E7
:102F400083F841207B68202283F842207B6800229E
:102F50005A63002318460837BD4680BD80B58AB045
:102F600002AFF860B9603B601346FB8000237B61D1
:102F7000FB6893F84130DBB2202B75D1BB68002B86
:102F800002D0FB88002B01D101236EE0FB680022F8
:102F90005A64FB68212283F84120FEF773F87861B8
:102FA000FB68FA889A84FB68FA88DA84FB689B6875
:102FB000B3F5805F08D1FB681B69002B04D10023A7
:102FC000FB61BB68BB6103E0BB68FB610023BB61C5
:102FD0002EE03B6800937B6900228021F86800F0B6
:102FE00048F80346002B05D0FB68202283F84120D7
:102FF00003233AE0FB69002B0BD1BB691B881A46FF
:10300000FB681B68C2F308025A60BB690233BB61EC
:1030100007E0FB691A78FB681B685A60FB6901339B
:10302000FB61FB68DB8C9BB2013B9AB2FB68DA84E4
:10303000FB68DB8C9BB2002BCBD13B6800937B6998
:1030400000224021F86800F014F80346002B05D058
:10305000FB68202283F84120032306E0FB6820223E
:1030600083F84120002300E0022318462037BD46A4
:1030700080BD80B586B000AFF860B9603B60134694
:10308000FB713BE03B6AB3F1FF3F37D0FDF7FAFF3E
:1030900002463B68D31A3A6A9A4202D33B6A002B33
:1030A00001D103233AE0FB681B68DB6803F00403EB
:1030B000002B23D0BB68802B20D0BB68402B1DD0B9
:1030C000FB681B681B6803F00803082B16D100235C
:1030D0007B61FB681B681B687B61FB681B685B6826
:1030E0007B617B69F86800F01DF8FB6808225A6470
:1030F000FB68002283F8402001230FE0FB681B6877
:103100001A68BB681340BA689A420CBF01230023B7
:10311000DBB21A46FB799A42B4D00023184618371E
:10312000BD4680BD80B495B000AF78607B681B68F9
:103130000C337B637B6B53E8003F3B633B6B23F4B7
:103140009073FB647B681B680C33FA6C3A64FB6316
:10315000F96B3A6C41E80023BB63BB6B002BE5D1F4
:103160007B681B6814333B623B6A53E8003FFB619A
:10317000FB6923F00103BB647B681B681433BA6CE2
:10318000FA62BB62B96AFA6A41E800237B627B6A31
:10319000002BE5D17B681B6B012B19D17B681B6869
:1031A0000C33FB60FB6853E8003FBB60BB6823F057
:1031B00010037B647B681B680C337A6CBA617B619B
:1031C0007969BA6941E800233B613B69002BE5D18D
:1031D0007B68202283F842207B6800221A6300BFAC
:1031E0005437BD465DF8047B704700002DE9B04FB1
:1031F000C0B000AFC7F8F400D7F8F4301B681B6903
:1032000023F44050D7F8F430D968D7F8F4301A686E
:1032100040EA01031361D7F8F4309A68D7F8F43024
:103220001B691A43D7F8F4305B691A43D7F8F430B6
:10323000DB691343C7F8F830D7F8F4301B68DB6854
:1032400023F4164121F00C01D7F8F4301A68D7F8AE
:10325000F8300B43D360D7F8F4301B685B6923F474
:103260004070D7F8F4309969D7F8F4301A6840EA1A
:1032700001035361D7F8F4301A688F4B9A4205D096
:10328000D7F8F4301A688D4B9A4204D1FEF752FEFB
:10329000C7F8FC0003E0FEF739FEC7F8FC00D7F8DA
:1032A000F430DB69B3F5004F40F00C81D7F8FC3007
:1032B0000022C7F8E830C7F8EC20D7E93A452246A3
:1032C0002B469118B9655B41FB65D7E9162321466A
:1032D00012EB0108294643EB01094FF000024FF0C1
:1032E00000034FEAC90343EA58734FEAC802904605
:1032F0009946234618EB0303C7F8E0302B4649EB09
:103300000303C7F8E430D7F8F4305B680022C7F84D
:10331000D830C7F8DC20D7E936120B46DB183B65FE
:10332000134642EB03037B65D7E91423D7E9380141
:10333000FCF7A6FF02460B46614BA3FB02235B0989
:103340001C01D7F8FC300022C7F8D030C7F8D420D1
:10335000D7E9348942464B469118B9645B41FB6416
:10336000D7E91223414612EB010A494643EB010B10
:103370004FF000024FF000034FEACB0343EA5A73C9
:103380004FEACA0292469B4643461AEB0303C7F82C
:10339000C8304B464BEB0303C7F8CC30D7F8F430BA
:1033A0005B680022C7F8C030C7F8C420D7E93012E4
:1033B0000B46DB183B64134642EB03037B64D7E9FF
:1033C0001023D7E93201FCF75BFF02460B4611469A
:1033D0003B4BA3FB01235B09642202FB03F3CB1AE3
:1033E000DB0003F13202364BA3FB02235B095B00D7
:1033F00003F4F8731C44D7F8FC300022C7F8B83047
:10340000C7F8BC20D7E92E8942464B469118B963CC
:103410005B41FB63D7E90E234146511839634946A6
:103420004B417B634FF000024FF00003D7E90CAB38
:103430005946CB00514643EA51735146CA001046E3
:103440001946034642469B18C7F8B0304B460A4619
:1034500042EB0303C7F8B430D7F8F4305B680022BE
:10346000C7F8A830C7F8AC20D7E92A120B46DB18FA
:10347000BB62134642EB0303FB62D7E90A23D7E999
:103480002C01FCF7FDFE02460B460D4BA3FB02137D
:103490005B09642101FB03F3D31ADB003233084AD2
:1034A000A2FB03235B0903F00702D7F8F4301B6883
:1034B00022449A6006E100BF001001400014014060
:1034C0001F85EB51D7F8FC300022C7F8A030C7F8B1
:1034D000A420D7E9288942464B46911839625B41BE
:1034E0007B62D7E9082341465418494643EB01055E
:1034F0004FF000024FF00003EB0043EA5473E20088
:1035000014461D464346E318C7F898304B4645EB32
:103510000303C7F89C30D7F8F4305B680022C7F883
:103520009030C7F894204FF000024FF00003D7E925
:10353000244529468B00214643EA917321468A009F
:10354000D7E92601FCF79CFE02460B46604BA3FB25
:1035500002235B091C01D7F8FC300022C7F8883031
:10356000C7F88C20D7E9228942464B469118B961A9
:103570005B41FB61D7E90623414651183961494651
:103580004B417B614FF000024FF00003D7E904ABE1
:103590005946CB00514643EA51735146CA00104682
:1035A0001946034642469B18C7F880304B460A46E8
:1035B00042EB0303C7F88430D7F8F4305B6800228D
:1035C000BB67FA674FF000024FF00003D7E91E898E
:1035D00049468B00414643EA917341468A00D7E948
:1035E0002001FCF74DFE02460B461146384BA3FB6B
:1035F00001235B09642202FB03F3CB1A1B01323364
:10360000334AA2FB03235B0903F0F0031C44D7F801
:10361000FC3000223B677A67D7E91C8942464B465B
:103620009118B9605B41FB60D7E90223414651180C
:10363000396049464B417B604FF000024FF0000378
:10364000D7E900AB5946CB00514643EA5173514686
:10365000CA0010461946034642469B18BB664B46B5
:103660000A4642EB0303FB66D7F8F4305B6800229E
:103670003B667A664FF000024FF00003D7E91889E5
:1036800049468B00414643EA917341468A00D7E997
:103690001A01FCF7F5FD02460B460D4BA3FB021386
:1036A0005B09642101FB03F3D31A1B013233084A7F
:1036B000A2FB03235B0903F00F02D7F8F4301B6869
:1036C00022449A6000BF07F58077BD46BDE8B08F01
:1036D0001F85EB5180B586B000AF78613961BB6062
:1036E00087ED010A1346FB817B693A691A607B69A1
:1036F000FA899A807B69BA689A607B693A6ADA606B
:103700007B697A685A627B697A6ADA627B6900222D
:103710001A767B694FF000021A627B69002283F8F7
:1037200028207B690022DA617B699A687B69DB6803
:1037300019461046FEF7BAFC00BF1837BD4680BDDB
:1037400080B584B000AF78607B681B7EDBB2012B54
:1037500004D07B681B7EDBB2022B0AD1FDF792FC02
:1037600002467B68DB69D31A1E2B02D97B680422D0
:103770001A767B681B7EDBB2002B40F08C807B6866
:10378000DB68002B0AD17B689B681B681A6A7B6820
:103790009B681B6822F00A021A6227E07B68DB68DC
:1037A000042B0AD17B689B681B681B6A7A68926845
:1037B000126823F0A003136218E07B68DB68082B13
:1037C0000AD17B689B681B681B6A7A6892681268DA
:1037D00023F42063136209E07B689B681B681B6A03
:1037E0007A689268126823F4204313627B68DB686E
:1037F000002B08D17B689B681A687B689B681B68F4
:10380000126A1A6221E07B68DB68042B08D17B68AE
:103810009B681B687A68926812681B6A136214E0DE
:103820007B68DB68082B08D17B689B681B687A681B
:10383000926812681B6A136207E07B689B681B68CA
:103840007A68926812681B6A13627B6818687B68E2
:103850009B8801221946FDF7CFFE0023FB8104E07F
:10386000FB899BB201339BB2FB81FB899BB243F680
:1038700097229342F4D97B6818687B689B88002262
:103880001946FDF7B9FEFDF7FDFB02467B68DA61DC
:103890007B6801221A7600BF1037BD4680BD00004C
:1038A00080B584B000AF786039603B681A687B6887
:1038B0009B681B689A4240F00C817B68DB680C2B8C
:1038C00028D801A252F823F0FD3800081539000865
:1038D00015390008153900080339000815390008A2
:1038E000153900081539000809390008153900088C
:1038F00015390008153900080F3900080123FB733A
:103900000BE00223FB7308E00423FB7305E00823AC
:10391000FB7302E00023FB7300BF3B681B7FFA7B55
:103920009A4240F0D6807B681B7EDBB2012B02D02E
:10393000022B6BD0CDE07B68DB6819463868FEF758
:1039400031FF02467B681A617B6802221A767B6827
:10395000DB68002B08D13B681B681A6A3B681B6850
:1039600022F00A021A6221E07B68DB68042B08D18E
:103970003B681B681B6A3A68126823F0A003136255
:1039800014E07B68DB68082B08D13B681B681B6A66
:103990003A68126823F42063136207E03B681B68EF
:1039A0001B6A3A68126823F4204313627B68DB6861
:1039B000002B08D13B681B681A6A3B681B6842F001
:1039C00002021A6285E07B68DB68042B08D13B6841
:1039D0001B681B6A3A68126843F02003136278E0A0
:1039E0007B68DB68082B08D13B681B681B6A3A6858
:1039F000126843F4007313626BE03B681B681B6A38
:103A00003A68126843F40053136262E07B68DB6833
:103A100019463868FEF7C6FE02467B685A617B6825
:103A200003221A767B68DB68002B08D13B681B6891
:103A30001A6A3B681B6822F00A021A6221E07B685E
:103A4000DB68042B08D13B681B681B6A3A68126864
:103A500023F0A003136214E07B68DB68082B08D115
:103A60003B681B681B6A3A68126823F42063136280
:103A700007E03B681B681B6A3A68126823F420431E
:103A800013627B68DB68002B06D13B681A683B68D1
:103A90001B68126A1A621BE07B68DB68042B06D184
:103AA0003B681B683A6812681B6A136210E07B6807
:103AB000DB68082B06D13B681B683A6812681B6AF2
:103AC000136205E03B681B683A6812681B6A136260
:103AD00000BF00BF1037BD4680BD00BF80B584B0B9
:103AE00000AF78607B681B7EDBB2032B27D17B683D
:103AF0005A697B681B699A4206D37B685A697B685E
:103B00001B69D31AFB600AE07B689B681B68DA6A52
:103B10007B681B69D21A7B685B691344FB60FB6896
:103B200007EE903AF8EE677A9FED277A67EE877A8C
:103B30007B68C3ED087A7B6800221A760BE07B680D
:103B40001B7EDBB2042B39D17B685A6A7B681A6210
:103B50007B6800221A767B6893ED087A7B68D3ED48
:103B6000097AB4EEE77AF1EE10FA07DA7B68D3ED62
:103B7000087AF5EEC07AF1EE10FA1AD87B6893F85D
:103B80002830FF2B07D07B6893F828300133DAB256
:103B90007B6883F828207B6893F82830012B0FD9A5
:103BA0007B68DB6A002B0BD07B68DB6A7868984700
:103BB00006E07B68002283F8282002E000BF00E0D6
:103BC00000BF1037BD4680BD96438B3C0EB400B598
:103BD0009CB01DAB029006906FF000410948079120
:103BE0000491094953F8042B05910068019302A937
:103BF00000F094F9029B00221A701CB05DF804EBEF
:103C000003B07047100000200802FFFF0244034683
:103C1000934200D1704703F8011BF9E7014B186884
:103C2000704700BF1000002070B50D4D0D4C641B97
:103C3000A4100026A64209D10B4D0C4C00F066FCE6
:103C4000641BA4100026A64205D170BD55F8043BA4
:103C500098470136EEE755F8043B98470136F2E7FE
:103C6000A4450008A4450008A4450008A84500088C
:103C70007047704738B50546002941D051F8043CDB
:103C80000C1F002BB8BFE41800F0E0F81D4A1368C1
:103C900033B9636014602846BDE8384000F0DCB8F2
:103CA000A34208D9206821188B4201BF19685B68BC
:103CB00009182160EDE71A465B680BB1A342FAD9F7
:103CC00011685018A0420BD120680144501883425B
:103CD0001160E0D118685B68536008441060DAE74F
:103CE00002D90C232B60D6E7206821188B4204BF31
:103CF00019685B68636004BF091821605460CAE7F3
:103D000038BD00BFD803002070B50F4E0C46316897
:103D1000054611B900F0A6FB30602146284600F0A8
:103D2000A1FB431C03D14FF0FF34204670BDC41CDF
:103D300024F00304A042F8D0211A284600F092FB98
:103D40000130F2D1EFE700BFD40300202DE9F843A2
:103D5000CD1C25F0030508350C2D38BF0C25002D92
:103D6000064601DBA94204D90C2333600020BDE8DC
:103D7000F883DFF8D48000F069F8D8F800301C46EA
:103D800044BB29463046FFF7BFFF431C044658D1C9
:103D9000D8F800402746002F43D1002C4BD0236891
:103DA0003946304604EB030900F05CFB814542D103
:103DB00021686D1A29463046FFF7A6FF01303AD038
:103DC00023682B442360D8F800305A6862BBC8F8D7
:103DD00000700FE02268521B20D40B2A17D96119FA
:103DE000A342256018BF5960636808BFC8F8001077
:103DF00062514B60304600F02FF804F10B00231D98
:103E000020F00700C21A1CBF1B1AA350AFE762685C
:103E1000A3420CBFC8F800205A60EBE72346646851
:103E2000AEE73C467F68B6E71A465B68A342FBD123
:103E300000235360DEE70C233360304600F00CF8BB
:103E400094E70560D6E700BFD80300200148FFF7DC
:103E50000FBF00BFD00300200148FFF70ABF00BF1B
:103E6000D00300202DE9F0478E681F46BE420B6844
:103E700082460C4690462DD8B1F90C2012F4906F72
:103E800026D06569096905EB4505A3EB010905EB3A
:103E9000D5757B1C4B446D109D4238BF1D465305A4
:103EA00027D52946FFF752FF064660B321694A46E7
:103EB00000F0E8FAA38923F4906343F08003A38120
:103EC000266165614E44A5EB09052660A5603E4666
:103ED000BE4200D93E4620683246414600F0A8FA6C
:103EE000A3689B1BA3602368334423600020BDE8C4
:103EF000F0872A4600F0D4FA06460028E0D121696E
:103F00005046FFF7B7FE0C23CAF80030A38943F0F0
:103F10004003A3814FF0FF30E9E700002DE9F04FA7
:103F200098468B891B069DB007460D46144610D552
:103F30000B6973B94021FFF709FF2860286130B988
:103F40000C233B604FF0FF301DB0BDE8F08F4023E5
:103F50006B610023099320238DF82930CDF80C8064
:103F60003023DFF89C818DF82A304FF00109234679
:103F70009A4613F8012B0AB1252AF9D1BAEB040BA2
:103F80000BD05B46224629463846FFF76BFF0130CF
:103F900000F0A780099A5A4409929AF80030002B41
:103FA00000F09F8000234FF0FF32CDE905230AF196
:103FB000010A049307938DF853301A93544605224F
:103FC00014F8011B4E48FCF70BF9049AD8B9D00637
:103FD00044BF20238DF85330110744BF2B238DF8A5
:103FE00053309AF800302A2B15D0079A54460020F7
:103FF0004FF00A0C214611F8013B303B092B4BD9FD
:10400000B0B1079214E0A0EB080309FA03F31343DD
:104010000493A246D2E7039B191D1B680391002B52
:10402000BBBF5B4242F0020207930793B8BF049202
:1040300023782E2B0AD163782A2B32D1039B1A1DA9
:104040001B68039243EAE37302340593DFF8C0A0D0
:10405000217803225046FCF7C3F838B1049BA0EB4B
:104060000A004022824013430134049314F8011BD8
:1040700024488DF828100622FCF7B2F8002836D024
:10408000214B1BBB039B073323F007030833039328
:10409000099B334409936AE70CFB02320C4601206A
:1040A000A8E700230134059319464FF00A0C204677
:1040B00010F8012B303A092A03D9002BC6D00591FC
:1040C000C4E70CFB012104460123F0E703AB009396
:1040D0002A460E4B04A93846AFF30080421C064620
:1040E000D6D1AB895B063FF52DAF09982CE703AB22
:1040F00000932A46054B04A9384600F079F8EDE70D
:10410000684500087245000800000000653E000890
:104110006E4500082DE9F047164698468A680B69F7
:10412000DDF820909342B8BF1346336091F84320E6
:1041300007460C460AB1013333602368990642BF33
:10414000336802333360256815F0060506D104F1A3
:10415000190AE36832689B1AAB4226DC94F84330B4
:104160002268003B18BF012392062BD404F14302BE
:1041700041463846C84701301ED02368226903F003
:104180000603042B02BFE5683368ED1AA3680CBF71
:1041900025EAE57500259342C4BF9B1AED18002659
:1041A0001A34B5421AD1002008E001235246414694
:1041B0003846C847013003D14FF0FF30BDE8F087E3
:1041C0000135C6E7E1185A1C302081F8430022442B
:1041D00094F8451082F843100233C7E701232246C2
:1041E00041463846C8470130E6D00136D9E70000DD
:1041F0002DE9FF470F7E0C9E782F914680460C4696
:104200009A4601F1430207D8622F0AD8002F00F026
:10421000D280582F00F0B98004F1420684F8427031
:104220003AE0A7F16303152BF6D801A151F823F06A
:10423000894200089D4200081942000819420008FE
:1042400019420008194200089D420008194200085E
:104250001942000819420008194200089D4300084D
:10426000C7420008574300081942000819420008D5
:10427000BF43000819420008C7420008194200085D
:10428000194200085F43000833681A1D1B6832603A
:1042900004F1420684F8423001239DE0336820682F
:1042A000191D3160060601D51D6803E04506FBD5E2
:1042B000B3F90050002D03DA2D236D4284F843300A
:1042C00059480A2311E021683368080653F8045B53
:1042D00002D4490648BFADB26F2F5348336014BFB4
:1042E0000A230823002184F843106668A660002E84
:1042F000A2BF216821F0040121600DB9002E4BD02E
:104300001646B5FBF3F103FB1157C75D06F8017DB7
:104310002F46BB420D46F4D9082B0BD12368DF078B
:1043200008D5236961689942DEBF302306F8013C55
:1043300006F1FF36921B2261CDF800A04B4603AA7E
:1043400021464046FFF7E6FE01304AD14FF0FF30EC
:1043500004B0BDE8F087236843F0200323603348AE
:10436000782784F84570236831681F0651F8045B8C
:1043700002D45F0648BFADB23160D90744BF43F0F5
:10438000200323601DB11023ACE72748E9E7236829
:1043900023F020032360F6E71646BDE7336825685F
:1043A0006169181D30602E061B6801D5196002E096
:1043B0006806FBD51980002323611646BCE73368E5
:1043C0001A1D32601E68626800213046FBF708FF44
:1043D00008B1801B606063682361002384F8433068
:1043E000AAE72369324649464046D0470130ADD05E
:1043F00023689B0713D4E068039B9842B8BF184614
:10440000A6E70123324649464046D04701309DD0B9
:104410000135E36803995B1AAB42F2DCEBE7002558
:1044200004F11906F5E700BF794500088A45000840
:10443000884210B501EB020402D98442234607D812
:10444000431EA14208D011F8012B03F8012FF8E711
:10445000024401468A4200D110BD13F8014D02F812
:10446000014DF7E738B5064D0023044608462B609A
:10447000FCF730FD431C02D12B6803B1236038BD2B
:10448000CC0300200A44914200F1FF3300D1704771
:1044900010B511F8014B03F8014F9142F9D110BD4D
:1044A0002DE9F041804615460C4621B9BDE8F041A2
:1044B0001146FFF74BBC2AB9FFF7DCFB002420466E
:1044C000BDE8F08100F01AF88542064602D8B5EB47
:1044D000500FF4D829464046FFF738FC074600281D
:1044E000ECD0B5422A46214628BF3246FFF7CAFF24
:1044F00021464046FFF7BEFB3C46E0E751F8043C4E
:10450000181F002BBCBF0B58C0187047F8B500BF70
:10451000F8BC08BC9E467047F8B500BFF8BC08BCA4
:044520009E467047FC
:1045240053313A2025642E256420636D2028663A91
:10453400257529207C2053323A2025642E256420B9
:10454400636D2028663A2575290D0A0000000000D5
:10455400000000000102030406070809000000002F
:1045640001020304232D302B2000686C4C00656687
:1045740067454647003031323334353637383941B0
:1045840042434445460030313233343536373839C6
:084594006162636465660000CA
:08459C0034BCFF7F01000000A8
:0445A400B501000855
:0445A8009101000875
:1045AC00010000000024F4001000000001000000D5
:1045BC00140000200000000094020020FC020020E7
:1045CC006403002000000000000000000000000058
:1045DC0000000000000000000000000000000000CF
:1045EC0000000000000000000000000000000000BF
:1045FC0000000000000000000000000000000000AF
:0400000508000F657B
:00000001FF
