:020000040800F2
:10000000B811002079020008BD3A0008D532000876
:10001000B93A0008BD0E00081D44000800000000A9
:10002000000000000000000000000000B9400008CF
:10003000C10E0008000000006540000815410008DE
:10004000930200089302000893020008930200083C
:10005000930200089302000893020008930200082C
:10006000930200089302000893020008930200081C
:10007000930200089302000893020008930200080C
:1000800093020008930200089302000893020008FC
:1000900093020008930200089302000893020008EC
:1000A000930200089302000893020008D54100085B
:1000B000E14100089302000893020008930200083F
:1000C00093020008930200089302000893020008BC
:1000D00093020008930200089302000893020008AC
:1000E000C50E00089302000893020008930200085E
:1000F000930200089302000893020008930200088C
:100100009302000893020008ED41000893020008E2
:10011000930200089302000893020008930200086B
:10012000930200089302000893020008930200085B
:10013000930200089302000893020008930200084B
:10014000930200089302000893020008930200083B
:10015000930200089302000893020008930200082B
:10016000930200089302000893020008930200081B
:1001700093020008930200089302000800000000A8
:10018000930200089302000800F002F800F065F8FE
:1001900014A696E8000CB244B344DA4501D100F04D
:1001A0005CF8BAE80F000FA696E83000A5EB04054E
:1001B00004EB0607AAEB0704A7F101074FEA1515A0
:1001C0004FEA3414A4F10104AC4201D300F045F825
:1001D00013F0010F18BFFB1A43F0010300F001F800
:1001E000DBE7184788AD0000A8AD0000103A24BF37
:1001F00078C878C1FAD8520724BF30C830C144BF8C
:1002000004680C6070470000704700000023002461
:1002100000250026103A28BF78C1FBD8520728BF16
:1002200030C148BF0B60704766290AF0A481642979
:1002300000F0F680752900F0F380002070471FB5AC
:100240000AF087F900F0C2FC04000020002109F048
:10025000AFFAE0601FBD10B510BD00F0BBFD114648
:10026000FFF7EDFF05F026FB00F0D9FD03B4FFF723
:10027000F2FF03BC00F01AFE094880470948004716
:10028000FEE7FEE7FEE7FEE7FEE7FEE7FEE7FEE746
:10029000FEE7FEE704480549054A064B70470000A3
:1002A000C141000889010008B80B0020B8110020E6
:1002B000B80D0020B80D002053EA020C00F0698050
:1002C0002DE9F04B4FF00006002B1FBFB3FA83F56A
:1002D00003FA05F424FA05F65E4012BF1643B2FA9B
:1002E00082F502FA05F4C5F120051EBF22FA05FCCD
:1002F00044EA0C04203556EA044C4FEA144418BF73
:10030000641C4FF000084FF00009904271EB030CA1
:1003100039D3002919BFB1FA81F701FA07F6B0FA0B
:1003200080F700FA07F6C7F120071EBF20FA07FC86
:1003300046EA0C062037B6FBF4FCA7EB0507103F96
:1003400007F01F0BCBF120062CFA06F60CFA0BFB7C
:1003500044BFB3460026202FA4BF5E464FF0000BDB
:100360005BEA060C08BF4FF0010B19EB0B0948EBD9
:100370000608ABFB027C06FB02CC0BFB03CCC01BCC
:1003800071EB0C01C1E70B46024641464846BDE809
:10039000F08B13B5084318BF4FF0FF300146AFF3A1
:1003A0000080BDE81C4070470FB41CB5074B06AA7F
:1003B0007B4469460090059800F0EFFB00206946F9
:1003C00000F0FEFB1CBC5DF814FB00000D080000F3
:1003D00070B5044685690068C10601D5302600E085
:1003E0002026C00707D070BDD4E9012130469047D0
:1003F000206A401C20626D1EF6D570BD70B50446A3
:1004000085690078C00707D170BDD4E9012120209B
:100410009047206A401C20626D1EF6D570BD00001A
:100420002DE9F0410646002410687529314616A5CD
:1004300010D0AFF30080002802DA404213A507E095
:1004400031688A0701D512A502E0490704D511A534
:10045000012401E0AFF3008000210A2206F1240705
:1004600009E0B0FBF2FCB0FBF2F302FB1C00303001
:1004700078541846491C0028F3D123462A463046B2
:10048000BDE8F04100F01DB9000000002D000000A3
:100490002B000000200000002DE9F0474FF0000A7B
:1004A00089460446C0F820A02046E1688847002815
:1004B00076D0252806D0D4E901219047206A401C37
:1004C0002062F1E7E168204600258847C4F81CA0B7
:1004D00006460027C4F818A02A2E09D0304609F095
:1004E00053F938B304EB8708303EC8F8186019E0B8
:1004F00059F8041B204604EB87029161E1688847A4
:10050000012F064618D1E069002820DA25F02005E1
:100510001DE0D8F8180000EB800006EB40003038F2
:10052000C8F818002046E1688847064609F02CF90B
:100530000028EED1012F0AD02E2E08D12046E168E6
:1005400088477F1C0646022F45F02005C4DBA069C2
:10055000002803DA404245F00105A061E80701D018
:1005600025F01005B6B1A6F14100192802D82036B1
:1005700045F400654A463146204625604D46FFF762
:1005800053FE58B1012806D0ED1D25F0070000F1FB
:10059000080989E704E005F1040985E730468AE7A0
:1005A000206ABDE8F08710B5431C02E010F8011B7B
:1005B00071B18107FAD14FF0013202C88C1A8C4315
:1005C00014EAC211F9D0C01A0A0603D0C01E10BD29
:1005D000C01A10BD0A0401D0801E10BD0902FCD053
:1005E000401E10BD10B5203AC0F00B80B1E8185085
:1005F000A0E81850B1E81850A0E81850203ABFF40D
:10060000F5AF5FEA027C24BFB1E81850A0E81850AB
:1006100044BF18C918C0BDE810405FEA827C24BFFF
:1006200051F8043B40F8043B08BF7047D20728BF8D
:1006300031F8023B48BF11F8012B28BF20F8023BDC
:1006400048BF00F8012B704702F0FF0343EA032282
:1006500042EA024200F002B84FF0000200B5134631
:1006600094469646203922BFA0E80C50A0E80C50D2
:10067000B1F12001BFF4F7AF090728BFA0E80C5083
:1006800048BF0CC05DF804EB890028BF40F8042B7C
:1006900008BF704748BF20F8022B11F0804F18BFE9
:1006A00000F8012B704770477047704710B500F095
:1006B00091FA006810BD10B5044600F08BFA046092
:1006C00010BD2DE9F0470D4699469246044600F1CB
:1006D00024080168880604D5E06921F01001216032
:1006E00000E00120A84201DD471B00E00027A169CE
:1006F0007A1902EB0900081AA0612078C00602D41A
:100700002046FFF765FE002608E0D4E901211AF82B
:1007100006009047206A401C761C20624E45F4DBA0
:100720002078C0060AD52046FFF752FE06E0D4E93D
:10073000012130209047206A401C2062381EA7F11A
:100740000107F4DC07E0D4E9012118F8050090471F
:10075000206A401C2062281EA5F10105F3DC20461A
:10076000FFF74CFE2078000602D50220BDE8F08796
:100770000120FBE72DE9FF4F0C461E464FF0FF37E7
:100780008BB0D2E90001DDF860800A908A46C1F39F
:100790000A5505B93D46002108464FF00000BAF160
:1007A000000F00F4400005DA00EB80004FF4400138
:1007B00001EA50004FEA9059B9F1010F00DDB94646
:1007C0000A9850EA4A000ED044F61050A5F2FF35C0
:1007D00045432F14B8F1000F1ED07542291E1EDDAF
:1007E000C9F100021CE0B8F1010F4FF0000001D088
:1007F000302103E0F24305E02154401CB042FBDB12
:1008000030460022002121540B99C1F80880C1E92B
:1008100000200FB0BDE8F08FBD1B6D1CDEE74A461F
:1008200000DA694206A800F05FFA06AB93E8070019
:1008300003AB83E8070050460A9907F00FFB8DE8E9
:100840000700A0F500501F3800900398002D0ADD26
:1008500042F21F014A460844002303A90390684658
:1008600007F078FD09E0A0F500504A461F38002344
:1008700003A90390684607F082FD8DE80700000495
:10088000000C03D04FF0FF30410800E01046B8F1F3
:10089000000F03D00022009215461EE0751E05D4FD
:1008A00000F09CF9303262556D1EF9D5B346012235
:1008B000084302D000227F1C04E02078302801D1B8
:1008C00000227F1E002A099784D01DE0112D07DA2F
:1008D00000F084F9303262556D1C50EA0102F5D106
:1008E000084302D00098C8B10EE00021681E05E060
:1008F000235C625C63542254401E491C8142F7DB36
:10090000AB46A81B401E0990002004F80B000B9872
:10091000099AC0F80880C0E9002B7AE711264FF049
:10092000000857E72DE9F04F88460446D21D22F013
:10093000070191B0D1E90001CDE90A0107F056FEA7
:1009400002460B98C00F01D02D2007E020688107D8
:1009500001D52B2002E0202101EAC000032A0990E2
:1009600001D0072A05DB03464146204600F07CF90A
:100970000BE12078800601D5E06900E00620B8F19F
:10098000650F814606D0B8F1660F18D0B8F1670F31
:1009900070D131E00020B9F1110F009001DB11237B
:1009A00001E009F101030AAA01A90CA8FFF7E2FE80
:1009B000DDE90C70002609F10105834647E00120BE
:1009C0004B4600904FF000470AAA01A90CA8FFF778
:1009D000D1FEDDE90DB00C995D46002610B909F194
:1009E00001000D18B9EB050003D4C0F1FF3609F181
:1009F0000105A5EB09002BE0B9F1010F01DA4FF079
:100A000001090020B9F1110F0090484601DD1123C2
:100A100000E003460AAA01A90CA8FFF7ABFEDDE936
:100A20000C704D4600268346207800070AD4AB455B
:100A300000DA5D4601A8012D04DD411911F8011C01
:100A4000302907D04F4502DA17F1040F04DA0120EC
:100A500082460FE06D1EEEE7002F02DCED1B3E44E8
:100A600003E0781CA84200DD7D1CB81B00F1010AE0
:100A70004FF000472078000703D4AA4501DB4FF070
:100A8000FF3A0021B7F1004F0DF143088DF84310F4
:100A900024D002202B23002F01DA7F422D230A21AC
:100AA000021EA0F1010000DC5FB197FBF1FC97FB97
:100AB000F1F201FB1C7C17460CF1300C08F801CD5B
:100AC000EEE7A8F1010003702188090501D5452151
:100AD00000E06521A0F1010800F8011C09980FA9A8
:100AE000A1EB0807FF1D00B10120411901EBEA70DD
:100AF000A1693844081A401EA0612078C00602D4BB
:100B00002046FFF765FC099828B1D4E901219047F8
:100B1000206A401C20622078C00622D52046FFF7BC
:100B200057FC1EE0002E04DBB34502DD01A8805D0A
:100B300000E03020D4E901219047206A401C206267
:100B4000761CAAF101005FEA000A0AD100F03EF823
:100B5000C0680168405CD4E901219047206A401CCC
:100B60002062281EA5F10105DCDC07E0D4E90121A3
:100B700018F8010B9047206A401C2062381EA7F12C
:100B80000107F3DC2046FFF739FC032011B041E6F2
:100B900001694A1C02610878704700B58FB0CDE941
:100BA00001310021059105497944CDE90310114631
:100BB0006846FFF771FC0FB000BD0000E5FFFFFFC6
:100BC0000A6802F8010B0A6070470000004870478D
:100BD00050000020004870473000002030B5B0F1D0
:100BE0000A0271F100034FEA900E4EEA817EB0EBEB
:100BF0000E0061EB91014FEA101E4EEA017E10EBF0
:100C00000E0041EB11114FEA102E4EEA016E10EB6F
:100C10000E0041EB11214FEA104E4EEA014E10EB4F
:100C20000E0041EB1141401841F100014FEAD000A4
:100C300040EA41704FEAD1014FEA810444EA9074DE
:100C400010EB800544EB01046D1944EB0404521BC6
:100C5000A3414FF0000348BF0A3200D530BD401C0D
:100C600041F1000130BD00002DE9F0411F4604466E
:100C700003260168072A01F4006004DB08B116A509
:100C800005E016A503E008B115A500E015A521F0C3
:100C900010002060A069C01EA0610FB1401EA061BD
:100CA0002046FFF795FB4FB1D4E901213846904724
:100CB000206A401C2062C01C206206E0206AFAE71D
:100CC000D4E9012115F8010B9047761EF8D2204691
:100CD000FFF794FBBDE8F0814E414E006E616E005F
:100CE000494E4600696E66002DE9F047814616467A
:100CF0008AB0354878440DC88DE80D0032487844F4
:100D0000801C03AC0DC884E80D0041F69B300844FC
:100D1000372190FBF1F290FBF1F5A5F1800501FB85
:100D200012041B3C02D56442012000E00020DFF8E1
:100D300098A080460027FA44AAF1BE0A0EE0E00718
:100D40000AD03246684607EB470101230AEB8101CE
:100D500007F015FB8DE8070064107F1C002CEED116
:100D6000194F7F44AE3F19E0E80715D007EB041098
:100D70000DF1180A90E80E008AE80E00C068F042F3
:100D800001D1981908903246012306A903A807F05B
:100D9000F6FA03AB83E807006D10641C002DE3D165
:100DA0004FF0010332466946B8F1000F03A802D0A4
:100DB00007F0D0FA01E007F0E2FAC9E90001C9F84A
:100DC00008200AB0BDE8F0874C9A00000048704740
:100DD000300000207546FFF7F9FFAE460500694672
:100DE000534620F00700854618B020B5FFF752FAA9
:100DF000BDE820404FF000064FF000074FF000081C
:100E00004FF0000BAC46ACE8C009ACE8C009ACE858
:100E1000C009ACE8C00921F007018D46704710B544
:100E20000446AFF300802046BDE81040FFF71EBA2D
:100E300030B44FF0013C50F8042B51F8043BCCFA8D
:100E400052F4D51A20D1FCB950F8042B51F8043BC8
:100E5000CCFA52F4D51A17D1B4B950F8042B51F882
:100E6000043BCCFA52F4D51A0ED16CB950F8042BCD
:100E700051F8043BCCFA52F4D51A05D1002CDAD043
:100E800030BC4FF00000704729BAB1FA81F111F07F
:100E90001801D1F120008440F2D1CA40CB4012F0B9
:100EA000FF0213F0FF0330BCD01A7047014918202D
:100EB000ABBEFEE72600020070470000FEE7000020
:100EC000704700004FF4805000F0FAB8B0B5044607
:100ED00000F0D8F9054640F20000C2F200000078A8
:100EE000611C18BF044400BF00F0CCF9401BA042B5
:100EF000FAD3B0BDB0F5805F18BF7047B0B584B00D
:100F000002200DF10E01CDE9001040F2A8700A2573
:100F1000C2F20000D02147220123029500F06AFAB4
:100F2000BDF80E009FED5D1AC1BA00EE101AB8EEC2
:100F3000C00A80EE011A00BA010C40F2E010C2F2C1
:100F4000000090ED020A9FED563A9FED564A41800F
:100F500080ED011A31EE401AB0EEC12AB4EE432AF8
:100F6000B0EE415A9FED503AF1EE10FAB8BFB0EE34
:100F7000445A90ED044A25EE035A35EE044A80EDBA
:100F8000044A90ED044A9FED495AB4EE454AF1EE09
:100F900010FA07DD90ED044A9FED455A34EE054AFC
:100FA00080ED044A90ED044A9FED425AB4EE454A62
:100FB000F1EE10FA07DA90ED044A9FED3F5A34EE55
:100FC000054A80ED044A40F22015C2F2000595ED75
:100FD000044A40F24014B0EEC44AB4EE434AF1EE83
:100FE00010FAC2F200041DDA94ED044AB0EEC44ACD
:100FF000B4EE434AF1EE10FA14DA40F20801C2F2FC
:10100000000191ED013A33EE033AB4EE432AF1EEDA
:1010100010FA07DC9FED292A21EE021A31EE000AB0
:1010200080ED020A0178013101700178022931D383
:101030000021017095ED061A90ED050A90ED062A43
:1010400094ED063A31EE400A73EE420A80ED051A3D
:1010500080ED063A02F090FC287F48B100F012F9CA
:10106000A968401AC92822BF0020C5E904002877D2
:10107000207F48B100F006F9A168401AC92822BFB4
:101080000020C4E90400207705F0CEF902F006FE46
:1010900004F094FF04B0BDE8B04070470000034383
:1010A000CDCC4C3D000000000AD7233C0000344367
:1010B0000000B4C3000034C30000B44317B7513A72
:1010C00043F61441C4F201010A68024214BF0860E9
:1010D0007047FFF70FBF00002DE9F04F83B000F11C
:1010E000200200F13E4741F60045009207F1FF77EC
:1010F000C4F2020508224FEAB726A84208BF072219
:1011000000254FF000084FF00009072E38BF4FEAC6
:10111000B72201920AE000BF09F1010908F10208B3
:10112000B9F1100F05F1040500F0A2800F6801224B
:1011300002FA09FE17EA0E0AEED0D1F804C0032223
:101140000CF003077E1E02FA08F4012E6FEA040B6E
:1011500012D88468CE6804EA0B0406FA08F6344311
:101160008460446824EA0E06CCF3001404FA09F4FF
:101170002643466004E000BF032F01D103271EE091
:10118000C6688C6806EA0B0604FA08F42643022FA8
:10119000C66014D16FF00302009E02EA590756F8A8
:1011A00007C005F01C040F220B69A2402CEA0202C2
:1011B000A3401A43F251D1F804C00CF003070268AF
:1011C00007FA08F302EA0B021A431CF4403F0260DC
:1011D000A2D0002243F644030292C4F202031A682A
:1011E00043F6004442F480421A601A68C4F20104D3
:1011F00002F480420292029A29F003024FF6084C50
:101200002244CFF6FF7C52F80C3005F00C070F2675
:10121000BE40B343019E06FA07F73B4342F80C3049
:10122000A2684B6842EA0A0743F60C4CDE0258BF3C
:1012300022EA0A07A760C4F2010CDCF800209E0233
:1012400042EA0A0758BF22EA0A07CCF8007062682F
:101250009E0342EA0A0758BF22EA0A07676022682B
:10126000DB0342EA0A0758BF22EA0A07276053E76E
:1012700003B0BDE8F08F0000002A08BF09048161B7
:101280007047000040F6B430C2F2000000687047BA
:10129000002804BF01207047F0B581B0044690F8E3
:1012A0003D0028B9002084F83C00204600F07CFA7C
:1012B000242084F83D002068016821F001010160CC
:1012C000016841F400410160016821F400410160BE
:1012D00000F08EFC636848F2A16CC0F2010C40F68D
:1012E0000011C0F23D0163453CBF48F28041C0F2AD
:1012F0001E01884202D2012001B0F0BD4DF683618B
:10130000C4F21B31A0FB01122168970CD1F804E054
:101310004FF496762EF03F0545EA92454D607743AF
:1013200048F638160D6AC0F24106A7FB067625F08E
:101330003F07634538BF960C721C3A430A62CA697C
:1013400048F2A0664CF6FF77C0F20106B34222EAEB
:1013500007020BD801385B00B0FBF3F001306FF3EC
:101360001F30042898BF04201BE000BFA768013885
:1013700057B119277B43B0FBF3F001306FF31F30F7
:1013800070B100F5804007E003EB4303B0FBF3F0DE
:1013900001306FF31F3018B100F5004001E000BFCD
:1013A00001201043C8610868D4E9072320F0C00079
:1013B000104318430860886848F2FF3204F10C07B4
:1013C00090438CCF18431043A6698860C86820F00A
:1013D000FF0038433043C860086840F001000860EF
:1013E00000202021206484F83D10206384F83E0012
:1013F00001B0F0BD2DE9F04784B0994616460F467E
:101400000446FFF73FFF94F83D10202927D10546F9
:10141000206800BF816989071CD5FFF733FF411B96
:1014200020681A29F6D381698907F3D50020202185
:10143000206384F83D1084F83E00206C04F13C0ADF
:1014400040F020002064022000218AF8001004B03F
:10145000BDE8F087A2461AF83C1F012904D10220FA
:1014600004B0BDE8F08700BF01228AF800200368BD
:10147000DDE90D180C9ADB0703D1036843F0010383
:101480000360036823F400630360222084F83D00B6
:10149000402084F83E000020206462626185608DF7
:1014A000394620850020CFF6FF70E06220463246A4
:1014B0004B46CDE9008501F00FFF18B1012004B0C3
:1014C000BDE8F087208D08B3022813D0012835D15C
:1014D00021680A6822F480620A60002203924A6945
:1014E00003928A690392039A0A6842F400720A60BE
:1014F0002CE000BF21680A6822F480620A600A6852
:1015000042F400620A60002203921AE00020039075
:10151000206841690391816903910399016841F44D
:1015200000710160202084F83D00002084F83E0016
:1015300000218AF8001004B0BDE8F0870021039173
:1015400021684A6903928969039103990427C0F2CB
:1015500001070CE010690870606A218D013060623B
:10156000481E2085618D013961850104DAD080B281
:1015700003280FD802284AD001282DD12046414601
:101580002A4602F047F9002898D12068616A00696C
:10159000E1E700BF204641462A4602F03BF9002819
:1015A0007FF48CAF2068616A00690870606A226805
:1015B000411C208D616201382085638D013B63856C
:1015C00053695B07D1D580B20328C3D1106820F4DA
:1015D00080601060BEE700BF2046394600224346C7
:1015E000009501F0C5FF00287FF468AF2068616AAC
:1015F000026822F48062026000690870606A218DCE
:1016000001306062481E2085608D0138608520466B
:10161000394600224346009501F0AAFF00287FF4D6
:101620004DAF2068616A026842F40072026000698E
:101630000870606A2268411C6162218D0139218530
:10164000618D013961851169417085E72DE9F043AC
:1016500083B0994616460F460446FFF713FE94F8EA
:101660003D10202924D10546206800BF81698907E3
:101670001AD5FFF707FE411B20681A29F6D38169A6
:101680008907F3D500202021206384F83D1084F8D9
:101690003E00216C41F02001216484F83C000220CE
:1016A00003B0BDE8F08300BF94F83C10012903D1DA
:1016B000022003B0BDE8F083012284F83C200368D7
:1016C000DDE90B180A9ADB0703D1036843F0010335
:1016D0000360036823F400630360212084F83D0065
:1016E000402084F83E000020206462626185608DA5
:1016F000394620850020CFF6FF70E0622046324652
:101700004B46CDE9008501F071FE18B1012003B010
:10171000BDE8F083208D98B9204641462A4601F065
:10172000C9FE88B3206C0428F0D12068016841F418
:1017300000710160012003B0BDE8F0830004EBD02C
:10174000204641462A4602F0ADF80028EAD1616AF7
:101750002268084610F8013B1361238D6062581E11
:101760002085678D013F678557697F07E6D50704A8
:10177000E4D048781061881C6062981E2085618DD5
:1017800001396185DAE700BF2068016841F4007122
:101790000160202084F83D00002084F83E0084F899
:1017A0003C0003B0BDE8F0832DE9F04786B0006847
:1017B00045F60041C4F2000100258842CDE90455F8
:1017C000CDE9025501955FD045F60001C4F2000154
:1017D00088422FD045F20041C4F20001884240F017
:1017E0009A80002443F630050094C4F2020528686C
:1017F00001A940F002002860286800F00200009073
:1018000000984FF4407001901220CDE902040320AB
:1018100004900420059040F20040C4F20200FFF75B
:101820005BFC0094286940F400102861286900F4EA
:1018300000106EE0002443F630050094C4F2020567
:10184000286801A940F002002860286800F0020022
:10185000009000984FF4406001901220CDE90204FE
:10186000032004900420059040F20040C4F20200DE
:10187000FFF732FC0094286940F480002861286951
:1018800000F4800045E000BF43F630060095C4F246
:101890000206306840F2004740F0040030603068D3
:1018A000C4F2020700F00400009000980095306830
:1018B00001AC40F00100306030684FF0120800F0D9
:1018C0000100009000984FF4007001904FF0030960
:1018D0004FF0040A07F580602146CDE90285CDF876
:1018E0001090CDF814A0FFF7F7FB4FF48070CDE90E
:1018F000010803A880E82006A7F580602146FFF7CD
:10190000EBFB0095306940F400003061306900F471
:1019100000000090009806B0BDE8F08740F200009B
:1019200040F6B431C2F20000C2F2000100780A6849
:10193000104408607047000080B543F60040C4F2D0
:101940000200016841F400710160016841F48061A6
:101950000160016841F480710160032000F086F8A5
:101960000F2000F005F800F027F8002080BD0000EF
:1019700070B540F20006C2F2000640F21001327863
:10198000C2F200014FF47A730968B3FBF2F2044625
:10199000B1FBF2F1084600F061FB0F2C4FF001059E
:1019A00008D838B94FF0FF3021460022002500F05A
:1019B00031F87460284670BD82B0002043F64001C3
:1019C0000190C4F202014A6842F480424A604A68C7
:1019D00002F480420192019A0090086840F0805021
:1019E0000860086800F080500090009802B07047CE
:1019F000002848BF704700F01F01012202FA01F1E0
:101A00001C2202EAD0004EF20012CEF200028150F7
:101A10007047000010B54EF60C5CCEF2000CDCF8FE
:101A20000030C3F3022E8EF00704042C28BF0424D8
:101A3000BEF103034FF0FF3E0EFA04F438BF00235B
:101A4000A14399400EFA03F39A43114300F00F02A9
:101A500000F160430901043A03F56443624400283D
:101A600048BF02F10C03197010BD00004EF60C5176
:101A7000CEF200010A684FF6FF031A4060F30A2213
:101A800042F0806040F0FD7008607047002804BF9D
:101A9000012070472DE9F04143F60808C4F202081E
:101AA0000446D8F8F8030D4600F00700814207D934
:101AB00088F8F853D8F8F80300F00700A84277D167
:101AC0002068810717D5410705D5D8F8001041F4E3
:101AD000E051C8F80010010705D5D8F8001041F40E
:101AE0006041C8F80010D8F80010A26821F0F00199
:101AF0001143C8F80010C00740D1D8F8F80300F02F
:101B00000700854207D288F8F853D8F8F80300F0A8
:101B10000700A8424CD12068410707D5D8F800102B
:101B2000E26821F4E0511143C8F80010000708D51D
:101B3000D8F80000216920F4604040EAC100C8F8EC
:101B4000000000F07DF8D8F800104AF25C72C1F392
:101B50000311C0F60002515C40F2100220FA01F1BC
:101B600040F20400C2F200000068C2F200021160FC
:101B7000FFF7FEFE0020BDE8F08100BF6068811E17
:101B8000022907D258F8081C89015CBF0120BDE872
:101B9000F08111E0012807D158F8081C89035CBFC7
:101BA0000120BDE8F08107E058F8081C890703D43C
:101BB0000120BDE8F08100BFD8F8001021F003013A
:101BC0000843C8F80000FFF75DFB064641F288377E
:101BD000D8F80000616800F00C00B0EB810F8CD0E9
:101BE000FFF750FB801BB842F2D90320BDE8F0811B
:101BF00040F2100043F60801C2F20000C4F20201F4
:101C0000006809684AF26C72C1F38221C0F60002D2
:101C1000515CC8407047000040F2100043F60801D4
:101C2000C2F20000C4F20201006809684AF26C7254
:101C3000C1F34231C0F60002515CC8407047000059
:101C400010B543F60404C4F202046168C1F38101D3
:101C500042F20040C0F2F400DFE801F002040A02A0
:101C600010BD00BF41F20020C0F27A0010BD00BFDD
:101C7000216801F03F02216823684902C3F38811FB
:101C800006D4A1FB00010023FEF716FB07E000BF0E
:101C900041F20020C0F27A004843B0FBF2F0216824
:101CA0000222C1F3014102EB4101B0FBF1F010BD92
:101CB000002804BF012070472DE9F04182B004469E
:101CC000007843F60006C007C4F202060CD0B068E4
:101CD00000F00C00042840F081803068800303D5B8
:101CE0006068002800F06881207880071BD5B06804
:101CF00010F00C0F09D0B06800F00C00082840F07C
:101D000087807068400200F183803068800703D5C7
:101D1000E068012840F050813068216920F0F80027
:101D200040EAC10030602078000713D420784007D3
:101D30002AD4A569002D00F03A81B06800F00C00AB
:101D4000082840F0A580012D40F00E81012002B04E
:101D5000BDE8F0816069002800F082800020C4F2B4
:101D600047200121C0F8801EFFF78CFA054600BF0E
:101D7000706F8007DAD4FFF785FA401B0228F7D985
:101D8000032002B0BDE8F081306C5FEAC0080AD4DD
:101D900000200190306C40F080503064306C00F0D6
:101DA00080500190019847F20007C4F2000738689C
:101DB000C00547D4386840F480703860FFF762FA95
:101DC000054600BF3868C0053CD4FFF75BFA401BEE
:101DD0000228F7D9032002B0BDE8F081B06800F016
:101DE0000C00082803D1706840023FF576AF6168A7
:101DF0003068B1F5803F07D0B1F5A02F40F09A8050
:101E000040F480203060306840F4803030609AE0E8
:101E1000E068002840F20000C4F247205CD00121B5
:101E20000160FFF72FFA0546306880073FF574AF71
:101E3000FFF728FA401B0228F6D9032002B0BDE8BC
:101E4000F08100BFA168306F012905D0052955D167
:101E500040F004003067306F40F00100306756E01A
:101E60000020C4F247200021C0F8801EFFF70AFAC4
:101E7000054600BF706F80077FF558AFFFF702FA85
:101E8000401B0228F6D9032002B0BDE8F08100BF54
:101E90000027C4F2472700203866FFF7F3F9022D28
:101EA00005460DD13068800140F18A80FFF7EAF9DC
:101EB000401B02284FF00300F4D902B0BDE8F081C6
:101EC0003068800173D5FFF7DDF9401B02284FF021
:101ED0000300F5D9F1E700BF00210160FFF7D2F957
:101EE000054600BF306880077FF51DAFFFF7CAF9D0
:101EF000401B02284FF00300F4D9DEE720F0010078
:101F00003067306F002920F0040030677AD0FFF787
:101F1000B9F9054641F28837306F800700F18480B7
:101F2000FFF7B0F9401BB842F6D9032002B0BDE874
:101F3000F08100BF20F4803030603068002920F448
:101F4000802030607AD0FFF79DF905463068800325
:101F50003FF5CAAEFFF796F9401B6428F6D9032077
:101F600002B0BDE8F08100BF7068E16900F4800252
:101F70008A4221D1216A00F03F028A421CD147F6F1
:101F8000C071626A0140B1EB821F15D1A16A4FF6A0
:101F9000FF73C903994300F44032A1F580318A42AE
:101FA0000AD1E16A00F07060B0EB016F04D100204B
:101FB00002B0BDE8F08100BF012002B0BDE8F081B1
:101FC00004F11C052FCD084340EA8210D9034FF6D7
:101FD000FF729143A1F5803140EA056008437060CB
:101FE00001203866FFF74EF9044600BF30688001D3
:101FF000DDD4FFF747F9001B02284FF00300F5D9A5
:102000005BE700BFFFF73EF9054641F2883700BFA6
:10201000306F800708D5FFF735F9401BB8424FF005
:102020000300F5D949E700BFB8F1000F3FF581AED5
:10203000306C20F0805030647BE600BFFFF722F95F
:10204000054600BF306880037FF54EAEFFF71AF9F2
:10205000401B64284FF00300F4D92EE7411E0020F6
:10206000B0EB116F1CBF012070474EF21002CEF290
:10207000000251604EF62351CEF20001F0230B70A6
:1020800007219060116070477047000070470000A2
:1020900090F83C20012A4FF0020254D010B580F88D
:1020A0003D200268D2F804E0D2F808C00C682EF097
:1020B0007003234341F2FF74C4F20004A242536050
:1020C0000EDC40F2FF73C4F200039A4216DCB2F158
:1020D000804F2BD040F20043C4F2000324E000BF45
:1020E00040F2FF33C4F201039A4213DC41F60003CD
:1020F000C4F200039A4219D0002313E040F6000313
:10210000C4F200039A4211D040F60043C4F2000327
:102110000AE000BF44F20003C4F201039A4205D072
:1021200040F20043C4F201039A4204D149682CF002
:102130008003194391600121002280F83D1080F84E
:102140003C20BDE81040104670470000002804BF46
:102150000120704710B5044690F83D0028B90020D2
:1021600084F83C00204600F01FF8022084F83D006F
:102170002068211D02F040F8012084F8460084F810
:102180003E0084F83F0084F8400084F8410084F861
:10219000420084F8430084F8440084F8450084F841
:1021A0003D00002010BD000080B586B0006840F200
:1021B000FF71C4F2000188424FF000010591CDE9A2
:1021C0000311CDE9011145DD40F60001C4F2000123
:1021D00088425BD040F60041C4F20001884267D0DB
:1021E0000021C4F20101884240F0C380002043F680
:1021F00040010090C4F202014A6842F001024A60C4
:102200004A6802F001020092009A009051F8102CE6
:1022100042F0100241F8102C51F8101C01F010018E
:10222000009100994FF4D44101910221CDE90210AF
:102230000490012005900020C4F2020000F58050B7
:1022400001A9FEF749FF1B2004210022FFF7E2FB52
:102250001B208CE0B0F1804F5AD040F20041C4F214
:102260000001884240F085800020009043F6400045
:10227000C4F20200016841F002010160006800F050
:1022800002000090009806B080BD00BF00200090C2
:1022900043F64000C4F20200016841F0040101600D
:1022A000006800F004000090009806B080BD00BFF8
:1022B000002043F640010090C4F202010A6842F097
:1022C00008020A600A6802F008020092009A009070
:1022D00051F8102C42F0010241F8102C51F8101C5A
:1022E00001F00101009100990221CDE903000020D5
:1022F000CDE901110591C4F2020001A9FEF7ECFE3F
:10230000322001210022FFF785FB32202FE000BFA1
:10231000002043F640010090C4F202010A6842F036
:1023200001020A600A6802F001020092009A00901D
:1023300051F8102C42F0010241F8102C51F8101CF9
:10234000022201F00101009100990121CDE9022052
:10235000CDE9040100200191C4F2020001A9FEF7B9
:10236000BBFE1C2001210022FFF754FB1C20FFF7BD
:102370003FFB06B080BD000090F83C20012A4FF0E2
:1023800002026CD080B580F83D20D0F800C04FF636
:102390007772DCF8083023EA0202CCF808200B68D8
:1023A0004F2B29DC1F2B45DD202B46D0302B44D072
:1023B000402B40F0AF80D1F804E0C968DCF8203051
:1023C000DCF8202022F00102CCF82020DCF81820D4
:1023D00022F0F00242EA011123F00A0242EA0E0260
:1023E000CCF81810CCF82020DCF8081041F0470198
:1023F00021F0300128E000BF6F2B33DDB3F5005F23
:1024000074D0B3F5805F21D0702B40F08380D1E988
:1024100001E3C968DCF8082043EA0E0322F47F4296
:1024200043EA01211143CCF80810DCF8081041F010
:10243000770109E00BB1102B6CD1DCF8081021F00A
:102440007001194341F00701CCF808100022012166
:1024500080F83D10002180F83C10BDE88040104617
:10246000704700BF502B21D0602B53D1D1F804E02E
:10247000C968DCF82030DCF8202022F01002CCF80B
:102480002020DCF8182022F4704242EA013123F0C7
:10249000A00242EA0E12CCF81810CCF82020DCF88A
:1024A000081041F0670121F01001CDE7D1F804E0F8
:1024B000C968DCF82030DCF8202022F00102CCF8DA
:1024C0002020DCF8182022F0F00242EA011123F06B
:1024D0000A0242EA0E02CCF81810CCF82020DCF8F0
:1024E000081041F0570121F02001ADE7D1E901E3E7
:1024F000C968DCF8082043EA0E0322F47F4243EA6D
:1025000001211143CCF80810DCF8081041F4804197
:102510009AE700BF01229AE710B50446FEF7B2FE23
:1025200040F26C71C2F20001086020680022C4F21F
:102530000102904246D040F60042C4F200029042AE
:1025400022D0B0F1804F1DD13420C4F200000368C6
:1025500040F21C10C2F20000826804699A1A0968ED
:102560000134652AC0E90231046180F0818090F96C
:102570000010B1F1FF3F40F3A28090F90010012953
:1025800080F2AA8010BD00BF40F63840C4F20000BF
:10259000036840F21C10C2F20000826A046B9A1AAF
:1025A00009680134652AC0E90A31046324D290F92C
:1025B0000110B1F1FF3F45DD90F9011001294DDA1D
:1025C000E0E700BF207F012818BF10BD40F27871FE
:1025D0002020C2F20001C4F201000B7C4269002BF2
:1025E00000F084804A604A680B689A4240F2868014
:1025F0004A680B68D21A87E0426200EE102A9FED0B
:10260000521A90F90110B8EE400A81EE001AB1F1A9
:10261000FF3FDCBFB1EE412A80ED0D2A90F9011099
:102620000129A8BF80ED0D1A9FED481A012181EE06
:10263000000A80F8401080ED0E0A90F90110B1F107
:10264000FF3FB9DC90ED0F0A9FED411A30EE010A11
:1026500080ED0F0A90F90110012993DB90ED0F0A2C
:102660009FED3C1A30EE010A80ED0F0A10BD00BF4D
:10267000426000EE102A9FED341A90F90010B8EE77
:10268000400A81EE001AB1F1FF3FDCBFB1EE412AF2
:1026900080ED052A90F900100129A8BF80ED051AE8
:1026A0009FED2A1A012181EE000A80F8201080EDAA
:1026B000060A90F90010B1F1FF3F3FF75EAF90EDD1
:1026C000070A9FED231A30EE010A80ED070A90F900
:1026D00000100129FFF656AF90ED070A9FED1D1A75
:1026E00030EE010A80ED070A10BD00BF0A6001222A
:1026F0000A74016841F00201016010BD0A684B686C
:102700009A1A4FF6FF731A448A608A6846F2A81331
:102710009A4203D942F20F720BE000BF8A6848F276
:102720001F5302EB0212C5F2EB13A2FB0323C3F308
:102730004F12CA6001224A7400220A74016821F013
:102740000201016010BD00BFB8881F46001B374A58
:102750006CDB29BC6CDB293C90F83C30012B04BFBE
:10276000022070474FEAB202032A00F28D80F0B5D2
:10277000DFE802F0026426460368D1E900C5D1F81B
:102780000CE01C6A1A6A41F2FF7722F001021A6219
:102790001A4652F8186FC4F20007BB427ADC40F2C6
:1027A000FF77C4F20007BB4200F38280B3F1804F91
:1027B00000F0968040F20047C4F200078EE000BFB0
:1027C0000768D1E900C5D1E902313C6A3A6A61F390
:1027D000071522F480723A623A4652F81C6F26F0CE
:1027E000F30645EA060124F420660CF00A0546EAE1
:1027F000052611603E62116821F00C01116080E035
:102800000368D1E900E6D1E902C11C6A1A6A3602FE
:1028100022F480521A621A4652F81C5F4FF2FF07E8
:10282000BE4325F4734561F30F3624F420440EF0C3
:102830000A0746EA050144EA07371CE00368D1E9C4
:1028400000E6D1E902C11C6A1A6A360222F01002BF
:102850001A621A4652F8185F4FF2FF07BE4325F47A
:10286000734561F30F3624F0A0040EF00A0746EA20
:10287000050144EA071711601F6211684FEA0C2333
:1028800021F4406111603CE00121002280F83C20ED
:102890000846704740F2FF37C4F20107BB4213DC21
:1028A00041F60007C4F20007BB4219D0002713E02D
:1028B00040F60007C4F20007BB4211D040F60047C3
:1028C000C4F200070AE000BF44F20007C4F20107A7
:1028D000BB4205D040F20047C4F20107BB421BD106
:1028E00026F00306354324F00A070CF00A066EF3BF
:1028F000071537449D611F629F6927F00C079F6190
:102900008B681168194311600021BDE8F040002276
:1029100080F83C200846704746F00105E3E70000D8
:10292000002804BF0120704710B5044690F83D0010
:1029300028B9002084F83C00204600F01FF802204F
:1029400084F83D002068211D01F056FC012084F828
:10295000460084F83E0084F83F0084F8400084F884
:10296000410084F8420084F8430084F8440084F86D
:10297000450084F83D00002010BD000070470000B5
:1029800031B3042908D0082919BF4FF0450C412361
:102990004FF0440C402302E04FF0430C3F23C25C55
:1029A00010F80C30012A4FF0010208BF012B63D14F
:1029B0000222082922D0042954D180F83F2080F82F
:1029C00043204FEAB103032B4FF0010220D953E01B
:1029D00090F83E2090F84230012A4FF0010208BFE3
:1029E000012B49D1022280F83E2080F842204FEA94
:1029F000B103032B4FF001020AD93DE080F84020DB
:102A000080F844204FEAB103032B4FF0010233D882
:102A10004AF6EC6C0068C0F6000C5CF823C0C36892
:102A200001F01F0143EA0C03C360036A02FA01F1DB
:102A300023EA01020262026A114341F2FF72C4F208
:102A400000029042016219DC40F2FF71C4F2000101
:102A5000884221DCB0F1804F36D040F20041C4F210
:102A600000012FE080F8412080F845204FEAB103B3
:102A7000032B4FF00102CBD91046704740F2FF31D3
:102A8000C4F20101884213DC41F60001C4F20001E6
:102A9000884219D0002113E040F60001C4F2000181
:102AA000884211D040F60041C4F200010AE000BFA4
:102AB00044F20001C4F20101884205D040F2004115
:102AC000C4F20101884206D1816801F0070106299C
:102AD00004BF00207047016841F00101016000203F
:102AE0007047000070B504460068C5680669B10704
:102AF00016D515F0020113D06FF00201016101211A
:102B000021778069800703D02046FFF705FD05E0A7
:102B1000204600F0DBF8204600F01AFA002020776B
:102B2000700719D515F0040016D020686FF0040165
:102B3000016102212177806910F4407F04D0204692
:102B4000FFF7EAFC06E000BF204600F0BFF8204691
:102B500000F0FEF900202077300717D515F00800A7
:102B600014D020686FF00801016104212177C06949
:102B7000800703D02046FFF7CFFC05E0204600F099
:102B8000A5F8204600F0E4F900202077F00619D5DA
:102B900015F0100016D020686FF0100101610821B7
:102BA0002177C06910F4407F04D02046FFF7B4FCC1
:102BB00006E000BF204600F089F8204600F0C8F982
:102BC00000202077F00718BF15F0010002D1300671
:102BD00009D412E020686FF001010161204600F085
:102BE00041FA300609D515F0800006D020686FF054
:102BF000800101612046FFF747FA700609D515F0FC
:102C0000400006D020686FF040010161204600F0CE
:102C10002BFAB00658BF70BD15F0200008D021680F
:102C20006FF0200220460A61BDE87040FFF72EBA1F
:102C300070BD000080B586B0006840F60002C4F2A6
:102C4000000200219042CDE90411CDE90211019169
:102C50001AD040F20041C4F20001884234D1002071
:102C6000009043F63000C4F20200016841F0040114
:102C700001600068402100F004000090009840F6D8
:102C80000000C4F2020015E043F630000091C4F2E7
:102C90000200016841F00801016000684FF47041D2
:102CA00000F008000090009840F60000C4F2020016
:102CB00000F580600191022102910022059101A995
:102CC000CDE90322FEF708FA06B080BD7047000088
:102CD00090F83C30012B04BF022070474FEAB2024B
:102CE000032A00F2FF802DE9F043DFE802F003B190
:102CF0003F7F00BF036840F200461C6A1A6A24F056
:102D0000020422F001021A621A46D3F804C052F8F3
:102D100018EF8F6843F48065C4F20106B54244EAB7
:102D2000070405D1CF6824F00C0427F004073C43C6
:102D30000F68B54206D1D1E905582CF440762E43F0
:102D400046EA080C2EF073063743C3F804C09F61AF
:102D50004F6809695F631C629F6947F008079F61BC
:102D60009F6927F004079F61B1E000BF036840F24C
:102D700000481C6A1A6A24F4007422F480721A62F1
:102D80001A46D3F804C052F81CEF8F6843F48065EC
:102D9000C4F20108454544EA072408D1CF6840F24F
:102DA000FF463F0224F4406427EA06063443D1F884
:102DB0000090454506D1D1E905562CF440572E43E5
:102DC00047EA061C2EF0730747EA0907C3F804C058
:102DD000DF614F680969DF631C62DF6947F008073C
:102DE000DF61DF6927F00407DF6170E0036840F20C
:102DF0000045D3F820C01A6A43F4806722F4805259
:102E00001A621A465C6852F81C8FD1F800E08E688E
:102E1000C4F20105AF4204D14D6924F4804444EA70
:102E200085142CF4005747EA063728F4E64646EAAC
:102E30000E265C60DE614E6809691E641F62DF69F0
:102E400047F40067DF61DF6927F48067DF613DE0F9
:102E5000036840F200481C6A1A6A24F0200422F039
:102E600010021A621A46D3F804C052F818EF8F689D
:102E700043F48065C4F20108454544EA071407D1CC
:102E8000CF686FF0400624F0C00406EA071634430A
:102E9000D1F80090454506D1D1E905562CF440679C
:102EA0002E4347EA860C2EF4E64747EA0927C3F883
:102EB00004C09F614F6809699F631C629F6947F462
:102EC00000679F619F6927F480679F61090213680B
:102ED000194311600021BDE8F043002280F83C2036
:102EE000084670470121002280F83C2008467047C0
:102EF000002804BF0120704710B5044690F83D003B
:102F000028B9002084F83C00204600F01FF8022079
:102F100084F83D002068211D01F06EF9012084F83D
:102F2000460084F83E0084F83F0084F8400084F8AE
:102F3000410084F8420084F8430084F8440084F897
:102F4000450084F83D00002010BD000070470000DF
:102F500070470000C1B1042908D0082914BF4122DC
:102F60004022825C012A05D016E000BF3F22825C2D
:102F7000012A11D10222082910D0042914BF80F897
:102F8000412080F83F200BE090F83E20012A03D139
:102F9000022280F83E2003E00120704780F84020A4
:102FA000006801F01F010122036A02FA01F123EA1D
:102FB00001020262026A114341F2FF72C4F200028E
:102FC000904201620CDC40F2FF71C4F200018842C1
:102FD00014DCB0F1804F37D040F2004116E000BF62
:102FE00040F2FF31C4F20101884215DC41F60001D4
:102FF000C4F20001884227D0002115E040F600010C
:10300000C4F2000188421FD040F60041C4F2000122
:10301000884219D01FE000BF44F20001C4F2010150
:10302000884211D040F20041C4F20101884212D11D
:10303000416C40F2004340F48062C4F2010341F469
:1030400000419A42416406D1816801F007010629D6
:1030500004BF00207047016841F0010101600020B9
:10306000704700007047000070470000002804BF50
:103070000120704710B5044690F8410028B900209F
:1030800084F84000204600F021F8242084F8410014
:103090002068C16821F40051C160204601F04AF95E
:1030A0002068016921F490410161416921F02A0100
:1030B0004161C16841F40051C16000202021606479
:1030C00084F8411084F84210606310BD80B586B06A
:1030D00041F200010068C4F2010100228842059219
:1030E000CDE903220292019202D006B080BD00BF5A
:1030F00043F630000092C4F20200436943F010032B
:103100004361436903F010030093009B009203683E
:1031100043F002030360006800F002000090009892
:10312000C02001900220CDE9020203200490072074
:10313000059001F5744001A9FDF7CEFF06B080BDF2
:103140002DE9F04381B0044690F84100202809D1D0
:1031500000294FF0010018BF002A07D101B0BDE8D7
:10316000F08300BF022001B0BDE8F083002060645E
:1031700021201D460E4684F841001746FEF782F8CE
:10318000A784E784A1688146B1F5805F02D12069F8
:1031900000285DD037460020E28C2168002A5DD0EF
:1031A0006A1C24D0002D4AD0804600BF0868000663
:1031B00008D4FEF767F8A0EB0900A8427AD8216886
:1031C000C868F3E717B117F8010B04E038F8020BF1
:1031D00000276FF35F204860E08C0138E084E08CCA
:1031E0000028E3D13AE000BF0A68120609D40A6851
:1031F000120606D40A6812065CBF0A685FEA026219
:10320000F2D51FB117F8012B05E000BF30F8022BF3
:1032100000276FF35F224A60E28C013AE284E28C7D
:10322000002AE4D11AE000BF30F8022B00276FF328
:103230005F224A60E28C013AE284E28C72B10A6851
:10324000120635D5002FEFD017F8012BF1E700BF9C
:1032500000273046E28C2168002AA1D10868400688
:103260001ED42DB3681C14D1086840062AD40868FF
:10327000400627D40868400624D4086840064FF06A
:103280000000F1D50DE000BF2068C168006840066D
:1032900018D4FDF7F7FFA0EB0900A842F4D909E024
:1032A0000020202184F8411001B0BDE8F08300BF68
:1032B000FDF7E8FF0320202184F8411001B0BDE8AC
:1032C000F08300BF0020202184F8411001B0BDE848
:1032D000F0830000FEE700002DE9F04782B00446CD
:1032E00000689A460B9D0A9E0368914643F48062EB
:1032F000026002680F4642F48071016020464FF080
:10330000011100223346009500F032F950B12068D7
:103310000068C00544BF4FF400702064032002B071
:10332000BDE8F08740F202082068C0F2010807F00B
:10333000FE0707612046414632462B4600F0FEF963
:1033400020B1012002B0BDE8F08700BF002001904D
:1033500020682A46416901918069314601900198AF
:10336000204600F09FFAB0B92068BAF1010F09D0E9
:103370004FEA19210161204631462A4600F092FAAF
:1033800048B920685FFA89F10161204631462A4632
:1033900000F088FA60B1206C0428D2D1206801685E
:1033A00041F400710160012002B0BDE8F08700BF68
:1033B000206800220168334641F480710160204694
:1033C0004FF00111009500F0D3F800289FD147F08D
:1033D000010C27682046414632462B46C7F810C0EC
:1033E00002B0BDE8F04700F0A9B900002DE9F043B4
:1033F00083B0044600680F4601680A9D0B9E41F4A5
:10340000807199469046016020464FF001110022DC
:103410002B46009600F0ACF850B120680068C0055B
:1034200044BF4FF400702064032003B0BDE8F08374
:10343000206807F0FE0101610221C0F2010120466F
:103440002A46334600F07AF920B1012003B0BDE8E6
:10345000F08300BF0020029020683246416902914B
:103460008069294602900298204600F01BFA58B164
:10347000206C0428E9D12068016841F400710160E2
:10348000012003B0BDE8F0832068B9F1010F0AD034
:103490004FEA1821016120462946324600F002FA1F
:1034A0000028E5D120685FFA88F10161002003B0AF
:1034B000BDE8F08370B50368044653F8140F400765
:1034C00011D40E46481C29D086BB00BF18684005A1
:1034D00027D4FDF7D7FE236853F8140F400737D5DC
:1034E00018684007F2D5002070BD00BF186840077B
:1034F000F9D41868400514D418684007F3D4186844
:1035000040050ED418684007EDD41868400508D46B
:10351000186840074FF0000048BF70BD18684005AC
:10352000E4D56FF480601860042012E0154603E0D3
:1035300053F8140F4007D6D418684005F1D4FDF7AE
:10354000A1FE401B2368B042F2D958694007EFD46E
:10355000202000212022216384F83D2084F83E10A1
:10356000226C10432064012084F83C1070BD0000E0
:103570002DE9F041054600681E46144601F47F021D
:1035800001338FB242D0DDF81880B2F5803F40F0B1
:10359000878040693840C01BB0FA80F040098442FF
:1035A00040F0C8804EB924E040693840C01BB0FAF2
:1035B00080F04009844240F0BD80FDF763FEA0EB3F
:1035C00008012868B142EFD941693940C91BB1FAF5
:1035D00081F149098C42E7D19BE000BF4069384046
:1035E000C01BB0FA80F0400984424FF0000040F068
:1035F000A280FDF747FE286841693940C91BB1FA2E
:1036000081F149098C42E9D183E000BFB2F5803FE6
:1036100024D100BF41693940C91BB1FA81F1490980
:103620008C4240F0878041693940C91BB1FA81F171
:1036300049098C4240F07E8041693940C91BB1FA8A
:1036400081F149098C4275D141693940C91BB1FAF0
:1036500081F149098C42DDD06CE000BF81693940BD
:10366000C91BB1FA81F149098C4263D181693940A2
:10367000C91BB1FA81F149098C425BD1816939409A
:10368000C91BB1FA81F149098C4253D18169394092
:10369000C91BB1FA81F149098C42DFD04AE000BF71
:1036A00080693840C01BB0FA80F04009844241D1A3
:1036B00046B923E080693840C01BB0FA80F0400969
:1036C000844237D1FDF7DEFDA0EB08012868B14246
:1036D000F0D981693940C91BB1FA81F149098C429D
:1036E000E8D116E080693840C01BB0FA80F040098C
:1036F00084424FF0000018BFBDE8F081FDF7C2FD25
:10370000286881693940C91BB1FA81F149098C42A5
:10371000E8D100202021286385F83D1085F83E007F
:10372000296C41F02001296485F83C000120BDE8A6
:10373000F08100BF0020BDE8F0810000F0B581B04D
:10374000044600681D4643698FB203EA0701B94287
:1037500002D1002001B0F0BD4169164601323CD0D3
:10376000490512D47EB300BFFDF78CFD411B2068D4
:10377000B14203D941693940B9422BD1416939403D
:10378000B942E6D041694905EED5016841F40071BE
:1037900001606FF4806141610420002120222163D7
:1037A00084F83D2084F83E10226C1043206484F895
:1037B0003C10012001B0F0BD41693940B942C8D088
:1037C00041694905E1D4FDF75DFD20684169394053
:1037D000B942F1D02020E0E741694905D5D44169DB
:1037E0003940B942B5D041694905CED44169394023
:1037F000B942AED041694905C7D441693940B9429F
:10380000A7D041694905C0D441693940B942E3D1E3
:103810009FE7000070B504460068154650F8143F55
:103820005A063DD40E4629B926E000BF50F8141FB1
:10383000490635D40168C90621D4FDF723FD411B93
:103840002068B142F2D941694906EFD40020202115
:10385000206384F83D1084F83E00206C40F0200086
:1038600018E000BFFDF70EFD206850F8141F490650
:10387000ECD50168490613D40168C906F2D56FF08A
:103880001001016000202021206384F83D1084F89D
:103890003E00206C2064002084F83C00012070BDB4
:1038A000002070BD70B50368044653F8140F00067D
:1038B00011D40E46481C29D086BB00BF18684005AD
:1038C00027D4FDF7DFFC236853F8140F000637D523
:1038D00018680006F2D5002070BD00BF1868000609
:1038E000F9D41868400514D418680006F3D4186891
:1038F00040050ED418680006EDD41868400508D4B9
:10390000186800064FF0000048BF70BD18684005F9
:10391000E4D56FF480601860042012E0154603E0DF
:1039200053F8140F0006D6D418684005F1D4FDF7FB
:10393000A9FC401B2368B042F2D958690006EFD4B5
:10394000202000212022216384F83D2084F83E10AD
:10395000226C10432064012084F83C1070BD0000EC
:1039600040F2F000C2F200000021C0E90011C0E9FD
:10397000021101617047000010B52DED0A8B40F275
:10398000F00440F2F010C2F20004C2F2000094ED24
:1039900002AA90ED001A9FED429A9FED422A21EE75
:1039A000091A81EE02BA30EE200AB6EE001A20EEB5
:1039B00001CA3AEE0B0A20EE018AB0EE480A84ED05
:1039C00002BA04F0F9FF94ED001A2CEE000A30EE72
:1039D000010A84ED000AB0EE480A05F0F9F89FEDFF
:1039E000321A94ED013A8CEE012A2CEE000A30EEE8
:1039F000030A84ED010A3BEE4A0AB4EE490AF1EEED
:103A000010FA84ED032A1DDD9FED282A30EE020A0C
:103A1000B4EE490AF1EE10FA14DD30EE020AB4EE0B
:103A2000490AF1EE10FA0DDD30EE020AB4EE490A51
:103A3000F1EE10FA06DD30EE020AB4EE490AF1EEBC
:103A400010FAE3DC9FED1A2AB4EE420AF1EE10FA06
:103A50001EDA9FED183A00BF30EE030AB4EE420AB8
:103A6000F1EE10FA14DA30EE030AB4EE420AF1EE87
:103A700010FA0DDA30EE030AB4EE420AF1EE10FA53
:103A800006DA30EE030AB4EE420AF1EE10FAE3DB96
:103A900080EE010A84ED040ABDEC0A8B10BD00BF64
:103AA000DB0F4940000034430AD7A33CDB0FC9C0F9
:103AB000DB0F49C0DB0FC940FEE70000FEE7000056
:103AC0002DE9F04F81B02DED0A8B86B00020002744
:103AD00003F058FA40203F2102220123012403F081
:103AE00033F940203F2116221523009403F0CEFB2A
:103AF00040203F2140220323009403F0C7FB4020D5
:103B00003F216A221523009403F0C0FB40F2FC1908
:103B10009FED4B9A9FED4BAA9FED4BBA9FED4BCA81
:103B20004FF0FF3BC2F200094FF6184A4FF0FF3842
:103B30000BE000BFE0B2E9B2012203F007FAAB2FBD
:103B400007F10A07A346A8465CD239F8170001EE30
:103B5000107AA0F2E93189B2514538BF4FF47A703A
:103B600080B200EE100AB8EE400A80EE090AB8EE04
:103B7000411A21EE0B1A81EE0C8A20EE0A0A10EE91
:103B8000100A06F04BFC044618EE100A0D4606F02B
:103B900045FC41EC180BB0EE480AF0EE680A04F060
:103BA000A7FE51EC100B22462B4606F073F906F0E7
:103BB0009FF8B0EE480AF0EE680A064604F0A4FF4B
:103BC00051EC100B22462B4606F064F906F090F8F3
:103BD000C0F13F0006F3060101F140041BF10101B1
:103BE00080F3060518BF18F10100A3D05FFA8BF02F
:103BF0005FFA88F1E2B2EBB20126009603F046FBD1
:103C000098E700BFB9F8B42001AC11A12046FCF739
:103C1000CBFB0020002103F0EFFB4AF6E060C0F68A
:103C2000000090E80E0001272046009703F0AEFD4B
:103C300003F0EAFB06B0BDEC0A8B01B0BDE8F08FE3
:103C400000007A4400007042DB0F4940000034431A
:103C500025646D6D0000000080B503F0A1F900201F
:103C600003F090F9BDE8804003F0CEBB40F2F000D5
:103C7000C2F2000090E80E0000F1180C8CE80E0073
:103C80000121017540F27070C2F200000021016054
:103C900040F27470C2F200000160704710B52DED63
:103CA000028B40F2F004C2F20004207D002800F0F4
:103CB0005A8194ED000A94ED011A94ED062A94EDD0
:103CC000073A72EE400A33EE410A20EE001A20EE67
:103CD000A02A32EE011AB1EEC18A9FEDA41AB4EE09
:103CE000418AF1EE10FA84ED098A7DDA012020750F
:103CF00040F27070C2F200000021016094ED020AEF
:103D000094ED082A9FED9A1A32EE400AB4EE410A69
:103D1000F1EE10FA1EDD9FED972A00BF30EE020A89
:103D2000B4EE410AF1EE10FA14DD30EE020AB4EE00
:103D3000410AF1EE10FA0DDD30EE020AB4EE410A4E
:103D4000F1EE10FA06DD30EE020AB4EE410AF1EEB1
:103D500010FAE3DC9FED881AB4EE410AF1EE10FA96
:103D60001EDA9FED862A00BF30EE020AB4EE410A49
:103D7000F1EE10FA14DA30EE020AB4EE410AF1EE76
:103D800010FA0DDA30EE020AB4EE410AF1EE10FA42
:103D900006DA30EE020AB4EE410AF1EE10FAE3DB85
:103DA0009FED7D1AB0EEC02AB4EE412AF1EE10FA72
:103DB00084ED0A0A40F39080B0EE041A20EE011A56
:103DC000BEEE000AB4EE401AF1EE10FAC0F2C58061
:103DD000B6EE000AB4EE401AF1EE10FAC8BFB0EE2B
:103DE000401AB0EE410AB8E00220207504F02AFC27
:103DF00094ED022A9FED5E1A30EE420AB4EE410ABB
:103E0000F1EE10FA1EDD9FED5B2A00BF30EE020AD4
:103E1000B4EE410AF1EE10FA14DD30EE020AB4EE0F
:103E2000410AF1EE10FA0DDD30EE020AB4EE410A5D
:103E3000F1EE10FA06DD30EE020AB4EE410AF1EEC0
:103E400010FAE3DC9FED4C1A84ED0A0AB4EE410A45
:103E5000F1EE10FA20DA9FED492A00BF30EE020A97
:103E6000B4EE410AF1EE10FA14DA30EE020AB4EEC2
:103E7000410AF1EE10FA0DDA30EE020AB4EE410A10
:103E8000F1EE10FA06DA30EE020AB4EE410AF1EE73
:103E900010FAE3DB84ED0A0A9FED391AB0EEC02A6E
:103EA000B4EE412AF1EE10FA1ADDB0EE041A40F237
:103EB000707020EE011AB7EE000AC2F20000002175
:103EC000B4EE401A0160F1EE10FAC8BFB0EE401A2D
:103ED000BFEE000A3AE000BF9FED2D0A3DE000BFB3
:103EE0009FED293A9FED271AB4EE438A9FED273ABA
:103EF00028EE011AB6EE002A21EE024AF1EE10FA7F
:103F0000B8BFB0EE441AB4EE431AF1EE10FAC8BFCF
:103F1000B0EE431A9FED1E3AB5EE401AF1EE10FADC
:103F2000C8BFB0EE413A9FED1B1A40F2707020EE10
:103F3000011AC2F20000B4EE421ABEEE000A80ED91
:103F4000003AF1EE10FAC8BFB0EE421AB4EE401AD1
:103F5000F1EE10FAC8BFB0EE410A40F27470C2F23E
:103F6000000080ED000ABDEC028B10BD8FC2F53C55
:103F7000DB0F4940DB0FC9C0DB0F49C0DB0FC94075
:103F8000920A863E9A99993FCDCC4C3E9A99993E99
:103F900000000000CDCC4C3DCDCCCC3D0021C0E993
:103FA0000311C0E905117047002851D0B5EE401A41
:103FB000F1EE10FADCBF90ED060A704730EE602A91
:103FC00090ED054A22EE013A90ED090A33EE043AEB
:103FD000B4EE403AF1EE10FA80ED032A0ADB90EDE0
:103FE0000A0AB4EE403AF1EE10FAC8BFB0EE403A19
:103FF000B0EE430A90ED043A90ED014A32EE433AB6
:1040000083EE011A90ED003A90ED025A80ED050A18
:1040100020EE040A23EE023A33EE000A80ED042A71
:1040200025EE011A31EE001A9FED0C0A80ED061AFA
:10403000B4EE401AF1EE10FAB8BF70479FED080ACF
:10404000B4EE401AF1EE10FAD8BFB0EE410A704754
:104050009FED010A704700BF0000000000C079C456
:1040600000C079447047000010B50024C4F2020477
:10407000204640210122FDF7FFF8FFF771FC40F2D6
:10408000FC71C2F20001012000F0B4FC02F052FD0C
:1040900002F06CF902F09CF800F094FC40F6341049
:1040A000C2F200000021FEF755FF20464021002209
:1040B000BDE81040FDF7E0B87047000040F2601224
:1040C000C2F20002C2E90001FEF744BF40F26011F3
:1040D000C2F20001D1E9001209684AB1082A05D0EC
:1040E000042A14BF4022382203E000BF3C2200E033
:1040F0003422B42828BFB4204FF4FA63584341F265
:10410000C263C0F26C13A0FB030303F5FA7088507E
:1041100070470000FDF702BC70B592B006AC2046B7
:104120003021FCF799FA002543F640000595CDE9CA
:104130000355CDE901550095C4F20200016802263D
:1041400041F080510160006800F0805000900098BC
:1041500047F200000095C4F20000016841F480417C
:1041600001600068A82100F48040009000980120C0
:1041700006904FF4803007904FF480000D9004209B
:104180000E90119020460C96CDE90F16FDF790FD8C
:1041900010B172B6FEE700BF0F20CDE901064FF463
:1041A000A05004904FF48050059001A8052103957C
:1041B000FDF76CFC10B172B6FEE700BF12B070BD27
:1041C0004EF68850CEF20000016841F470010160A3
:1041D0007047000040F6A400C2F20000FEF782BC67
:1041E00040F6EC00C2F20000FEF77CBC40F6C410C2
:1041F000C2F20000FEF776BCB0B540F6FF3E05689F
:10420000C4F2000E40F2004C7045C4F2010C25DCF3
:10421000B0F1804F2FD040F20043C4F20003984227
:1042200029D040F60003C4F20003984223D041F69F
:10423000FF73C4F20003984228DC70453ADCB0F109
:10424000804F5BD040F20043C4F20003984255D047
:1042500040F60003C4F200034EE000BF40F6004306
:10426000C4F20003984206D0604504D00023C4F293
:1042700001039842DBD14B6825F0700243EA020546
:1042800041F6FF73C4F200039842D6DD43F6FF7394
:10429000C4F2010398421FDC42F20003C4F200039F
:1042A00098422BD00023C4F20103984226D06045E7
:1042B00024D028E040F60043C4F2000398421DD009
:1042C00041F60003C4F20003984217D041F60043C0
:1042D000C4F2000310E000BF44F20003C4F2010383
:1042E00098420BD044F60003C4F20103984205D073
:1042F00044F20043C4F20103984204D1CB6825F490
:10430000407243EA02050A688C684B69C46240F453
:1043100080648262644504BF09690163026825F014
:10432000800142F0040219430260012242610160EF
:10433000B0BD0000B0B50446006804F108030ECB20
:104340000569194325F440552A4302616269E3690E
:104350001143C268194349F20C639A431143C16087
:104360004169A26921F4407141F20043114340F4D4
:104370008062C4F201039A42416103D1FDF74CFC13
:1043800002E000BFFDF734FCE1694FF69C756368FD
:104390001922C0F6FF75B1F5004FA0FB02011FD135
:1043A0005A00DB0FFBF788FF48F21F51C5F2EB11F3
:1043B000A0FB01235A0905F1805302FB03003223BD
:1043C00003EBC000A0FB01014FF4F87000EA1110EC
:1043D00000EB0210C1F34211084421688860B0BDAF
:1043E0009A009B0FFBF768FF48F21F51C5F2EB11D3
:1043F000A0FB01235A0902FB0500322303EB001046
:10440000A0FB0101F02000EA511000EB0210C1F303
:104410004311084421688860B0BD0000FEE7000039
:104420009FED0E1A9FED0E2A30EE600A30EE011A53
:10443000B4EE420A9FED0C2AF1EE10FAC8BFB0EEBE
:10444000410A9FED081AB4EE420A30EE011AF1EE6D
:1044500010FAB8BFB0EE410A704700BF0000B4C305
:10446000000034430000B443000034C32DE9F0439E
:104470008BB040F21600C2F2000040F268180178DA
:10448000C2F20008012008F10C026427CDE90020E7
:1044900008F11C0041F00101012201230297FCF701
:1044A000A9FF98F80C5088F80100E809C5F300143A
:1044B000C5F3C006C5F38007C5F380198DF82B003E
:1044C0000DF1270003A98DF827408DF829608DF89C
:1044D00028708DF82A9000F027F80699002C01F634
:1044E000845008BF40F6363036B9002F1CBF084450
:1044F00000F5257004E000BF00EB410000F26450BD
:10450000DDE90712B9F1000F014418BF01F525706C
:1045100011186AB2002A48BF01F22620C8F8080024
:104520000BB0BDE8F08300002DE9F04F85B040F2FC
:10453000160BC2F2000B40F2681704909BF80000C3
:10454000C2F200070C46012107F10C0507F11C0619
:1045500042F6007A4FF0640CCDE9005140F00101C1
:10456000304650220123C0F23A0A4FF00108CDF83C
:1045700008C04FF06409FCF73DFF7870387B0221DA
:1045800001EB40009BF80010C0B2208041F0010117
:10459000304646220123CDE90058CDF808904FF06F
:1045A0006409FCF727FF7870207844F6D35800FBA5
:1045B0000AF0397B00F5FA70C1F26208A0FB08022C
:1045C000481C9109414301EBD211A1FB0812A080C4
:1045D00090099BF80010E0600220019041F0010179
:1045E0003046512201230095CDF80890FCF702FFD8
:1045F00078702178387B7A7B01FB0AF101F5FA713A
:1046000002FA00F0A1FB08130130990982B251436C
:1046100001EBD311A1FB0812E08090099BF8001078
:1046200020610120019041F00101304670220123F8
:104630000095CDF80890FCF7DDFE397B02227870FA
:1046400002EB41009BF80010C0B26080CDE900523F
:1046500041F00101304671220123CDF80890FCF7AA
:10466000C9FE397B7A7B787002FA01F00499013037
:10467000C978208111B1E188401A2081A17842F6E1
:104680000072C0F23A02514301F5FA71A1FB08121F
:10469000910980B2484300EBD210A0FB08018809C1
:1046A000606105B0BDE8F08F2DE9F04F85B040F2B4
:1046B0006818C2F200080124454640F21606C2F20C
:1046C000000605F80C4F0491317805F1100781467A
:1046D0004FF0640A384680220123CDE90054CDF81A
:1046E00008A0FCF7B3FF317805F80B0C3846FF2221
:1046F00001232C70CDE90054CDF808A0FCF7A6FFEB
:10470000317805F80B0C4FF0000B384600220123DE
:1047100085F800B0CDE90054CDF808A0FCF796FF6D
:1047200005F80B0C0620317828703846FF2201234B
:10473000CDE90054CDF808A0FCF788FF317805F8E2
:104740000B0C41F00101384683220123CDE90054CE
:10475000CDF808A0FCF74EFE297805F80B0C41F0C7
:10476000040031782870384683220123CDE90054B3
:10477000CDF808A0FCF76AFF05F80B0C072031788C
:1047800028703846FF220123CDE90054CDF808A057
:10479000FCF75CFF317805F80B0C384681220123C9
:1047A0002C70CDE90054CDF808A0FCF74FFF31780C
:1047B00005F80B0C3846802201232C70CDE90054FB
:1047C000CDF808A0FCF742FF05F80B0C6B20317800
:1047D0002870384694220123CDE90054CDF808A072
:1047E000FCF734FF317805F80B0C3846832201239F
:1047F00085F800B0CDE90054CDF808A0FCF726FFFD
:1048000005F80B0CFCF73EFD317825F8060C41F05D
:104810000101384683220123CDE90054CDF808A0D8
:10482000FCF7E8FD297805F80B0C002900F0B680AC
:1048300008F80C4F317808F110073846832201231D
:10484000CDE90084CDF808A0FCF700FF317808F826
:104850000B0C41F00101384692220123CDE900847E
:10486000CDF808A0FCF7C6FD98F8001008F80B0C6E
:1048700001F07F0089F80000C809049981220870BE
:1048800031783846012388F800B0CDE90084CDF8AE
:1048900008A0FCF7DBFE08F80B0C3178062088F83E
:1048A00000003846FF220123CDE90084CDF808A09E
:1048B000FCF7CCFE317808F80B0C41F001013846CA
:1048C00083220123CDE90084CDF808A0FCF792FDF6
:1048D00098F8001008F80B0C01F0FB00317888F80C
:1048E0000000384683220123CDE90084CDF808A0DA
:1048F000FCF7ACFE317808F80B0C3846FF22012398
:1049000088F80040CDE90084CDF808A0FCF79EFEB1
:10491000317808F80B0C38460022012388F8004053
:10492000CDE90084CDF808A0FCF790FE317808F8B6
:104930000B0C3846FF22012388F800B0CDE9008433
:10494000CDF808A0FCF782FE317808F80B0C384649
:104950008022012388F800B0CDE90084CDF808A0BA
:10496000FCF774FE08F80B0C204605B0BDE8F08F8C
:10497000317808F10C00CDE9000408F11C0041F089
:10498000010183220123CDF808A0FCF733FD98F83C
:104990000C1088F8010000297FF44AAFB8F8040031
:1049A0000028E5D0FCF76EFCB8F8061080B2B8F825
:1049B0000420401A9042DBDD0024204605B0BDE80B
:1049C000F08F000010B540F2787040F6A404C2F2F7
:1049D00000000021C2F20004C1604162817480F8CD
:1049E0002A102046FDF7CCFF20460421BDE81040E8
:1049F000FDF7C6BF2DE9F04F85B040F26817C2F24F
:104A0000000707F11C0B064658465422FBF7EAFD47
:104A100040F2160A0024C2F2000AFC6016B39AF8AB
:104A200000004FF06408012507F10C0640F0010179
:104A3000584689220123CDE90065CDF80880FCF7AE
:104A4000D9FC397B787041F001009AF80010387376
:104A5000584689220123CDE90065CDF80880FCF78E
:104A6000F5FD78703D4605F80C4F9AF8001005F1F9
:104A700010064FF064084FF00109304688220123E8
:104A80000024CDE90059CDF80880FCF7DFFD9AF845
:104A9000001005F80B0C30468022012385F80090A9
:104AA000CDE90059CDF80880FCF7D0FD9AF8001048
:104AB00005F80B0C3046FF22012385F80090CDE964
:104AC0000059CDF80880FF27FCF7C0FD9AF80010C8
:104AD00005F80B0C3046002201232C70CDE900595B
:104AE000CDF80880FCF7B2FD9AF8001005F80B0C21
:104AF00041F00101304691220123CDE90059CDF862
:104B00000880FCF777FC297805F80B0C05F80A1CDF
:104B10009AF8001030460022012385F80090CDE974
:104B20000059CDF80880FCF791FD9AF8001005F8BF
:104B30000B0C3046FF2201232C70CDE90059CDF833
:104B40000880FCF783FD9AF8001005F80B0C30463E
:104B5000802201232C70CDE90059CDF80880FCF7A4
:104B600075FD9AF8001005F80B0C41F00101304674
:104B700060220123CDE90059CDF80880FCF73AFC0A
:104B8000297805F80B0C41F012009AF800102870F3
:104B9000304660220123CDE90059CDF80880FCF7AA
:104BA00055FD05F80B0C4FF400509AF800102880C2
:104BB0000220CDE90050304644220123CDF8088080
:104BC000FCF744FD9AF8001005F80B0C3046012262
:104BD00001232F70CDE90059CDF80880FCF736FD90
:104BE00005F80B0C0DF113000DF11201FFF75CFD40
:104BF000002800F059869AF80000062103AECDE99E
:104C0000006140F001015846B0220123CDF8088030
:104C1000FCF7F0FB40F26817C2F2000707F80C9FA0
:104C20009AF8001007F80B0C5846FF220123CDE933
:104C30000079CDF80880FCF709FD9AF8001007F814
:104C40000B0C002558464F2201233D70CDE9007919
:104C5000CDF80880FCF7FAFC07F80B0C2C209AF82A
:104C60000010387058464E220123CDE90079CDF866
:104C70000880FCF7EBFC9AF8001007F80B0C58467C
:104C8000FF2201233D70CDE90079CDF80880FCF7C3
:104C9000DDFC07F80B0CB4209AF800103870584669
:104CA000B6220123CDE90079CDF80880FCF7CEFCCF
:104CB00007F80B0C9DF812009DF8131000220CE071
:104CC00003F00707DB08F45C09FA07F724EA070793
:104CD000F7540635302D00F0CF800028034618BF6A
:104CE00001230C2D4FF0000738BF01273B420BD1A9
:104CF000D3B28B4208D0EB08F35C05F00607FB400B
:104D000003F001031A4408E0EF0805F00603F45D20
:104D100009FA03F324EA0303F3550028034618BFF6
:104D200001230C2D4FF0000738BF01273B4205F14E
:104D300001030DD1D7B28F420AD0EF08F75D03F01F
:104D4000070327FA03F303F001031A4409E000BF45
:104D5000EF0803F00703F45D09FA03F324EA030301
:104D6000F3550028034618BF01230A2D4FF0000712
:104D700038BF01273B4205F102030DD1D7B28F4264
:104D80000AD0DF08F75D03F0060327FA03F303F008
:104D900001031A4409E000BF03F00607DB08F45CD6
:104DA00009FA07F724EA0707F7540028034618BF53
:104DB0000123092D4FF0000738BF01273B4205F1C1
:104DC00003030DD1D7B28F420AD0DF08F75D03F09D
:104DD000070327FA03F303F001031A4409E000BFB5
:104DE00003F00707DB08F45C09FA07F724EA070772
:104DF000F7540028034618BF0123082D4FF0000781
:104E000038BF01273B4205F104030DD1D7B28F42D1
:104E10000AD0DF08F75D03F0060327FA03F303F077
:104E200001031A4409E000BF03F00607DB08F45C45
:104E300009FA07F724EA0707F7540028034618BFC2
:104E40000123072D4FF0000738BF01273B4205F132
:104E500005037FF435AFD7B28F423FF431AFDF089F
:104E6000F75D03F0070327FA03F303F001031A4485
:104E70000635302D7FF431AF039840F26814C2F24A
:104E8000000444F80C0FBDF810009AF80010A08040
:104E9000062004F110056426CDE900402846B02222
:104EA000012302960127FCF7D1FB9AF8001004F8C1
:104EB0000B0C2846FF2201232770CDE900470296FC
:104EC0004FF0FF0BFCF7C2FB9AF8001004F80B0C34
:104ED0004FF0000928460022012384F80090CDE914
:104EE00000470296FCF7B2FB9AF8001004F80B0C8E
:104EF0002846FF22012384F80090CDE9004702965E
:104F0000FCF7A4FB9AF8001004F80B0C28460922C1
:104F1000012384F80090CDE9004702964FF009087C
:104F2000FCF794FB9AF8001004F80B0C28461022AA
:104F3000012384F80090CDE900470296FCF786FB38
:104F40009AF8001004F80B0C28461122012384F86B
:104F50000090CDE900470296FCF778FB9AF8001024
:104F600004F80B0C2846242201232770CDE90047C2
:104F70000296FCF76BFB9AF8001004F80B0C28461D
:104F80002522012384F800B0CDE9004702964FF0B6
:104F9000250BFCF75BFB9AF8001004F80B0C284675
:104FA0007522012384F80090CDE900470296FCF7B2
:104FB0004DFB9AF8001004F80B0C2846FF22012341
:104FC0002770CDE900470296FCF740FB04F80B0C74
:104FD0002C209AF80010207028464E220123CDE99B
:104FE00000470296FCF732FB9AF8001004F80B0C0D
:104FF00028464822012384F80090CDE90047029614
:10500000FCF724FB04F80B0C20209AF80010207009
:10501000284630220123CDE900470296FCF716FB13
:105020009AF8001004F80B0C2846FF22012384F89C
:105030000090CDE900470296FCF708FB9AF80010B3
:1050400004F80B0C28463022012384F80080CDE9B7
:1050500000470296FCF7FAFA9AF8001004F80B0CD5
:1050600028465422012384F80090CDE90047029697
:10507000FCF7ECFA04F80B0C04209AF800102070EE
:10508000284631220123CDE900470296FCF7DEFADB
:1050900004F80B0C03209AF80010207028463222E6
:1050A0000123CDE9004702964FF03208FCF7CEFA13
:1050B00004F80B0C83209AF8001020702846402238
:1050C0000123CDE900470296FCF7C0FA9AF80010D8
:1050D00004F80B0C28464622012384F800B0CDE9E1
:1050E00000470296FCF7B2FA9AF8001004F80B0C8D
:1050F00028466022012384F80090CDE900470296FB
:10510000FCF7A4FA9AF8001004F80B0C28462722A2
:10511000012384F80090CDE900470296FCF796FA47
:1051200004F80B0C9AF80010062020702846502234
:105130000123CDE900470296FCF788FA9AF800109F
:1051400004F80B0C28465122012384F80090CDE985
:1051500000470296FCF77AFA04F80B0C96209AF8AE
:1051600000102070284652220123CDE90047029604
:10517000FCF76CFA04F80B0C08209AF80010207069
:10518000284656220123CDE900470296FCF75EFA35
:1051900004F80B0C9AF80010302020702846572293
:1051A0000123CDE900470296FCF750FA9AF8001067
:1051B00004F80B0C28466122012384F80090CDE905
:1051C00000470296FCF742FA9AF8001004F80B0C1C
:1051D00028466222012384F80090CDE90047029618
:1051E000FCF734FA9AF8001004F80B0C28466422F5
:1051F000012384F80090CDE900470296FCF726FAD7
:105200009AF8001004F80B0C28466522012384F854
:105210000090CDE900470296FCF718FA04F80B0C51
:10522000A0209AF800102070284666220123CDE9BC
:1052300000470296FCF70AFA9AF8001004F80B0CE3
:105240002846FF2201232770CDE900470296FCF78C
:10525000FDF99AF8001004F80B0C284622220123CD
:1052600084F80080CDE900470296FCF7EFF904F8D6
:105270000B0C14209AF800102070284647220123B6
:10528000CDE900470296FCF7E1F99AF8001004F81E
:105290000B0C4FF0FF0828464922012384F80080B8
:1052A000CDE900470296FCF7D1F99AF8001004F80E
:1052B0000B0C28464A22012384F80090CDE90047D0
:1052C0000296FCF7C3F99AF8001004F80B0C284674
:1052D000FF22012384F80090CDE900470296FCF7F5
:1052E000B5F904F80B0C0A209AF800102070284633
:1052F0007A220123CDE900470296FCF7A7F99AF834
:10530000001004F80B0C28467B22012384F800903F
:10531000CDE900470296FCF799F904F80B0C21201F
:105320009AF800102070284678220123CDE9004722
:105330000296FCF78BF99AF8001004F80B0C28463B
:10534000FF2201232770CDE900470296FCF77EF982
:1053500004F80B0C34209AF8001020702846232201
:105360000123CDE900470296FCF770F99AF8001086
:1053700004F80B0C28464222012384F80090CDE962
:1053800000470296FCF762F99AF8001004F80B0C3B
:1053900028464422012384F80080CDE90047029684
:1053A000FCF754F904F80B0C26209AF80010207032
:1053B000284645220123CDE900470296FCF746F92D
:1053C0009AF8001004F80B0C4FF0050B2846462203
:1053D000012384F800B0CDE900470296FCF736F9C6
:1053E0009AF8001004F80B0C4FF0400828464022B1
:1053F000012384F80080CDE900470296FCF726F9E6
:1054000004F80B0C9AF800100620207028460E2293
:105410000123CDE900470296FCF718F904F80B0CBC
:105420001A209AF800102070284620220123CDE986
:1054300000470296FCF70AF99AF8001004F80B0CE2
:1054400028464322012384F80080CDE900470296D4
:10545000FCF7FCF89AF8001004F80B0C2846FF2221
:10546000012384F80090CDE900470296FCF7EEF89E
:1054700004F80B0C9AF80010032020702846342200
:105480000123CDE900470296FCF7E0F804F80B0C85
:105490009AF80010442020702846352201234FF04E
:1054A0000008CDE900470296FCF7D0F89AF8001002
:1054B00004F80B0C2846FF2201232770CDE9004792
:1054C0000296FCF7C3F89AF8001004F80B0C4FF0A2
:1054D000040928463122012384F80090CDE90047D1
:1054E0000296FCF7B3F804F80B0C9AF800100920A8
:1054F000207028464B220123CDE900470296FCF795
:10550000A5F89AF8001004F80B0C28464C22012349
:1055100084F800B0CDE900470296FCF797F89AF8B6
:10552000001004F80B0C28464D22012384F800904B
:105530004FF00409CDE900470296FCF787F89AF886
:10554000001004F80B0C2846FF22012384F8008089
:10555000CDE900470296FCF779F89AF8001004F8B4
:105560000B0C28464422012384F80080CDE9004733
:105570000296FCF76BF804F80B0C9AF80010202048
:105580002070284645220123CDE900470296FCF70A
:105590005DF804F80B0C9AF80010082020702846DB
:1055A00047220123CDE900470296FCF74FF804F8A3
:1055B0000B0C28209AF8001020702846482201235E
:1055C000CDE900470296FCF741F89AF8001004F87C
:1055D0000B0C28466722012384F80080CDE90047A0
:1055E0000296FCF733F89AF8001004F80B0C2846E2
:1055F0007022012384F80090CDE900470296FCF761
:1056000025F89AF8001004F80B0C284671220123A3
:105610002770CDE900470296FCF718F804F80B0C48
:10562000FE209AF800102070284672220123CDE94E
:1056300000470296FCF70AF89AF8001004F80B0CE1
:1056400028467622012384F80080CDE9004702969F
:10565000FBF7FCFF9AF8001004F80B0C28467722A1
:10566000012384F80080CDE900470296FBF7EEFFA6
:105670009AF8001004F80B0C2846FF22012327702B
:10568000CDE900470296FBF7E1FF9AF8001004F815
:105690000B0C28460D2201232770CDE90047029606
:1056A000FBF7D4FF9AF8001004F80B0C2846FF22F1
:1056B000012384F80080CDE900470296FBF7C6FF7E
:1056C0009AF8001004F80B0C28468022012327705A
:1056D000CDE900470296FBF7B9FF04F80B0CF82060
:1056E0009AF800102070284601220123CDE90047D6
:1056F0000296FBF7ABFF9AF8001004F80B0C284653
:10570000FF2201232770CDE900470296FBF79EFF99
:105710009AF8001004F80B0C28468E2201232770FB
:10572000CDE900470296FBF791FF9AF8001004F8C4
:105730000B0C2846002201232770CDE90047029672
:10574000FBF784FF9AF8001004F80B0C2846FF22A0
:10575000012384F80080CDE900470296FBF776FF2D
:105760009AF8001004F80B0C28468022012384F8D4
:105770000080CDE900470296FBF768FF9AF8001019
:1057800004F80B0C28460A22012384F80090CDE986
:1057900000470296FBF75AFF9AF8001004F80B0C2A
:1057A00041F00101284684220123CDE900470296F9
:1057B000FBF720FE217804F80B0C01F0EF009AF8BB
:1057C00000102070284684220123CDE9004702966C
:1057D000FBF73CFF9AF8001004F80B0C28460B224C
:1057E00001232770CDE900470296FBF72FFF04F84D
:1057F0000B0CFEF73BFE44F8040CE8209AF800106E
:105800002070284601220123CDE900470296FBF7CC
:105810001DFF54F8041C04F80B0C084601F0C0F9F5
:105820009AF800102846012201232770CDE900478D
:105830000296FBF70BFF04F80B0C402001F056F822
:1058400070B340F26815C2F2000502202C469AF8A7
:10585000001004F80C0F04F1100001220123CDE91F
:1058600001760094FBF7F2FE04F80B0C00204FF0D9
:10587000000801F03BF898B1E8209AF8001005F80C
:105880000C0F64204FF00108029005F11000012276
:1058900001230095CDF80480FBF7D8FE05F80B0C2A
:1058A000404605B0BDE8F08F4FF00008404605B017
:1058B000BDE8F08F9AB040F20008C4F20208FCF78D
:1058C0003BF8FEF729FC002743F630001197CDE99D
:1058D0000F77CDE90D771697C4F202000168002218
:1058E00041F0800101600168402601F080011691BD
:1058F00016991697016841F001010160016801F0F5
:105900000101169116991697016841F01001016086
:10591000016801F01001169116991697016841F07F
:1059200002010160016801F00201169116991697B3
:10593000016841F008010160016801F00801169159
:1059400016991697016841F0040101600068402132
:1059500000F00400169016984046FBF78DFC08F501
:10596000805528464FF4A05100224FF4A059FBF770
:1059700083FC0D960DAE012440463146CDE90E471D
:105980001097FBF7A9FB28463146CDE90D94CDE9E8
:105990000F77FBF7A1FB4FF488104FF48055CDE94A
:1059A0000E0708F5806031460D95FBF795FB282022
:1059B00002210022FCF72EF82820FCF719F840F607
:1059C0007C10A8F5FC31C2F2000040F2E7331997D1
:1059D000CDE91777CDE91477CDE91277CDE91077C6
:1059E000A72280E88600C0E903378761FCF7AEFB99
:1059F00010B172B6FEE700BF40F67C10C2F20000A4
:105A000016A91695FCF7B8FC10B172B6FEE700BFF8
:105A100040F67C10C2F20000FDF76AFA10B172B6CF
:105A2000FEE700BF40F67C10C2F2000014A9FCF7AC
:105A30002FFB18B172B600BFFEE700BF60200D90CB
:105A40000020CDE90E00119040F67C10C2F200005B
:105A50000DA90022FDF73CF910B172B6FEE700BFB8
:105A600040F67C10C2F200000DA90422FDF730F9C7
:105A700010B172B6FEE700BF40F67C10C2F2000023
:105A80000DA90822FDF724F910B172B6FEE700BF98
:105A900040F67C10C2F200000DA90C22FDF718F9A7
:105AA00010B172B6FEE700BF40F67C10C2F20000F3
:105AB000FDF7C0F840F6C4100021A8F5FA32C2F292
:105AC000000053234FF0FF371091CDE90E11CDE9BF
:105AD0001411C0E90023C0E9021701618161FCF7DC
