:020000040800F2
:100000001812002075020008E55000088D40000815
:10001000E15000086D0E0008455A0008000000007D
:10002000000000000000000000000000E156000891
:100030007D0E0008000000008D5600083D570008A6
:100040008F0200088F0200088F0200088F0200084C
:100050008F0200088F0200088F0200088F0200083C
:100060008F0200088F0200088F0200088F0200082C
:100070008F0200088F0200088F020008710E00082E
:100080008F0200088F0200088F0200088F0200080C
:100090008F0200088F0200088F0200088F020008FC
:1000A0008F0200088F0200088F020008FD57000829
:1000B000095800088F0200088F0200088F0200080C
:1000C0008F0200088F0200088F0200088F020008CC
:1000D0008F0200088F0200088F0200088F020008BC
:1000E000810E00088F0200088F0200088F020008AE
:1000F0008F0200088F0200088F0200088F0200089C
:100100008F0200088F020008155800088F020008AF
:100110008F0200088F0200088F0200088F0200087B
:100120008F0200088F0200088F0200088F0200086B
:100130008F0200088F0200088F0200088F0200085B
:100140008F0200088F0200088F0200088F0200084B
:100150008F0200088F0200088F0200088F0200083B
:100160009D400008914000088F0200088F0200089F
:100170008F0200088F0200088F02000800000000B4
:100180008F0200088F02000800F002F800F062F809
:1001900014A696E8000CB244B344DA4501D100F04D
:1001A00059F8BAE80F000FA696E83000A5EB040551
:1001B00004EB0607AAEB0704A7F101074FEA1515A0
:1001C0004FEA3414A4F10104AC4201D300F042F828
:1001D00013F0010F18BFFB1A43F0010300F001F800
:1001E000DBE71847B4C40000D4C40000103A24BFB1
:1001F00078C878C1FAD8520724BF30C830C144BF8C
:1002000004680C6070470000704700000023002461
:1002100000250026103A28BF78C1FBD8520728BF16
:1002200030C148BF0B60704766290BF048856429D0
:1002300000F0CC80002070471FB50BF02EFD00F0C1
:100240009BFC0400002000210AF056FEE0601FBD68
:1002500010B510BD00F094FD1146FFF7EDFF06F05C
:100260003DFE00F0B2FD03B4FFF7F2FF03BC00F067
:10027000F5FD00000948804709480047FEE7FEE712
:10028000FEE7FEE7FEE7FEE7FEE7FEE7FEE7FEE746
:1002900004480549054A064B70470000E957000825
:1002A00089010008180C002018120020180E0020E8
:1002B000180E002053EA020C00F069802DE9F04B83
:1002C0004FF00006002B1FBFB3FA83F503FA05F4C5
:1002D00024FA05F65E4012BF1643B2FA82F502FA1E
:1002E00005F4C5F120051EBF22FA05FC44EA0C0402
:1002F000203556EA044C4FEA144418BF641C4FF0F2
:1003000000084FF00009904271EB030C39D300292B
:1003100019BFB1FA81F701FA07F6B0FA80F700FACF
:1003200007F6C7F120071EBF20FA07FC46EA0C06B5
:100330002037B6FBF4FCA7EB0507103F07F01F0BB7
:10034000CBF120062CFA06F60CFA0BFB44BFB346A1
:100350000026202FA4BF5E464FF0000B5BEA060C80
:1003600008BF4FF0010B19EB0B0948EB0608ABFB7C
:10037000027C06FB02CC0BFB03CCC01B71EB0C0117
:10038000C1E70B46024641464846BDE8F08B13B52F
:10039000084318BF4FF0FF300146AFF30080BDE8BF
:1003A0001C4070470FB41CB5074B06AA7B44694636
:1003B0000090059800F0C7FB0020694600F0D6FBCE
:1003C0001CBC5DF814FB0000BD0700002DE9F041E6
:1003D0000646002410687529314616A510D0AFF3E3
:1003E0000080002802DA404213A507E031688A073E
:1003F00001D512A502E0490704D511A5012401E0A9
:10040000AFF3008000210A2206F1240709E0B0FBC7
:10041000F2FCB0FBF2F302FB1C00303078541846BB
:10042000491C0028F3D123462A463046BDE8F04156
:1004300000F01DB9000000002D0000002B0000009E
:10044000200000002DE9F0474FF0000A89460446DD
:10045000C0F820A02046E1688847002876D02528EB
:1004600006D0D4E901219047206A401C2062F1E7C0
:10047000E168204600258847C4F81CA006460027EE
:10048000C4F818A02A2E09D030460AF021FD38B34E
:1004900004EB8708303EC8F8186019E059F8041BCF
:1004A000204604EB87029161E1688847012F0646E8
:1004B00018D1E069002820DA25F020051DE0D8F8E1
:1004C000180000EB800006EB40003038C8F8180038
:1004D0002046E168884706460AF0FAFC0028EED17B
:1004E000012F0AD02E2E08D12046E16888477F1CB4
:1004F0000646022F45F02005C4DBA069002803DA78
:10050000404245F00105A061E80701D025F0100543
:10051000B6B1A6F14100192802D8203645F400658D
:100520004A463146204625604D46FFF77DFE58B1CC
:10053000012806D0ED1D25F0070000F1080989E724
:1005400004E005F1040985E730468AE7206ABDE842
:10055000F08710B5431C02E010F8011B71B1810750
:10056000FAD14FF0013202C88C1A8C4314EAC2113E
:10057000F9D0C01A0A0603D0C01E10BDC01A10BDA3
:100580000A0401D0801E10BD0902FCD0401E10BD1F
:1005900010B5203AC0F00B80B1E81850A0E8185010
:1005A000B1E81850A0E81850203ABFF4F5AF5FEA60
:1005B000027C24BFB1E81850A0E8185044BF18C905
:1005C00018C0BDE810405FEA827C24BF51F8043BAC
:1005D00040F8043B08BF7047D20728BF31F8023B00
:1005E00048BF11F8012B28BF20F8023B48BF00F894
:1005F000012B704702F0FF0343EA032242EA024262
:1006000000F002B84FF0000200B51346944696463B
:10061000203922BFA0E80C50A0E80C50B1F1200115
:10062000BFF4F7AF090728BFA0E80C5048BF0CC0C3
:100630005DF804EB890028BF40F8042B08BF704721
:1006400048BF20F8022B11F0804F18BF00F8012B93
:10065000704770477047704710B500F091FA006816
:1006600010BD10B5044600F08BFA046010BD2DE9F2
:10067000F0470D4699469246044600F12408016869
:10068000880604D5E06921F01001216000E0012016
:10069000A84201DD471B00E00027A1697A1902EB9F
:1006A0000900081AA0612078C00602D42046AFF3E2
:1006B0000080002608E0D4E901211AF806009047DE
:1006C000206A401C761C20624E45F4DB2078C00670
:1006D0000AD52046AFF3008006E0D4E9012130209E
:1006E0009047206A401C2062381EA7F10107F4DC05
:1006F00007E0D4E9012118F805009047206A401C62
:100700002062281EA5F10105F3DC2046AFF300802E
:100710002078000602D50220BDE8F0870120FBE723
:100720002DE9FF4F0C461E464FF0FF378BB0D2E944
:100730000001DDF860800A908A46C1F30A5505B9C8
:100740003D46002108464FF00000BAF1000F00F4CA
:10075000400005DA00EB80004FF4400101EA500050
:100760004FEA9059B9F1010F00DDB9460A9850EAF5
:100770004A000ED044F61050A5F2FF3545432F1421
:10078000B8F1000F1ED07542291E1EDDC9F100020E
:100790001CE0B8F1010F4FF0000001D0302103E060
:1007A000F24305E02154401CB042FBDB30460022FE
:1007B000002121540B99C1F80880C1E900200FB035
:1007C000BDE8F08FBD1B6D1CDEE74A4600DA6942CA
:1007D00006A800F05FFA06AB93E8070003AB83E8D6
:1007E000070050460A9908F0DBFE8DE80700A0F5E7
:1007F00000501F3800900398002D0ADD42F21F01BF
:100800004A460844002303A90390684609F044F9C6
:1008100009E0A0F500504A461F38002303A90390C1
:10082000684609F04EF98DE807000004000C03D07B
:100830004FF0FF30410800E01046B8F1000F03D040
:100840000022009215461EE0751E05D400F09CF9AA
:10085000303262556D1EF9D5B3460122084302D0ED
:1008600000227F1C04E02078302801D100227F1E66
:10087000002A099784D01DE0112D07DA00F084F9D1
:10088000303262556D1C50EA0102F5D1084302D0A6
:100890000098C8B10EE00021681E05E0235C625C90
:1008A00063542254401E491C8142F7DBAB46A81B0F
:1008B000401E0990002004F80B000B98099AC0F81C
:1008C0000880C0E9002B7AE711264FF0000857E7AF
:1008D0002DE9F04F88460446D21D22F0070191B061
:1008E000D1E90001CDE90A0109F022FA02460B988C
:1008F000C00F01D02D2007E02068810701D52B20F3
:1009000002E0202101EAC000032A099001D0072A51
:1009100005DB03464146204600F07CF90BE12078D8
:10092000800601D5E06900E00620B8F1650F814638
:1009300006D0B8F1660F18D0B8F1670F70D131E06A
:100940000020B9F1110F009001DB112301E009F142
:1009500001030AAA01A90CA8FFF7E2FEDDE90C7069
:10096000002609F10105834647E001204B4600902F
:100970004FF000470AAA01A90CA8FFF7D1FEDDE954
:100980000DB00C995D46002610B909F101000D1853
:10099000B9EB050003D4C0F1FF3609F10105A5EB61
:1009A00009002BE0B9F1010F01DA4FF00109002035
:1009B000B9F1110F0090484601DD112300E0034614
:1009C0000AAA01A90CA8FFF7ABFEDDE90C704D46A1
:1009D00000268346207800070AD4AB4500DA5D463E
:1009E00001A8012D04DD411911F8011C302907D09F
:1009F0004F4502DA17F1040F04DA012082460FE0B6
:100A00006D1EEEE7002F02DCED1B3E4403E0781C78
:100A1000A84200DD7D1CB81B00F1010A4FF0004721
:100A20002078000703D4AA4501DB4FF0FF3A0021EC
:100A3000B7F1004F0DF143088DF8431024D0022088
:100A40002B23002F01DA7F422D230A21021EA0F161
:100A5000010000DC5FB197FBF1FC97FBF1F201FBB9
:100A60001C7C17460CF1300C08F801CDEEE7A8F11C
:100A7000010003702188090501D5452100E06521A9
:100A8000A0F1010800F8011C09980FA9A1EB0807C3
:100A9000FF1D00B10120411901EBEA70A169384442
:100AA000081A401EA0612078C00602D42046AFF389
:100AB0000080099828B1D4E901219047206A401CA0
:100AC00020622078C00622D52046AFF300801EE0C9
:100AD000002E04DBB34502DD01A8805D00E030207C
:100AE000D4E901219047206A401C2062761CAAF1BB
:100AF00001005FEA000A0AD100F03EF8C068016810
:100B0000405CD4E901219047206A401C2062281EE5
:100B1000A5F10105DCDC07E0D4E9012118F8010B9F
:100B20009047206A401C2062381EA7F10107F3DCC1
:100B30002046AFF30080032011B041E601694A1C52
:100B400002610878704700B58FB0CDE9013100210E
:100B5000059105497944CDE9031011466846FFF730
:100B600071FC0FB000BD0000E5FFFFFF0A6802F84E
:100B7000010B0A60704700000048704750000020D9
:100B8000004870473000002030B5B0F10A0271F122
:100B900000034FEA900E4EEA817EB0EB0E0061EB4F
:100BA00091014FEA101E4EEA017E10EB0E0041EB60
:100BB00011114FEA102E4EEA016E10EB0E0041EBC0
:100BC00011214FEA104E4EEA014E10EB0E0041EBA0
:100BD0001141401841F100014FEAD00040EA417054
:100BE0004FEAD1014FEA810444EA907410EB80058A
:100BF00044EB01046D1944EB0404521BA3414FF074
:100C0000000348BF0A3200D530BD401C41F100014D
:100C100030BD00002DE9F0411F460446032601685F
:100C2000072A01F4006004DB08B116A505E016A54B
:100C300003E008B115A500E015A521F01000206023
:100C4000A069C01EA0610FB1401EA0612046AFF395
:100C500000804FB1D4E9012138469047206A401CFA
:100C60002062C01C206206E0206AFAE7D4E9012174
:100C700015F8010B9047761EF8D22046AFF300809E
:100C8000BDE8F0814E414E006E616E00494E460057
:100C9000696E66002DE9F047814616468AB03548F0
:100CA00078440DC88DE80D0032487844801C03ACB0
:100CB0000DC884E80D0041F69B300844372190FBB5
:100CC000F1F290FBF1F5A5F1800501FB12041B3C4C
:100CD00002D56442012000E00020DFF898A08046A1
:100CE0000027FA44AAF1BE0A0EE0E0070AD0324615
:100CF000684607EB470101230AEB810108F0E1FE9A
:100D00008DE8070064107F1C002CEED1194F7F4442
:100D1000AE3F19E0E80715D007EB04100DF1180AF3
:100D200090E80E008AE80E00C068F04201D19819E0
:100D300008903246012306A903A808F0C2FE03ABBF
:100D400083E807006D10641C002DE3D14FF0010310
:100D500032466946B8F1000F03A802D008F09CFEA5
:100D600001E008F0AEFEC9E90001C9F808200AB0A8
:100D7000BDE8F087E8B1000000487047300000206F
:100D80007546FFF7F9FFAE4605006946534620F069
:100D90000700854618B020B5FFF77AFABDE8204075
:100DA0004FF000064FF000074FF000084FF0000B27
:100DB000AC46ACE8C009ACE8C009ACE8C009ACE896
:100DC000C00921F007018D46704710B50446AFF306
:100DD00000802046BDE81040FFF745BA0000000043
:100DE00030B44FF0013C50F8042B51F8043BCCFADE
:100DF00052F4D51A20D1FCB950F8042B51F8043B19
:100E0000CCFA52F4D51A17D1B4B950F8042B51F8D2
:100E1000043BCCFA52F4D51A0ED16CB950F8042B1D
:100E200051F8043BCCFA52F4D51A05D1002CDAD093
:100E300030BC4FF00000704729BAB1FA81F111F0CF
:100E40001801D1F120008440F2D1CA40CB4012F009
:100E5000FF0213F0FF0330BCD01A7047014918207D
:100E6000ABBEFEE72600020070470000FEE7000070
:100E700040F2A470C2F2000000F022B870470000F7
:100E80004FF4805000F0FCBA72B600BFFEE70000DD
:100E900090F83510022909D1052180F83510006835
:100EA000016821F001010160002070478021416547
:100EB00001207047406D704790F835007047000082
:100EC000F0B581B00021009140F21001C2F20001A2
:100ED0000B68D0E9166148F2B51537680822C1F6EB
:100EE0004E358A403A42A3FB05350CD003681C6896
:100EF000640708D51C6824F004041C60B260426DCD
:100F000042F00102426501228A403A4208D0036859
:100F10005B691B0604D5B260426D42F00202426575
:100F200004228A403A4208D003681B689B0704D514
:100F3000B260426D42F00402426510228A403A4299
:100F400019D001680B681B0715D5B2600B680A68D9
:100F50005B0309D4D20509D40A6822F008020A60AA
:100F6000016C29B907E000BF110341D4016C11B134
:100F7000044688472046C26D202101FA02F33B4215
:100F800043D001680F68FF063FD5B36090F8357015
:100F90000B68052F1CD123F016030B604B6923F05F
:100FA00080034B61036C0BB9836C1BB10B6823F09E
:100FB00008030B603F219140B160012180F835109A
:100FC000016D0022002980F8342054D158E000BF80
:100FD0000A685B0310D4D20512D40A6822F010020A
:100FE0000A60012180F83510002180F8341007E0F4
:100FF000816C0029BCD1BEE7110301D4416C00E033
:10100000C16B11B1044688472046416DC1B3416DA3
:10101000C9072ED0052180F835100168AA0A0B688F
:1010200023F001030B60009B0133934200931AD815
:101030000B68DB0717D0009B01339342009312D853
:101040000B68DB070FD0009B0133934200930AD853
:101050000B68DB0707D0009B01339342009302D853
:101060000B68DB07DFD1012180F83510002180F803
:101070003410C16C21B101B0BDE8F040084700BF99
:1010800001B0F0BD2DE9F041044600F0DBFAECB10F
:101090000546022084F835000020216884F83400D9
:1010A000086820F00100086021680868C00711D0B6
:1010B00000F0C8FA401B0528F6D903252023032099
:1010C000636584F83550BDE8F08100BF0120BDE8BC
:1010D000F08100BF086848F23F02CFF21002D4E965
:1010E000013500EA020C04F10C0898E8C10143EA5A
:1010F0000C032B431843D4E9072E304338431043E5
:10110000626A40EA0E00042A40EA08031CD1206B00
:10111000D4E90A2E40EA0E00184308604869BEF17F
:10112000000F20F0030040EA020040F0040C11D050
:10113000B8F5005F36D0B8F1000F45D1022A46D08D
:10114000012A3BD032B942E00B60486920F0070029
:1011500040EA020C01F0F8004AF6AB221038CAF659
:10116000AA22A0FB02231A094CF26463C1F814C03E
:10117000C0F600039A5C40F2FF335F284FF03F0057
:1011800021EA030100FA02F088BF0431C4E9161213
:101190008860002301250020636584F83550BDE890
:1011A000F08100BF032AD5D8012540230120DFE8C4
:1011B00002F0030E030500BF82E700BFAEF1C0706E
:1011C000B0FA80F0400904E0032A04D3C2D1CEF380
:1011D00000600028BED0012540230120636584F80B
:1011E0003550BDE8F081000090F834C0BCF1010F2B
:1011F00004BF0220704770B54FF0010C80F834C076
:10120000D0F858E090F835C0BCF1010F38D14FF05C
:10121000020C80F835C04FF0000CC0F854C0D0F874
:1012200000C08468056CC06DDCF80060402C26F4BA
:101230008026CCF80060CCF804300B4604BF13467F
:101240000A463F2101FA00F0CCF80830CCF80C2017
:10125000CEF80800DCF8000040F01600CCF80000E2
:101260002DB1DCF8000040F00800CCF80000DCF8FC
:10127000000040F00100CCF80000002070BD00BF6D
:10128000002180F83410022070BD0000B0B5044683
:1012900000F0D8F9054640F20000C2F200000078E4
:1012A000611C18BF044400BF00F0CCF9401BA042F1
:1012B000FAD3B0BDB0F5805F18BF7047B0B584B049
:1012C00002200DF10E01CDE9001040F604000A25C0
:1012D000C2F20000D02147220123029500F028FE2F
:1012E000BDF80E009FED5D1AC1BA00EE101AB8EEFF
:1012F000C00A80EE011A00BA010C40F2DC10C2F202
:10130000000090ED020A9FED563A9FED564A41804B
:1013100080ED011A31EE401AB0EEC12AB4EE432A34
:10132000B0EE415A9FED503AF1EE10FAB8BFB0EE70
:10133000445A90ED044A25EE035A35EE044A80EDF6
:10134000044A90ED044A9FED495AB4EE454AF1EE45
:1013500010FA07DD90ED044A9FED455A34EE054A38
:1013600080ED044A90ED044A9FED425AB4EE454A9E
:10137000F1EE10FA07DA90ED044A9FED3F5A34EE91
:10138000054A80ED044A40F21C15C2F2000595EDB5
:10139000044A40F23C14B0EEC44AB4EE434AF1EEC3
:1013A00010FAC2F200041DDA94ED044AB0EEC44A09
:1013B000B4EE434AF1EE10FA14DA40F20801C2F238
:1013C000000191ED013A33EE033AB4EE432AF1EE17
:1013D00010FA07DC9FED292A21EE021A31EE000AED
:1013E00080ED020A0178013101700178022931D3C0
:1013F0000021017095ED061A90ED050A90ED062A80
:1014000094ED063A31EE400A73EE420A80ED051A79
:1014100080ED063A03F0C4FD287F48B100F012F9D0
:10142000A968401AC92822BF0020C5E9040028770E
:10143000207F48B100F006F9A168401AC92822BFF0
:101440000020C4E90400207706F07EFB03F03AFF99
:1014500006F046F904B0BDE8B04070470000034311
:10146000CDCC4C3D000000000AD7233C00003443A3
:101470000000B4C3000034C30000B44317B7513AAE
:1014800043F61441C4F201010A68024214BF086025
:101490007047FFF70FBF00002DE9F04F83B000F158
:1014A000200200F13E4741F60045009207F1FF7728
:1014B000C4F2020508224FEAB726A84208BF072255
:1014C00000254FF000084FF00009072E38BF4FEA03
:1014D000B72201920AE000BF09F1010908F10208F0
:1014E000B9F1100F05F1040500F0A2800F68012288
:1014F00002FA09FE17EA0E0AEED0D1F804C0032260
:101500000CF003077E1E02FA08F4012E6FEA040BAA
:1015100012D88468CE6804EA0B0406FA08F634434D
:101520008460446824EA0E06CCF3001404FA09F43B
:101530002643466004E000BF032F01D103271EE0CD
:10154000C6688C6806EA0B0604FA08F42643022FE4
:10155000C66014D16FF00302009E02EA590756F8E4
:1015600007C005F01C040F220B69A2402CEA0202FE
:10157000A3401A43F251D1F804C00CF003070268EB
:1015800007FA08F302EA0B021A431CF4403F026018
:10159000A2D0002243F644030292C4F202031A6866
:1015A00043F6004442F480421A601A68C4F201040F
:1015B00002F480420292029A29F003024FF6084C8C
:1015C0002244CFF6FF7C52F80C3005F00C070F26B2
:1015D000BE40B343019E06FA07F73B4342F80C3086
:1015E000A2684B6842EA0A0743F60C4CDE0258BF79
:1015F00022EA0A07A760C4F2010CDCF800209E0270
:1016000042EA0A0758BF22EA0A07CCF8007062686B
:101610009E0342EA0A0758BF22EA0A076760226867
:10162000DB0342EA0A0758BF22EA0A07276053E7AA
:1016300003B0BDE8F08F0000002A08BF09048161F3
:101640007047000040F61040C2F20000006870478A
:101650007047000070470000F0B581B00446006894
:1016600000254769426894F83E1002F48076FA0536
:1016700005D5002E1EBF6FF4807242610125BA05A8
:1016800005D5002E1EBF02356FF4007242617A0547
:1016900016D5AEB1628D94F83D30D4F830C0202913
:1016A00008BF002A24D06FF48062402905F10405A8
:1016B000426101D0102903D1016841F40071016039
:1016C000380507D536B1206808356FF400614161EF
:1016D00001E000BF55B1206C40EA050120462164BD
:1016E00001B0BDE8F04002F02DBE00BF01B0F0BD7A
:1016F00003F0F701212909D0282B08BFBCF1210FE5
:1017000004D06FF4806141610435D9E794F83D104D
:10171000E26AB2F1080318BF0123203A18BF012280
:10172000134208BF282921D0212939D10021CFF621
:10173000FF71E16221212163202184F83D10002105
:1017400084F83E10426822F4E06242606FF48062E6
:101750004261026822F4806202604269120648BF58
:101760000161204600F0B4FFAAE700BF0021CFF6D8
:10177000FF71E162416821F4E06141606FF48061D2
:101780004161016821F48061016000202021206313
:1017900084F83D1084F83E00204600F0BFFB8FE740
:1017A0006FF4806141618BE7F0B581B007687968BB
:1017B000C26A90F83E5090F83DE0402D01D0102DC7
:1017C00034D1BB697C69E60718D1B2F12A4F00F029
:1017D0006B82B2F52A0F00F06782220701F40072D3
:1017E00040F10681002A00F00381416B426C002920
:1017F000D2B23A6140F0B080B0E000BF8A0543D475
:101800004FF0010C7A685B076ED4120500F14C8230
:1018100004F04402402A40F0598111F4806100F044
:10182000558101B0BDE8F04002F0CEBE026C01F47B
:101830000073002A0CBFBC6900247D69AA0729D562
:1018400043B3016C002918BFBC6990F83D1001F04A
:101850002801282940F0C0807968012221F48061A4
:10186000796004F0040182EA910122064FF0180227
:1018700058BF0C22825A002380F83C3001B0BDE8EA
:10188000F040FFF7E7BE00BFC16AB1F52A0F3DD1B6
:10189000012140E0EA066FD5002B6DD090F83D5055
:1018A000796821F4E0617960002100917969009103
:1018B000396841F0010139600099396821F480618B
:1018C00039607968090540F17D8105F0F70104462A
:1018D000222940F04D8154F8381F0A68526824F8D4
:1018E0000E2C34F80E2C4BE1120500F1DD8104F0D2
:1018F0008402802A40F0FA8011F4806100F0F680C2
:1019000001B0BDE8F04002F041BF00BFC16AB1F1D3
:101910002A4F01D10821C16290F83E1040290BD115
:10192000016D406C002900F0FE0018BF40F001007E
:10193000386101B0F0BD00BF0169B1F5804F40F0E2
:10194000898090F83D10426C212902F0FE0218BFF8
:1019500001323A61416B09B1C96B39B9806B00281A
:1019600000F0A281C06B002800F09E81786840F4EE
:101970000060786001B0F0BD0EF0F702212A79D145
:1019800005F08402802A40F0C58011F4806100F0E7
:10199000C18090F83D10428D002A00F08581426A96
:1019A00012F8013B3B614262428D013A4285428D11
:1019B000002A08BF292940F07781796821F48061E5
:1019C000796021210163282180F83D1001B0BDE834
:1019D000F04000F07DBE00BF002100917A690092C6
:1019E000BA690092009A80F83C1001B0F0BD00BFC7
:1019F0004FF0010CA6078CEA522C7FF503AF002AAA
:101A00003FF400AF90F83E20C16A036B90F83D6050
:101A1000222E40F0A380066D002E08BF402A00F061
:101A20009D80026D002A40F041810269B2F5404F6D
:101A300040F03C810021009179690091B9690091E1
:101A40000099396841F480713960016D0131016597
:101A500001B0F0BD016D002900F00481016D012984
:101A600040F02281406C062101EAD010F13038614B
:101A700001B0F0BD05F04402402A5BD111F4806151
:101A800058D090F83D10428D002A00F00D813A693F
:101A9000436A1A70426A01324262428D013A4285BB
:101AA000428D002A08BF2A2940F0FE8001684A685A
:101AB00022F480624A6022210163282180F83D10CF
:101AC00001B0BDE8F04000F001BE00BF04F0040129
:101AD000012282EA910141EA0C01C90740F0E48049
:101AE00001B0BDE8F04002F0F3BC00BF04F0040117
:101AF000012282EA910141EA0C01C90740F0D48039
:101B0000BEF1210F40F0C88001B0BDE8F04002F006
:101B1000FBBD00BF690740F1C780002B00F0C48007
:101B2000418D002900F0C080416A11F8012B3A6113
:101B30000FE000BF690740F1B780002B00F0B480D0
:101B4000418D002900F0B0803969426A1170416A04
:101B500001314162418D01394185A5E000200090AD
:101B600078690090B8690090009801B0F0BD00BF9E
:101B700054F8341F0A68526824F80A2C34F80A2CE6
:101B80001AB1026C42F0040202647A68064622F43A
:101B9000006208467A60FFF78FF901463046012956
:101BA00010D0206844F2A901C0F600010165FFF7DA
:101BB0006FF90146304629B1216804460A6D08468E
:101BC00090472046418D61B101684A6952072FD480
:101BD0004A69520639D4418D19B1016C41F00401B2
:101BE0000164016C21B101B0BDE8F04002F0AABB74
:101BF0002A2D08D100210163282180F83D100446D8
:101C000000F064FD204690F83D10282932D10021D3
:101C1000CFF6FF71C16200212022016380F83D20D0
:101C200080F83E1001B0BDE8F04000F077B900BF89
:101C30000969426A1170426A016801324262428D4A
:101C4000013A42854A695206C5D50969426A11704E
:101C5000416A01314162418D01394185418D00293F
:101C6000BBD1BEE7406C062101EAD010F0303861EC
:101C700001B0F0BD016B222918BF222D14D1002123
:101C80002022016380F83D2080F83E1001B0BDE8BD
:101C9000F04000F01BBD00BF402D05D101B0BDE8F4
:101CA000F04002F0CDBD00BF01B0F0BD428D52B199
:101CB000428D012A16D1202918BF082926D139685A
:101CC00021F4806139600021009179690091B9693E
:101CD00000910099396841F4007139600021016573
:101CE00001B0F0BD428D022A0CD1102932D8012258
:101CF00014238A40C0F201031A422BD04FF48062B1
:101D00002EE000BF3A6842F480622BE011F5803F7C
:101D10000CD1396821F48061396079680905D2D520
:101D2000396821F48061396030E000BF122B01D1A5
:101D30000129C4D11029F3D8012202FA01F1142299
:101D4000C0F201021142EBD0396841F48061396080
:101D50001CE000BF3A6822F480623A604FF40062EF
:101D60003B681A433A607A6812050FD54A1E1F2A4B
:101D700018D8012303FA02F248F28103C8F20003E3
:101D80001A420FD0796841F48051796000210091A6
:101D900079690091B969009100990021016501B04C
:101DA000F0BD00BF11F5803FECD0EFE770470000B9
:101DB00090F83D0070470000002804BF01207047E4
:101DC000F0B581B0044690F83D0028B9002084F8B1
:101DD0003C00204600F088FB242084F83D00206869
:101DE000016821F001010160016841F400410160D6
:101DF000016821F40041016000F0D6FD636848F2FB
:101E0000A16CC0F2010C40F60011C0F23D01634527
:101E10003CBF48F28041C0F21E01884202D201203C
:101E200001B0F0BD4DF68361C4F21B31A0FB01127D
:101E30002168970CD1F804E04FF496762EF03F0518
:101E400045EA92454D60774348F638160D6AC0F270
:101E50004106A7FB067625F03F07634538BF960C81
:101E6000721C3A430A62CA6948F2A0664CF6FF77D0
:101E7000C0F20106B34222EA07020BD801385B0028
:101E8000B0FBF3F001306FF31F30042898BF04203B
:101E90001BE000BFA768013857B119277B43B0FB8F
:101EA000F3F001306FF31F3070B100F5804007E0B0
:101EB00003EB4303B0FBF3F001306FF31F3018B1B5
:101EC00000F5004001E000BF01201043C861086830
:101ED000D4E9072320F0C000104318430860886845
:101EE00048F2FF3204F10C0790438CCF18431043A3
:101EF000A6698860C86820F0FF0038433043C86096
:101F0000086840F00100086000202021206484F867
:101F10003D10206384F83E0001B0F0BD7047000022
:101F200070470000704700007047000070470000D5
:101F30002DE9F04784B0994616460F460446FFF750
:101F400081FB94F83D10202927D10546206800BF69
:101F5000816989071CD5FFF775FB411B20681A2989
:101F6000F6D381698907F3D500202021206384F806
:101F70003D1084F83E00206C04F13C0A40F0200043
:101F80002064022000218AF8001004B0BDE8F08728
:101F9000A2461AF83C1F012904D1022004B0BDE872
:101FA000F08700BF01228AF800200368DDE90D18E0
:101FB0000C9ADB0703D1036843F001030360036855
:101FC00023F400630360222084F83D00402084F85D
:101FD0003E000020206462626185608D3946208564
:101FE0000020CFF6FF70E062204632464B46CDE936
:101FF000008502F085FC18B1012004B0BDE8F0872F
:10200000208D08B3022813D0012835D121680A6831
:1020100022F480620A60002203924A6903928A696C
:102020000392039A0A6842F400720A602CE000BF2F
:1020300021680A6822F480620A600A6842F4006239
:102040000A60002203921AE0002003902068416990
:102050000391816903910399016841F40071016062
:10206000202084F83D00002084F83E0000218AF8FA
:10207000001004B0BDE8F0870021039121684A698F
:1020800003928969039103990427C0F201070CE0C8
:1020900010690870606A218D01306062481E2085D9
:1020A000618D013961850104DAD080B203280FD82F
:1020B00002284AD001282DD1204641462A4602F066
:1020C000BDFE002898D12068616A0069E1E700BF81
:1020D000204641462A4602F0B1FE00287FF48CAF2C
:1020E0002068616A00690870606A2268411C208D5E
:1020F000616201382085638D013B638553695B070D
:10210000D1D580B20328C3D1106820F4806010605C
:10211000BEE700BF2046394600224346009502F044
:102120003BFD00287FF468AF2068616A026822F4F2
:102130008062026000690870606A218D013060620F
:10214000481E2085608D0138608520463946002272
:102150004346009502F020FD00287FF44DAF206833
:10216000616A026842F40072026000690870606A85
:102170002268411C6162218D01392185618D0139FF
:1021800061851169417085E72DE9F04383B0994677
:1021900016460F460446FFF755FA94F83D102029DD
:1021A00024D10546206800BF816989071AD5FFF749
:1021B00049FA411B20681A29F6D381698907F3D5AA
:1021C00000202021206384F83D1084F83E00216C1B
:1021D00041F02001216484F83C00022003B0BDE8F6
:1021E000F08300BF94F83C10012903D1022003B012
:1021F000BDE8F083012284F83C200368DDE90B1878
:102200000A9ADB0703D1036843F001030360036804
:1022100023F400630360212084F83D00402084F80B
:102220003E000020206462626185608D3946208511
:102230000020CFF6FF70E062204632464B46CDE9E3
:10224000008502F0E7FB18B1012003B0BDE8F08380
:10225000208D98B9204641462A4602F03FFC88B3BB
:10226000206C0428F0D12068016841F400710160FD
:10227000012003B0BDE8F0830004EBD020464146C6
:102280002A4602F023FE0028EAD1616A2268084645
:1022900010F8013B1361238D6062581E2085678D05
:1022A000013F678557697F07E6D50704E4D0487882
:1022B0001061881C6062981E2085618D01396185DE
:1022C000DAE700BF2068016841F400710160202056
:1022D00084F83D00002084F83E0084F83C0003B000
:1022E000BDE8F0832DE9F04784B00446002098460D
:1022F00016460F460390FFF7A5F994F83D102029E4
:1023000040F0978040F21001C2F2000109684BF2E0
:102310008952C908C1F2F842A1FB0212DDE90C138F
:10232000120A19256A430392039A013A0392039A07
:10233000002A73D022689569AD071AD5039D013D27
:102340000395039D002D69D09569AD0711D5039DB7
:10235000013D0395039D002D60D09569AD0708D51B
:10236000039D013D0395039D002D57D09569AD0751
:10237000DAD494F83C50012D5BD0012584F83C5010
:102380001568ED0703D1156845F00105156015685E
:102390004FF0000C25F400651560212584F83D50B0
:1023A000402584F83E50C4F840C061626385638D67
:1023B0000025CFF6FF752385E5626764A664C4F83F
:1023C0004C80C4F850C0CBB3656B002D46D081461D
:1023D00044F21520C0F6000044F2C91C4FF0000A78
:1023E000C0F6000CC5E90F0A10322846C5E911AA4B
:1023F000C5E913CAFEF7F8FE00283FD0202084F874
:102400003D0084F83EA0206C40F01000206484F869
:102410003CA0012004B0BDE8F08700BF00202021CF
:10242000206384F83D1084F83E00206C40F02000CA
:102430002064022004B0BDE8F08700BF202084F8AB
:102440003D0084F83EC0206C40F04000206484F8D9
:102450003CC0012004B0BDE8F08700BF202084F814
:102460003D00002084F83E00216C41F08001216491
:1024700084F83C00012004B0BDE8F0872325204605
:10248000394632464346CDE9005902F0C3FAA8B1B5
:10249000606BFEF7FDFC616B20680022CA63016877
:1024A00021F48061016022856285016821F00101CB
:1024B0000160012004B0BDE8F08700BF0020029059
:1024C00021684A6902928A690292029A84F83C0061
:1024D0004A6842F480724A604A6842F400624A6084
:1024E00004B0BDE8F08700002DE9F04F87B0016827
:1024F00045F60042C4F2000200269142CDE905668D
:10250000CDE90366029667D045F60000C4F20000EC
:10251000814233D045F20040C4F20000814240F0D5
:10252000D180002443F630050194C4F202052868E6
:1025300002A940F002002860286800F00200019023
:1025400001984FF4407002901220CDE9030403205B
:1025500005900420069040F20040C4F20200FEF70D
:102560009BFF0194286940F400102861286900F459
:1025700000100190019807B0BDE8F08F002443F6E9
:1025800030050194C4F20205286802A940F0020057
:102590002860286800F00200019001984FF4406024
:1025A00002901220CDE90304032005900420069038
:1025B00040F20040C4F20200FEF76EFF0194286969
:1025C00040F480002861286900F48000019001989F
:1025D00007B0BDE8F08F00BF43F630070196C4F2A4
:1025E00002078046386840F2004540F00400386039
:1025F0003868C4F2020500F00400019001980196C9
:10260000386802AC40F00100386038684FF01209B9
:1026100000F00100019001984FF4007002904FF01B
:10262000030A4FF0040B05F580602146CDE90396BF
:10263000CDF814A0CDF818B0FEF72EFF4FF480703F
:10264000CDE9020904A880E8400CA5F58060214688
:10265000FEF722FF0196386940F2A47440F40000AE
:1026600038613869C2F2000400F40000019001985A
:1026700007F521504FF0C06140224FF4806384E899
:1026800047002046C4E90436C4E90666C4E9086682
:10269000FEF7F8FC002818BFFEF7F6FB48200021E3
:1026A0000022C8F83440C4F8388000F08FF8482081
:1026B00000F07AF849200021002200F087F8492034
:1026C00000F072F807B0BDE8F08F0000704700001E
:1026D0007047000040F2000040F61041C2F20000D6
:1026E000C2F2000100780A681044086070470000D8
:1026F00080B543F60040C4F20200016841F4007165
:102700000160016841F480610160016841F48071F9
:102710000160032000F086F80F2000F005F800F0BB
:1027200027F8002080BD000070B540F20006C2F21C
:10273000000640F210013278C2F200014FF47A73C1
:102740000968B3FBF2F20446B1FBF2F1084600F06F
:1027500061FB0F2C4FF0010508D838B94FF0FF305E
:1027600021460022002500F031F87460284670BD33
:1027700082B0002043F640010190C4F202014A6891
:1027800042F480424A604A6802F480420192019A0F
:102790000090086840F080500860086800F08050A1
:1027A0000090009802B07047002848BF704700F0C2
:1027B0001F01012202FA01F11C2202EAD0004EF2AE
:1027C0000012CEF2000281507047000010B54EF6A4
:1027D0000C5CCEF2000CDCF80030C3F3022E8EF05D
:1027E0000704042C28BF0424BEF103034FF0FF3E6E
:1027F0000EFA04F438BF0023A14399400EFA03F304
:102800009A43114300F00F0200F160430901043ABA
:1028100003F564436244002848BF02F10C031970B9
:1028200010BD00004EF60C51CEF200010A684FF6C2
:10283000FF031A4060F30A2242F0806040F0FD700E
:1028400008607047002804BF012070472DE9F0415F
:1028500043F60808C4F202080446D8F8F8030D4607
:1028600000F00700814207D988F8F853D8F8F80338
:1028700000F00700A84277D12068810717D54107EB
:1028800005D5D8F8001041F4E051C8F80010010750
:1028900005D5D8F8001041F46041C8F80010D8F808
:1028A0000010A26821F0F0011143C8F80010C00721
:1028B00040D1D8F8F80300F00700854207D288F825
:1028C000F853D8F8F80300F00700A8424CD120686C
:1028D000410707D5D8F80010E26821F4E051114310
:1028E000C8F80010000708D5D8F80000216920F4C6
:1028F000604040EAC100C8F8000000F07DF8D8F858
:1029000000104BF6A462C1F30311C0F60002515C43
:1029100040F2100220FA01F140F20400C2F200007D
:102920000068C2F200021160FFF7FEFE0020BDE861
:10293000F08100BF6068811E022907D258F8081C88
:1029400089015CBF0120BDE8F08111E0012807D1B9
:1029500058F8081C89035CBF0120BDE8F08107E03E
:1029600058F8081C890703D40120BDE8F08100BF96
:10297000D8F8001021F003010843C8F80000FEF762
:1029800061FE064641F28837D8F80000616800F021
:102990000C00B0EB810F8CD0FEF754FE801BB842C8
:1029A000F2D90320BDE8F08140F2100043F608019F
:1029B000C2F20000C4F20201006809684BF6B4627A
:1029C000C1F38221C0F60002515CC840704700008C
:1029D00040F2100043F60801C2F20000C4F2020106
:1029E000006809684BF6B462C1F34231C0F60002D8
:1029F000515CC8407047000010B543F60404C4F2AF
:102A000002046168C1F3810142F20040C0F2F400A7
:102A1000DFE801F002040A0210BD00BF41F200200D
:102A2000C0F27A0010BD00BF216801F03F022168AA
:102A300023684902C3F3881106D4A1FB00010023D7
:102A4000FDF738FC07E000BF41F20020C0F27A0039
:102A50004843B0FBF2F021680222C1F3014102EBCE
:102A60004101B0FBF1F010BD002804BF0120704708
:102A70002DE9F04182B00446007843F60006C00715
:102A8000C4F202060CD0B06800F00C00042840F03C
:102A900081803068800303D56068002800F0688179
:102AA000207880071BD5B06810F00C0F09D0B068F3
:102AB00000F00C00082840F087807068400200F1A8
:102AC00083803068800703D5E068012840F050819A
:102AD0003068216920F0F80040EAC10030602078B9
:102AE000000713D4207840072AD4A569002D00F0F0
:102AF0003A81B06800F00C00082840F0A580012D54
:102B000040F00E81012002B0BDE8F081606900282C
:102B100000F082800020C4F247200121C0F8801E0E
:102B2000FEF790FD054600BF706F8007DAD4FEF710
:102B300089FD401B0228F7D9032002B0BDE8F081CF
:102B4000306C5FEAC0080AD400200190306C40F07D
:102B500080503064306C00F080500190019847F252
:102B60000007C4F200073868C00547D4386840F44D
:102B700080703860FEF766FD054600BF3868C00506
:102B80003CD4FEF75FFD401B0228F7D9032002B0BA
:102B9000BDE8F081B06800F00C00082803D170682F
:102BA00040023FF576AF61683068B1F5803F07D0ED
:102BB000B1F5A02F40F09A8040F48020306030685A
:102BC00040F4803030609AE0E068002840F2000075
:102BD000C4F247205CD001210160FEF733FD0546B9
:102BE000306880073FF574AFFEF72CFD401B0228CC
:102BF000F6D9032002B0BDE8F08100BFA168306FB4
:102C0000012905D0052955D140F004003067306F07
:102C100040F00100306756E00020C4F24720002158
:102C2000C0F8801EFEF70EFD054600BF706F8007DE
:102C30007FF558AFFEF706FD401B0228F6D90320AA
:102C400002B0BDE8F08100BF0027C4F24727002092
:102C50003866FEF7F7FC022D05460DD1306880017D
:102C600040F18A80FEF7EEFC401B02284FF0030083
:102C7000F4D902B0BDE8F0813068800173D5FEF769
:102C8000E1FC401B02284FF00300F5D9F1E700BF3B
:102C900000210160FEF7D6FC054600BF30688007C2
:102CA0007FF51DAFFEF7CEFC401B02284FF003005E
:102CB000F4D9DEE720F001003067306F002920F002
:102CC000040030677AD0FEF7BDFC054641F2883734
:102CD000306F800700F18480FEF7B4FC401BB842DF
:102CE000F6D9032002B0BDE8F08100BF20F48030A7
:102CF00030603068002920F4802030607AD0FEF700
:102D0000A1FC0546306880033FF5CAAEFEF79AFC89
:102D1000401B6428F6D9032002B0BDE8F08100BF53
:102D20007068E16900F480028A4221D1216A00F0D2
:102D30003F028A421CD147F6C071626A0140B1EB82
:102D4000821F15D1A16A4FF6FF73C903994300F49E
:102D50004032A1F580318A420AD1E16A00F0706008
:102D6000B0EB016F04D1002002B0BDE8F08100BFDC
:102D7000012002B0BDE8F08104F11C052FCD08430D
:102D800040EA8210D9034FF6FF729143A1F58031DA
:102D900040EA05600843706001203866FEF752FC87
:102DA000044600BF30688001DDD4FEF74BFC001BF9
:102DB00002284FF00300F5D95BE700BFFEF742FCA5
:102DC000054641F2883700BF306F800708D5FEF70F
:102DD00039FC401BB8424FF00300F5D949E700BF6A
:102DE000B8F1000F3FF581AE306C20F080503064B8
:102DF0007BE600BFFEF726FC054600BF3068800377
:102E00007FF54EAEFEF71EFC401B64284FF003001A
:102E1000F4D92EE7411E0020B0EB116F1CBF01203A
:102E200070474EF21002CEF2000251604EF623516E
:102E3000CEF20001F0230B70072190601160704703
:102E4000704700007047000090F83C20012A4FF0C6
:102E5000020254D010B580F83D200268D2F804E098
:102E6000D2F808C00C682EF07003234341F2FF74BF
:102E7000C4F20004A24253600EDC40F2FF73C4F2BD
:102E800000039A4216DCB2F1804F2BD040F200438F
:102E9000C4F2000324E000BF40F2FF33C4F2010398
:102EA0009A4213DC41F60003C4F200039A4219D09F
:102EB000002313E040F60003C4F200039A4211D04D
:102EC00040F60043C4F200030AE000BF44F20003EE
:102ED000C4F201039A4205D040F20043C4F2010358
:102EE0009A4204D149682CF0800319439160012172
:102EF000002280F83D1080F83C20BDE810401046CC
:102F000070470000002804BF0120704710B5044638
:102F100090F83D0028B9002084F83C00204600F0DD
:102F20001FF8022084F83D002068211D02F078FC83
:102F3000012084F8460084F83E0084F83F0084F8BD
:102F4000400084F8410084F8420084F8430084F88B
:102F5000440084F8450084F83D00002010BD0000C6
:102F600080B586B0006840F2FF71C4F2000188426B
:102F70004FF000010591CDE90311CDE9011145DDC7
:102F800040F60001C4F2000188425BD040F60041E7
:102F9000C4F20001884267D00021C4F201018842D6
:102FA00040F0C380002043F640010090C4F20201CB
:102FB0004A6842F001024A604A6802F00102009247
:102FC000009A009051F8102C42F0100241F8102C99
:102FD00051F8101C01F01001009100994FF4D441F8
:102FE00001910221CDE902100490012005900020FA
:102FF000C4F2020000F5805001A9FEF74DFA1B2033
:1030000004210022FFF7E2FB1B208CE0B0F1804F8F
:103010005AD040F20041C4F20001884240F085805D
:103020000020009043F64000C4F20200016841F025
:1030300002010160006800F002000090009806B0F4
:1030400080BD00BF0020009043F64000C4F20200A3
:10305000016841F004010160006800F00400009084
:10306000009806B080BD00BF002043F640010090EC
:10307000C4F202010A6842F008020A600A6802F01B
:1030800008020092009A009051F8102C42F00102C0
:1030900041F8102C51F8101C01F001010091009929
:1030A0000221CDE903000020CDE901110591C4F210
:1030B000020001A9FEF7F0F9322001210022FFF7FA
:1030C00085FB32202FE000BF002043F64001009036
:1030D000C4F202010A6842F001020A600A6802F0C2
:1030E00001020092009A009051F8102C42F0010267
:1030F00041F8102C51F8101C022201F0010100913E
:1031000000990121CDE90220CDE9040100200191BF
:10311000C4F2020001A9FEF7BFF91C200121002220
:10312000FFF754FB1C20FFF73FFB06B080BD0000FB
:1031300090F83C20012A4FF002026CD080B580F854
:103140003D20D0F800C04FF67772DCF8083023EA53
:103150000202CCF808200B684F2B29DC1F2B45DD21
:10316000202B46D0302B44D0402B40F0AF80D1F8FC
:1031700004E0C968DCF82030DCF8202022F00102ED
:10318000CCF82020DCF8182022F0F00242EA0111ED
:1031900023F00A0242EA0E02CCF81810CCF82020E4
:1031A000DCF8081041F0470121F0300128E000BFB1
:1031B0006F2B33DDB3F5005F74D0B3F5805F21D0A2
:1031C000702B40F08380D1E901E3C968DCF8082066
:1031D00043EA0E0322F47F4243EA01211143CCF873
:1031E0000810DCF8081041F0770109E00BB1102B52
:1031F0006CD1DCF8081021F07001194341F007018F
:10320000CCF808100022012180F83D10002180F840
:103210003C10BDE880401046704700BF502B21D0C5
:10322000602B53D1D1F804E0C968DCF82030DCF819
:10323000202022F01002CCF82020DCF8182022F404
:10324000704242EA013123F0A00242EA0E12CCF8A9
:103250001810CCF82020DCF8081041F0670121F0AC
:103260001001CDE7D1F804E0C968DCF82030DCF8C3
:10327000202022F00102CCF82020DCF8182022F0D7
:10328000F00242EA011123F00A0242EA0E02CCF8EF
:103290001810CCF82020DCF8081041F0570121F07C
:1032A0002001ADE7D1E901E3C968DCF8082043EA71
:1032B0000E0322F47F4243EA01211143CCF80810A7
:1032C000DCF8081041F480419AE700BF01229AE738
:1032D00010B50446FEF7B6F940F26871C2F200017B
:1032E000086020680022C4F20102904246D040F6F5
:1032F0000042C4F20002904222D0B0F1804F1DD1B2
:103300003420C4F20000036840F21810C2F200003A
:10331000826804699A1A09680134652AC0E9023191
:10332000046180F0818090F90010B1F1FF3F40F31B
:10333000A28090F90010012980F2AA8010BD00BF80
:1033400040F63840C4F20000036840F21810C2F2A0
:103350000000826A046B9A1A09680134652AC0E980
:103360000A31046324D290F90110B1F1FF3F45DD29
:1033700090F9011001294DDAE0E700BF207F012814
:1033800018BF10BD40F274712020C2F20001C4F2D7
:1033900001000B7C4269002B00F084804A604A687F
:1033A0000B689A4240F286804A680B68D21A87E01E
:1033B000426200EE102A9FED521A90F90110B8EE09
:1033C000400A81EE001AB1F1FF3FDCBFB1EE412AA5
:1033D00080ED0D2A90F901100129A8BF80ED0D1A8A
:1033E0009FED481A012181EE000A80F8401080ED1F
:1033F0000E0A90F90110B1F1FF3FB9DC90ED0F0A10
:103400009FED411A30EE010A80ED0F0A90F901108C
:10341000012993DB90ED0F0A9FED3C1A30EE010A73
:1034200080ED0F0A10BD00BF426000EE102A9FED34
:10343000341A90F90010B8EE400A81EE001AB1F18A
:10344000FF3FDCBFB1EE412A80ED052A90F9001064
:103450000129A8BF80ED051A9FED2A1A012181EEEE
:10346000000A80F8201080ED060A90F90010B1F1F2
:10347000FF3F3FF75EAF90ED070A9FED231A30EE56
:10348000010A80ED070A90F900100129FFF656AFF6
:1034900090ED070A9FED1D1A30EE010A80ED070A34
:1034A00010BD00BF0A6001220A74016841F00201E8
:1034B000016010BD0A684B689A1A4FF6FF731A44F0
:1034C0008A608A6846F2A8139A4203D942F20F72C0
:1034D0000BE000BF8A6848F21F5302EB0212C5F2EC
:1034E000EB13A2FB0323C3F34F12CA6001224A74F9
:1034F00000220A74016821F00201016010BD00BFC2
:10350000B8881F46001B374A6CDB29BC6CDB293CA2
:1035100090F83C30012B04BF022070474FEAB20202
:10352000032A00F28D80F0B5DFE802F0026426463F
:103530000368D1E900C5D1F80CE01C6A1A6A41F2AF
:10354000FF7722F001021A621A4652F8186FC4F28D
:103550000007BB427ADC40F2FF77C4F20007BB42AF
:1035600000F38280B3F1804F00F0968040F2004774
:10357000C4F200078EE000BF0768D1E900C5D1E9B9
:1035800002313C6A3A6A61F3071522F480723A62AA
:103590003A4652F81C6F26F0F30645EA060124F479
:1035A00020660CF00A0546EA052611603E621168A5
:1035B00021F00C01116080E00368D1E900E6D1E957
:1035C00002C11C6A1A6A360222F480521A621A4632
:1035D00052F81C5F4FF2FF07BE4325F4734561F3B9
:1035E0000F3624F420440EF00A0746EA050144EAA7
:1035F00007371CE00368D1E900E6D1E902C11C6A83
:103600001A6A360222F010021A621A4652F8185F3D
:103610004FF2FF07BE4325F4734561F30F3624F0E4
:10362000A0040EF00A0746EA050144EA07171160F4
:103630001F6211684FEA0C2321F4406111603CE0E5
:103640000121002280F83C200846704740F2FF37F5
:10365000C4F20107BB4213DC41F60007C4F20007C5
:10366000BB4219D0002713E040F60007C4F2000760
:10367000BB4211D040F60047C4F200070AE000BF89
:1036800044F20007C4F20107BB4205D040F20047F4
:10369000C4F20107BB421BD126F00306354324F0D8
:1036A0000A070CF00A066EF3071537449D611F6286
:1036B0009F6927F00C079F618B681168194311609F
:1036C0000021BDE8F040002280F83C200846704709
:1036D00046F00105E3E70000002804BF0120704721
:1036E00010B5044690F83D0028B9002084F83C004D
:1036F000204600F01FF8022084F83D002068211DBC
:1037000002F08EF8012084F8460084F83E0084F828
:103710003F0084F8400084F8410084F8420084F8B7
:10372000430084F8440084F8450084F83D000020FC
:1037300010BD00007047000031B3042908D00829EB
:1037400019BF4FF0450C41234FF0440C402302E0D9
:103750004FF0430C3F23C25C10F80C30012A4FF0AD
:10376000010208BF012B63D10222082922D00429BB
:1037700054D180F83F2080F843204FEAB103032B57
:103780004FF0010220D953E090F83E2090F84230EB
:10379000012A4FF0010208BF012B49D1022280F813
:1037A0003E2080F842204FEAB103032B4FF0010284
:1037B0000AD93DE080F8402080F844204FEAB10368
:1037C000032B4FF0010233D84CF2346C0068C0F682
:1037D000000C5CF823C0C36801F01F0143EA0C032E
:1037E000C360036A02FA01F123EA01020262026A7B
:1037F000114341F2FF72C4F200029042016219DCEF
:1038000040F2FF71C4F20001884221DCB0F1804F28
:1038100036D040F20041C4F200012FE080F8412090
:1038200080F845204FEAB103032B4FF00102CBD9BA
:103830001046704740F2FF31C4F20101884213DCA8
:1038400041F60001C4F20001884219D0002113E0C2
:1038500040F60001C4F20001884211D040F6004158
:10386000C4F200010AE000BF44F20001C4F2010109
:10387000884205D040F20041C4F20101884206D1DD
:10388000816801F00701062904BF00207047016824
:1038900041F00101016000207047000070B504464E
:1038A0000068C5680669B10716D515F0020113D086
:1038B0006FF002010161012121778069800703D047
:1038C0002046FFF705FD05E0204600F0DBF8204626
:1038D00000F01AFA00202077700719D515F00400BF
:1038E00016D020686FF00401016102212177806900
:1038F00010F4407F04D02046FFF7EAFC06E000BF4A
:10390000204600F0BFF8204600F0FEF900202077A6
:10391000300717D515F0080014D020686FF00801A3
:10392000016104212177C069800703D02046FFF799
:10393000CFFC05E0204600F0A5F8204600F0E4F9B1
:1039400000202077F00619D515F0100016D0206859
:103950006FF01001016108212177C06910F4407FE8
:1039600004D02046FFF7B4FC06E000BF204600F07C
:1039700089F8204600F0C8F900202077F00718BF2A
:1039800015F0010002D1300609D412E020686FF072
:1039900001010161204600F041FA300609D515F019
:1039A000800006D020686FF0800101612046FFF79B
:1039B00047FA700609D515F0400006D020686FF070
:1039C00040010161204600F02BFAB00658BF70BDDF
:1039D00015F0200008D021686FF0200220460A610F
:1039E000BDE87040FFF72EBA70BD000080B586B00C
:1039F000006840F60002C4F2000200219042CDE9C6
:103A00000411CDE9021101911AD040F20041C4F233
:103A10000001884234D10020009043F63000C4F207
:103A20000200016841F0040101600068402100F0DB
:103A300004000090009840F60000C4F2020015E077
:103A400043F630000091C4F20200016841F0080121
:103A5000016000684FF4704100F008000090009889
:103A600040F60000C4F2020000F5806001910221DE
:103A700002910022059101A9CDE90322FDF70CFD79
:103A800006B080BD7047000090F83C30012B04BFA9
:103A9000022070474FEAB202032A00F2FF802DE9AC
:103AA000F043DFE802F003B13F7F00BF036840F25C
:103AB00000461C6A1A6A24F0020422F001021A620B
:103AC0001A46D3F804C052F818EF8F6843F48065A3
:103AD000C4F20106B54244EA070405D1CF6824F0D8
:103AE0000C0427F004073C430F68B54206D1D1E926
:103AF00005582CF440762E4346EA080C2EF0730647
:103B00003743C3F804C09F614F6809695F631C6253
:103B10009F6947F008079F619F6927F004079F612D
:103B2000B1E000BF036840F200481C6A1A6A24F43E
:103B3000007422F480721A621A46D3F804C052F854
:103B40001CEF8F6843F48065C4F20108454544EAE0
:103B5000072408D1CF6840F2FF463F0224F44064B6
:103B600027EA06063443D1F80090454506D1D1E94D
:103B700005562CF440572E4347EA061C2EF07307D7
:103B800047EA0907C3F804C0DF614F680969DF63CA
:103B90001C62DF6947F00807DF61DF6927F004076F
:103BA000DF6170E0036840F20045D3F820C01A6A74
:103BB00043F4806722F480521A621A465C6852F815
:103BC0001C8FD1F800E08E68C4F20105AF4204D129
:103BD0004D6924F4804444EA85142CF4005747EAE4
:103BE000063728F4E64646EA0E265C60DE614E683B
:103BF00009691E641F62DF6947F40067DF61DF69DE
:103C000027F48067DF613DE0036840F200481C6AEA
:103C10001A6A24F0200422F010021A621A46D3F81D
:103C200004C052F818EF8F6843F48065C4F20108AD
:103C3000454544EA071407D1CF686FF0400624F0E9
:103C4000C00406EA07163443D1F80090454506D172
:103C5000D1E905562CF440672E4347EA860C2EF432
:103C6000E64747EA0927C3F804C09F614F6809691E
:103C70009F631C629F6947F400679F619F6927F4F7
:103C800080679F6109021368194311600021BDE834
:103C9000F043002280F83C200846704701210022B2
:103CA00080F83C2008467047002804BF0120704778
:103CB00010B5044690F83D0028B9002084F83C0077
:103CC000204600F01FF8022084F83D002068211DE6
:103CD00001F0A6FD012084F8460084F83E0084F837
:103CE0003F0084F8400084F8410084F8420084F8E2
:103CF000430084F8440084F8450084F83D00002027
:103D000010BD00007047000070470000C1B10429D9
:103D100008D0082914BF41224022825C012A05D024
:103D200016E000BF3F22825C012A11D1022208293D
:103D300010D0042914BF80F8412080F83F200BE008
:103D400090F83E20012A03D1022280F83E2003E0B1
:103D50000120704780F84020006801F01F01012217
:103D6000036A02FA01F123EA01020262026A1143C4
:103D700041F2FF72C4F20002904201620CDC40F298
:103D8000FF71C4F20001884214DCB0F1804F37D0DB
:103D900040F2004116E000BF40F2FF31C4F20101E1
:103DA000884215DC41F60001C4F20001884227D0A8
:103DB000002115E040F60001C4F2000188421FD046
:103DC00040F60041C4F20001884219D01FE000BF54
:103DD00044F20001C4F20101884211D040F20041D6
:103DE000C4F20101884212D1416C40F2004340F418
:103DF0008062C4F2010341F400419A42416406D159
:103E0000816801F00701062904BF0020704701689E
:103E100041F0010101600020704700007047000080
:103E200070470000002804BF0120704710B5044609
:103E300090F8410028B9002084F84000204600F0A6
:103E400021F8242084F841002068C16821F4005141
:103E5000C160204601F082FD2068016921F4904193
:103E60000161416921F02A014161C16841F40051B9
:103E7000C16000202021606484F8411084F8421061
:103E8000606310BD80B586B041F200010068C4F2E5
:103E90000101002288420592CDE90322029201929B
:103EA00002D006B080BD00BF43F630000092C4F2DD
:103EB0000200436943F010034361436903F01003B8
:103EC0000093009B0092036843F0020303600068C4
:103ED00000F0020000900098C02001900220CDE97F
:103EE0000202032004900720059001F5744001A907
:103EF000FDF7D2FA06B080BD2DE9F04381B004464B
:103F000090F84100202809D100294FF0010018BF86
:103F1000002A07D101B0BDE8F08300BF022001B044
:103F2000BDE8F0830020606421201D460E4684F821
:103F300041001746FDF786FBA784E784A168814608
:103F4000B1F5805F02D1206900285DD0374600209E
:103F5000E28C2168002A5DD06A1C24D0002D4AD052
:103F6000804600BF0868000608D4FDF76BFBA0EB95
:103F70000900A8427AD82168C868F3E717B117F892
:103F8000010B04E038F8020B00276FF35F20486054
:103F9000E08C0138E084E08C0028E3D13AE000BFF7
:103FA0000A68120609D40A68120606D40A681206BC
:103FB0005CBF0A685FEA0262F2D51FB117F8012BF5
:103FC00005E000BF30F8022B00276FF35F224A6044
:103FD000E28C013AE284E28C002AE4D11AE000BFCC
:103FE00030F8022B00276FF35F224A60E28C013A1F
:103FF000E284E28C72B10A68120635D5002FEFD048
:1040000017F8012BF1E700BF00273046E28C21684A
:10401000002AA1D1086840061ED42DB3681C14D113
:10402000086840062AD40868400627D40868400675
:1040300024D4086840064FF00000F1D50DE000BF21
:104040002068C1680068400618D4FDF7FBFAA0EBB1
:104050000900A842F4D909E00020202184F8411089
:1040600001B0BDE8F08300BFFDF7ECFA032020218A
:1040700084F8411001B0BDE8F08300BF002020218A
:1040800084F8411001B0BDE8F0830000FEE70000B5
:1040900040F6AC00C2F20000FDF7DEBA40F6AC001C
:1040A000C2F20000FDF780BB10B581B00021009185
:1040B000806B40F21001C2F2000190F83DC0096827
:1040C0004BF28952C908C1F2F842A1FB0212110A4F
:1040D000232251430091009901B3009901390091C5
:1040E0000268116889051DD50099B9B10099013997
:1040F00000911168890515D5009979B100990139A8
:104100000091116889050DD5009939B100990139DF
:10411000009111688905DED404E000BF016C41F014
:1041200020010164446B4FF0000E002C1CBF0021E5
:10413000E163816B00291CBF0022CA630268002C66
:10414000136823F480631360A0F82AE018BFC4F852
:1041500050E000291CBF00230B65116821F001010C
:10416000116090F83D1060290CD1202180F83D109D
:10417000002180F83E10016401B0BDE81040FDF759
:1041800067BA00BF0CF02801282911D1116841F04D
:1041900001011160116841F4806111600021016327
:1041A000282180F83D1001B0BDE81040FDF7FEBDAC
:1041B000202180F83D10002180F83E1001B0BDE8BC
:1041C0001040FDF7F3BD000010B5846B616B002952
:1041D0001CBF0022CA63A16B00291CBF0022CA6356
:1041E000FCF768FE022808BF10BD2068016821F4B2
:1041F0008061016000202021608584F83D1084F8F2
:104200003E00206C40F0100120462164BDE81040C3
:10421000FDF7CCBD10B5846B94F83D2094F83EE0DA
:10422000D4F82CC02168606B4B68002823F44073DD
:104230004B601CBF0023C363A06B00281CBF00237E
:10424000C36302F02100212820D002F0220022289E
:1042500008BFBEF1200F19D094F83E00002808BF17
:1042600010BD608D012803D1086820F480600860CB
:104270004868BCF1070F20F44070486028DCBCF1AE
:104280002A4F2BD01CF5803F28D02BE048682A2AE3
:1042900020F4006048604FF0000060850AD0292AB1
:1042A00010D121202063282084F83D002046FEF70D
:1042B0000FFA07E022202063282084F83D002046E2
:1042C000FEF704FA2068416841F44071416010BD76
:1042D000BCF1200F02D0BCF1080F03D1086840F4F4
:1042E00000700860486820F480504860486820F4F6
:1042F0000060486000216185206C28B12046BDE83F
:104300001040FDF753BD00BF202084F83D0094F815
:104310003E0084F83E10402806D120462163BDE8C7
:104320001040FDF701BE00BFBCF1080018BF12200D
:10433000BCF1200118BF014620462163BDE81040B2
:10434000FDF7EEBD10B5044690F83D1090F83E0024
:10435000B0F1100218BF0122403818BF01200242FC
:1043600008BF222934D001F0280028283AD10020A3
:104370002063282084F83D0020684168090542D563
:10438000416821F400614160606B90F835100129AB
:1043900058D1A06B44F2A901C0F600010165FCF7F9
:1043A00077FD002861D020684169490606D500697B
:1043B000616A0870616A206801316162016821F0F8
:1043C00001010160202084F83D00A06B4BE000BF9C
:1043D0002068026822F4006202604268120505D576
:1043E0000CE000BF20684268120507D4602905D0A0
:1043F000202184F83D10002184F83E100021216323
:1044000041680905BCD494F83D10602950D12021A1
:1044100084F83D10002121644169490606D50069F0
:10442000616A0870616A206801316162016821F087
:10443000010101602046FDF70BF9206C000717D140
:104440001BE000BF44F2A901C0F600010165FCF7C2
:104450001FFD50B12168606B0A6822F001020A60FA
:10446000202184F83D10016D8847206C000704D09E
:104470002068416821F4E061416094F83D00216CBE
:10448000490758BF10BD282810D10020CFF6FF7073
:10449000E06200212020216384F83D00204684F85A
:1044A0003E10BDE81040FDF739BD00BF10BD00BF94
:1044B0004169490605D50069616A0870606A013082
:1044C00060622046FDF772FC206C0007D0D1D4E773
:1044D000C16A428D042A07D10168426A4B6823F4FD
:1044E00080634B60096911E0428D032A16D102688E
:1044F0000229536823F48063536005D0042903D054
:10450000116821F4806111601169426A1170416A79
:1045100001314162418D013941857047428D022A46
:1045200012D14A1E0F2A19D8DFE802F00812181219
:104530001818181818181818181818080268136886
:1045400023F480630EE000BF0168426ACAE700BF3F
:104550000268136843F4806304E000BF02681368D4
:1045600043F4007313601269436A1A70426AD0F808
:1045700000C0531C4362438D013B4385DCF810307F
:104580005370426A036801324262428D013A4285A9
:104590005A6822F440725A60202280F83D2090F838
:1045A0003E300022402B80F83E2003D10263FDF70D
:1045B000BBBC00BFB1F1080218BF1222203918BFDE
:1045C00011460163FDF7ACBC81B090F83D10222983
:1045D00010D1C16A428D042A0ED30168426A09696A
:1045E0001170416A01314162418D01394185418D2E
:1045F000032959D001B07047C36A012A54D8022B4D
:1046000052D00022009240F21002C2F20002126860
:104610004BF28953D208C1F2F843A2FB03231A0AD2
:1046200002EB82020092009A013A0092009A002A5C
:1046300042D0026813689B0517D5009B013B00938D
:10464000009BCBB313689B050FD5009B013B0093E8
:10465000009B8BB313689B0507D5009B013B009320
:10466000009B4BB313689B05DDD4136823F4806370
:104670001360536823F4E06353601269436A1A704D
:10468000426A01324262428D013A4285202280F81C
:104690003D2090F83E300022402B80F83E2027D16C
:1046A000026301B0FDF740BC0068416821F48061FD
:1046B000416001B0704700BF016C41F0200101640E
:1046C0000168426A4B6823F4E0634B60096911702A
:1046D000416A01314162418D01394185202180F8D3
:1046E0003D10002180F83E1001B0FDF75FBB00BF18
:1046F000B1F1080218BF1222203918BF1146016318
:1047000001B0FDF70DBC0000C16A90F83D20212AE0
:1047100018BF7047428D4AB1416A026811F8013BE7
:1047200013614162418D01394185704711F5803F28
:1047300018BF082918D101684A6822F4E0624A606B
:104740000A6842F400720A6000212022016380F8A6
:104750003D2090F83E2080F83E10402A08BFFDF72B
:10476000E5BBFDF7DFBB00BF2029E4D001684A6844
:1047700022F4E0624A6011210163002180F83E10BA
:10478000202180F83D10FDF7CDBB000090F83D10D2
:1047900090F83EC0C26A038D002B08BF212919D0B2
:1047A000212905D0BCF1400F08BF222900D0704755
:1047B000418D69B390F83E10402908BF00F040B821
:1047C000416A026811F8013B13614162418D013970
:1047D0004185704712F5803F18BF082A1ED1016835
:1047E0004A6822F4E0624A600A6842F400720A6091
:1047F00000212022016380F83D2090F83E2080F8BF
:104800003E10402A08BFFDF791BBFDF78BBB00BFF0
:104810000068416821F4806141607047202ADED041
:1048200001684A6822F4E0624A60112101630021B4
:1048300080F83E10202180F83D10FDF773BB00008A
:1048400090F83D10026D5AB1026D012A14D1016831
:10485000826CD2B20A61016D01310165704700BFFF
:10486000C26C816C012A15D10268C9B21161016D57
:1048700002310165704700BF026D022A12D1222960
:1048800018D101680A6842F480720A60016D013132
:10489000016570470268C1F307211161016D0131A3
:1048A0000165704700684169090644BF0021016144
:1048B000704700BF428D5AB1212909D1416A02686F
:1048C00011F8013B13614162418D01394185704707
:1048D000428D002A08BF2129EAD101684A6822F4E2
:1048E000E0624A600A6842F400720A6000212022F5
:1048F000016380F83D2080F83E10FDF717BB0000F3
:104900002DE9F04782B0044600689A460B9D0A9E46
:104910000368914643F48062026002680F4642F4E5
:104920008071016020464FF001110022334600954E
:1049300000F032F950B120680068C00544BF4FF460
:1049400000702064032002B0BDE8F08740F2020846
:104950002068C0F2010807F0FE07076120464146C3
:1049600032462B4600F0FEF920B1012002B0BDE82E
:10497000F08700BF0020019020682A46416901911C
:104980008069314601900198204600F09FFAB0B945
:104990002068BAF1010F09D04FEA192101612046C0
:1049A00031462A4600F092FA48B920685FFA89F148
:1049B0000161204631462A4600F088FA60B1206C39
:1049C0000428D2D12068016841F4007101600120FF
:1049D00002B0BDE8F08700BF2068002201683346BE
:1049E00041F48071016020464FF00111009500F004
:1049F000D3F800289FD147F0010C27682046414694
:104A000032462B46C7F810C002B0BDE8F04700F0B0
:104A1000A9B900002DE9F04383B0044600680F46B1
:104A200001680A9D0B9E41F4807199469046016091
:104A300020464FF0011100222B46009600F0ACF802
:104A400050B120680068C00544BF4FF40070206476
:104A5000032003B0BDE8F083206807F0FE01016188
:104A60000221C0F2010120462A46334600F07AF9BD
:104A700020B1012003B0BDE8F08300BF0020029008
:104A80002068324641690291806929460290029865
:104A9000204600F01BFA58B1206C0428E9D12068A8
:104AA000016841F400710160012003B0BDE8F083AA
:104AB0002068B9F1010F0AD04FEA182101612046A0
:104AC0002946324600F002FA0028E5D120685FFA54
:104AD00088F10161002003B0BDE8F08370B5036880
:104AE000044653F8140F400711D40E46481C29D031
:104AF00086BB00BF1868400527D4FCF7A3FD2368D8
:104B000053F8140F400737D518684007F2D5002036
:104B100070BD00BF18684007F9D41868400514D468
:104B200018684007F3D4186840050ED41868400789
:104B3000EDD41868400508D4186840074FF000000D
:104B400048BF70BD18684005E4D56FF480601860F8
:104B5000042012E0154603E053F8140F4007D6D4A2
:104B600018684005F1D4FCF76DFD401B2368B04286
:104B7000F2D958694007EFD4202000212022216378
:104B800084F83D2084F83E10226C104320640120FC
:104B900084F83C1070BD00002DE9F0410546006826
:104BA0001E46144601F47F0201338FB242D0DDF875
:104BB0001880B2F5803F40F0878040693840C01BC4
:104BC000B0FA80F04009844240F0C8804EB924E039
:104BD00040693840C01BB0FA80F04009844240F080
:104BE000BD80FCF72FFDA0EB08012868B142EFD98A
:104BF00041693940C91BB1FA81F149098C42E7D1B9
:104C00009BE000BF40693840C01BB0FA80F040090B
:104C100084424FF0000040F0A280FCF713FD2868AA
:104C200041693940C91BB1FA81F149098C42E9D186
:104C300083E000BFB2F5803F24D100BF4169394015
:104C4000C91BB1FA81F149098C4240F08780416962
:104C50003940C91BB1FA81F149098C4240F07E808C
:104C600041693940C91BB1FA81F149098C4275D1BA
:104C700041693940C91BB1FA81F149098C42DDD043
:104C80006CE000BF81693940C91BB1FA81F1490963
:104C90008C4263D181693940C91BB1FA81F149095C
:104CA0008C425BD181693940C91BB1FA81F1490954
:104CB0008C4253D181693940C91BB1FA81F149094C
:104CC0008C42DFD04AE000BF80693840C01BB0FA98
:104CD00080F04009844241D146B923E080693840E0
:104CE000C01BB0FA80F04009844237D1FCF7AAFC1F
:104CF000A0EB08012868B142F0D981693940C91B8D
:104D0000B1FA81F149098C42E8D116E08069384056
:104D1000C01BB0FA80F0400984424FF0000018BF79
:104D2000BDE8F081FCF78EFC286881693940C91B19
:104D3000B1FA81F149098C42E8D100202021286391
:104D400085F83D1085F83E00296C41F0200129646A
:104D500085F83C000120BDE8F08100BF0020BDE8DF
:104D6000F0810000F0B581B0044600681D4643693B
:104D70008FB203EA0701B94202D1002001B0F0BDB1
:104D80004169164601323CD0490512D47EB300BFBA
:104D9000FCF758FC411B2068B14203D941693940F6
:104DA000B9422BD141693940B942E6D04169490540
:104DB000EED5016841F4007101606FF480614161DA
:104DC000042000212022216384F83D2084F83E1035
:104DD000226C1043206484F83C10012001B0F0BD27
:104DE00041693940B942C8D041694905E1D4FCF76D
:104DF00029FC206841693940B942F1D02020E0E720
:104E000041694905D5D441693940B942B5D04169B4
:104E10004905CED441693940B942AED0416949050E
:104E2000C7D441693940B942A7D041694905C0D4C6
:104E300041693940B942E3D19FE7000070B50446AB
:104E40000068154650F8143F5A063DD40E4629B95D
:104E500026E000BF50F8141F490635D40168C90682
:104E600021D4FCF7EFFB411B2068B142F2D9416924
:104E70004906EFD400202021206384F83D1084F8F7
:104E80003E00206C40F0200018E000BFFCF7DAFB89
:104E9000206850F8141F4906ECD50168490613D460
:104EA0000168C906F2D56FF01001016000202021D1
:104EB000206384F83D1084F83E00206C20640020BC
:104EC00084F83C00012070BD002070BD70B50368FF
:104ED000044653F8140F000611D40E46481C29D07E
:104EE00086BB00BF1868400527D4FCF7ABFB2368DE
:104EF00053F8140F000637D518680006F2D50020C5
:104F000070BD00BF18680006F9D41868400514D4B5
:104F100018680006F3D4186840050ED41868000617
:104F2000EDD41868400508D4186800064FF000005A
:104F300048BF70BD18684005E4D56FF48060186004
:104F4000042012E0154603E053F8140F0006D6D4EF
:104F500018684005F1D4FCF775FB401B2368B0428C
:104F6000F2D958690006EFD42020002120222163C5
:104F700084F83D2084F83E10226C10432064012008
:104F800084F83C1070BD000040F2EC00C2F200005A
:104F90000021C0E90011C0E9021101617047000061
:104FA00010B52DED0A8B40F2EC0440F2EC10C2F289
:104FB0000004C2F2000094ED02AA90ED001A9FEDE9
:104FC000429A9FED422A21EE091A81EE02BA30EE92
:104FD000200AB6EE001A20EE01CA3AEE0B0A20EEC5
:104FE000018AB0EE480A84ED02BA05F089F894ED22
:104FF000001A2CEE000A30EE010A84ED000AB0EE31
:10500000480A05F089F99FED321A94ED013A8CEEC9
:10501000012A2CEE000A30EE030A84ED010A3BEE71
:105020004A0AB4EE490AF1EE10FA84ED032A1DDDB6
:105030009FED282A30EE020AB4EE490AF1EE10FA8A
:1050400014DD30EE020AB4EE490AF1EE10FA0DDD7D
:1050500030EE020AB4EE490AF1EE10FA06DD30EE47
:10506000020AB4EE490AF1EE10FAE3DC9FED1A2AC7
:10507000B4EE420AF1EE10FA1EDA9FED183A00BFC4
:1050800030EE030AB4EE420AF1EE10FA14DA30EE12
:10509000030AB4EE420AF1EE10FA0DDA30EE030A1A
:1050A000B4EE420AF1EE10FA06DA30EE030AB4EE7C
:1050B000420AF1EE10FAE3DB80EE010A84ED040A05
:1050C000BDEC0A8B10BD00BFDB0F4940000034432C
:1050D0000AD7A33CDB0FC9C0DB0F49C0DB0FC940B7
:1050E000FEE70000FEE700002DE9F04F81B02DED56
:1050F0000A8B86B00020002703F0D4FA40203F211D
:1051000002220123012403F0AFF940203F2116229F
:105110001523009403F04AFC40203F214022032342
:10512000009403F043FC40203F216A2215230094A1
:1051300003F03CFC40F2F8199FED4B9A9FED4BAA0F
:105140009FED4BBA9FED4BCA4FF0FF3BC2F20009F7
:105150004FF6184A4FF0FF380BE000BFE0B2E9B25B
:10516000012203F083FAAB2F07F10A07A346A846F2
:105170005CD239F8170001EE107AA0F2E93189B259
:10518000514538BF4FF47A7080B200EE100AB8EE85
:10519000400A80EE090AB8EE411A21EE0B1A81EEA0
:1051A0000C8A20EE0A0A10EE100A06F0DBFC044618
:1051B00018EE100A0D4606F0D5FC41EC180BB0EEC7
:1051C000480AF0EE680A04F037FF51EC100B224653
:1051D0002B4606F003FA06F02FF9B0EE480AF0EE7F
:1051E000680A064605F034F851EC100B22462B46AF
:1051F00006F0F4F906F020F9C0F13F0006F30601CD
:1052000001F140041BF1010180F3060518BF18F1FC
:105210000100A3D05FFA8BF05FFA88F1E2B2EBB243
:105220000126009603F0C2FB98E700BFB9F8B4204E
:1052300001AC11A12046FBF7B5F80020002103F0D6
:105240006BFC4CF22860C0F6000090E80E000127CD
:105250002046009703F03CFE03F066FC06B0BDEC70
:105260000A8B01B0BDE8F08F00007A440000704264
:10527000DB0F49400000344325646D6D00000000E1
:1052800080B503F01DFA002003F00CFABDE8804061
:1052900003F04ABC40F2EC00C2F2000090E80E00BD
:1052A00000F1180C8CE80E000121017540F26C70C1
:1052B000C2F200000021016040F27070C2F20000F2
:1052C0000160704710B52DED028B40F2EC04C2F284
:1052D0000004207D002800F05A8194ED000A94ED2E
:1052E000011A94ED062A94ED073A72EE400A33EE65
:1052F000410A20EE001A20EEA02A32EE011AB1EE89
:10530000C18A9FEDA41AB4EE418AF1EE10FA84ED41
:10531000098A7DDA0120207540F26C70C2F200002B
:105320000021016094ED020A94ED082A9FED9A1A7B
:1053300032EE400AB4EE410AF1EE10FA1EDD9FEDA6
:10534000972A00BF30EE020AB4EE410AF1EE10FADD
:1053500014DD30EE020AB4EE410AF1EE10FA0DDD72
:1053600030EE020AB4EE410AF1EE10FA06DD30EE3C
:10537000020AB4EE410AF1EE10FAE3DC9FED881A5E
:10538000B4EE410AF1EE10FA1EDA9FED862A00BF54
:1053900030EE020AB4EE410AF1EE10FA14DA30EE01
:1053A000020AB4EE410AF1EE10FA0DDA30EE020A0A
:1053B000B4EE410AF1EE10FA06DA30EE020AB4EE6B
:1053C000410AF1EE10FAE3DB9FED7D1AB0EEC02A40
:1053D000B4EE412AF1EE10FA84ED0A0A40F390800F
:1053E000B0EE041A20EE011ABEEE000AB4EE401A26
:1053F000F1EE10FAC0F2C580B6EE000AB4EE401A23
:10540000F1EE10FAC8BFB0EE401AB0EE410AB8E0B3
:105410000220207504F0B8FC94ED022A9FED5E1A7C
:1054200030EE420AB4EE410AF1EE10FA1EDD9FEDB5
:105430005B2A00BF30EE020AB4EE410AF1EE10FA28
:1054400014DD30EE020AB4EE410AF1EE10FA0DDD81
:1054500030EE020AB4EE410AF1EE10FA06DD30EE4B
:10546000020AB4EE410AF1EE10FAE3DC9FED4C1AA9
:1054700084ED0A0AB4EE410AF1EE10FA20DA9FED4B
:10548000492A00BF30EE020AB4EE410AF1EE10FAEA
:1054900014DA30EE020AB4EE410AF1EE10FA0DDA37
:1054A00030EE020AB4EE410AF1EE10FA06DA30EEFE
:1054B000020AB4EE410AF1EE10FAE3DB84ED0A0AC7
:1054C0009FED391AB0EEC02AB4EE412AF1EE10FA7F
:1054D0001ADDB0EE041A40F26C7020EE011AB7EE3D
:1054E000000AC2F200000021B4EE401A0160F1EEA1
:1054F00010FAC8BFB0EE401ABFEE000A3AE000BF93
:105500009FED2D0A3DE000BF9FED293A9FED271A40
:10551000B4EE438A9FED273A28EE011AB6EE002A30
:1055200021EE024AF1EE10FAB8BFB0EE441AB4EE22
:10553000431AF1EE10FAC8BFB0EE431A9FED1E3ABF
:10554000B5EE401AF1EE10FAC8BFB0EE413A9FED49
:105550001B1A40F26C7020EE011AC2F20000B4EE89
:10556000421ABEEE000A80ED003AF1EE10FAC8BF12
:10557000B0EE421AB4EE401AF1EE10FAC8BFB0EE27
:10558000410A40F27070C2F2000080ED000ABDECEA
:10559000028B10BD8FC2F53CDB0F4940DB0FC9C049
:1055A000DB0F49C0DB0FC940920A863E9A99993FAA
:1055B000CDCC4C3E9A99993E00000000CDCC4C3D9C
:1055C000CDCCCC3D0021C0E90311C0E905117047E5
:1055D000002851D0B5EE401AF1EE10FADCBF90ED84
:1055E000060A704730EE602A90ED054A22EE013A35
:1055F00090ED090A33EE043AB4EE403AF1EE10FAB7
:1056000080ED032A0ADB90ED0A0AB4EE403AF1EE8F
:1056100010FAC8BFB0EE403AB0EE430A90ED043A3B
:1056200090ED014A32EE433A83EE011A90ED003AD2
:1056300090ED025A80ED050A20EE040A23EE023AAC
:1056400033EE000A80ED042A25EE011A31EE001A2D
:105650009FED0C0A80ED061AB4EE401AF1EE10FA36
:10566000B8BF70479FED080AB4EE401AF1EE10FA89
:10567000D8BFB0EE410A70479FED010A704700BFE6
:105680000000000000C079C400C0794470470000E9
:1056900010B50024C4F20204204640210122FBF789
:1056A000CBFFFFF771FC40F65801C2F20001012068
:1056B00000F0B4FC02F0CEFD02F0E8F902F018F9B7
:1056C00000F094FC40F69010C2F200000021FEF7BA
:1056D0001DFB204640210022BDE81040FBF7ACBF77
:1056E0007047000040F25C12C2F20002C2E9000101
:1056F000FEF70CBB40F25C11C2F20001D1E90012CE
:1057000009684AB1082A05D0042A14BF4022382269
:1057100003E000BF3C2200E03422B42828BFB420BC
:105720004FF4FA63584341F2C263C0F26C13A0FB1A
:10573000030303F5FA70885070470000FCF7CABFF6
:1057400070B592B006AC20463021FAF75BFF002519
:1057500043F640000595CDE90355CDE90155009587
:10576000C4F202000168022641F080510160006825
:1057700000F080500090009847F200000095C4F2BD
:105780000000016841F4804101600068A82100F434
:10579000804000900098012006904FF480300790E0
:1057A0004FF480000D9004200E90119020460C962E
:1057B000CDE90F16FDF758F910B172B6FEE700BF3C
:1057C0000F20CDE901064FF4A05004904FF4805013
:1057D000059001A805210395FDF734F810B172B6C4
:1057E000FEE700BF12B070BD4EF68850CEF200004A
:1057F000016841F4700101607047000040F600103C
:10580000C2F20000FEF74AB840F64810C2F20000AB
:10581000FEF744B840F62020C2F20000FEF73EB882
:10582000B0B540F6FF3E0568C4F2000E40F2004CF1
:105830007045C4F2010C25DCB0F1804F2FD040F24E
:105840000043C4F20003984229D040F60003C4F29A
:105850000003984223D041F6FF73C4F2000398423C
:1058600028DC70453ADCB0F1804F5BD040F2004359
:10587000C4F20003984255D040F60003C4F200037E
:105880004EE000BF40F60043C4F20003984206D049
:10589000604504D00023C4F201039842DBD14B6879
:1058A00025F0700243EA020541F6FF73C4F20003DB
:1058B0009842D6DD43F6FF73C4F2010398421FDC21
:1058C00042F20003C4F2000398422BD00023C4F23A
:1058D0000103984226D0604524D028E040F60043DA
:1058E000C4F2000398421DD041F60003C4F2000345
:1058F000984217D041F60043C4F2000310E000BF05
:1059000044F20003C4F2010398420BD044F60003B2
:10591000C4F20103984205D044F20043C4F20103EB
:10592000984204D1CB6825F4407243EA02050A6824
:105930008C684B69C46240F480648262644504BF31
:1059400009690163026825F0800142F004021943ED
:105950000260012242610160B0BD0000B0B50446A2
:10596000006804F108030ECB0569194325F440557E
:105970002A4302616269E3691143C268194349F22B
:105980000C639A431143C1604169A26921F44071DB
:1059900041F20043114340F48062C4F201039A4291
:1059A000416103D1FDF714F802E000BFFCF7FCFFF2
:1059B000E1694FF69C7563681922C0F6FF75B1F571
:1059C000004FA0FB02011FD15A00DB0FFAF772FC57
:1059D00048F21F51C5F2EB11A0FB01235A0905F152
:1059E000805302FB0300322303EBC000A0FB010144
:1059F0004FF4F87000EA111000EB0210C1F34211ED
:105A0000084421688860B0BD9A009B0FFAF752FCE9
:105A100048F21F51C5F2EB11A0FB01235A0902FB0A
:105A20000500322303EB0010A0FB0101F02000EA87
:105A3000511000EB0210C1F3431108442168886043
:105A4000B0BD0000FEE700009FED0E1A9FED0E2A8C
:105A500030EE600A30EE011AB4EE420A9FED0C2AD5
:105A6000F1EE10FAC8BFB0EE410A9FED081AB4EE8D
:105A7000420A30EE011AF1EE10FAB8BFB0EE410A58
:105A8000704700BF0000B4C3000034430000B443BB
:105A9000000034C32DE9F0438BB040F21600C2F28F
:105AA000000040F264180178C2F20008012008F1F9
:105AB0000C026427CDE9002008F11C0041F001012F
:105AC000012201230297FCF733FA98F80C5088F86A
:105AD0000100E809C5F30014C5F3C006C5F380074B
