:020000040800F2
:10000000200700207902000809260008791F00084F
:10001000052600081D0D0008BD270008000000008F
:100020000000000000000000000000001126000891
:10003000210D0008000000000D260008152600080C
:10004000930200089302000893020008930200083C
:10005000930200089302000893020008930200082C
:10006000930200089302000893020008930200081C
:10007000930200089302000893020008930200080C
:100080009302000893020008930200080000000099
:1000900000000000000000000000000093020008C3
:1000A00093020008930200089302000893020008DC
:1000B00093020008930200089302000893020008CC
:1000C00093020008930200089302000893020008BC
:1000D0009302000893020008930200080000000049
:1000E000250D00089302000893020008000000009C
:1000F0000000000000000000000000009302000863
:100100000000000093020008930200089302000818
:1001100000000000000000000000000000000000DF
:10012000930200089302000893020008930200085B
:100130009302000800000000000000000000000022
:100140000000000000000000000000009302000812
:10015000930200089302000893020008930200082B
:100160009302000893020008000000000000000055
:10017000000000000000000000000000000000007F
:1001800000000000930200080000000000000000D2
:100190009302000800F002F800F05FF814A696E859
:1001A000000CB244B344DA4501D100F056F8BAE885
:1001B0000F000FA696E83000A5EB040504EB060738
:1001C000AAEB0704A7F101074FEA15154FEA34140B
:1001D000A4F10104AC4201D300F03FF813F0010F89
:1001E00018BFFB1A43F0010300F001F8DBE71847E2
:1001F0001033000030330000103A24BF78C878C1B3
:10020000FAD8520724BF30C830C144BF04680C601C
:1002100070470000704700000023002400250026DE
:10022000103A28BF78C1FBD8520728BF30C148BF59
:100230000B607047662903F0F180002070471FB5FE
:1002400003F0DFF800F0F6FB04000020002103F0CB
:100250004BF8E0601FBD10B510BD00F0EBFC11467F
:10026000FFF7EDFF02F0ACFA00F009FD03B4FFF771
:10027000F2FF03BC00F04AFD0948804709480047E7
:10028000FEE7FEE7FEE7FEE7FEE7FEE7FEE7FEE746
:10029000FEE7FEE704480549054A064B70470000A3
:1002A000C126000895010008200100202007002039
:1002B000200300202003002053EA020C00F0698094
:1002C0002DE9F04B4FF00006002B1FBFB3FA83F56A
:1002D00003FA05F424FA05F65E4012BF1643B2FA9B
:1002E00082F502FA05F4C5F120051EBF22FA05FCCD
:1002F00044EA0C04203556EA044C4FEA144418BF73
:10030000641C4FF000084FF00009904271EB030CA1
:1003100039D3002919BFB1FA81F701FA07F6B0FA0B
:1003200080F700FA07F6C7F120071EBF20FA07FC86
:1003300046EA0C062037B6FBF4FCA7EB0507103F96
:1003400007F01F0BCBF120062CFA06F60CFA0BFB7C
:1003500044BFB3460026202FA4BF5E464FF0000BDB
:100360005BEA060C08BF4FF0010B19EB0B0948EBD9
:100370000608ABFB027C06FB02CC0BFB03CCC01BCC
:1003800071EB0C01C1E70B46024641464846BDE809
:10039000F08B13B5084318BF4FF0FF300146AFF3A1
:1003A0000080BDE81C4070470FB41CB50C0007AAC4
:1003B000009007D04142A14202D32044401E01E0F8
:1003C0004FF0FF30074B7B4469460190069800F0E0
:1003D00016FB0020002C01D0009908701CBC5DF8B1
:1003E00014FB00005B06000070B5044685690068D8
:1003F000C10601D5302600E02026C00707D070BD19
:10040000D4E9012130469047206A401C20626D1ECD
:10041000F6D570BD70B5044685690078C00707D170
:1004200070BDD4E9012120209047206A401C206241
:100430006D1EF6D570BD2DE9F0474FF0000A8946D4
:100440000446C0F820A02046E1688847002876D0FE
:10045000252806D0D4E901219047206A401C20625B
:10046000F1E7E168204600258847C4F81CA006464D
:100470000027C4F818A02A2E09D0304602F02CFF1D
:1004800038B304EB8708303EC8F8186019E059F813
:10049000041B204604EB87029161E1688847012F25
:1004A000064618D1E069002820DA25F020051DE075
:1004B000D8F8180000EB800006EB40003038C8F890
:1004C00018002046E1688847064602F005FF00282C
:1004D000EED1012F0AD02E2E08D12046E1688847A0
:1004E0007F1C0646022F45F02005C4DBA0690028CA
:1004F00003DA404245F00105A061E80701D025F08C
:100500001005B6B1A6F14100192802D8203645F4ED
:1005100000654A463146204625604D46FFF78AFE73
:1005200058B1012806D0ED1D25F0070000F108099B
:1005300089E704E005F1040985E730468AE7206A87
:10054000BDE8F08710B5431C02E010F8011B71B143
:100550008107FAD14FF0013202C88C1A8C4314EA99
:10056000C211F9D0C01A0A0603D0C01E10BDC01AAD
:1005700010BD0A0401D0801E10BD0902FCD0401E2F
:1005800010BD4FF0000200B5134694469646203940
:1005900022BFA0E80C50A0E80C50B1F12001BFF43C
:1005A000F7AF090728BFA0E80C5048BF0CC05DF8A2
:1005B00004EB890028BF40F8042B08BF704748BFF0
:1005C00020F8022B11F0804F18BF00F8012B704764
:1005D0007047704770472DE9FF4F0C461E464FF09D
:1005E000FF378BB0D2E90001DDF860800A908A46BF
:1005F000C1F30A5505B93D46002108464FF00000F9
:10060000BAF1000F00F4400005DA00EB80004FF46F
:10061000400101EA50004FEA9059B9F1010F00DDA5
:10062000B9460A9850EA4A000ED044F61050A5F296
:10063000FF3545432F14B8F1000F1ED07542291E17
:100640001EDDC9F100021CE0B8F1010F4FF00000FF
:1006500001D0302103E0F24305E02154401CB042B8
:10066000FBDB30460022002121540B99C1F80880A1
:10067000C1E900200FB0BDE8F08FBD1B6D1CDEE7A7
:100680004A4600DA694206A800F05EFA06AB93E833
:10069000070003AB83E8070050460A9902F03CFAD2
:1006A0008DE80700A0F500501F3800900398002D3A
:1006B0000ADD42F21F014A460844002303A90390C1
:1006C000684602F0A5FC09E0A0F500504A461F3834
:1006D000002303A90390684602F0AFFC8DE80700F1
:1006E0000004000C03D04FF0FF30410800E010463A
:1006F000B8F1000F03D00022009215461EE0751ECF
:1007000005D400F09BF9303262556D1EF9D5B34621
:100710000122084302D000227F1C04E02078302808
:1007200001D100227F1E002A099784D01DE0112DDF
:1007300007DA00F083F9303262556D1C50EA01028D
:10074000F5D1084302D00098C8B10EE00021681E20
:1007500005E0235C625C63542254401E491C8142C4
:10076000F7DBAB46A81B401E0990002004F80B00E5
:100770000B98099AC0F80880C0E9002B7AE7112687
:100780004FF0000857E72DE9F04F88460446D21D88
:1007900022F0070191B0D1E90001CDE90A0102F090
:1007A00083FD02460B98C00F01D02D2007E0206882
:1007B000810701D52B2002E0202101EAC000032A95
:1007C000099001D0072A05DB03464146204600F088
:1007D0007BF90BE12078800601D5E06900E0062076
:1007E000B8F1650F814606D0B8F1660F18D0B8F1A0
:1007F000670F70D131E00020B9F1110F009001DBDB
:10080000112301E009F101030AAA01A90CA8FFF7CD
:10081000E2FEDDE90C70002609F10105834647E0A0
:1008200001204B4600904FF000470AAA01A90CA8EE
:10083000FFF7D1FEDDE90DB00C995D46002610B939
:1008400009F101000D18B9EB050003D4C0F1FF3622
:1008500009F10105A5EB09002BE0B9F1010F01DA5F
:100860004FF001090020B9F1110F0090484601DD59
:10087000112300E003460AAA01A90CA8FFF7ABFE6A
:10088000DDE90C704D4600268346207800070AD427
:10089000AB4500DA5D4601A8012D04DD411911F8D0
:1008A000011C302907D04F4502DA17F1040F04DA92
:1008B000012082460FE06D1EEEE7002F02DCED1BEB
:1008C0003E4403E0781CA84200DD7D1CB81B00F10B
:1008D000010A4FF000472078000703D4AA4501DB46
:1008E0004FF0FF3A0021B7F1004F0DF143088DF8AA
:1008F000431024D002202B23002F01DA7F422D2326
:100900000A21021EA0F1010000DC5FB197FBF1FC9F
:1009100097FBF1F201FB1C7C17460CF1300C08F838
:1009200001CDEEE7A8F1010003702188090501D58A
:10093000452100E06521A0F1010800F8011C09989B
:100940000FA9A1EB0807FF1D00B10120411901EB20
:10095000EA70A1693844081A401EA0612078C006D8
:1009600002D42046FFF740FD099828B1D4E90121BF
:100970009047206A401C20622078C00622D520467D
:10098000FFF732FD1EE0002E04DBB34502DD01A8B7
:10099000805D00E03020D4E901219047206A401CAE
:1009A0002062761CAAF101005FEA000A0AD100F079
:1009B00041F8C0680168405CD4E901219047206A91
:1009C000401C2062281EA5F10105DCDC07E0D4E90B
:1009D000012118F8010B9047206A401C2062381E44
:1009E000A7F10107F3DC2046FFF714FD032011B047
:1009F00041E6000001694A1C02610878704700B5B1
:100A00008FB0CDE901310021059105497944CDE947
:100A1000031011466846FFF70EFD0FB000BD000041
:100A2000E5FFFFFFD1E900239A4202D2531C0B607D
:100A300010707047004870473000002030B5B0F1AA
:100A40000A0271F100034FEA900E4EEA817EB0EB8C
:100A50000E0061EB91014FEA101E4EEA017E10EB91
:100A60000E0041EB11114FEA102E4EEA016E10EB11
:100A70000E0041EB11214FEA104E4EEA014E10EBF1
:100A80000E0041EB1141401841F100014FEAD00046
:100A900040EA41704FEAD1014FEA810444EA907480
:100AA00010EB800544EB01046D1944EB0404521B68
:100AB000A3414FF0000348BF0A3200D530BD401CAF
:100AC00041F1000130BD00002DE9F0411F46044610
:100AD00003260168072A01F4006004DB08B116A5AB
:100AE00005E016A503E008B115A500E015A521F065
:100AF00010002060A069C01EA0610FB1401EA0615F
:100B00002046FFF771FC4FB1D4E9012138469047E8
:100B1000206A401C2062C01C206206E0206AFAE7BE
:100B2000D4E9012115F8010B9047761EF8D2204632
:100B3000FFF770FCBDE8F0814E414E006E616E0023
:100B4000494E4600696E66002DE9F047814616461B
:100B50008AB0354878440DC88DE80D003248784495
:100B6000801C03AC0DC884E80D0041F69B3008449E
:100B7000372190FBF1F290FBF1F5A5F1800501FB27
:100B800012041B3C02D56442012000E00020DFF883
:100B900098A080460027FA44AAF1BE0A0EE0E007BA
:100BA0000AD03246684607EB470101230AEB810170
:100BB00002F043FA8DE8070064107F1C002CEED190
:100BC000194F7F44AE3F19E0E80715D007EB04103A
:100BD0000DF1180A90E80E008AE80E00C068F04295
:100BE00001D1981908903246012306A903A802F002
:100BF00024FA03AB83E807006D10641C002DE3D1D9
:100C00004FF0010332466946B8F1000F03A802D045
:100C100002F0FEF901E002F010FAC9E90001C9F89A
:100C200008200AB0BDE8F08744290000004870475A
:100C3000100000207546FFF7F9FFAE460500694633
:100C4000534620F00700854618B020B5FFF722FB79
:100C5000BDE820404FF000064FF000074FF00008BD
:100C60004FF0000BAC46ACE8C009ACE8C009ACE8FA
:100C7000C009ACE8C00921F007018D46704710B5E6
:100C80000446AFF300802046BDE81040FFF7EEBAFF
:100C900030B44FF0013C50F8042B51F8043BCCFA2F
:100CA00052F4D51A20D1FCB950F8042B51F8043B6A
:100CB000CCFA52F4D51A17D1B4B950F8042B51F824
:100CC000043BCCFA52F4D51A0ED16CB950F8042B6F
:100CD00051F8043BCCFA52F4D51A05D1002CDAD0E5
:100CE00030BC4FF00000704729BAB1FA81F111F021
:100CF0001801D1F120008440F2D1CA40CB4012F05B
:100D0000FF0213F0FF0330BCD01A704701491820CE
:100D1000ABBEFEE72600020070470000FEE70000C1
:100D2000704700004FF4805000F092B8B0B5044610
:100D300000F06AF9054640F20000C2F200000078B7
:100D4000611C18BF044400BF00F05EF9401BA042C4
:100D5000FAD3B0BDB0F5805F18BF704780B584B0DE
:100D600002200DF10E01CDE9001040F280004FF09D
:100D70000A0CC2F20000D02147220123CDF808C09E
:100D800000F0FAF9BDF80E009FED291AC1BA00EE85
:100D9000101AB8EEC00A80EE010A00BA010C40F247
:100DA0007000C2F2000090ED021A9FED223A01801D
:100DB0009FED214A80ED010A30EE410AB0EEC01AE3
:100DC000B4EE431A9FED1D1A90ED032AF1EE10FACE
:100DD000B8BFB0EE440A20EE010A30EE020A80ED00
:100DE000030A90ED030A9FED161AB4EE410AF1EEE4
:100DF00010FA07DD90ED030A9FED121A30EE010A9A
:100E000080ED030A90ED030A9FED0F1AB4EE410A3C
:100E1000F1EE10FA07DA90ED030A9FED0C1A30EEAE
:100E2000010A80ED030A04B0BDE88040704700BFAE
:100E300000000343CDCC4C3D000000000AD7233C0A
:100E4000000034430000B4C3000034C30000B443C6
:100E500043F61441C4F201010A68024214BF08605B
:100E60007047FFF777BF00002DE9F04F83B000F126
:100E7000200200F13E4741F20005009207F1FF77A2
:100E8000C4F2020507224FEAB726A84208BF04228F
:100E900000254FF000084FF00009042E38BF4FEA3C
:100EA000B72201920AE000BF09F1010908F1020826
:100EB000B9F1100F05F1040500F0A2800F680122BE
:100EC00002FA09FE17EA0E0AEED0D1F804C0032296
:100ED0000CF003077E1E02FA08F4012E6FEA040BE1
:100EE00012D88468CE6804EA0B0406FA08F6344384
:100EF0008460446824EA0E06CCF3001404FA09F472
:100F00002643466004E000BF032F01D103271EE003
:100F1000C6688C6806EA0B0604FA08F42643022F1A
:100F2000C66014D16FF00302009E02EA590756F81A
:100F300007C005F01C040F220B69A2402CEA020234
:100F4000A3401A43F251D1F804C00CF00307026821
:100F500007FA08F302EA0B021A431CF4403F02604E
:100F6000A2D0002243F644030292C4F202031A689C
:100F700043F6004442F480421A601A68C4F2010445
:100F800002F480420292029A29F003024FF6084CC2
:100F90002244CFF6FF7C52F80C3005F00C070F26E8
:100FA000BE40B343019E06FA07F73B4342F80C30BC
:100FB000A2684B6842EA0A0743F60C4CDE0258BFAF
:100FC00022EA0A07A760C4F2010CDCF800209E02A6
:100FD00042EA0A0758BF22EA0A07CCF800706268A2
:100FE0009E0342EA0A0758BF22EA0A07676022689E
:100FF000DB0342EA0A0758BF22EA0A07276053E7E1
:1010000003B0BDE8F08F000040F21C10C2F20000F7
:1010100000687047002804BF01207047F0B581B018
:10102000044690F83D0028B9002084F83C00204692
:1010300000F07CFA242084F83D002068016821F04B
:1010400001010160016841F400410160016821F47F
:101050000041016000F00EFC636848F2A16CC0F230
:10106000010C40F60011C0F23D0163453CBF48F25F
:101070008041C0F21E01884202D2012001B0F0BDC1
:101080004DF68361C4F21B31A0FB01122168970C5D
:10109000D1F804E04FF496762EF03F0545EA9245EC
:1010A0004D60774348F638160D6AC0F24106A7FB3B
:1010B000067625F03F07634538BF960C721C3A430D
:1010C0000A62CA6948F2A0664CF6FF77C0F20106D0
:1010D000B34222EA07020BD801385B00B0FBF3F001
:1010E00001306FF31F30042898BF04201BE000BFBD
:1010F000A768013857B119277B43B0FBF3F00130E3
:101100006FF31F3070B100F5804007E003EB43033D
:10111000B0FBF3F001306FF31F3018B100F5004061
:1011200001E000BF01201043C8610868D4E907232B
:1011300020F0C000104318430860886848F2FF326E
:1011400004F10C0790438CCF18431043A6698860C4
:10115000C86820F0FF0038433043C860086840F09A
:101160000100086000202021206484F83D102063E5
:1011700084F83E0001B0F0BD2DE9F04784B09946F7
:1011800016460F460446FFF73FFF94F83D1020290E
:1011900027D10546206800BF816989071CD5FFF764
:1011A00033FF411B20681A29F6D381698907F3D5DB
:1011B00000202021206384F83D1084F83E00206C3C
:1011C00004F13C0A40F020002064022000218AF84B
:1011D000001004B0BDE8F087A2461AF83C1F0129B0
:1011E00004D1022004B0BDE8F08700BF01228AF8D4
:1011F00000200368DDE90D180C9ADB0703D10368B2
:1012000043F001030360036823F4006303602220BA
:1012100084F83D00402084F83E0000202064626293
:101220006185608D394620850020CFF6FF70E06231
:10123000204632464B46CDE9008500F09FFE18B1AE
:10124000012004B0BDE8F087208D08B3022813D038
:10125000012835D121680A6822F480620A600022E0
:1012600003924A6903928A690392039A0A6842F4D4
:1012700000720A602CE000BF21680A6822F48062D4
:101280000A600A6842F400620A60002203921AE0CF
:1012900000200390206841690391816903910399BB
:1012A000016841F400710160202084F83D000020B5
:1012B00084F83E0000218AF8001004B0BDE8F087F1
:1012C0000021039121684A69039289690391039976
:1012D0000427C0F201070CE010690870606A218DD4
:1012E00001306062481E2085618D013961850104ED
:1012F000DAD080B203280FD802284AD001282DD195
:10130000204641462A4601F0D7F8002898D12068A7
:10131000616A0069E1E700BF204641462A4601F0C4
:10132000CBF800287FF48CAF2068616A00690870F0
:10133000606A2268411C208D616201382085638DBE
:10134000013B638553695B07D1D580B20328C3D1C4
:10135000106820F480601060BEE700BF2046394668
:1013600000224346009500F055FF00287FF468AF47
:101370002068616A026822F4806202600069087075
:10138000606A218D01306062481E2085608D0138C1
:1013900060852046394600224346009500F03AFF1A
:1013A00000287FF44DAF2068616A026842F4007241
:1013B000026000690870606A2268411C6162218DC8
:1013C00001392185618D013961851169417085E798
:1013D0002DE9F04383B0994616460F460446FFF7C1
:1013E00013FE94F83D10202924D10546206800BF43
:1013F000816989071AD5FFF707FE411B20681A2962
:10140000F6D381698907F3D500202021206384F871
:101410003D1084F83E00216C41F02001216484F8E5
:101420003C00022003B0BDE8F08300BF94F83C10FC
:10143000012903D1022003B0BDE8F083012284F822
:101440003C200368DDE90B180A9ADB0703D1036827
:1014500043F001030360036823F400630360212069
:1014600084F83D00402084F83E0000202064626241
:101470006185608D394620850020CFF6FF70E062DF
:10148000204632464B46CDE9008500F001FE18B1FA
:10149000012003B0BDE8F083208D98B92046414675
:1014A0002A4600F059FE88B3206C0428F0D1206849
:1014B000016841F400710160012003B0BDE8F083D0
:1014C0000004EBD0204641462A4601F03DF80028B2
:1014D000EAD1616A2268084610F8013B1361238D46
:1014E0006062581E2085678D013F678557697F07B9
:1014F000E6D50704E4D048781061881C6062981E25
:101500002085618D01396185DAE700BF20680168B7
:1015100041F400710160202084F83D00002084F82F
:101520003E0084F83C0003B0BDE8F083B0B586B05F
:1015300045F200410068C4F200010024884205948D
:10154000CDE903440294019402D006B0B0BD00BFBF
:1015500043F630050094C4F20205286840F002000A
:101560002860286800F0020000900098C0200190D8
:101570001220CDE90204032004900420059001F517
:10158000D83001A9FFF770FC0094286940F40010DE
:101590002861286900F400100090009806B0B0BDE2
:1015A00040F2000040F21C11C2F20000C2F2000141
:1015B00000780A68104408607047000080B543F660
:1015C0000040C4F20200016841F40071016001684A
:1015D00041F480610160016841F480710160032081
:1015E00000F086F80F2000F005F800F027F8002042
:1015F00080BD000070B540F20006C2F2000640F265
:1016000008013278C2F200014FF47A730968B3FB23
:10161000F2F20446B1FBF2F1084600F061FB0F2C38
:101620004FF0010508D838B94FF0FF3021460022AD
:10163000002500F031F87460284670BD82B00020AB
:1016400043F640010190C4F202014A6842F480422C
:101650004A604A6802F480420192019A0090086848
:1016600040F080500860086800F0805000900098BA
:1016700002B07047002848BF704700F01F010122E8
:1016800002FA01F11C2202EAD0004EF20012CEF260
:10169000000281507047000010B54EF60C5CCEF28F
:1016A000000CDCF80030C3F3022E8EF00704042C8B
:1016B00028BF0424BEF103034FF0FF3E0EFA04F4EA
:1016C00038BF0023A14399400EFA03F39A43114314
:1016D00000F00F0200F160430901043A03F564438E
:1016E0006244002848BF02F10C03197010BD0000CD
:1016F0004EF60C51CEF200010A684FF6FF031A4075
:1017000060F30A2242F0806040F0FD70086070478C
:10171000002804BF012070472DE9F04143F6080876
:10172000C4F202080446D8F8F8030D4600F007009A
:10173000814207D988F8F853D8F8F80300F0070079
:10174000A84277D12068810717D5410705D5D8F879
:10175000001041F4E051C8F80010010705D5D8F891
:10176000001041F46041C8F80010D8F80010A268D9
:1017700021F0F0011143C8F80010C00740D1D8F89B
:10178000F80300F00700854207D288F8F853D8F82C
:10179000F80300F00700A8424CD12068410707D5A4
:1017A000D8F80010E26821F4E0511143C8F80010A5
:1017B000000708D5D8F80000216920F4604040EA0D
:1017C000C100C8F8000000F07DF8D8F8001043F21E
:1017D000B442C1F30311C0F60002515C40F20802AA
:1017E00020FA01F140F20400C2F200000068C2F2E7
:1017F00000021160FFF7FEFE0020BDE8F08100BF8F
:101800006068811E022907D258F8081C89015CBF54
:101810000120BDE8F08111E0012807D158F8081C2B
:1018200089035CBF0120BDE8F08107E058F8081C7F
:10183000890703D40120BDE8F08100BFD8F800106B
:1018400021F003010843C8F80000FFF7DDFB06465E
:1018500041F28837D8F80000616800F00C00B0EB66
:10186000810F8CD0FFF7D0FB801BB842F2D9032048
:10187000BDE8F08140F2080043F60801C2F2000022
:10188000C4F202010068096843F2C442C1F3822134
:10189000C0F60002515CC8407047000040F20800EA
:1018A00043F60801C2F20000C4F2020100680968B0
:1018B00043F2C442C1F34231C0F60002515CC84059
:1018C0007047000010B543F60404C4F202046168D6
:1018D000C1F3810142F20040C0F2F400DFE801F000
:1018E00002040A0210BD00BF47F64000C0F27D109E
:1018F00010BD00BF206821682368490247F64001F7
:10190000C0F27D1100F03F02C3F388105CBF42F2C9
:101910000041C0F2F401A1FB00010023FEF7CCFC62
:1019200021680222C1F3014102EB4101B0FBF1F059
:1019300010BD0000002804BF012070472DE9F041D0
:1019400082B00446007843F60006C007C4F20206DF
:101950000CD0B06800F00C00042840F081803068A2
:10196000800303D56068002800F068812078800734
:101970001BD5B06810F00C0F09D0B06800F00C0057
:10198000082840F087807068400200F1838030684A
:10199000800703D5E068012840F050813068216954
:1019A00020F0F80040EAC10030602078000713D42E
:1019B000207840072AD4A569002D00F03A81B0684C
:1019C00000F00C00082840F0A580012D40F00E81A9
:1019D000012002B0BDE8F0816069002800F082803B
:1019E0000020C4F247200121C0F8801EFFF70CFB45
:1019F000054600BF706F8007DAD4FFF705FB401B78
:101A00000228F7D9032002B0BDE8F081306C5FEA0C
:101A1000C0080AD400200190306C40F0805030643F
:101A2000306C00F080500190019847F20007C4F23A
:101A300000073868C00547D4386840F480703860C3
:101A4000FFF7E2FA054600BF3868C0053CD4FFF74F
:101A5000DBFA401B0228F7D9032002B0BDE8F08171
:101A6000B06800F00C00082803D1706840023FF510
:101A700076AF61683068B1F5803F07D0B1F5A02F2F
:101A800040F09A8040F480203060306840F480302C
:101A900030609AE0E068002840F20000C4F247207D
:101AA0005CD001210160FFF7AFFA0546306880077E
:101AB0003FF574AFFFF7A8FA401B0228F6D90320C0
:101AC00002B0BDE8F08100BFA168306F012905D0E8
:101AD000052955D140F004003067306F40F0010017
:101AE000306756E00020C4F247200021C0F8801E75
:101AF000FFF78AFA054600BF706F80077FF558AF81
:101B0000FFF782FA401B0228F6D9032002B0BDE895
:101B1000F08100BF0027C4F2472700203866FFF796
:101B200073FA022D05460DD13068800140F18A809C
:101B3000FFF76AFA401B02284FF00300F4D902B005
:101B4000BDE8F0813068800173D5FFF75DFA401B76
:101B500002284FF00300F5D9F1E700BF0021016032
:101B6000FFF752FA054600BF306880077FF51DAFCA
:101B7000FFF74AFA401B02284FF00300F4D9DEE7D2
:101B800020F001003067306F002920F0040030673A
:101B90007AD0FFF739FA054641F28837306F80076F
:101BA00000F18480FFF730FA401BB842F6D90320D9
:101BB00002B0BDE8F08100BF20F4803030603068B2
:101BC000002920F4802030607AD0FFF71DFA054606
:101BD000306880033FF5CAAEFFF716FA401B642851
:101BE000F6D9032002B0BDE8F08100BF7068E1695A
:101BF00000F480028A4221D1216A00F03F028A4229
:101C00001CD147F6C071626A0140B1EB821F15D149
:101C1000A16A4FF6FF73C903994300F44032A1F55E
:101C200080318A420AD1E16A00F07060B0EB016F46
:101C300004D1002002B0BDE8F08100BF012002B055
:101C4000BDE8F08104F11C052FCD084340EA821065
:101C5000D9034FF6FF729143A1F5803140EA056048
:101C60000843706001203866FFF7CEF9044600BFD4
:101C700030688001DDD4FFF7C7F9001B02284FF060
:101C80000300F5D95BE700BFFFF7BEF9054641F257
:101C9000883700BF306F800708D5FFF7B5F9401BC4
:101CA000B8424FF00300F5D949E700BFB8F1000F83
:101CB0003FF581AE306C20F0805030647BE600BF91
:101CC000FFF7A2F9054600BF306880037FF54EAEEE
:101CD000FFF79AF9401B64284FF00300F4D92EE770
:101CE000411E0020B0EB116F1CBF012070474EF267
:101CF0001002CEF2000251604EF62351CEF20001E6
:101D0000F0230B700721906011607047002804BF1A
:101D10000120704710B5044690F8410028B9002012
:101D200084F84000204600F021F8242084F8410087
:101D30002068C16821F40051C160204600F0CAFC4F
:101D40002068016921F490410161416921F02A0173
:101D50004161C16841F40051C160002020216064EC
:101D600084F8411084F84210606310BD80B586B0DD
:101D700041F200010068C4F201010022884205928C
:101D8000CDE903220292019202D006B080BD00BFCD
:101D900043F630000092C4F20200436943F010039E
:101DA0004361436903F010030093009B00920368B2
:101DB00043F001030360006800F001000090009808
:101DC0004FF4C06001900220CDE90202032004908C
:101DD0000720059001F5704001A9FFF745F806B00E
:101DE00080BD00002DE9F04381B0044690F8410029
:101DF000202809D100294FF0010018BF002A07D17F
:101E000001B0BDE8F08300BF022001B0BDE8F0835F
:101E10000020606421201D460E4684F841001746CC
:101E2000FFF7F2F8A784E784A1688146B1F5805FE7
:101E300002D1206900285DD037460020E28C21685D
:101E4000002A5DD06A1C24D0002D4AD0804600BFF5
:101E50000868000608D4FFF7D7F8A0EB0900A842ED
:101E60007AD82168C868F3E717B117F8010B04E0C6
:101E700038F8020B00276FF35F204860E08C0138D0
:101E8000E084E08C0028E3D13AE000BF0A68120643
:101E900009D40A68120606D40A6812065CBF0A68EA
:101EA0005FEA0262F2D51FB117F8012B05E000BF0F
:101EB00030F8022B00276FF35F224A60E28C013A70
:101EC000E284E28C002AE4D11AE000BF30F8022B51
:101ED00000276FF35F224A60E28C013AE284E28CD1
:101EE00072B10A68120635D5002FEFD017F8012B12
:101EF000F1E700BF00273046E28C2168002AA1D11B
:101F0000086840061ED42DB3681C14D1086840062A
:101F10002AD40868400627D40868400624D40868F4
:101F200040064FF00000F1D50DE000BF2068C16809
:101F30000068400618D4FFF767F8A0EB0900A84234
:101F4000F4D909E00020202184F8411001B0BDE857
:101F5000F08300BFFFF758F80320202184F84110D8
:101F600001B0BDE8F08300BF0020202184F84110BB
:101F700001B0BDE8F0830000FEE700002DE9F04766
:101F800082B0044600689A460B9D0A9E03689146FB
:101F900043F48062026002680F4642F4807101607F
:101FA00020464FF0011100223346009500F032F92F
:101FB00050B120680068C00544BF4FF40070206431
:101FC000032002B0BDE8F08740F202082068C0F2AA
:101FD000010807F0FE0707612046414632462B46BE
:101FE00000F0FEF920B1012002B0BDE8F08700BF8B
:101FF0000020019020682A4641690191806931469C
:1020000001900198204600F09FFAB0B92068BAF11B
:10201000010F09D04FEA19210161204631462A46B5
:1020200000F092FA48B920685FFA89F10161204610
:1020300031462A4600F088FA60B1206C0428D2D1DB
:102040002068016841F400710160012002B0BDE820
:10205000F08700BF206800220168334641F4807198
:10206000016020464FF00111009500F0D3F80028E0
:102070009FD147F0010C27682046414632462B4647
:10208000C7F810C002B0BDE8F04700F0A9B90000E1
:102090002DE9F04383B0044600680F4601680A9DAD
:1020A0000B9E41F4807199469046016020464FF0A6
:1020B000011100222B46009600F0ACF850B12068C8
:1020C0000068C00544BF4FF400702064032003B0D3
:1020D000BDE8F083206807F0FE0101610221C0F233
:1020E000010120462A46334600F07AF920B101204A
:1020F00003B0BDE8F08300BF0020029020683246A4
:10210000416902918069294602900298204600F0B8
:102110001BFA58B1206C0428E9D12068016841F409
:1021200000710160012003B0BDE8F0832068B9F1BF
:10213000010F0AD04FEA1821016120462946324694
:1021400000F002FA0028E5D120685FFA88F1016109
:10215000002003B0BDE8F08370B50368044653F86F
:10216000140F400711D40E46481C29D086BB00BF6F
:102170001868400527D4FEF747FF236853F8140F6B
:10218000400737D518684007F2D5002070BD00BF62
:1021900018684007F9D41868400514D41868400737
:1021A000F3D4186840050ED418684007EDD41868B9
:1021B000400508D4186840074FF0000048BF70BDC4
:1021C00018684005E4D56FF480601860042012E0C0
:1021D000154603E053F8140F4007D6D4186840059D
:1021E000F1D4FEF711FF401B2368B042F2D95869C1
:1021F0004007EFD4202000212022216384F83D20D5
:1022000084F83E10226C10432064012084F83C10B6
:1022100070BD00002DE9F041054600681E461446D9
:1022200001F47F0201338FB242D0DDF81880B2F59D
:10223000803F40F0878040693840C01BB0FA80F092
:102240004009844240F0C8804EB924E040693840DB
:10225000C01BB0FA80F04009844240F0BD80FEF718
:10226000D3FEA0EB08012868B142EFD9416939409B
:10227000C91BB1FA81F149098C42E7D19BE000BF4B
:1022800040693840C01BB0FA80F0400984424FF0EA
:10229000000040F0A280FEF7B7FE2868416939408F
:1022A000C91BB1FA81F149098C42E9D183E000BF31
:1022B000B2F5803F24D100BF41693940C91BB1FA52
:1022C00081F149098C4240F0878041693940C91B3E
:1022D000B1FA81F149098C4240F07E804169394070
:1022E000C91BB1FA81F149098C4275D14169394064
:1022F000C91BB1FA81F149098C42DDD06CE000BF05
:1023000081693940C91BB1FA81F149098C4263D115
:1023100081693940C91BB1FA81F149098C425BD10D
:1023200081693940C91BB1FA81F149098C4253D105
:1023300081693940C91BB1FA81F149098C42DFD06A
:102340004AE000BF80693840C01BB0FA80F0400905
:10235000844241D146B923E080693840C01BB0FABD
:1023600080F04009844237D1FEF74EFEA0EB080111
:102370002868B142F0D981693940C91BB1FA81F1AD
:1023800049098C42E8D116E080693840C01BB0FA98
:1023900080F0400984424FF0000018BFBDE8F08192
:1023A000FEF732FE286881693940C91BB1FA81F114
:1023B00049098C42E8D100202021286385F83D108E
:1023C00085F83E00296C41F02001296485F83C0025
:1023D0000120BDE8F08100BF0020BDE8F0810000D1
:1023E000F0B581B0044600681D4643698FB203EA28
:1023F0000701B94202D1002001B0F0BD4169164683
:1024000001323CD0490512D47EB300BFFEF7FCFD7B
:10241000411B2068B14203D941693940B9422BD1EF
:1024200041693940B942E6D041694905EED50168B4
:1024300041F4007101606FF480614161042000216A
:102440002022216384F83D2084F83E10226C104342
:10245000206484F83C10012001B0F0BD416939408E
:10246000B942C8D041694905E1D4FEF7CDFD2068E5
:1024700041693940B942F1D02020E0E7416949057E
:10248000D5D441693940B942B5D041694905CED466
:1024900041693940B942AED041694905C7D4416963
:1024A0003940B942A7D041694905C0D44169394092
:1024B000B942E3D19FE7000070B5044600681546B5
:1024C00050F8143F5A063DD40E4629B926E000BF05
:1024D00050F8141F490635D40168C90621D4FEF707
:1024E00093FD411B2068B142F2D941694906EFD4FE
:1024F00000202021206384F83D1084F83E00206CE9
:1025000040F0200018E000BFFEF77EFD206850F884
:10251000141F4906ECD50168490613D40168C906A1
:10252000F2D56FF01001016000202021206384F8B3
:102530003D1084F83E00206C2064002084F83C00AC
:10254000012070BD002070BD70B50368044653F8CB
:10255000140F000611D40E46481C29D086BB00BFBC
:102560001868400527D4FEF74FFD236853F8140F71
:10257000000637D518680006F2D5002070BD00BFF0
:1025800018680006F9D41868400514D418680006C5
:10259000F3D4186840050ED418680006EDD4186806
:1025A000400508D4186800064FF0000048BF70BD11
:1025B00018684005E4D56FF480601860042012E0CC
:1025C000154603E053F8140F0006D6D418684005EA
:1025D000F1D4FEF719FD401B2368B042F2D95869C7
:1025E0000006EFD4202000212022216384F83D2022
:1025F00084F83E10226C10432064012084F83C10C3
:1026000070BD0000FEE70000FEE70000704700001C
:1026100070470000FEF7C4BF70B592B006AC20460C
:102620003021FDF7AEFF002543F640000595CDE9CA
:102630000355CDE901550095C4F202000168022658
:1026400041F080510160006800F0805000900098D7
:1026500047F200000095C4F20000016866F38F3174
:102660000160006800F4404000900098012009904B
:1026700010200A9008200E903220CDE90F06042089
:10268000119020460696CDE90C65FFF753F918B175
:1026900072B600BFFEE700BF0F20CDE90106802023
:1026A00003904FF48050CDE9040501A80021FFF705
:1026B0002FF818B172B600BFFEE700BF12B070BDB0
:1026C0004EF68850CEF20000016841F470010160BE
:1026D00070470000B0B50446006804F108030ECB53
:1026E0000569194325F440552A4302616269E3698B
:1026F0001143C268194349F20C639A431143C16004
:102700004169A26921F4407141F20043114340F450
:102710008062C4F201039A42416103D1FFF7BEF81F
:1027200002E000BFFFF7A6F8E1694FF69C75636809
:102730001922C0F6FF75B1F5004FA0FB02011FD1B1
:102740005A00DB0FFDF7B8FD48F21F51C5F2EB113F
:10275000A0FB01235A0905F1805302FB0300322339
:1027600003EBC000A0FB01014FF4F87000EA111068
:1027700000EB0210C1F34211084421688860B0BD2B
:102780009A009B0FFDF798FD48F21F51C5F2EB111F
:10279000A0FB01235A0902FB0500322303EB0010C2
:1027A000A0FB0101F02000EA511000EB0210C1F380
:1027B0004311084421688860B0BD0000FEE70000B6
:1027C00094B045F20045C4F20005FEF7F7FEFFF7AE
:1027D00023FF002443F630000894CDE90644CDE9F8
:1027E00004440394C4F20200016841F080010160D6
:1027F000016801F08001039103990394016841F09D
:1028000002010160016801F0020103910399039440
:10281000016841F001010160006804A900F00100B5
:10282000039003984FF4805004904FF48810CDE942
:10283000050405F5D830FEF717FB282002210022F9
:10284000FEF72AFF2820FEF715FF40F2800048F22D
:10285000A061C2F20000C0F201014FF48042C0E961
:102860000051C0E90244C0E90424C0E906440462FE
:10287000FEF7D0FB10B172B6FEE700BF40F2D40005
:1028800005F53C41C2F200000C234FF4E13280E830
:102890001600C0E90344C0E90534C461FFF736FA05
:1028A00010B172B6FEE700BF00F0D8F840F2D408CD
:1028B000C2F2000843F2CC41C0F6000140461E229D
:1028C0006423FFF78FFA23A1404622226423FFF7F7
:1028D00089FA00F083F828A140461F226423FFF7FD
:1028E00081FA2DA1404620226423FFF77BFA33A111
:1028F00040461E226423FFF775FAFEF785FBFEF7BC
:1029000083FB40F27C0443F2EB450746C2F200042D
:10291000C0F6000504AE00BFFEF776FBC11B3229EE
:10292000FAD321680746084600F0FAFC41EC100B88
:10293000304640212A468DED000BFDF735FD30462F
:10294000FDF700FE82B2404631466423FFF74AFAA3
:10295000E2E700BF43616C6962726174696E672E61
:102960002E2E204B65657020726F626F7420737419
:10297000696C6C210D0A000043616C6962726174BC
:10298000696F6E20646F6E652E2053746172746976
:102990006E672E2E2E0D0A00466F726D61743A20FE
:1029A000503A70697463682020523A726F6C6C20E0
:1029B00020593A7961770D0A000000002D2D2D2D48
:1029C0002D2D2D2D2D2D2D2D2D2D2D2D2D2D2D2D37
:1029D0002D2D2D2D2D2D2D2D0D0A00002DE9F0432F
:1029E00085B040F2800400254FF4FA664FF00A08E3
:1029F0004FF002090DF11207C2F200042046D02167
:102A000047220123CDE90079CDF80880FEF7B4FB19
:102A1000BDF8120000BA05EB20450120FEF786F94B
:102A2000013EEBD100EE105A9FED0A1AB8EEC00A33
:102A300080EE010A9FED081A40F27000C2F2000019
:102A4000002180EE010A80ED020AC16005B0BDE8F8
:102A5000F08300BF0000FA4400000343F0B585B0E6
:102A60006420FEF763F901260DF11300CDE900069D
:102A700040F280000A25C2F20000D0217522012315
:102A80000295FEF779FB9DF81300682842D140F2C9
:102A90008004C2F200040DF112072046D0216B22FF
:102AA00001238DF81260CDE900760295FEF790FCC7
:102AB0000A20FEF73BF909208DF812002046D021AC
:102AC00019220123CDE900760295FEF781FC03204F
:102AD0008DF812002046D0211A220123CDE900767C
:102AE0000295FEF775FC00208DF812002046D021DB
:102AF0001B220123CDE900760295FEF769FC2046F2
:102B0000D021382201238DF81260CDE9007602959C
:102B1000FEF75EFC05B0F0BD5FEA400C08BF91F027
:102B2000000F4FEA8C234FEAC12243EA51514FEA8A
:102B30001C5018BF00F5F0404FEA300018BF41F0BC
:102B400000415FEA6C5C00F02980BCF1FF3F08BFE8
:102B500040F080407047130C06BF12044FF0100C79
:102B60004FF0000C130E04BF12020CF1080C130FEF
:102B700004BF12010CF1040C930F04BF92000CF17E
:102B8000020CD30F04BF52000CF1010C11464FF0A0
:102B90000002A0F11F00A0EB0C00704711F0004FE5
:102BA00008BF704731F000413FF4D5AF0B0C06BFB2
:102BB00009044FF0100C4FF0000C0B0E04BF09027B
:102BC0000CF1080C0B0F04BF09010CF1040C8B0F66
:102BD00004BF89000CF1020CCB0F04BF49000CF1BB
:102BE000010CCCF1200322FA03F341EA030102FABB
:102BF0000CF2A0EB0C0000F10100704723F07F47BE
:102C000020F07F4C80EA030000F00040ACEB0703AB
:102C100003F57C5303F1FF032DE9804909B44FEA22
:102C2000144324EA03484FEA154B25EA0B4E0FF2F2
:102C3000042606EB13273E7803FB0667C7F500075B
:102C400007FB06F64FEAD64606F102064FEA54376E
:102C500007FB066CCCF1005C4FEA1C472CEA074CE2
:102C60000CFB06F507FB06F404EB15464FEA961637
:102C700049085FEA320234BF00204FF000404FEABB
:102C8000D13706FB07FC4FEA1C4C0CFB0BF7D21BA1
:102C900003FB0CF761EB07010CFB0EF7B0EB0740F1
:102CA00072EB17420CFB08F734BFA2EB0742B2EB02
:102CB000074261EB17414FEA0C444FEA910706FBCC
:102CC00007FC4FEA1C4C0CFB0BF7B0EBC74072EB58
:102CD000573203FB0CF734BFA2EBC742B2EBC7423B
:102CE00061EB57310CFB0EF7B0EBC70072EB57727C
:102CF0000CFB08F734BFA2EBC702B2EBC70261EBD3
:102D000057714FEA816141EA92114FEA826242EAC9
:102D100090124FEA806004EBCC04039F4FEAD13756
:102D200006FB07FC4FEA1C4C0CFB0BF7D21B03FB0A
:102D30000CF761EB07010CFB0EF7B0EB074072EBF1
:102D400017420CFB08F734BFA2EB0742B2EB074275
:102D500061EB17414FEA8C5504EB9C244FEA910735
:102D600006FB07FC4FEA1C4C0CFB0BF7B0EBC74013
:102D700072EB573203FB0CF734BFA2EBC742B2EB46
:102D8000C74261EB57310CFB0EF7B0EBC70072EB9B
:102D900057720CFB08F734BFA2EBC702B2EBC702B5
:102DA00061EB57714FEA816141EA92114FEA826209
:102DB00042EA90124FEA806015EB4C2544F1000482
:102DC0004FEAD13706FB07FC4FEA1C4C0CFB0BF714
:102DD000D21B03FB0CF761EB07010CFB0EF7B0EB0A
:102DE000074072EB17420CFB08F734BFA2EB074217
:102DF000B2EB074261EB17414FEA813141EA924160
:102E00004FEA823242EA90424FEA80304FEA0C7633
:102E100015EB1C1544F1000448EA03434EEA0B4845
:102E20004FF0000EB2EB080C71EB030724BF6246B3
:102E300039464EEB0E0E4FF0000B0018524149413F
:102E40004BEB0B0BB2EB080C71EB03077BF1000BA8
:102E500024BF624639464EEB0E0E4FF0000B0018B1
:102E6000524149414BEB0B0BB2EB080C71EB0307E2
:102E70007BF1000B24BF624639464EEB0E0E51EA41
:102E8000020718BF46F0010616EB0E7655F1000258
:102E900054F1000103D5BDE88901BDE80088BDE813
:102EA0008901BDE80048B619524141EB0101A3F187
:102EB0000103704780807F7E7D7C7B7A797877768E
:102EC00076757473727171706F6E6E6D6C6C6B6A07
:102ED0006A696868676666656464636362616160A5
:102EE000605F5F5E5E5D5D5C5C5B5B5A5A59595822
:102EF000585757565655555554545353525252518C
:102F0000515050504F4F4F4E4E4D4D4D4C4C4C4BE1
:102F10004B4B4A4A4A494949484848474747474628
:102F20004646454545444444444343434342424264
:102F3000424141419C46002B30D477002BD04FEAD0
:102F400037071CB503B44FF010004FF01001BAF171
:102F5000000F06D0BCF1000FDCBF40F0080040F0CD
:102F600008014FF000000FBCBDE810400BF1010B51
:102F7000BBF1010F08BF5FEA170722BF12F1010280
:102F800011F101014FF0004143F1000300F0004056
:102F900043EA00007047F9D35708D0E746EA0646EF
:102FA0004FEA164613F1400F1FDD13F1200FDFBF6C
:102FB00016430A46002120335B42BED0C3F12007EE
:102FC00046EA06464FEA164602FA07F746EA0706B9
:102FD00022FA03F2C3F1200701FA07F742EA0702D7
:102FE00021FA03F14FF00003A7E746EA020646EA9A
:102FF00006464FEA164646EA0106BCBF46EA0646C2
:10300000360C4FF000034FF000024FF0000194E740
:103010002DE9804C70B49A46934691E8380007C871
:1030200031EA400C48BF34EA430C03D5FFF7E6FD14
:10303000FFF780FFF0BCBDE8008C2DE9804C70B438
:103040009A46934691E8380007C810F0804F08BFB1
:1030500013F0804F03D100F005F8FFF76BFFF0BCD1
:10306000BDE8008C20F07F4723F07F4C80EA03000E
:1030700000F0004007EB0C03A3F57C53A3F1FE0323
:1030800092F0000F00F0B38095F0000F00F0778011
:103090002DE901494FEA114021EA00484FEA144660
:1030A00024EA064700FB06FC08FB06F607FB08F8C7
:1030B00018EB06484CEB164C00FB07F718EB0748DB
:1030C0004CEB17404FEA124B22EA0B4E4FEA1546E3
:1030D00025EA06470BFB06FC0EFB06F607FB0EFE79
:1030E0001EEB064E4CEB164C0BFB07F71EEB074E88
:1030F0004CEB174B18EB0B0840F1000018EB0E0BD4
:1031000058EB000840F100008F1A4FF000014FF01B
:1031100000063CBFC943661B14BFB5EB040C00217D
:103120003CBFC943F61B4FEA174427EA04454FEA60
:103130001C472CEA074C04FB076205FB07F70CFB56
:1031400005F616EB074642EB174204FB0CFC16EBA8
:103150000C4642EB1C421BEB060658EB02024141B7
:103160004EEA8E0E46EA9E0601D5BDE80189B619E3
:10317000524141EB0101A3F10103BDE801894FEA8E
:10318000144524EA05464FEA114721EA074C05FB9E
:1031900007F406FB07F70CFB06F111EB074144EBC4
:1031A000174405FB0CFC11EB0C4144EB1C444FEAAB
:1031B000124722EA074C05FB07F206FB07F70CFB58
:1031C00006F616EB074642EB174205FB0CFC16EB26
:1031D0000C4642EB1C456A1854F1000148BF704789
:1031E000B619524141EB0101A3F10103704795F07B
:1031F000000F37D04FEA114221EA02464FEA144746
:1032000024EA074C02FB07F106FB07F70CFB06F468
:1032100014EB074441EB174102FB0CFC14EB0C448C
:1032200041EB1C414FEA154725EA074C02FB07F525
:1032300006FB07F70CFB06F616EB074645EB1745B2
:1032400002FB0CFC16EB0C4645EB1C42121951F12B
:10325000000148BF7047B619524141EB0101A3F18B
:10326000010370474FEA144524EA05464FEA114727
:1032700021EA074C05FB07F106FB07F70CFB06F2FA
:1032800012EB074241EB174105FB0CFC12EB0C4221
:1032900051EB1C414FF0000648BF7047921841EBBC
:1032A0000101A3F10103704703B4019841000098A4
:1032B00050EAC12018BF04204A0D18BF40F0010099
:1032C00040F2FF72B2EB515F08BF40F002000128EC
:1032D00008BF052002B0704730380A2801D201200B
:1032E000704700207047000010B500290AD0087808
:1032F000002807D005487844FDF7CAFC002801D013
:10330000002010BD0248784410BD00002A020000D1
:10331000220200000808A0F500114FEA31017047B1
:1033200043004FEAD30C4FEA3C0C43401FBF400719
:103330000CF1605113F0FE4F70471CF0006F03D189
:103340000CF00041002070470CF0004343EA50703D
:1033500040EACC0010B500F00EF800BF000000926B
:103360004FEA0001FFF7D6BF4FF00041A1F5002161
:103370004FF0000070470EF1020E2EF0030E5EF8C3
:10338000044B244204D44FEA4102B2F17F4F11D8DA
:103390004FEA4003B3F17F4F0CD80ED14FEAD07CF7
:1033A0000CEB4C0C0CF1020CB2F17F4F08BF4CEB54
:1033B000D17C04E04FF0080C01E04FEAD17C0CEB2B
:1033C0004C0324FA03F404F00704B4F1040C06D20D
:1033D0000EEB840CBDE810404CF0010C6047DFE8B8
:1033E0000CF0070802024FF00040A0F5800010BD6D
:1033F0000846420018BFD2F1807288BF00F000403A
:1034000010BDF1EE100A4FF6FF71C0F2C03120EA94
:10341000010040F04070E1EE100A7047FDF7B3B9CB
:1034200002400000000000A0000000000540000075
:10343000000000C8000000000C4000000000409C9C
:1034400000000000194000000020BCBE0000000089
:1034500034400000BFC91B8E00000004B5400000CE
:10346000504BCFD06607E2CF010000006C41000056
:103470003E8251AADFEEA73401000000D9420000CD
:10348000DCB5A0E23A301F97FFFFFFFFB445000014
:10349000FD25A0C8E9A3C14FFFFFFFFFFF3F0000CC
:1034A0000000008000000000FF3F000000000080DE
:1034B0000000000000000000000000000102030402
:1034C0000607080900000000010203043D3D3D20FD
:1034D0004D50553630353020526F626F7420566132
:1034E0006375756D203D3D3D0D0A00437572726533
:1034F0006E74205961773A25372E32660D0A000026
:10350000403500080000002010000000F80100080D
:1035100050350008100000201007000018020008B5
:103520001C00000043000000F8FFFFFF0C0000003B
:103530000E0000000F0000002E0000000000000040
:1035400001000000100000000024F4000000000052
:040000050800019559
:00000001FF
