:020000040800F2
:10000000F806002061020008911900080113000899
:100010008D190008790400085D1A0008000000002E
:100020000000000000000000000000009919000816
:100030007D04000800000000951900089D190008C3
:100040007B0200087B0200087B0200087B0200089C
:100050007B0200087B0200087B0200087B0200088C
:100060007B0200087B0200087B0200087B0200087C
:100070007B0200087B0200087B0200087B0200086C
:100080007B0200087B0200087B02000800000000E1
:100090000000000000000000000000007B020008DB
:1000A0007B0200087B0200087B0200087B0200083C
:1000B0007B0200087B0200087B0200087B0200082C
:1000C0007B0200087B0200087B0200087B0200081C
:1000D0007B0200087B0200087B0200080000000091
:1000E0007B0200087B0200087B0200080000000081
:1000F0000000000000000000000000007B0200087B
:10010000000000007B0200087B0200087B02000860
:1001100000000000000000000000000000000000DF
:100120007B0200087B0200087B0200087B020008BB
:100130007B0200080000000000000000000000003A
:100140000000000000000000000000007B0200082A
:100150007B0200087B0200087B0200087B0200088B
:100160007B0200087B020008000000000000000085
:10017000000000000000000000000000000000007F
:10018000000000007B0200080000000000000000EA
:100190007B02000800F002F800F052F814A696E87E
:1001A000000CB244B344DA4501D100F049F8BAE892
:1001B0000F000FA696E83000A5EB040504EB060738
:1001C000AAEB0704A7F101074FEA15154FEA34140B
:1001D000A4F10104AC4201D300F032F813F0010F96
:1001E00018BFFB1A43F0010300F001F8DBE71847E2
:1001F000502F0000702F0000103A24BF78C878C13B
:10020000FAD8520724BF30C830C144BF04680C601C
:1002100070470000704700000023002400250026DE
:10022000103A28BF78C1FBD8520728BF30C148BF59
:100230000B6070471FB502F012FF1FBD10B510BD57
:1002400000F0E4F81146FFF7F5FF01F009FC00F0BB
:1002500002F903B4FFF7F2FF03BC00F005F9000058
:100260000948804709480047FEE7FEE7FEE7FEE74A
:10027000FEE7FEE7FEE7FEE7FEE7FEE70448054986
:10028000054A064B70470000491A0008950100080E
:10029000F8000020F8060020F8020020F8020020F4
:1002A00053EA020C00F069802DE9F04B4FF0000694
:1002B000002B1FBFB3FA83F503FA05F424FA05F601
:1002C0005E4012BF1643B2FA82F502FA05F4C5F198
:1002D00020051EBF22FA05FC44EA0C04203556EA2C
:1002E000044C4FEA144418BF641C4FF000084FF050
:1002F0000009904271EB030C39D3002919BFB1FA00
:1003000081F701FA07F6B0FA80F700FA07F6C7F1AD
:1003100020071EBF20FA07FC46EA0C062037B6FB72
:10032000F4FCA7EB0507103F07F01F0BCBF12006ED
:100330002CFA06F60CFA0BFB44BFB3460026202F1E
:10034000A4BF5E464FF0000B5BEA060C08BF4FF0FF
:10035000010B19EB0B0948EB0608ABFB027C06FB13
:1003600002CC0BFB03CCC01B71EB0C01C1E70B46AD
:10037000024641464846BDE8F08B13B5084318BF16
:100380004FF0FF300146AFF30080BDE81C407047DE
:100390004FF0000200B5134694469646203922BF1E
:1003A000A0E80C50A0E80C50B1F12001BFF4F7AF69
:1003B000090728BFA0E80C5048BF0CC05DF804EB4B
:1003C000890028BF40F8042B08BF704748BF20F8B9
:1003D000022B11F0804F18BF00F8012B70477047B7
:1003E0007047704710B500F009F8006810BD10B5EF
:1003F000044600F003F8046010BD00000048704798
:100400001000002000487047100000207546FFF7DC
:10041000F9FFAE4605006946534620F007008546C1
:1004200018B020B5FFF72AFFBDE820404FF00006C6
:100430004FF000074FF000084FF0000BAC46ACE85F
:10044000C009ACE8C009ACE8C009ACE8C00921F0BB
:1004500007018D46704710B50446AFF30080204673
:10046000BDE81040FFF7F5BE01491820ABBEFEE71E
:100470002600020070470000FEE700007047000001
:10048000B0B5044600F0E0F8054640F20000C2F2C4
:1004900000000078611C18BF044400BF00F0D4F8CD
:1004A000401BA042FAD3B0BD2DE9F04F83B000F15C
:1004B000200200F13E4741F20005009207F1FF776C
:1004C000C4F2020507224FEAB726A84208BF042259
:1004D00000254FF000084FF00009042E38BF4FEA06
:1004E000B72201920AE000BF09F1010908F10208F0
:1004F000B9F1100F05F1040500F0A2800F68012288
:1005000002FA09FE17EA0E0AEED0D1F804C003225F
:100510000CF003077E1E02FA08F4012E6FEA040BAA
:1005200012D88468CE6804EA0B0406FA08F634434D
:100530008460446824EA0E06CCF3001404FA09F43B
:100540002643466004E000BF032F01D103271EE0CD
:10055000C6688C6806EA0B0604FA08F42643022FE4
:10056000C66014D16FF00302009E02EA590756F8E4
:1005700007C005F01C040F220B69A2402CEA0202FE
:10058000A3401A43F251D1F804C00CF003070268EB
:1005900007FA08F302EA0B021A431CF4403F026018
:1005A000A2D0002243F644030292C4F202031A6866
:1005B00043F6004442F480421A601A68C4F201040F
:1005C00002F480420292029A29F003024FF6084C8C
:1005D0002244CFF6FF7C52F80C3005F00C070F26B2
:1005E000BE40B343019E06FA07F73B4342F80C3086
:1005F000A2684B6842EA0A0743F60C4CDE0258BF79
:1006000022EA0A07A760C4F2010CDCF800209E026F
:1006100042EA0A0758BF22EA0A07CCF8007062686B
:100620009E0342EA0A0758BF22EA0A076760226867
:10063000DB0342EA0A0758BF22EA0A07276053E7AA
:1006400003B0BDE8F08F000040F2F000C2F20000FD
:1006500000687047002804BF01207047F0B581B0E2
:10066000044690F83D0028B9002084F83C0020465C
:1006700000F07CFA242084F83D002068016821F015
:1006800001010160016841F400410160016821F449
:100690000041016000F0FCFB636848F2A16CC0F20D
:1006A000010C40F60011C0F23D0163453CBF48F229
:1006B0008041C0F21E01884202D2012001B0F0BD8B
:1006C0004DF68361C4F21B31A0FB01122168970C27
:1006D000D1F804E04FF496762EF03F0545EA9245B6
:1006E0004D60774348F638160D6AC0F24106A7FB05
:1006F000067625F03F07634538BF960C721C3A43D7
:100700000A62CA6948F2A0664CF6FF77C0F2010699
:10071000B34222EA07020BD801385B00B0FBF3F0CA
:1007200001306FF31F30042898BF04201BE000BF86
:10073000A768013857B119277B43B0FBF3F00130AC
:100740006FF31F3070B100F5804007E003EB430307
:10075000B0FBF3F001306FF31F3018B100F500402B
:1007600001E000BF01201043C8610868D4E90723F5
:1007700020F0C000104318430860886848F2FF3238
:1007800004F10C0790438CCF18431043A66988608E
:10079000C86820F0FF0038433043C860086840F064
:1007A0000100086000202021206484F83D102063AF
:1007B00084F83E0001B0F0BD2DE9F04784B09946C1
:1007C00016460F460446FFF73FFF94F83D102029D8
:1007D00027D10546206800BF816989071CD5FFF72E
:1007E00033FF411B20681A29F6D381698907F3D5A5
:1007F00000202021206384F83D1084F83E00206C06
:1008000004F13C0A40F020002064022000218AF814
:10081000001004B0BDE8F087A2461AF83C1F012979
:1008200004D1022004B0BDE8F08700BF01228AF89D
:1008300000200368DDE90D180C9ADB0703D103687B
:1008400043F001030360036823F400630360222084
:1008500084F83D00402084F83E000020206462625D
:100860006185608D394620850020CFF6FF70E062FB
:10087000204632464B46CDE9008500F043FD18B1D5
:10088000012004B0BDE8F087208D08B3022813D002
:10089000012835D121680A6822F480620A600022AA
:1008A00003924A6903928A690392039A0A6842F49E
:1008B00000720A602CE000BF21680A6822F480629E
:1008C0000A600A6842F400620A60002203921AE099
:1008D0000020039020684169039181690391039985
:1008E000016841F400710160202084F83D0000207F
:1008F00084F83E0000218AF8001004B0BDE8F087BB
:100900000021039121684A6903928969039103993F
:100910000427C0F201070CE010690870606A218D9D
:1009200001306062481E2085618D013961850104B6
:10093000DAD080B203280FD802284AD001282DD15E
:10094000204641462A4600F07BFF002898D12068C7
:10095000616A0069E1E700BF204641462A4600F08F
:100960006FFF00287FF48CAF2068616A006908700F
:10097000606A2268411C208D616201382085638D88
:10098000013B638553695B07D1D580B20328C3D18E
:10099000106820F480601060BEE700BF2046394632
:1009A00000224346009500F0F9FD00287FF468AF6F
:1009B0002068616A026822F480620260006908703F
:1009C000606A218D01306062481E2085608D01388B
:1009D00060852046394600224346009500F0DEFD42
:1009E00000287FF44DAF2068616A026842F400720B
:1009F000026000690870606A2268411C6162218D92
:100A000001392185618D013961851169417085E761
:100A10002DE9F04383B0994616460F460446FFF78A
:100A200013FE94F83D10202924D10546206800BF0C
:100A3000816989071AD5FFF707FE411B20681A292B
:100A4000F6D381698907F3D500202021206384F83B
:100A50003D1084F83E00216C41F02001216484F8AF
:100A60003C00022003B0BDE8F08300BF94F83C10C6
:100A7000012903D1022003B0BDE8F083012284F8EC
:100A80003C200368DDE90B180A9ADB0703D10368F1
:100A900043F001030360036823F400630360212033
:100AA00084F83D00402084F83E000020206462620B
:100AB0006185608D394620850020CFF6FF70E062A9
:100AC000204632464B46CDE9008500F0A5FC18B122
:100AD000012003B0BDE8F083208D98B9204641463F
:100AE0002A4600F0FDFC88B3206C0428F0D1206871
:100AF000016841F400710160012003B0BDE8F0839A
:100B00000004EBD0204641462A4600F0E1FE0028D2
:100B1000EAD1616A2268084610F8013B1361238D0F
:100B20006062581E2085678D013F678557697F0782
:100B3000E6D50704E4D048781061881C6062981EEE
:100B40002085618D01396185DAE700BF2068016881
:100B500041F400710160202084F83D00002084F8F9
:100B60003E0084F83C0003B0BDE8F083B0B586B029
:100B700045F200410068C4F2000100248842059457
:100B8000CDE903440294019402D006B0B0BD00BF89
:100B900043F630050094C4F20205286840F00200D4
:100BA0002860286800F0020000900098C0200190A2
:100BB0001220CDE90204032004900420059001F5E1
:100BC000D83001A9FFF770FC0094286940F40010A8
:100BD0002861286900F400100090009806B0B0BDAC
:100BE00040F2000040F2F001C2F20000C2F2000147
:100BF00000780A68104408607047000080B543F62A
:100C00000040C4F20200016841F400710160016813
:100C100041F480610160016841F48071016003204A
:100C200000F074F80F2000F005F800F027F800201D
:100C300080BD000070B540F20006C2F2000640F22E
:100C400008013278C2F200014FF47A730968B3FBED
:100C5000F2F20446B1FBF2F1084600F03BFB0F2C28
:100C60004FF0010508D838B94FF0FF302146002277
:100C7000002500F01FF87460284670BD82B0002087
:100C800043F640010190C4F202014A6842F48042F6
:100C90004A604A6802F480420192019A0090086812
:100CA00040F080500860086800F080500090009884
:100CB00002B0704710B54EF60C5CCEF2000CDCF8BA
:100CC0000030C3F3022E8EF00704042C28BF042446
:100CD000BEF103034FF0FF3E0EFA04F438BF0023C9
:100CE000A14399400EFA03F39A43114300F00F0217
:100CF00000F160430901043A03F5644362440028AB
:100D000048BF02F10C03197010BD00004EF60C51E3
:100D1000CEF200010A684FF6FF031A4060F30A2280
:100D200042F0806040F0FD7008607047002804BF0A
:100D3000012070472DE9F04143F60808C4F202088B
:100D40000446D8F8F8030D4600F00700814207D9A1
:100D500088F8F853D8F8F80300F00700A84277D1D4
:100D60002068810717D5410705D5D8F8001041F450
:100D7000E051C8F80010010705D5D8F8001041F47B
:100D80006041C8F80010D8F80010A26821F0F00106
:100D90001143C8F80010C00740D1D8F8F80300F09C
:100DA0000700854207D288F8F853D8F8F80300F016
:100DB0000700A8424CD12068410707D5D8F8001099
:100DC000E26821F4E0511143C8F80010000708D58B
:100DD000D8F80000216920F4604040EAC100C8F85A
:100DE000000000F069F8D8F8001043F22812C1F3AF
:100DF0000311C0F60002515C40F2080220FA01F132
:100E000040F20400C2F200000068C2F20002116069
:100E1000FFF710FF0020BDE8F08100BF6068811E71
:100E2000022907D258F8081C89015CBF0120BDE8DF
:100E3000F08111E0012807D158F8081C89035CBF34
:100E40000120BDE8F08107E058F8081C890703D4A9
:100E50000120BDE8F08100BFD8F8001021F00301A7
:100E60000843C8F80000FFF7EFFB064641F2883759
:100E7000D8F80000616800F00C00B0EB810F8CD056
:100E8000FFF7E2FB801BB842F2D90320BDE8F081F6
:100E900040F2080043F60801C2F20000C4F2020169
:100EA0000068096843F23812C1F38221C0F60002DB
:100EB000515CC8407047000010B543F60404C4F20A
:100EC00002046168C1F3810142F20040C0F2F40003
:100ED000DFE801F002040A0210BD00BF47F640003F
:100EE000C0F27D1010BD00BF206821682368490250
:100EF00047F64001C0F27D1100F03F02C3F38810B5
:100F00005CBF42F20041C0F2F401A1FB00010023EA
:100F1000FFF7C6F921680222C1F3014102EB41014A
:100F2000B0FBF1F010BD0000002804BF01207047A5
:100F30002DE9F04182B00446007843F60006C00770
:100F4000C4F202060CD0B06800F00C00042840F097
:100F500081803068800303D56068002800F06881D4
:100F6000207880071BD5B06810F00C0F09D0B0684E
:100F700000F00C00082840F087807068400200F103
:100F800083803068800703D5E068012840F05081F5
:100F90003068216920F0F80040EAC1003060207814
:100FA000000713D4207840072AD4A569002D00F04B
:100FB0003A81B06800F00C00082840F0A580012DAF
:100FC00040F00E81012002B0BDE8F0816069002888
:100FD00000F082800020C4F247200121C0F8801E6A
:100FE000FFF732FB054600BF706F8007DAD4FFF7CA
:100FF0002BFB401B0228F7D9032002B0BDE8F0818B
:10100000306C5FEAC0080AD400200190306C40F0D8
:1010100080503064306C00F080500190019847F2AD
:101020000007C4F200073868C00547D4386840F4A8
:1010300080703860FFF708FB054600BF3868C005C0
:101040003CD4FFF701FB401B0228F7D9032002B074
:10105000BDE8F081B06800F00C00082803D170688A
:1010600040023FF576AF61683068B1F5803F07D048
:10107000B1F5A02F40F09A8040F4802030603068B5
:1010800040F4803030609AE0E068002840F20000D0
:10109000C4F247205CD001210160FFF7D5FA054674
:1010A000306880073FF574AFFFF7CEFA401B022887
:1010B000F6D9032002B0BDE8F08100BFA168306F0F
:1010C000012905D0052955D140F004003067306F63
:1010D00040F00100306756E00020C4F247200021B4
:1010E000C0F8801EFFF7B0FA054600BF706F80079A
:1010F0007FF558AFFFF7A8FA401B0228F6D9032066
:1011000002B0BDE8F08100BF0027C4F247270020ED
:101110003866FFF799FA022D05460DD13068800137
:1011200040F18A80FFF790FA401B02284FF003003D
:10113000F4D902B0BDE8F0813068800173D5FFF7C3
:1011400083FA401B02284FF00300F5D9F1E700BFF6
:1011500000210160FFF778FA054600BF306880077C
:101160007FF51DAFFFF770FA401B02284FF0030018
:10117000F4D9DEE720F001003067306F002920F05D
:10118000040030677AD0FFF75FFA054641F28837EE
:10119000306F800700F18480FFF756FA401BB84299
:1011A000F6D9032002B0BDE8F08100BF20F4803002
:1011B00030603068002920F4802030607AD0FFF75A
:1011C00043FA0546306880033FF5CAAEFFF73CFAA4
:1011D000401B6428F6D9032002B0BDE8F08100BFAF
:1011E0007068E16900F480028A4221D1216A00F02E
:1011F0003F028A421CD147F6C071626A0140B1EBDE
:10120000821F15D1A16A4FF6FF73C903994300F4F9
:101210004032A1F580318A420AD1E16A00F0706063
:10122000B0EB016F04D1002002B0BDE8F08100BF37
:10123000012002B0BDE8F08104F11C052FCD084368
:1012400040EA8210D9034FF6FF729143A1F5803135
:1012500040EA05600843706001203866FFF7F4F942
:10126000044600BF30688001DDD4FFF7EDF9001BB4
:1012700002284FF00300F5D95BE700BFFFF7E4F960
:10128000054641F2883700BF306F800708D5FFF769
:10129000DBF9401BB8424FF00300F5D949E700BF26
:1012A000B8F1000F3FF581AE306C20F08050306413
:1012B0007BE600BFFFF7C8F9054600BF3068800332
:1012C0007FF54EAEFFF7C0F9401B64284FF00300D6
:1012D000F4D92EE7411E0020B0EB116F1CBF012096
:1012E00070474EF21002CEF2000251604EF62351CA
:1012F000CEF20001F0230B7007219060116070475F
:10130000FEE700002DE9F04782B0044600689A46E7
:101310000B9D0A9E0368914643F480620260026856
:101320000F4642F48071016020464FF00111002207
:101330003346009500F032F950B120680068C005CE
:1013400044BF4FF400702064032002B0BDE8F08772
:1013500040F202082068C0F2010807F0FE070761AA
:101360002046414632462B4600F0FEF920B10120CE
:1013700002B0BDE8F08700BF0020019020682A4637
:10138000416901918069314601900198204600F041
:101390009FFAB0B92068BAF1010F09D04FEA1921BC
:1013A0000161204631462A4600F092FA48B9206889
:1013B0005FFA89F10161204631462A4600F088FA39
:1013C00060B1206C0428D2D12068016841F400711A
:1013D0000160012002B0BDE8F08700BF2068002254
:1013E0000168334641F48071016020464FF00111DD
:1013F000009500F0D3F800289FD147F0010C276832
:101400002046414632462B46C7F810C002B0BDE820
:10141000F04700F0A9B900002DE9F04383B004467D
:1014200000680F4601680A9D0B9E41F48071994641
:101430009046016020464FF0011100222B46009695
:1014400000F0ACF850B120680068C00544BF4FF40C
:1014500000702064032003B0BDE8F083206807F02B
:10146000FE0101610221C0F2010120462A463346F5
:1014700000F07AF920B1012003B0BDE8F08300BF8D
:101480000020029020683246416902918069294615
:1014900002900298204600F01BFA58B1206C0428F4
:1014A000E9D12068016841F400710160012003B0B6
:1014B000BDE8F0832068B9F1010F0AD04FEA182186
:1014C000016120462946324600F002FA0028E5D1A3
:1014D00020685FFA88F10161002003B0BDE8F08365
:1014E00070B50368044653F8140F400711D40E4634
:1014F000481C29D086BB00BF1868400527D4FFF7D9
:10150000A3F8236853F8140F400737D5186840072D
:10151000F2D5002070BD00BF18684007F9D41868E4
:10152000400514D418684007F3D4186840050ED459
:1015300018684007EDD41868400508D418684007BB
:101540004FF0000048BF70BD18684005E4D56FF447
:1015500080601860042012E0154603E053F8140F71
:101560004007D6D418684005F1D4FFF76DF8401B4A
:101570002368B042F2D958694007EFD420200021F7
:101580002022216384F83D2084F83E10226C104311
:101590002064012084F83C1070BD00002DE9F0416A
:1015A000054600681E46144601F47F0201338FB2DF
:1015B00042D0DDF81880B2F5803F40F08780406966
:1015C0003840C01BB0FA80F04009844240F0C88027
:1015D0004EB924E040693840C01BB0FA80F04009A1
:1015E000844240F0BD80FFF72FF8A0EB0801286887
:1015F000B142EFD941693940C91BB1FA81F14909BA
:101600008C42E7D19BE000BF40693840C01BB0FA74
:1016100080F0400984424FF0000040F0A280FFF7C4
:1016200013F8286841693940C91BB1FA81F14909A9
:101630008C42E9D183E000BFB2F5803F24D100BFE6
:1016400041693940C91BB1FA81F149098C4240F026
:10165000878041693940C91BB1FA81F149098C423F
:1016600040F07E8041693940C91BB1FA81F14909D6
:101670008C4275D141693940C91BB1FA81F14909E0
:101680008C42DDD06CE000BF81693940C91BB1FAE2
:1016900081F149098C4263D181693940C91BB1FA92
:1016A00081F149098C425BD181693940C91BB1FA8A
:1016B00081F149098C4253D181693940C91BB1FA82
:1016C00081F149098C42DFD04AE000BF806938408F
:1016D000C01BB0FA80F04009844241D146B923E0F2
:1016E00080693840C01BB0FA80F04009844237D18D
:1016F000FEF7AAFFA0EB08012868B142F0D9816982
:101700003940C91BB1FA81F149098C42E8D116E090
:1017100080693840C01BB0FA80F0400984424FF025
:10172000000018BFBDE8F081FEF78EFF28688169D0
:101730003940C91BB1FA81F149098C42E8D1002036
:101740002021286385F83D1085F83E00296C41F082
:101750002001296485F83C000120BDE8F08100BF2C
:101760000020BDE8F0810000F0B581B004460068BB
:101770001D4643698FB203EA0701B94202D1002036
:1017800001B0F0BD4169164601323CD0490512D482
:101790007EB300BFFEF758FF411B2068B14203D95A
:1017A00041693940B9422BD141693940B942E6D04B
:1017B00041694905EED5016841F4007101606FF49B
:1017C00080614161042000212022216384F83D20B2
:1017D00084F83E10226C1043206484F83C100120F1
:1017E00001B0F0BD41693940B942C8D041694905ED
:1017F000E1D4FEF729FF206841693940B942F1D0B0
:101800002020E0E741694905D5D441693940B94212
:10181000B5D041694905CED441693940B942AED00D
:1018200041694905C7D441693940B942A7D04169E6
:101830004905C0D441693940B942E3D19FE700006E
:1018400070B504460068154650F8143F5A063DD45A
:101850000E4629B926E000BF50F8141F490635D4BA
:101860000168C90621D4FEF7EFFE411B2068B14292
:10187000F2D941694906EFD400202021206384F881
:101880003D1084F83E00206C40F0200018E000BFBE
:10189000FEF7DAFE206850F8141F4906ECD50168FF
:1018A000490613D40168C906F2D56FF01001016032
:1018B00000202021206384F83D1084F83E00206C35
:1018C0002064002084F83C00012070BD002070BD21
:1018D00070B50368044653F8140F000611D40E4681
:1018E000481C29D086BB00BF1868400527D4FEF7E6
:1018F000ABFE236853F8140F000637D518680006AE
:10190000F2D5002070BD00BF18680006F9D4186831
:10191000400514D418680006F3D4186840050ED4A6
:1019200018680006EDD41868400508D41868000649
:101930004FF0000048BF70BD18684005E4D56FF453
:1019400080601860042012E0154603E053F8140F7D
:101950000006D6D418684005F1D4FEF775FE401B8A
:101960002368B042F2D958690006EFD42020002144
:101970002022216384F83D2084F83E10226C10431D
:101980002064012084F83C1070BD0000FEE70000D8
:10199000FEE700007047000070470000FFF720B925
:1019A00070B592B006AC20463021FEF7F1FC002560
:1019B00043F640000595CDE90355CDE90155009565
:1019C000C4F202000168022641F080510160006803
:1019D00000F080500090009847F200000095C4F29B
:1019E0000000016866F38F310160006800F4404038
:1019F000009000980120099010200A9008200E9075
:101A00003220CDE90F060420119020460696CDE93C
:101A10000C65FFF789FA18B172B600BFFEE700BF88
:101A20000F20CDE90106802003904FF48050CDE9CE
:101A3000040501A80021FFF779F918B172B600BFBB
:101A4000FEE700BF12B070BD4EF68850CEF2000027
:101A5000016841F47001016070470000FEE700007A
:101A600084B0FFF7CBF8FFF79BFF002143F630006F
:101A70000391C4F20200026848F2A06342F08002BF
:101A800002600268C0F2010302F080020392039A2E
:101A9000029102684FF4804C42F001020260026839
:101AA00002F001020292029A0191026842F00202DF
:101AB0000260006845F2004200F0020001900198C7
:101AC00040F29C00C2F20000C4F20002C0E9002310
:101AD000C0E90211C0E904C1C0E906110162FEF7C4
:101AE000B9FD18B172B600BFFEE700BF00F00AF8FA
:101AF00000F032F900F0E6F800F052F80120FEF7AD
:101B0000BFFCF5E7F0B585B001250DF11300CDE977
:101B1000000540F29C00C2F20000D0217522012392
:101B20000295FEF749FE9DF81300682833D140F274
:101B30009C04C2F2000400260DF112072046D021B9
:101B40006B2201238DF81260CDE900750295FEF736
:101B50005FFF07208DF812002046D02119220123B3
:101B6000CDE900750295FEF753FF2046D0211B22D8
:101B700001238DF81260CDE900750295FEF748FF4C
:101B80002046D0211C2201238DF81260CDE900757A
:101B90000295FEF73DFF05B0F0BD0000000000001B
:101BA00070B52DED0E8B40F27006C2F2000696ED78
:101BB000062A9FED413A96ED090A96ED04BA96ED94
:101BC000074A96ED0A1A22EE032A96ED03CA96ED0D
:101BD00005DA32EE00AA24EE030A1BEE100A30EEFC
:101BE000019A01F0CBF92DEE0DDA2CEE0C0A30EE55
:101BF0000D0A41EC180B10EE100A01F0BFF941EC90
:101C0000100B00F079FBB0EE401AB0EE480AF0EE8F
:101C1000601AF0EE680A00F06FFA51EC100B9FEDBD
:101C2000240B54EC105B2A46234600F0E3FE00F040
:101C300063FC0EEE100A1CEE100A01F09FF92BEE69
:101C40000B0A30EE0D0A41EC180B10EE100A01F0F1
:101C500095F941EC100B00F04FFBB0EE401AB0EEDE
:101C6000480AF0EE601AF0EE680A00F045FA51EC0E
:101C7000100B2A46234600F0BDFE00F03DFC9FED10
:101C80000F1A9FED0F2A00EE100A2EEE013A2AEEEF
:101C9000024A20EE010A29EE021A34EE033A31EE2E
:101CA000000A86ED093A86ED0A0ABDEC0E8B70BD7E
:101CB00000000020DCA54C40A69B443B0AD7A33C77
:101CC00048E17A3F80B586B006200DF11201CDE9DA
:101CD000001040F29C004FF47A7CC2F20000D02148
:101CE0003B220123CDF808C0FEF766FDBDF81200C7
:101CF00040F2700290FAB0FC00BABDF81430000C4B
:101D0000C2F200021080D8BA1BBABDF816101B0C24
:101D10005380CBBA00EE10CA9FED0E1A02EE100AE5
:101D200003EE103A09BAB8EEC00AB8EEC22AB8EE0D
:101D3000C33A090C20EE010A22EE012A23EE011A11
:101D4000918082ED030A82ED042A82ED051A06B025
:101D500080BD00BF0000803880B586B006200DF140
:101D60001201CDE9001040F29C004FF47A7CC2F2DF
:101D70000000D02143220123CDF808C0FEF71CFD4E
:101D8000BDF81200BDF81410BDF81630C2BA91FAB1
:101D9000B1FC00EE102ADABA9FED131A02EE10CA57
:101DA00003EE102AB8EEC00AB8EEC22AB8EEC33A63
:101DB00080EE010A82EE012A83EE011A00BA40F297
:101DC0007002000CC2F20002D08008BA000C108130
:101DD00018BA000C508182ED060A82ED072A82EDC6
:101DE000081A06B080BD00BF0000034303B4019889
:101DF0004100009850EAC12018BF04204A0D18BFC6
:101E000040F0010040F2FF72B2EB515F08BF40F0BA
:101E10000200012808BF052002B070470000000042
:101E200070B59B482DED020B2DED068B079D25F01F
:101E30000044A04218DC9748844202DC0AD106988C
:101E400040B19DED060BBDEC068B02B0BDE87040C5
:101E500000F00BBB002DCCBF9FED8F0B9FED900BC7
:101E6000BDEC068B02B070BD8F48A04215DD8F48D7
:101E7000A042D8BF4FF0FF3458DD9DED060B51EC6A
:101E8000100BFFF7B3FF042808BF00F005FB9DED22
:101E9000060BBDEC068B02B070BD9DED060B51EC40
:101EA000100B00F011FBCDE9060181489FED828BFC
:101EB000A0423CDD8248A0421FDD00249FED82ABA2
:101EC0009DED060B53EC1A2B51EC100B00F046FB6A
:101ED0009DED060B41EC190B53EC1A2B51EC100B3A
:101EE00000F088FD53EC182B00F05AFF53EC192B2F
:101EF00000F0E8FBCDE9060149E09DED060B012469
:101F000053EC182B51EC100B00F028FB9DED060B49
:101F100041EC190B53EC182B51EC100B00F040FF67
:101F200053EC192B00F0CEFBCDE906012FE06848F9
:101F3000A0421FDD02249FED689B9DED060B53EC34
:101F4000192B51EC100B00F055FD53EC182B00F041
:101F500005FB9DED060B41EC180B53EC192B51ECD6
:101F6000100B00F01DFF53EC182B00F0ABFBCDE97C
:101F700006010CE09DED060B032453EC102B9FEDA6
:101F8000580B51EC100B00F09DFBCDE906019DEDC7
:101F9000060B53EC102B51EC100B00F02BFD41EC19
:101FA000180B53EC182B00F025FD41EC190B4E4893
:101FB0000621B0EE490AF0EE690A784400F0D9F93A
:101FC00053EC182B51EC100B00F014FD41EC180BE6
:101FD0004648B0EE490AF0EE690A0521784400F05F
:101FE000C8F953EC192B51EC100B00F003FD41EC38
:101FF000100B51EC180B53EC102B002C0EDA00F0E8
:10200000ADFA9DED061B53EC112B00F0F3FC9DED9A
:10201000061B53EC112B00F0EBFD35E000F09EFAAF
:102020009DED061B53EC112B00F0E4FC41EC100B72
:102030002F48784400EBC40090ED001B51EC100BCE
:1020400053EC112B00F0ACFE9DED061B53EC112B55
:1020500000F0A6FE41EC100B2648784400EBC400CB
:1020600090ED001B51EC100B53EC112B00F0C0FD58
:1020700041EC100B002DA2BFBDEC068B02B070BD71
:1020800051EC100B00F02CFA41EC100B01E70000B2
:10209000000010440000F07F182D4454FB21F93F4C
:1020A000182D4454FB21F9BF0000DC3F0000203E06
:1020B0000000F33F00000000000000000000F03FBF
:1020C0000000E63F000000000000000000000040AB
:1020D0000080034000000000000000000000F83F06
:1020E000000000000000F0BF32110000E810000006
:1020F000721000002A10000070B56F4E2DED040B19
:102100002DED048B82B0DDF824C0DDE907235C42AD
:102110002CF000411C4341EAD474069D22F000409B
:10212000B44205D86C422C4340EAD474B4420BD973
:102130009DED081B9DED060B02B0BDEC048B04B0B9
:10214000BDE8704000F09BB9ACF14054A4F17F644D
:102150001C430BD0022404EAAC7444EAD274054355
:102160009FED578B9FED582B07D015E09DED060B8B
:1021700051EC100B00F0A0F942E0002C11BF012C33
:102180009DED060B02B0BDEC048B04BF04B070BD26
:10219000022C38D0032C3BD00B439FED4D1B9FED01
:1021A0004E0B0AD0B14218D1B04209D121F0804182
:1021B00020F08040099107900FE0002A15DA10E026
:1021C000474B7B44002C08BF93ED000B0DD0012C36
:1021D00010D0022C17D0032C1AD0B0421DD1002AE7
:1021E00003DAB0EE410AF0EE610A02B0BDEC048BF6
:1021F00004B070BD93ED000B51EC100B00F070F9C2
:1022000041EC100BF1E7B0EE480AF0EE680AECE79B
:10221000B0EE420AF0EE620AE7E7401A00159FEDC1
:10222000329B3C28C8BF8DED000B17DCBCF1000FC2
:10223000BCBF10F13C0F8DED009B0FDB9DED080B3B
:1022400053EC102B9DED060B51EC100B00F03AFAFD
:1022500000F03AF900F030F9CDE90001B4B1012CF9
:1022600010D0022C9FED220B53EC102B9DED000B98
:1022700051EC100B19D000F093FD53EC182B00F02B
:102280008FFDBDE7019880F0004001909DED000BAF
:1022900053EC192B51EC100B00F070FB04BF022023
:1022A000FEF7A5F89DED000B9FE700F079FD53ECDC
:1022B000182B00F09DFCA3E70000F07F0000000059
:1022C000182D4454FB210940182D4454FB2109C00A
:1022D000182D4454FB21F9BF182D4454FB21F93F1C
:1022E0005A0F000000000000000000000000000085
:1022F000075C143326A6A13C00B52DED048BB0EE8F
:10230000409AF0EE609A83B051EC190B00F07CFC1F
:1023100041EC180B18EE100A18EE901A8DED008B98
:10232000002818BF0120084320F00040C0F17F6062
:1023300000F1E040C00F14D019EE101A19EE900A07
:102340008DED009B002918BF0121084320F00040BB
:10235000C0F17F6000F1E040C00F04BF0120FEF734
:1023600046F8B0EE480A03B0F0EE680ABDEC048B04
:1023700000BD70B504462DED028B4D1E00EBC5006F
:10238000B0EE408AF0EE608A90ED000B35F006006A
:1023900017D053EC182B51EC100B00F02BFB41EC39
:1023A000100B6D1E04EBC50090ED001B51EC100BE3
:1023B00053EC112B00F0D2F841EC100B35F0060075
:1023C000E7D1022D36D0042D1CD0062D1CBFBDEC4C
:1023D000028B70BD53EC182B51EC100B00F00AFB74
:1023E00094ED0A1B53EC112B00F0B8F853EC182BAA
:1023F00000F000FB94ED081B53EC112B00F0AEF83D
:1024000041EC100B53EC182B51EC100B00F0F2FACE
:1024100094ED061B53EC112B00F0A0F853EC182B95
:1024200000F0E8FA94ED040B53EC102B00F096F852
:1024300041EC100B53EC182B51EC100B00F0DAFAB6
:1024400094ED021B53EC112B00F088F853EC182B81
:1024500000F0D0FA94ED001B53EC112B00F07EF845
:10246000BDEC028B41EC100B70BD10B553EC102B82
:1024700051EC100B00F072F841EC100B10BD10B5D0
:1024800053EC112B51EC100B00F068F841EC100BE1
:1024900010BD0000000000009FED050B10B553ECCF
:1024A000102B51EC100B00F0A5FA41EC100B10BDF5
:1024B000000000000000001010B541EC100BFFF709
:1024C000AFFC51EC100B10BD82B0CDE9000121F042
:1024D000004001909DED000B02B051EC100B7047D5
:1024E00081F00041704780F00040704721F00041CA
:1024F000704720F00040704721F0004201F0004397
:10250000A2F16052B2F5801F28BFD2F17F6C0BD9C7
:102510005FEA001C43EAC20242EB507018BF7047EA
:1025200028BF20F001007047B2F5801FBCBF1846DD
:1025300070474FEA410C1CF5001F02D2084600F01C
:102540009BBD70B500F000FB00000089FFF7F6BFEF
:102550004FF00040A0F580007047000010B591EAF0
:10256000030F48BF83F0004300F12284841A71EB0B
:10257000030C05D2121943EB0C03001B61EB0C0199
:102580004FEA1154A4EB135CDFF81CE11EEA430F81
:1025900018BF9EEA445F00F0748021EA045123EAE8
:1025A0000E0343F48013DCF1200E32D322FA0CFE2A
:1025B00010EB0E0023FA0CFE41EB0E01CCF1200EC5
:1025C00003FA0EFE10EB0E00CCF1200E51F10001CB
:1025D000B1F5801F32D201EB045112FA0EF2BDE8C0
:1025E000104058BF7047401C38BF5FEA420218BF16
:1025F0007047002814BF20F0010041F100014FEAAC
:10260000410313F5001F38BF7047A1F1C04100F02E
:10261000E9BA012A43EB0302ACF1200CDCF11F0EF6
:1026200032BF4FF0000E23FA0CF310EB030041EB26
:102630000451B4EB115FD0D0A1EB045101F580112E
:10264000490801EB04515FEA30000ED350F100005D
:1026500038BF12FA0EFE08D1BDE81040C9E7401C91
:1026600038BF5FEA4202CAD1C3E7BDE810404FEA73
:10267000410313F5001F38BF7047A1F1C04100F0BE
:10268000B1BA9EEA445F08D011EA5E0FBDE810407F
:1026900004BF01F0004100207047BDE8104070B554
:1026A00000F052FA64FBBE3E0000E0FF491058BF44
:1026B000C1F140415B1058BFC3F140438B42EFF37F
:1026C000008070472DE9C04130B4DFF8A8C23CEA71
:1026D000111418BF3CEA131400F0F0801CEA111426
:1026E00081EA030544EAD57418BF1CEA131500F00B
:1026F000CB80A4EB050404F17F7404F500344FF0A3
:10270000004545EAC12145EAC32341EA505143EA65
:1027100052534FEAC0204FEAC222994208BF90426A
:1027200000F0A0804FEA13650FF24816765D4FEA7D
:10273000134506FB05F7C7F1807706FB07F74FEA5D
:10274000D737A7FB03687642A7FB06CEC8F58038CB
:1027500038BFA8F1010807FB08E6A6FB028C4FF082
:10276000000EE6FB03CED8F100086FEA0C0C5CF11A
:10277000000C6FEA0E0E4EF1004EA6FB0C584FF007
:102780000007E6FB0E87A1FB08C6A0FB07CE16EBF1
:102790000E064FF0000545F10005E1FB076515F158
:1027A000E04E7EBFA4F580345FEA46066D4116F127
:1027B000800745F100054FEA172747EA05674FEA0A
:1027C00015254FEA0666A6F1DE46B6F1805F20D9F0
:1027D000384605EBC47124F0010C01EB0C11BCF17F
:1027E000FE6F02D8F0BCBDE8008124425CBF01F559
:1027F000801E9EEAC47F02D4F0BCBDE80081244262
:1028000000F13980A1F1C041F0BCBDE8004100F009
:10281000E9B94FEAD02040EA41504FEAD1214FEACE
:10282000D22242EA43524FEAD323A7FB028607FB98
:10283000036605FB02661EEA0E0F58BFA6EB0056A4
:10284000B6EB00564FEA520E4EEAC37E18EB0E0E60
:1028500056EB530EBCD518EB02085E417F1C55F1B8
:102860000005B5E74FF480154FF000074FF0000664
:102870004FF00008ACE701F1C04101F000414FF01A
:102880000000F0BCBDE800810CEA131511EA0C1F32
:1028900000D00CE013EA0C1F00F025804FF0000080
:1028A00081EA030101F00041F0BCBDE80081F0BC09
:1028B000BDE8004181EA030100F094B9F0BCBDE835
:1028C000004170B500F040F9097EFC3E00F007B809
:1028D0004FF0000081EA030101F00041704781EAF6
:1028E000030100F07FB9F0BCBDE8004122494FF080
:1028F00000007047FFFDFBF9F7F5F4F2F0EEEDEBA9
:10290000E9E8E6E4E3E1E0DEDDDBDAD8D7D5D4D3ED
:10291000D1D0CFCDCCCBCAC8C7C6C5C4C2C1C0BF39
:10292000BEBDBCBBBAB9B8B7B6B5B4B3B2B1B0AF3F
:10293000AEADACABAAA9A8A8A7A6A5A4A3A3A2A123
:10294000A09F9F9E9D9C9C9B9A99999897979695DE
:1029500095949393929191908F8F8E8E8D8C8C8B7A
:102960008B8A898988888787868585848483838202
:10297000828181800000FF070000F87F51EA030C8C
:1029800017D41CF5801F58BFBCF5801F00F10680CE
:10299000994218BF704708BF9042704707D711F59A
:1029A000801F58BF13F5801F19D499427047894280
:1029B00070471CF5801F08D5BCF5801FF7D58B42EA
:1029C00018BF704708BF824270474FF4001C1CEBD1
:1029D000410F38BF1CEB430F01D28B42704770B5DB
:1029E00000F0B2F8922449004FF000514FF08053AC
:1029F000FFF75CBE70B5DFF848C11CEA111E1EBFB0
:102A00001CEA13159EEA0C0F95EA0C0F00F06F807C
:102A100081EA03044EEAD47EAE4421EA4C1123EA53
:102A20004C1341F4801143F48013AEF17F7EA1FB7F
:102A3000024CA0FB0365361955EB0C05A1FB034CBA
:102A40004CF10003A0FB021C16EB0C06654153F190
:102A50000003094218BF46F0010613F4007F0BD1B2
:102A60004FEA03314FEA053041EA155140EA16506A
:102A700034036FF003020AE04FEAC3214FEAC52096
:102A800041EA555140EA5650F4026FF0020202EB5F
:102A90002E4201EB025585EACE710AD05FEA440C62
:102AA00018BF24F0004450F1000041F1000120EA79
:102AB000D47040F2FE7C624500D270BDA84214BFC3
:102AC0004FF080444FF04044002E08BF0024BEF178
:102AD000806FA8BFA1F1C041BDE8704080F2828044
:102AE00001F1C04101F000414FF0000070470CEAD5
:102AF00013159EEA0C0F18BF95EA0C0F06D081EA59
:102B0000030E4FF000000EF0004170BD00F01CF805
:102B10008900013E00F007B800F009B84FEA430C05
:102B20005FEA5C5C08D081EA030100F05BB84FEA21
:102B3000410C5FEA5C5CF6D102494FF0000070473F
:102B40000000FF070000F87F0EF1020E2EF0030ECA
:102B50005EF8046B364205D4012A43EB030515F5F4
:102B6000001F12D8012841EB010C1CF5001F0CD8E6
:102B70000ED14FEAD17C0CEB4C0C0CF1020C15F58C
:102B8000001F08BF4CEBD37C04E04FF0080C01E0C1
:102B90004FEAD37C0CEB4C0526FA05F606F0070647
:102BA000B6F1040C06D20EEB860CBDE870404CF07A
:102BB000010C6047DFE80CF0090B02024FF0004106
:102BC000A1F500214FF0000070BD19461046012804
:102BD00051EB010418BFD4F5001484BF002001F0AC
:102BE000004170BD0808A0F500114FEA310170479F
:102BF00010B591EA030F81F000413FF5B7AC83F0C7
:102C0000004300F0D5B800002DE9F04101F5801C2B
:102C1000BCF5001FC0F2A9804FEA115C21EA0C51FB
:102C200041F480110CF1FD0C5FEA5C0C0CF5C07CEA
:102C300001D340004941890241EA905187022EA404
:102C40008E0EA45D0A0C04FB04F602FB06F6C6F128
:102C50004046A4FB0662F60D46EA422606FB06F451
:102C6000A4FB01235242C3F1404338BF5B1EA6FBC5
:102C700002420024E6FB0324D20B42EA4446A6FBB0
:102C80000623A1FB02E2A3FB07E4E3FB61426442EB
:102C9000C2F1404E38BFAEF1010EA6FB04234FF047
:102CA0000002E6FB0E32A2FB03463400E2FB626444
:102CB000A1FB06E6A4FB07E8E4FB61687642C8F1E5
:102CC000405838BFA8F10108A2FB06E4A3FB08E5C1
:102CD000E2FB6854A1FB05E6A7FB04E8E1FB648680
:102CE00018F1200556F10006A80940EA8660B109EE
:102CF000A8F11B0808F03F08B8F10A0F1CD901EB36
:102D00000C51BDE8F08100BFFCF5EEE8E2DDD8D360
:102D1000CFCBC7C3C0BDB9B6B4B1AEACA9A7A5A34C
:102D2000A19F9D9B9A9896959392908F8D8C8B895D
:102D30008887868584838281A0FB006800FB01F27E
:102D400008EB4208B8EB872807D5341858EB010484
:102D5000D5D5401C51F10001D1E7341A78EB0104BC
:102D6000CDD4401E71F10001C9E75FEA4C0C5FEA67
:102D70009C5C0DD105D301F000414FF00000BDE88F
:102D8000F081BDE8F04170B5FFF7DEFE6DDBFFBE00
:102D9000BDE8F04101494FF0000070470000F87FA6
:102DA00010B591EA030F48BF83F000433FF5DEAB57
:102DB000841A71EB030C07D28CF0004C121943EB10
:102DC0000C03001B61EB0C014FEA1154A4EB135CE4
:102DD000DFF8A4E11EEA430F18BF9EEA445F00F04B
:102DE000B48021EA045123EA6E035242C3EB6E031E
:102DF00038BF5B1EDCF1200E25D322FA0CFE10EB4F
:102E00000E0043FA0CFE41EB0E01CCF1200E03FA4A
:102E10000EFE10EB0E00CCF1200E51F1000129D472
:102E200001EB045112FA0EF2BDE8104058BF704792
:102E3000401C1CBFB2F1004F704700280CBF491C5A
:102E400020F00100704712EB020E43EB030218BFA3
:102E50004FF0010E4EEA4202ACF1200CDCF11E0EE6
:102E600056D943FA0CFE10EB0E00CCF11E0E51F1B8
:102E7000FF31D5D50EF1010E12FA0EFE404141EBA5
:102E8000010101EB445C5FEA5C5C10D901EB045189
:102E900010EBDE7038BFBEF1004FBDE8104018BF28
:102EA000704700280CBF491C20F00100704734D245
:102EB0004FEAD42C24F4006411F500111BD0B1FAB0
:102EC00081F20B3AA41AA41ED2F12003914030FAE9
:102ED00003F31943904001EBCC7101EB0451002C3A
:102EE000BDE81040A8BF704701F1C04101F00041AA
:102EF0004FF000007047B0FA80F310FA03F102D1EE
:102F0000BDE810407047E41A173C4805C90AE2E7DB
:102F100001EB0451BDE81040704749104FEA300002
:102F200001EB0451BDE8104002E04FF00001704792
:102F30004A0008BF0042F8D0B2F5001F28BF704712
:102F400001F000414FF0000070479EEA445F07D057
:102F500011EA5E0FBDE8104004BF00210020704759
:102F6000BDE8104070B5FFF7EFFD00BF40DFF63E53
:102F7000104683F0004170470000E0FF43004FEA35
:102F8000D30C4FEA3C0C43401FBF40070CF160518B
:102F900013F0FE4F70471CF0006F03D10CF000419E
:102FA000002070470CF0004343EA507040EACC0028
:102FB00010B500F00EF800BF000000924FEA0001CB
:102FC000FFF710BE4FF00041A1F500214FF00000C7
:102FD00070470EF1020E2EF0030E5EF8044B2442F1
:102FE00004D44FEA4102B2F17F4F11D84FEA4003B7
:102FF000B3F17F4F0CD80ED14FEAD07C0CEB4C0CC8
:103000000CF1020CB2F17F4F08BF4CEBD17C04E015
:103010004FF0080C01E04FEAD17C0CEB4C0324FA92
:1030200003F404F00704B4F1040C06D20EEB840C94
:10303000BDE810404CF0010C6047DFE80CF00708D9
:1030400002024FF00040A0F5800010BD084642008B
:1030500018BFD2F1807288BF00F0004010BDF1EEC1
:10306000100A4FF6FF71C0F2C03120EA010040F0B3
:103070004070E1EE100A7047FF2141EAD050C005D0
:1030800070470000000000004FBB610567ACDD3FEA
:10309000182D4454FB21E93F9BF681D20B73EF3F7F
:1030A000182D4454FB21F93FE2652F227F2B7A3CF7
:1030B000075C143326A6813CBDCBF07A8807703CB0
:1030C000075C143326A6913CC4EB98999999C9BF23
:1030D000711623FEC671BCBF6D9A74AFF2B0B3BF58
:1030E0009AFDDE522DDEADBF2F6C6A2C44B4A2BF18
:1030F0000D5555555555D53FFF8300922449C23F84
:103100006E204CC5CD45B73F513DD0A0660DB13FB7
:10311000EB0D76244B7BA93F11DA22E33AAD903FC9
:10312000000000000000000000000000000000009F
:10313000010203040607080900000000010203045D
:10314000603100080000002010000000F8010008B5
:103150007031000810000020E80600001802000886
:1031600001000000100000000024F4000000000036
:040000050800019559
:00000001FF
